{
	"RegisterAccess.sol": {
		"RegisterAccess": {
			"abi": [
				{
					"inputs": [],
					"stateMutability": "nonpayable",
					"type": "constructor"
				},
				{
					"anonymous": false,
					"inputs": [
						{
							"indexed": false,
							"internalType": "string",
							"name": "oldInfo",
							"type": "string"
						},
						{
							"indexed": false,
							"internalType": "string",
							"name": "newInfo",
							"type": "string"
						}
					],
					"name": "InfoChange",
					"type": "event"
				},
				{
					"inputs": [
						{
							"internalType": "string",
							"name": "_info",
							"type": "string"
						}
					],
					"name": "addInfo",
					"outputs": [
						{
							"internalType": "uint256",
							"name": "index",
							"type": "uint256"
						}
					],
					"stateMutability": "nonpayable",
					"type": "function"
				},
				{
					"inputs": [
						{
							"internalType": "address",
							"name": "_member",
							"type": "address"
						}
					],
					"name": "addMember",
					"outputs": [],
					"stateMutability": "nonpayable",
					"type": "function"
				},
				{
					"inputs": [
						{
							"internalType": "address",
							"name": "",
							"type": "address"
						}
					],
					"name": "allowlist",
					"outputs": [
						{
							"internalType": "bool",
							"name": "",
							"type": "bool"
						}
					],
					"stateMutability": "view",
					"type": "function"
				},
				{
					"inputs": [
						{
							"internalType": "address",
							"name": "_member",
							"type": "address"
						}
					],
					"name": "delMember",
					"outputs": [],
					"stateMutability": "nonpayable",
					"type": "function"
				},
				{
					"inputs": [
						{
							"internalType": "uint256",
							"name": "index",
							"type": "uint256"
						}
					],
					"name": "getInfo",
					"outputs": [
						{
							"internalType": "string",
							"name": "",
							"type": "string"
						}
					],
					"stateMutability": "view",
					"type": "function"
				},
				{
					"inputs": [],
					"name": "listInfo",
					"outputs": [
						{
							"internalType": "string[]",
							"name": "",
							"type": "string[]"
						}
					],
					"stateMutability": "view",
					"type": "function"
				},
				{
					"inputs": [],
					"name": "owner",
					"outputs": [
						{
							"internalType": "address",
							"name": "",
							"type": "address"
						}
					],
					"stateMutability": "view",
					"type": "function"
				},
				{
					"inputs": [
						{
							"internalType": "uint256",
							"name": "index",
							"type": "uint256"
						},
						{
							"internalType": "string",
							"name": "_info",
							"type": "string"
						}
					],
					"name": "setInfo",
					"outputs": [],
					"stateMutability": "nonpayable",
					"type": "function"
				}
			],
			"devdoc": {
				"kind": "dev",
				"methods": {},
				"version": 1
			},
			"evm": {
				"assembly": "    /* \"RegisterAccess.sol\":60:2506  contract RegisterAccess {... */\n  mstore(0x40, 0x80)\n    /* \"RegisterAccess.sol\":279:555  constructor() { /// Executado ao criar o contrato... */\n  callvalue\n  dup1\n  iszero\n  tag_1\n  jumpi\n  revert(0x00, 0x00)\ntag_1:\n  pop\n    /* \"RegisterAccess.sol\":346:356  msg.sender */\n  caller\n    /* \"RegisterAccess.sol\":338:343  owner */\n  0x01\n  0x00\n    /* \"RegisterAccess.sol\":338:356  owner = msg.sender */\n  0x0100\n  exp\n  dup2\n  sload\n  dup2\n  0xffffffffffffffffffffffffffffffffffffffff\n  mul\n  not\n  and\n  swap1\n  dup4\n  0xffffffffffffffffffffffffffffffffffffffff\n  and\n  mul\n  or\n  swap1\n  sstore\n  pop\n    /* \"RegisterAccess.sol\":487:491  true */\n  0x01\n    /* \"RegisterAccess.sol\":463:472  allowlist */\n  0x02\n    /* \"RegisterAccess.sol\":463:484  allowlist[msg.sender] */\n  0x00\n    /* \"RegisterAccess.sol\":473:483  msg.sender */\n  caller\n    /* \"RegisterAccess.sol\":463:484  allowlist[msg.sender] */\n  0xffffffffffffffffffffffffffffffffffffffff\n  and\n  0xffffffffffffffffffffffffffffffffffffffff\n  and\n  dup2\n  mstore\n  0x20\n  add\n  swap1\n  dup2\n  mstore\n  0x20\n  add\n  0x00\n  keccak256\n  0x00\n    /* \"RegisterAccess.sol\":463:491  allowlist[msg.sender] = true */\n  0x0100\n  exp\n  dup2\n  sload\n  dup2\n  0xff\n  mul\n  not\n  and\n  swap1\n  dup4\n  iszero\n  iszero\n  mul\n  or\n  swap1\n  sstore\n  pop\n    /* \"RegisterAccess.sol\":60:2506  contract RegisterAccess {... */\n  dataSize(sub_0)\n  dup1\n  dataOffset(sub_0)\n  0x00\n  codecopy\n  0x00\n  return\nstop\n\nsub_0: assembly {\n        /* \"RegisterAccess.sol\":60:2506  contract RegisterAccess {... */\n      mstore(0x40, 0x80)\n      callvalue\n      dup1\n      iszero\n      tag_1\n      jumpi\n      revert(0x00, 0x00)\n    tag_1:\n      pop\n      jumpi(tag_2, lt(calldatasize, 0x04))\n      shr(0xe0, calldataload(0x00))\n      dup1\n      0xa7cd52cb\n      gt\n      tag_11\n      jumpi\n      dup1\n      0xa7cd52cb\n      eq\n      tag_7\n      jumpi\n      dup1\n      0xb6820002\n      eq\n      tag_8\n      jumpi\n      dup1\n      0xca6d56dc\n      eq\n      tag_9\n      jumpi\n      dup1\n      0xd03d5849\n      eq\n      tag_10\n      jumpi\n      jump(tag_2)\n    tag_11:\n      dup1\n      0x0bf803e4\n      eq\n      tag_3\n      jumpi\n      dup1\n      0x1a3cd59a\n      eq\n      tag_4\n      jumpi\n      dup1\n      0x1f81595d\n      eq\n      tag_5\n      jumpi\n      dup1\n      0x8da5cb5b\n      eq\n      tag_6\n      jumpi\n    tag_2:\n      revert(0x00, 0x00)\n        /* \"RegisterAccess.sol\":1674:1934  function addInfo(string memory _info) public onlyAllowlist returns (uint index) { /// Recebe os dados ... */\n    tag_3:\n      tag_12\n      0x04\n      dup1\n      calldatasize\n      sub\n      dup2\n      add\n      swap1\n      tag_13\n      swap2\n      swap1\n      tag_14\n      jump\t// in\n    tag_13:\n      tag_15\n      jump\t// in\n    tag_12:\n      mload(0x40)\n      tag_16\n      swap2\n      swap1\n      tag_17\n      jump\t// in\n    tag_16:\n      mload(0x40)\n      dup1\n      swap2\n      sub\n      swap1\n      return\n        /* \"RegisterAccess.sol\":1177:1353  function getInfo(uint index) public view returns (string memory) { /// Recebe o valor do índice ... */\n    tag_4:\n      tag_18\n      0x04\n      dup1\n      calldatasize\n      sub\n      dup2\n      add\n      swap1\n      tag_19\n      swap2\n      swap1\n      tag_20\n      jump\t// in\n    tag_19:\n      tag_21\n      jump\t// in\n    tag_18:\n      mload(0x40)\n      tag_22\n      swap2\n      swap1\n      tag_23\n      jump\t// in\n    tag_22:\n      mload(0x40)\n      dup1\n      swap2\n      sub\n      swap1\n      return\n        /* \"RegisterAccess.sol\":2288:2503  function delMember (address _member) public onlyOwner {/// Recebe o endereço ... */\n    tag_5:\n      tag_24\n      0x04\n      dup1\n      calldatasize\n      sub\n      dup2\n      add\n      swap1\n      tag_25\n      swap2\n      swap1\n      tag_26\n      jump\t// in\n    tag_25:\n      tag_27\n      jump\t// in\n    tag_24:\n      stop\n        /* \"RegisterAccess.sol\":120:140  address public owner */\n    tag_6:\n      tag_28\n      tag_29\n      jump\t// in\n    tag_28:\n      mload(0x40)\n      tag_30\n      swap2\n      swap1\n      tag_31\n      jump\t// in\n    tag_30:\n      mload(0x40)\n      dup1\n      swap2\n      sub\n      swap1\n      return\n        /* \"RegisterAccess.sol\":147:189  mapping (address => bool) public allowlist */\n    tag_7:\n      tag_32\n      0x04\n      dup1\n      calldatasize\n      sub\n      dup2\n      add\n      swap1\n      tag_33\n      swap2\n      swap1\n      tag_26\n      jump\t// in\n    tag_33:\n      tag_34\n      jump\t// in\n    tag_32:\n      mload(0x40)\n      tag_35\n      swap2\n      swap1\n      tag_36\n      jump\t// in\n    tag_35:\n      mload(0x40)\n      dup1\n      swap2\n      sub\n      swap1\n      return\n        /* \"RegisterAccess.sol\":1361:1666  function setInfo(uint index, string memory _info) public onlyAllowlist { /// Recebe o índice e os novos dados ... */\n    tag_8:\n      tag_37\n      0x04\n      dup1\n      calldatasize\n      sub\n      dup2\n      add\n      swap1\n      tag_38\n      swap2\n      swap1\n      tag_39\n      jump\t// in\n    tag_38:\n      tag_40\n      jump\t// in\n    tag_37:\n      stop\n        /* \"RegisterAccess.sol\":2080:2280  function addMember (address _member) public onlyOwner { /// Recebe o endereço ... */\n    tag_9:\n      tag_41\n      0x04\n      dup1\n      calldatasize\n      sub\n      dup2\n      add\n      swap1\n      tag_42\n      swap2\n      swap1\n      tag_26\n      jump\t// in\n    tag_42:\n      tag_43\n      jump\t// in\n    tag_41:\n      stop\n        /* \"RegisterAccess.sol\":1942:2072  function listInfo() public view returns (string[] memory) { /// Exibe todos as informações da lista... */\n    tag_10:\n      tag_44\n      tag_45\n      jump\t// in\n    tag_44:\n      mload(0x40)\n      tag_46\n      swap2\n      swap1\n      tag_47\n      jump\t// in\n    tag_46:\n      mload(0x40)\n      dup1\n      swap2\n      sub\n      swap1\n      return\n        /* \"RegisterAccess.sol\":1674:1934  function addInfo(string memory _info) public onlyAllowlist returns (uint index) { /// Recebe os dados ... */\n    tag_15:\n        /* \"RegisterAccess.sol\":1742:1752  uint index */\n      0x00\n        /* \"RegisterAccess.sol\":1064:1068  true */\n      0x01\n        /* \"RegisterAccess.sol\":1039:1068  allowlist[msg.sender] == true */\n      iszero\n      iszero\n        /* \"RegisterAccess.sol\":1039:1048  allowlist */\n      0x02\n        /* \"RegisterAccess.sol\":1039:1060  allowlist[msg.sender] */\n      0x00\n        /* \"RegisterAccess.sol\":1049:1059  msg.sender */\n      caller\n        /* \"RegisterAccess.sol\":1039:1060  allowlist[msg.sender] */\n      0xffffffffffffffffffffffffffffffffffffffff\n      and\n      0xffffffffffffffffffffffffffffffffffffffff\n      and\n      dup2\n      mstore\n      0x20\n      add\n      swap1\n      dup2\n      mstore\n      0x20\n      add\n      0x00\n      keccak256\n      0x00\n      swap1\n      sload\n      swap1\n      0x0100\n      exp\n      swap1\n      div\n      0xff\n      and\n        /* \"RegisterAccess.sol\":1039:1068  allowlist[msg.sender] == true */\n      iszero\n      iszero\n      eq\n        /* \"RegisterAccess.sol\":1031:1088  require(allowlist[msg.sender] == true, \"Only allowlist.\") */\n      tag_49\n      jumpi\n      mload(0x40)\n      0x08c379a000000000000000000000000000000000000000000000000000000000\n      dup2\n      mstore\n      0x04\n      add\n      tag_50\n      swap1\n      tag_51\n      jump\t// in\n    tag_50:\n      mload(0x40)\n      dup1\n      swap2\n      sub\n      swap1\n      revert\n    tag_49:\n        /* \"RegisterAccess.sol\":1786:1790  info */\n      0x00\n        /* \"RegisterAccess.sol\":1796:1801  _info */\n      dup3\n        /* \"RegisterAccess.sol\":1786:1802  info.push(_info) */\n      swap1\n      dup1\n      0x01\n      dup2\n      sload\n      add\n      dup1\n      dup3\n      sstore\n      dup1\n      swap2\n      pop\n      pop\n      0x01\n      swap1\n      sub\n      swap1\n      0x00\n      mstore\n      keccak256(0x00, 0x20)\n      add\n      0x00\n      swap1\n      swap2\n      swap1\n      swap2\n      swap1\n      swap2\n      pop\n      swap1\n      dup2\n      tag_54\n      swap2\n      swap1\n      tag_55\n      jump\t// in\n    tag_54:\n      pop\n        /* \"RegisterAccess.sol\":1865:1866  1 */\n      0x01\n        /* \"RegisterAccess.sol\":1852:1856  info */\n      0x00\n        /* \"RegisterAccess.sol\":1852:1863  info.length */\n      dup1\n      sload\n      swap1\n      pop\n        /* \"RegisterAccess.sol\":1852:1866  info.length -1 */\n      tag_56\n      swap2\n      swap1\n      tag_57\n      jump\t// in\n    tag_56:\n        /* \"RegisterAccess.sol\":1844:1866  index = info.length -1 */\n      swap1\n      pop\n        /* \"RegisterAccess.sol\":1674:1934  function addInfo(string memory _info) public onlyAllowlist returns (uint index) { /// Recebe os dados ... */\n      swap2\n      swap1\n      pop\n      jump\t// out\n        /* \"RegisterAccess.sol\":1177:1353  function getInfo(uint index) public view returns (string memory) { /// Recebe o valor do índice ... */\n    tag_21:\n        /* \"RegisterAccess.sol\":1227:1240  string memory */\n      0x60\n        /* \"RegisterAccess.sol\":1291:1295  info */\n      0x00\n        /* \"RegisterAccess.sol\":1296:1301  index */\n      dup3\n        /* \"RegisterAccess.sol\":1291:1302  info[index] */\n      dup2\n      sload\n      dup2\n      lt\n      tag_59\n      jumpi\n      tag_60\n      tag_61\n      jump\t// in\n    tag_60:\n    tag_59:\n      swap1\n      0x00\n      mstore\n      keccak256(0x00, 0x20)\n      add\n        /* \"RegisterAccess.sol\":1284:1302  return info[index] */\n      dup1\n      sload\n      tag_63\n      swap1\n      tag_64\n      jump\t// in\n    tag_63:\n      dup1\n      0x1f\n      add\n      0x20\n      dup1\n      swap2\n      div\n      mul\n      0x20\n      add\n      mload(0x40)\n      swap1\n      dup2\n      add\n      0x40\n      mstore\n      dup1\n      swap3\n      swap2\n      swap1\n      dup2\n      dup2\n      mstore\n      0x20\n      add\n      dup3\n      dup1\n      sload\n      tag_65\n      swap1\n      tag_64\n      jump\t// in\n    tag_65:\n      dup1\n      iszero\n      tag_66\n      jumpi\n      dup1\n      0x1f\n      lt\n      tag_67\n      jumpi\n      0x0100\n      dup1\n      dup4\n      sload\n      div\n      mul\n      dup4\n      mstore\n      swap2\n      0x20\n      add\n      swap2\n      jump(tag_66)\n    tag_67:\n      dup3\n      add\n      swap2\n      swap1\n      0x00\n      mstore\n      keccak256(0x00, 0x20)\n      swap1\n    tag_68:\n      dup2\n      sload\n      dup2\n      mstore\n      swap1\n      0x01\n      add\n      swap1\n      0x20\n      add\n      dup1\n      dup4\n      gt\n      tag_68\n      jumpi\n      dup3\n      swap1\n      sub\n      0x1f\n      and\n      dup3\n      add\n      swap2\n    tag_66:\n      pop\n      pop\n      pop\n      pop\n      pop\n      swap1\n      pop\n        /* \"RegisterAccess.sol\":1177:1353  function getInfo(uint index) public view returns (string memory) { /// Recebe o valor do índice ... */\n      swap2\n      swap1\n      pop\n      jump\t// out\n        /* \"RegisterAccess.sol\":2288:2503  function delMember (address _member) public onlyOwner {/// Recebe o endereço ... */\n    tag_27:\n        /* \"RegisterAccess.sol\":793:798  owner */\n      0x01\n      0x00\n      swap1\n      sload\n      swap1\n      0x0100\n      exp\n      swap1\n      div\n      0xffffffffffffffffffffffffffffffffffffffff\n      and\n        /* \"RegisterAccess.sol\":779:798  msg.sender == owner */\n      0xffffffffffffffffffffffffffffffffffffffff\n      and\n        /* \"RegisterAccess.sol\":779:789  msg.sender */\n      caller\n        /* \"RegisterAccess.sol\":779:798  msg.sender == owner */\n      0xffffffffffffffffffffffffffffffffffffffff\n      and\n      eq\n        /* \"RegisterAccess.sol\":771:814  require(msg.sender == owner, \"Only owner.\") */\n      tag_70\n      jumpi\n      mload(0x40)\n      0x08c379a000000000000000000000000000000000000000000000000000000000\n      dup2\n      mstore\n      0x04\n      add\n      tag_71\n      swap1\n      tag_72\n      jump\t// in\n    tag_71:\n      mload(0x40)\n      dup1\n      swap2\n      sub\n      swap1\n      revert\n    tag_70:\n        /* \"RegisterAccess.sol\":2397:2402  false */\n      0x00\n        /* \"RegisterAccess.sol\":2376:2385  allowlist */\n      0x02\n        /* \"RegisterAccess.sol\":2376:2394  allowlist[_member] */\n      0x00\n        /* \"RegisterAccess.sol\":2386:2393  _member */\n      dup4\n        /* \"RegisterAccess.sol\":2376:2394  allowlist[_member] */\n      0xffffffffffffffffffffffffffffffffffffffff\n      and\n      0xffffffffffffffffffffffffffffffffffffffff\n      and\n      dup2\n      mstore\n      0x20\n      add\n      swap1\n      dup2\n      mstore\n      0x20\n      add\n      0x00\n      keccak256\n      0x00\n        /* \"RegisterAccess.sol\":2376:2402  allowlist[_member] = false */\n      0x0100\n      exp\n      dup2\n      sload\n      dup2\n      0xff\n      mul\n      not\n      and\n      swap1\n      dup4\n      iszero\n      iszero\n      mul\n      or\n      swap1\n      sstore\n      pop\n        /* \"RegisterAccess.sol\":2288:2503  function delMember (address _member) public onlyOwner {/// Recebe o endereço ... */\n      pop\n      jump\t// out\n        /* \"RegisterAccess.sol\":120:140  address public owner */\n    tag_29:\n      0x01\n      0x00\n      swap1\n      sload\n      swap1\n      0x0100\n      exp\n      swap1\n      div\n      0xffffffffffffffffffffffffffffffffffffffff\n      and\n      dup2\n      jump\t// out\n        /* \"RegisterAccess.sol\":147:189  mapping (address => bool) public allowlist */\n    tag_34:\n      mstore(0x20, 0x02)\n      dup1\n      0x00\n      mstore\n      keccak256(0x00, 0x40)\n      0x00\n      swap2\n      pop\n      sload\n      swap1\n      0x0100\n      exp\n      swap1\n      div\n      0xff\n      and\n      dup2\n      jump\t// out\n        /* \"RegisterAccess.sol\":1361:1666  function setInfo(uint index, string memory _info) public onlyAllowlist { /// Recebe o índice e os novos dados ... */\n    tag_40:\n        /* \"RegisterAccess.sol\":1064:1068  true */\n      0x01\n        /* \"RegisterAccess.sol\":1039:1068  allowlist[msg.sender] == true */\n      iszero\n      iszero\n        /* \"RegisterAccess.sol\":1039:1048  allowlist */\n      0x02\n        /* \"RegisterAccess.sol\":1039:1060  allowlist[msg.sender] */\n      0x00\n        /* \"RegisterAccess.sol\":1049:1059  msg.sender */\n      caller\n        /* \"RegisterAccess.sol\":1039:1060  allowlist[msg.sender] */\n      0xffffffffffffffffffffffffffffffffffffffff\n      and\n      0xffffffffffffffffffffffffffffffffffffffff\n      and\n      dup2\n      mstore\n      0x20\n      add\n      swap1\n      dup2\n      mstore\n      0x20\n      add\n      0x00\n      keccak256\n      0x00\n      swap1\n      sload\n      swap1\n      0x0100\n      exp\n      swap1\n      div\n      0xff\n      and\n        /* \"RegisterAccess.sol\":1039:1068  allowlist[msg.sender] == true */\n      iszero\n      iszero\n      eq\n        /* \"RegisterAccess.sol\":1031:1088  require(allowlist[msg.sender] == true, \"Only allowlist.\") */\n      tag_75\n      jumpi\n      mload(0x40)\n      0x08c379a000000000000000000000000000000000000000000000000000000000\n      dup2\n      mstore\n      0x04\n      add\n      tag_76\n      swap1\n      tag_51\n      jump\t// in\n    tag_76:\n      mload(0x40)\n      dup1\n      swap2\n      sub\n      swap1\n      revert\n    tag_75:\n        /* \"RegisterAccess.sol\":1487:1517  InfoChange(info[index], _info) */\n      0x305058d54db6daf26994cd687b168a24cdd9a7201462f1659782c4e429987992\n        /* \"RegisterAccess.sol\":1498:1502  info */\n      0x00\n        /* \"RegisterAccess.sol\":1503:1508  index */\n      dup4\n        /* \"RegisterAccess.sol\":1498:1509  info[index] */\n      dup2\n      sload\n      dup2\n      lt\n      tag_78\n      jumpi\n      tag_79\n      tag_61\n      jump\t// in\n    tag_79:\n    tag_78:\n      swap1\n      0x00\n      mstore\n      keccak256(0x00, 0x20)\n      add\n        /* \"RegisterAccess.sol\":1511:1516  _info */\n      dup3\n        /* \"RegisterAccess.sol\":1487:1517  InfoChange(info[index], _info) */\n      mload(0x40)\n      tag_81\n      swap3\n      swap2\n      swap1\n      tag_82\n      jump\t// in\n    tag_81:\n      mload(0x40)\n      dup1\n      swap2\n      sub\n      swap1\n      log1\n        /* \"RegisterAccess.sol\":1590:1595  _info */\n      dup1\n        /* \"RegisterAccess.sol\":1576:1580  info */\n      0x00\n        /* \"RegisterAccess.sol\":1581:1586  index */\n      dup4\n        /* \"RegisterAccess.sol\":1576:1587  info[index] */\n      dup2\n      sload\n      dup2\n      lt\n      tag_83\n      jumpi\n      tag_84\n      tag_61\n      jump\t// in\n    tag_84:\n    tag_83:\n      swap1\n      0x00\n      mstore\n      keccak256(0x00, 0x20)\n      add\n        /* \"RegisterAccess.sol\":1576:1595  info[index] = _info */\n      swap1\n      dup2\n      tag_86\n      swap2\n      swap1\n      tag_55\n      jump\t// in\n    tag_86:\n      pop\n        /* \"RegisterAccess.sol\":1361:1666  function setInfo(uint index, string memory _info) public onlyAllowlist { /// Recebe o índice e os novos dados ... */\n      pop\n      pop\n      jump\t// out\n        /* \"RegisterAccess.sol\":2080:2280  function addMember (address _member) public onlyOwner { /// Recebe o endereço ... */\n    tag_43:\n        /* \"RegisterAccess.sol\":793:798  owner */\n      0x01\n      0x00\n      swap1\n      sload\n      swap1\n      0x0100\n      exp\n      swap1\n      div\n      0xffffffffffffffffffffffffffffffffffffffff\n      and\n        /* \"RegisterAccess.sol\":779:798  msg.sender == owner */\n      0xffffffffffffffffffffffffffffffffffffffff\n      and\n        /* \"RegisterAccess.sol\":779:789  msg.sender */\n      caller\n        /* \"RegisterAccess.sol\":779:798  msg.sender == owner */\n      0xffffffffffffffffffffffffffffffffffffffff\n      and\n      eq\n        /* \"RegisterAccess.sol\":771:814  require(msg.sender == owner, \"Only owner.\") */\n      tag_88\n      jumpi\n      mload(0x40)\n      0x08c379a000000000000000000000000000000000000000000000000000000000\n      dup2\n      mstore\n      0x04\n      add\n      tag_89\n      swap1\n      tag_72\n      jump\t// in\n    tag_89:\n      mload(0x40)\n      dup1\n      swap2\n      sub\n      swap1\n      revert\n    tag_88:\n        /* \"RegisterAccess.sol\":2190:2194  true */\n      0x01\n        /* \"RegisterAccess.sol\":2169:2178  allowlist */\n      0x02\n        /* \"RegisterAccess.sol\":2169:2187  allowlist[_member] */\n      0x00\n        /* \"RegisterAccess.sol\":2179:2186  _member */\n      dup4\n        /* \"RegisterAccess.sol\":2169:2187  allowlist[_member] */\n      0xffffffffffffffffffffffffffffffffffffffff\n      and\n      0xffffffffffffffffffffffffffffffffffffffff\n      and\n      dup2\n      mstore\n      0x20\n      add\n      swap1\n      dup2\n      mstore\n      0x20\n      add\n      0x00\n      keccak256\n      0x00\n        /* \"RegisterAccess.sol\":2169:2194  allowlist[_member] = true */\n      0x0100\n      exp\n      dup2\n      sload\n      dup2\n      0xff\n      mul\n      not\n      and\n      swap1\n      dup4\n      iszero\n      iszero\n      mul\n      or\n      swap1\n      sstore\n      pop\n        /* \"RegisterAccess.sol\":2080:2280  function addMember (address _member) public onlyOwner { /// Recebe o endereço ... */\n      pop\n      jump\t// out\n        /* \"RegisterAccess.sol\":1942:2072  function listInfo() public view returns (string[] memory) { /// Exibe todos as informações da lista... */\n    tag_45:\n        /* \"RegisterAccess.sol\":1983:1998  string[] memory */\n      0x60\n        /* \"RegisterAccess.sol\":2060:2064  info */\n      0x00\n        /* \"RegisterAccess.sol\":2053:2064  return info */\n      dup1\n      sload\n      dup1\n      0x20\n      mul\n      0x20\n      add\n      mload(0x40)\n      swap1\n      dup2\n      add\n      0x40\n      mstore\n      dup1\n      swap3\n      swap2\n      swap1\n      dup2\n      dup2\n      mstore\n      0x20\n      add\n      0x00\n      swap1\n    tag_92:\n      dup3\n      dup3\n      lt\n      iszero\n      tag_93\n      jumpi\n      dup4\n      dup3\n      swap1\n      0x00\n      mstore\n      keccak256(0x00, 0x20)\n      add\n      dup1\n      sload\n      tag_95\n      swap1\n      tag_64\n      jump\t// in\n    tag_95:\n      dup1\n      0x1f\n      add\n      0x20\n      dup1\n      swap2\n      div\n      mul\n      0x20\n      add\n      mload(0x40)\n      swap1\n      dup2\n      add\n      0x40\n      mstore\n      dup1\n      swap3\n      swap2\n      swap1\n      dup2\n      dup2\n      mstore\n      0x20\n      add\n      dup3\n      dup1\n      sload\n      tag_96\n      swap1\n      tag_64\n      jump\t// in\n    tag_96:\n      dup1\n      iszero\n      tag_97\n      jumpi\n      dup1\n      0x1f\n      lt\n      tag_98\n      jumpi\n      0x0100\n      dup1\n      dup4\n      sload\n      div\n      mul\n      dup4\n      mstore\n      swap2\n      0x20\n      add\n      swap2\n      jump(tag_97)\n    tag_98:\n      dup3\n      add\n      swap2\n      swap1\n      0x00\n      mstore\n      keccak256(0x00, 0x20)\n      swap1\n    tag_99:\n      dup2\n      sload\n      dup2\n      mstore\n      swap1\n      0x01\n      add\n      swap1\n      0x20\n      add\n      dup1\n      dup4\n      gt\n      tag_99\n      jumpi\n      dup3\n      swap1\n      sub\n      0x1f\n      and\n      dup3\n      add\n      swap2\n    tag_97:\n      pop\n      pop\n      pop\n      pop\n      pop\n      dup2\n      mstore\n      0x20\n      add\n      swap1\n      0x01\n      add\n      swap1\n      jump(tag_92)\n    tag_93:\n      pop\n      pop\n      pop\n      pop\n      swap1\n      pop\n        /* \"RegisterAccess.sol\":1942:2072  function listInfo() public view returns (string[] memory) { /// Exibe todos as informações da lista... */\n      swap1\n      jump\t// out\n        /* \"#utility.yul\":7:82   */\n    tag_100:\n        /* \"#utility.yul\":40:46   */\n      0x00\n        /* \"#utility.yul\":73:75   */\n      0x40\n        /* \"#utility.yul\":67:76   */\n      mload\n        /* \"#utility.yul\":57:76   */\n      swap1\n      pop\n        /* \"#utility.yul\":7:82   */\n      swap1\n      jump\t// out\n        /* \"#utility.yul\":88:205   */\n    tag_101:\n        /* \"#utility.yul\":197:198   */\n      0x00\n        /* \"#utility.yul\":194:195   */\n      0x00\n        /* \"#utility.yul\":187:199   */\n      revert\n        /* \"#utility.yul\":211:328   */\n    tag_102:\n        /* \"#utility.yul\":320:321   */\n      0x00\n        /* \"#utility.yul\":317:318   */\n      0x00\n        /* \"#utility.yul\":310:322   */\n      revert\n        /* \"#utility.yul\":334:451   */\n    tag_103:\n        /* \"#utility.yul\":443:444   */\n      0x00\n        /* \"#utility.yul\":440:441   */\n      0x00\n        /* \"#utility.yul\":433:445   */\n      revert\n        /* \"#utility.yul\":457:574   */\n    tag_104:\n        /* \"#utility.yul\":566:567   */\n      0x00\n        /* \"#utility.yul\":563:564   */\n      0x00\n        /* \"#utility.yul\":556:568   */\n      revert\n        /* \"#utility.yul\":580:682   */\n    tag_105:\n        /* \"#utility.yul\":621:627   */\n      0x00\n        /* \"#utility.yul\":672:674   */\n      0x1f\n        /* \"#utility.yul\":668:675   */\n      not\n        /* \"#utility.yul\":663:665   */\n      0x1f\n        /* \"#utility.yul\":656:661   */\n      dup4\n        /* \"#utility.yul\":652:666   */\n      add\n        /* \"#utility.yul\":648:676   */\n      and\n        /* \"#utility.yul\":638:676   */\n      swap1\n      pop\n        /* \"#utility.yul\":580:682   */\n      swap2\n      swap1\n      pop\n      jump\t// out\n        /* \"#utility.yul\":688:868   */\n    tag_106:\n        /* \"#utility.yul\":736:813   */\n      0x4e487b7100000000000000000000000000000000000000000000000000000000\n        /* \"#utility.yul\":733:734   */\n      0x00\n        /* \"#utility.yul\":726:814   */\n      mstore\n        /* \"#utility.yul\":833:837   */\n      0x41\n        /* \"#utility.yul\":830:831   */\n      0x04\n        /* \"#utility.yul\":823:838   */\n      mstore\n        /* \"#utility.yul\":857:861   */\n      0x24\n        /* \"#utility.yul\":854:855   */\n      0x00\n        /* \"#utility.yul\":847:862   */\n      revert\n        /* \"#utility.yul\":874:1155   */\n    tag_107:\n        /* \"#utility.yul\":957:984   */\n      tag_167\n        /* \"#utility.yul\":979:983   */\n      dup3\n        /* \"#utility.yul\":957:984   */\n      tag_105\n      jump\t// in\n    tag_167:\n        /* \"#utility.yul\":949:955   */\n      dup2\n        /* \"#utility.yul\":945:985   */\n      add\n        /* \"#utility.yul\":1087:1093   */\n      dup2\n        /* \"#utility.yul\":1075:1085   */\n      dup2\n        /* \"#utility.yul\":1072:1094   */\n      lt\n        /* \"#utility.yul\":1051:1069   */\n      0xffffffffffffffff\n        /* \"#utility.yul\":1039:1049   */\n      dup3\n        /* \"#utility.yul\":1036:1070   */\n      gt\n        /* \"#utility.yul\":1033:1095   */\n      or\n        /* \"#utility.yul\":1030:1118   */\n      iszero\n      tag_168\n      jumpi\n        /* \"#utility.yul\":1098:1116   */\n      tag_169\n      tag_106\n      jump\t// in\n    tag_169:\n        /* \"#utility.yul\":1030:1118   */\n    tag_168:\n        /* \"#utility.yul\":1138:1148   */\n      dup1\n        /* \"#utility.yul\":1134:1136   */\n      0x40\n        /* \"#utility.yul\":1127:1149   */\n      mstore\n        /* \"#utility.yul\":917:1155   */\n      pop\n        /* \"#utility.yul\":874:1155   */\n      pop\n      pop\n      jump\t// out\n        /* \"#utility.yul\":1161:1290   */\n    tag_108:\n        /* \"#utility.yul\":1195:1201   */\n      0x00\n        /* \"#utility.yul\":1222:1242   */\n      tag_171\n      tag_100\n      jump\t// in\n    tag_171:\n        /* \"#utility.yul\":1212:1242   */\n      swap1\n      pop\n        /* \"#utility.yul\":1251:1284   */\n      tag_172\n        /* \"#utility.yul\":1279:1283   */\n      dup3\n        /* \"#utility.yul\":1271:1277   */\n      dup3\n        /* \"#utility.yul\":1251:1284   */\n      tag_107\n      jump\t// in\n    tag_172:\n        /* \"#utility.yul\":1161:1290   */\n      swap2\n      swap1\n      pop\n      jump\t// out\n        /* \"#utility.yul\":1296:1604   */\n    tag_109:\n        /* \"#utility.yul\":1358:1362   */\n      0x00\n        /* \"#utility.yul\":1448:1466   */\n      0xffffffffffffffff\n        /* \"#utility.yul\":1440:1446   */\n      dup3\n        /* \"#utility.yul\":1437:1467   */\n      gt\n        /* \"#utility.yul\":1434:1490   */\n      iszero\n      tag_174\n      jumpi\n        /* \"#utility.yul\":1470:1488   */\n      tag_175\n      tag_106\n      jump\t// in\n    tag_175:\n        /* \"#utility.yul\":1434:1490   */\n    tag_174:\n        /* \"#utility.yul\":1508:1537   */\n      tag_176\n        /* \"#utility.yul\":1530:1536   */\n      dup3\n        /* \"#utility.yul\":1508:1537   */\n      tag_105\n      jump\t// in\n    tag_176:\n        /* \"#utility.yul\":1500:1537   */\n      swap1\n      pop\n        /* \"#utility.yul\":1592:1596   */\n      0x20\n        /* \"#utility.yul\":1586:1590   */\n      dup2\n        /* \"#utility.yul\":1582:1597   */\n      add\n        /* \"#utility.yul\":1574:1597   */\n      swap1\n      pop\n        /* \"#utility.yul\":1296:1604   */\n      swap2\n      swap1\n      pop\n      jump\t// out\n        /* \"#utility.yul\":1610:1758   */\n    tag_110:\n        /* \"#utility.yul\":1708:1714   */\n      dup3\n        /* \"#utility.yul\":1703:1706   */\n      dup2\n        /* \"#utility.yul\":1698:1701   */\n      dup4\n        /* \"#utility.yul\":1685:1715   */\n      calldatacopy\n        /* \"#utility.yul\":1749:1750   */\n      0x00\n        /* \"#utility.yul\":1740:1746   */\n      dup4\n        /* \"#utility.yul\":1735:1738   */\n      dup4\n        /* \"#utility.yul\":1731:1747   */\n      add\n        /* \"#utility.yul\":1724:1751   */\n      mstore\n        /* \"#utility.yul\":1610:1758   */\n      pop\n      pop\n      pop\n      jump\t// out\n        /* \"#utility.yul\":1764:2189   */\n    tag_111:\n        /* \"#utility.yul\":1842:1847   */\n      0x00\n        /* \"#utility.yul\":1867:1933   */\n      tag_179\n        /* \"#utility.yul\":1883:1932   */\n      tag_180\n        /* \"#utility.yul\":1925:1931   */\n      dup5\n        /* \"#utility.yul\":1883:1932   */\n      tag_109\n      jump\t// in\n    tag_180:\n        /* \"#utility.yul\":1867:1933   */\n      tag_108\n      jump\t// in\n    tag_179:\n        /* \"#utility.yul\":1858:1933   */\n      swap1\n      pop\n        /* \"#utility.yul\":1956:1962   */\n      dup3\n        /* \"#utility.yul\":1949:1954   */\n      dup2\n        /* \"#utility.yul\":1942:1963   */\n      mstore\n        /* \"#utility.yul\":1994:1998   */\n      0x20\n        /* \"#utility.yul\":1987:1992   */\n      dup2\n        /* \"#utility.yul\":1983:1999   */\n      add\n        /* \"#utility.yul\":2032:2035   */\n      dup5\n        /* \"#utility.yul\":2023:2029   */\n      dup5\n        /* \"#utility.yul\":2018:2021   */\n      dup5\n        /* \"#utility.yul\":2014:2030   */\n      add\n        /* \"#utility.yul\":2011:2036   */\n      gt\n        /* \"#utility.yul\":2008:2120   */\n      iszero\n      tag_181\n      jumpi\n        /* \"#utility.yul\":2039:2118   */\n      tag_182\n      tag_104\n      jump\t// in\n    tag_182:\n        /* \"#utility.yul\":2008:2120   */\n    tag_181:\n        /* \"#utility.yul\":2129:2183   */\n      tag_183\n        /* \"#utility.yul\":2176:2182   */\n      dup5\n        /* \"#utility.yul\":2171:2174   */\n      dup3\n        /* \"#utility.yul\":2166:2169   */\n      dup6\n        /* \"#utility.yul\":2129:2183   */\n      tag_110\n      jump\t// in\n    tag_183:\n        /* \"#utility.yul\":1848:2189   */\n      pop\n        /* \"#utility.yul\":1764:2189   */\n      swap4\n      swap3\n      pop\n      pop\n      pop\n      jump\t// out\n        /* \"#utility.yul\":2209:2549   */\n    tag_112:\n        /* \"#utility.yul\":2265:2270   */\n      0x00\n        /* \"#utility.yul\":2314:2317   */\n      dup3\n        /* \"#utility.yul\":2307:2311   */\n      0x1f\n        /* \"#utility.yul\":2299:2305   */\n      dup4\n        /* \"#utility.yul\":2295:2312   */\n      add\n        /* \"#utility.yul\":2291:2318   */\n      slt\n        /* \"#utility.yul\":2281:2403   */\n      tag_185\n      jumpi\n        /* \"#utility.yul\":2322:2401   */\n      tag_186\n      tag_103\n      jump\t// in\n    tag_186:\n        /* \"#utility.yul\":2281:2403   */\n    tag_185:\n        /* \"#utility.yul\":2439:2445   */\n      dup2\n        /* \"#utility.yul\":2426:2446   */\n      calldataload\n        /* \"#utility.yul\":2464:2543   */\n      tag_187\n        /* \"#utility.yul\":2539:2542   */\n      dup5\n        /* \"#utility.yul\":2531:2537   */\n      dup3\n        /* \"#utility.yul\":2524:2528   */\n      0x20\n        /* \"#utility.yul\":2516:2522   */\n      dup7\n        /* \"#utility.yul\":2512:2529   */\n      add\n        /* \"#utility.yul\":2464:2543   */\n      tag_111\n      jump\t// in\n    tag_187:\n        /* \"#utility.yul\":2455:2543   */\n      swap2\n      pop\n        /* \"#utility.yul\":2271:2549   */\n      pop\n        /* \"#utility.yul\":2209:2549   */\n      swap3\n      swap2\n      pop\n      pop\n      jump\t// out\n        /* \"#utility.yul\":2555:3064   */\n    tag_14:\n        /* \"#utility.yul\":2624:2630   */\n      0x00\n        /* \"#utility.yul\":2673:2675   */\n      0x20\n        /* \"#utility.yul\":2661:2670   */\n      dup3\n        /* \"#utility.yul\":2652:2659   */\n      dup5\n        /* \"#utility.yul\":2648:2671   */\n      sub\n        /* \"#utility.yul\":2644:2676   */\n      slt\n        /* \"#utility.yul\":2641:2760   */\n      iszero\n      tag_189\n      jumpi\n        /* \"#utility.yul\":2679:2758   */\n      tag_190\n      tag_101\n      jump\t// in\n    tag_190:\n        /* \"#utility.yul\":2641:2760   */\n    tag_189:\n        /* \"#utility.yul\":2827:2828   */\n      0x00\n        /* \"#utility.yul\":2816:2825   */\n      dup3\n        /* \"#utility.yul\":2812:2829   */\n      add\n        /* \"#utility.yul\":2799:2830   */\n      calldataload\n        /* \"#utility.yul\":2857:2875   */\n      0xffffffffffffffff\n        /* \"#utility.yul\":2849:2855   */\n      dup2\n        /* \"#utility.yul\":2846:2876   */\n      gt\n        /* \"#utility.yul\":2843:2960   */\n      iszero\n      tag_191\n      jumpi\n        /* \"#utility.yul\":2879:2958   */\n      tag_192\n      tag_102\n      jump\t// in\n    tag_192:\n        /* \"#utility.yul\":2843:2960   */\n    tag_191:\n        /* \"#utility.yul\":2984:3047   */\n      tag_193\n        /* \"#utility.yul\":3039:3046   */\n      dup5\n        /* \"#utility.yul\":3030:3036   */\n      dup3\n        /* \"#utility.yul\":3019:3028   */\n      dup6\n        /* \"#utility.yul\":3015:3037   */\n      add\n        /* \"#utility.yul\":2984:3047   */\n      tag_112\n      jump\t// in\n    tag_193:\n        /* \"#utility.yul\":2974:3047   */\n      swap2\n      pop\n        /* \"#utility.yul\":2770:3057   */\n      pop\n        /* \"#utility.yul\":2555:3064   */\n      swap3\n      swap2\n      pop\n      pop\n      jump\t// out\n        /* \"#utility.yul\":3070:3147   */\n    tag_113:\n        /* \"#utility.yul\":3107:3114   */\n      0x00\n        /* \"#utility.yul\":3136:3141   */\n      dup2\n        /* \"#utility.yul\":3125:3141   */\n      swap1\n      pop\n        /* \"#utility.yul\":3070:3147   */\n      swap2\n      swap1\n      pop\n      jump\t// out\n        /* \"#utility.yul\":3153:3271   */\n    tag_114:\n        /* \"#utility.yul\":3240:3264   */\n      tag_196\n        /* \"#utility.yul\":3258:3263   */\n      dup2\n        /* \"#utility.yul\":3240:3264   */\n      tag_113\n      jump\t// in\n    tag_196:\n        /* \"#utility.yul\":3235:3238   */\n      dup3\n        /* \"#utility.yul\":3228:3265   */\n      mstore\n        /* \"#utility.yul\":3153:3271   */\n      pop\n      pop\n      jump\t// out\n        /* \"#utility.yul\":3277:3499   */\n    tag_17:\n        /* \"#utility.yul\":3370:3374   */\n      0x00\n        /* \"#utility.yul\":3408:3410   */\n      0x20\n        /* \"#utility.yul\":3397:3406   */\n      dup3\n        /* \"#utility.yul\":3393:3411   */\n      add\n        /* \"#utility.yul\":3385:3411   */\n      swap1\n      pop\n        /* \"#utility.yul\":3421:3492   */\n      tag_198\n        /* \"#utility.yul\":3489:3490   */\n      0x00\n        /* \"#utility.yul\":3478:3487   */\n      dup4\n        /* \"#utility.yul\":3474:3491   */\n      add\n        /* \"#utility.yul\":3465:3471   */\n      dup5\n        /* \"#utility.yul\":3421:3492   */\n      tag_114\n      jump\t// in\n    tag_198:\n        /* \"#utility.yul\":3277:3499   */\n      swap3\n      swap2\n      pop\n      pop\n      jump\t// out\n        /* \"#utility.yul\":3505:3627   */\n    tag_115:\n        /* \"#utility.yul\":3578:3602   */\n      tag_200\n        /* \"#utility.yul\":3596:3601   */\n      dup2\n        /* \"#utility.yul\":3578:3602   */\n      tag_113\n      jump\t// in\n    tag_200:\n        /* \"#utility.yul\":3571:3576   */\n      dup2\n        /* \"#utility.yul\":3568:3603   */\n      eq\n        /* \"#utility.yul\":3558:3621   */\n      tag_201\n      jumpi\n        /* \"#utility.yul\":3617:3618   */\n      0x00\n        /* \"#utility.yul\":3614:3615   */\n      0x00\n        /* \"#utility.yul\":3607:3619   */\n      revert\n        /* \"#utility.yul\":3558:3621   */\n    tag_201:\n        /* \"#utility.yul\":3505:3627   */\n      pop\n      jump\t// out\n        /* \"#utility.yul\":3633:3772   */\n    tag_116:\n        /* \"#utility.yul\":3679:3684   */\n      0x00\n        /* \"#utility.yul\":3717:3723   */\n      dup2\n        /* \"#utility.yul\":3704:3724   */\n      calldataload\n        /* \"#utility.yul\":3695:3724   */\n      swap1\n      pop\n        /* \"#utility.yul\":3733:3766   */\n      tag_203\n        /* \"#utility.yul\":3760:3765   */\n      dup2\n        /* \"#utility.yul\":3733:3766   */\n      tag_115\n      jump\t// in\n    tag_203:\n        /* \"#utility.yul\":3633:3772   */\n      swap3\n      swap2\n      pop\n      pop\n      jump\t// out\n        /* \"#utility.yul\":3778:4107   */\n    tag_20:\n        /* \"#utility.yul\":3837:3843   */\n      0x00\n        /* \"#utility.yul\":3886:3888   */\n      0x20\n        /* \"#utility.yul\":3874:3883   */\n      dup3\n        /* \"#utility.yul\":3865:3872   */\n      dup5\n        /* \"#utility.yul\":3861:3884   */\n      sub\n        /* \"#utility.yul\":3857:3889   */\n      slt\n        /* \"#utility.yul\":3854:3973   */\n      iszero\n      tag_205\n      jumpi\n        /* \"#utility.yul\":3892:3971   */\n      tag_206\n      tag_101\n      jump\t// in\n    tag_206:\n        /* \"#utility.yul\":3854:3973   */\n    tag_205:\n        /* \"#utility.yul\":4012:4013   */\n      0x00\n        /* \"#utility.yul\":4037:4090   */\n      tag_207\n        /* \"#utility.yul\":4082:4089   */\n      dup5\n        /* \"#utility.yul\":4073:4079   */\n      dup3\n        /* \"#utility.yul\":4062:4071   */\n      dup6\n        /* \"#utility.yul\":4058:4080   */\n      add\n        /* \"#utility.yul\":4037:4090   */\n      tag_116\n      jump\t// in\n    tag_207:\n        /* \"#utility.yul\":4027:4090   */\n      swap2\n      pop\n        /* \"#utility.yul\":3983:4100   */\n      pop\n        /* \"#utility.yul\":3778:4107   */\n      swap3\n      swap2\n      pop\n      pop\n      jump\t// out\n        /* \"#utility.yul\":4113:4212   */\n    tag_117:\n        /* \"#utility.yul\":4165:4171   */\n      0x00\n        /* \"#utility.yul\":4199:4204   */\n      dup2\n        /* \"#utility.yul\":4193:4205   */\n      mload\n        /* \"#utility.yul\":4183:4205   */\n      swap1\n      pop\n        /* \"#utility.yul\":4113:4212   */\n      swap2\n      swap1\n      pop\n      jump\t// out\n        /* \"#utility.yul\":4218:4387   */\n    tag_118:\n        /* \"#utility.yul\":4302:4313   */\n      0x00\n        /* \"#utility.yul\":4336:4342   */\n      dup3\n        /* \"#utility.yul\":4331:4334   */\n      dup3\n        /* \"#utility.yul\":4324:4343   */\n      mstore\n        /* \"#utility.yul\":4376:4380   */\n      0x20\n        /* \"#utility.yul\":4371:4374   */\n      dup3\n        /* \"#utility.yul\":4367:4381   */\n      add\n        /* \"#utility.yul\":4352:4381   */\n      swap1\n      pop\n        /* \"#utility.yul\":4218:4387   */\n      swap3\n      swap2\n      pop\n      pop\n      jump\t// out\n        /* \"#utility.yul\":4393:4532   */\n    tag_119:\n        /* \"#utility.yul\":4482:4488   */\n      dup3\n        /* \"#utility.yul\":4477:4480   */\n      dup2\n        /* \"#utility.yul\":4472:4475   */\n      dup4\n        /* \"#utility.yul\":4466:4489   */\n      mcopy\n        /* \"#utility.yul\":4523:4524   */\n      0x00\n        /* \"#utility.yul\":4514:4520   */\n      dup4\n        /* \"#utility.yul\":4509:4512   */\n      dup4\n        /* \"#utility.yul\":4505:4521   */\n      add\n        /* \"#utility.yul\":4498:4525   */\n      mstore\n        /* \"#utility.yul\":4393:4532   */\n      pop\n      pop\n      pop\n      jump\t// out\n        /* \"#utility.yul\":4538:4915   */\n    tag_120:\n        /* \"#utility.yul\":4626:4629   */\n      0x00\n        /* \"#utility.yul\":4654:4693   */\n      tag_212\n        /* \"#utility.yul\":4687:4692   */\n      dup3\n        /* \"#utility.yul\":4654:4693   */\n      tag_117\n      jump\t// in\n    tag_212:\n        /* \"#utility.yul\":4709:4780   */\n      tag_213\n        /* \"#utility.yul\":4773:4779   */\n      dup2\n        /* \"#utility.yul\":4768:4771   */\n      dup6\n        /* \"#utility.yul\":4709:4780   */\n      tag_118\n      jump\t// in\n    tag_213:\n        /* \"#utility.yul\":4702:4780   */\n      swap4\n      pop\n        /* \"#utility.yul\":4789:4854   */\n      tag_214\n        /* \"#utility.yul\":4847:4853   */\n      dup2\n        /* \"#utility.yul\":4842:4845   */\n      dup6\n        /* \"#utility.yul\":4835:4839   */\n      0x20\n        /* \"#utility.yul\":4828:4833   */\n      dup7\n        /* \"#utility.yul\":4824:4840   */\n      add\n        /* \"#utility.yul\":4789:4854   */\n      tag_119\n      jump\t// in\n    tag_214:\n        /* \"#utility.yul\":4879:4908   */\n      tag_215\n        /* \"#utility.yul\":4901:4907   */\n      dup2\n        /* \"#utility.yul\":4879:4908   */\n      tag_105\n      jump\t// in\n    tag_215:\n        /* \"#utility.yul\":4874:4877   */\n      dup5\n        /* \"#utility.yul\":4870:4909   */\n      add\n        /* \"#utility.yul\":4863:4909   */\n      swap2\n      pop\n        /* \"#utility.yul\":4630:4915   */\n      pop\n        /* \"#utility.yul\":4538:4915   */\n      swap3\n      swap2\n      pop\n      pop\n      jump\t// out\n        /* \"#utility.yul\":4921:5234   */\n    tag_23:\n        /* \"#utility.yul\":5034:5038   */\n      0x00\n        /* \"#utility.yul\":5072:5074   */\n      0x20\n        /* \"#utility.yul\":5061:5070   */\n      dup3\n        /* \"#utility.yul\":5057:5075   */\n      add\n        /* \"#utility.yul\":5049:5075   */\n      swap1\n      pop\n        /* \"#utility.yul\":5121:5130   */\n      dup2\n        /* \"#utility.yul\":5115:5119   */\n      dup2\n        /* \"#utility.yul\":5111:5131   */\n      sub\n        /* \"#utility.yul\":5107:5108   */\n      0x00\n        /* \"#utility.yul\":5096:5105   */\n      dup4\n        /* \"#utility.yul\":5092:5109   */\n      add\n        /* \"#utility.yul\":5085:5132   */\n      mstore\n        /* \"#utility.yul\":5149:5227   */\n      tag_217\n        /* \"#utility.yul\":5222:5226   */\n      dup2\n        /* \"#utility.yul\":5213:5219   */\n      dup5\n        /* \"#utility.yul\":5149:5227   */\n      tag_120\n      jump\t// in\n    tag_217:\n        /* \"#utility.yul\":5141:5227   */\n      swap1\n      pop\n        /* \"#utility.yul\":4921:5234   */\n      swap3\n      swap2\n      pop\n      pop\n      jump\t// out\n        /* \"#utility.yul\":5240:5366   */\n    tag_121:\n        /* \"#utility.yul\":5277:5284   */\n      0x00\n        /* \"#utility.yul\":5317:5359   */\n      0xffffffffffffffffffffffffffffffffffffffff\n        /* \"#utility.yul\":5310:5315   */\n      dup3\n        /* \"#utility.yul\":5306:5360   */\n      and\n        /* \"#utility.yul\":5295:5360   */\n      swap1\n      pop\n        /* \"#utility.yul\":5240:5366   */\n      swap2\n      swap1\n      pop\n      jump\t// out\n        /* \"#utility.yul\":5372:5468   */\n    tag_122:\n        /* \"#utility.yul\":5409:5416   */\n      0x00\n        /* \"#utility.yul\":5438:5462   */\n      tag_220\n        /* \"#utility.yul\":5456:5461   */\n      dup3\n        /* \"#utility.yul\":5438:5462   */\n      tag_121\n      jump\t// in\n    tag_220:\n        /* \"#utility.yul\":5427:5462   */\n      swap1\n      pop\n        /* \"#utility.yul\":5372:5468   */\n      swap2\n      swap1\n      pop\n      jump\t// out\n        /* \"#utility.yul\":5474:5596   */\n    tag_123:\n        /* \"#utility.yul\":5547:5571   */\n      tag_222\n        /* \"#utility.yul\":5565:5570   */\n      dup2\n        /* \"#utility.yul\":5547:5571   */\n      tag_122\n      jump\t// in\n    tag_222:\n        /* \"#utility.yul\":5540:5545   */\n      dup2\n        /* \"#utility.yul\":5537:5572   */\n      eq\n        /* \"#utility.yul\":5527:5590   */\n      tag_223\n      jumpi\n        /* \"#utility.yul\":5586:5587   */\n      0x00\n        /* \"#utility.yul\":5583:5584   */\n      0x00\n        /* \"#utility.yul\":5576:5588   */\n      revert\n        /* \"#utility.yul\":5527:5590   */\n    tag_223:\n        /* \"#utility.yul\":5474:5596   */\n      pop\n      jump\t// out\n        /* \"#utility.yul\":5602:5741   */\n    tag_124:\n        /* \"#utility.yul\":5648:5653   */\n      0x00\n        /* \"#utility.yul\":5686:5692   */\n      dup2\n        /* \"#utility.yul\":5673:5693   */\n      calldataload\n        /* \"#utility.yul\":5664:5693   */\n      swap1\n      pop\n        /* \"#utility.yul\":5702:5735   */\n      tag_225\n        /* \"#utility.yul\":5729:5734   */\n      dup2\n        /* \"#utility.yul\":5702:5735   */\n      tag_123\n      jump\t// in\n    tag_225:\n        /* \"#utility.yul\":5602:5741   */\n      swap3\n      swap2\n      pop\n      pop\n      jump\t// out\n        /* \"#utility.yul\":5747:6076   */\n    tag_26:\n        /* \"#utility.yul\":5806:5812   */\n      0x00\n        /* \"#utility.yul\":5855:5857   */\n      0x20\n        /* \"#utility.yul\":5843:5852   */\n      dup3\n        /* \"#utility.yul\":5834:5841   */\n      dup5\n        /* \"#utility.yul\":5830:5853   */\n      sub\n        /* \"#utility.yul\":5826:5858   */\n      slt\n        /* \"#utility.yul\":5823:5942   */\n      iszero\n      tag_227\n      jumpi\n        /* \"#utility.yul\":5861:5940   */\n      tag_228\n      tag_101\n      jump\t// in\n    tag_228:\n        /* \"#utility.yul\":5823:5942   */\n    tag_227:\n        /* \"#utility.yul\":5981:5982   */\n      0x00\n        /* \"#utility.yul\":6006:6059   */\n      tag_229\n        /* \"#utility.yul\":6051:6058   */\n      dup5\n        /* \"#utility.yul\":6042:6048   */\n      dup3\n        /* \"#utility.yul\":6031:6040   */\n      dup6\n        /* \"#utility.yul\":6027:6049   */\n      add\n        /* \"#utility.yul\":6006:6059   */\n      tag_124\n      jump\t// in\n    tag_229:\n        /* \"#utility.yul\":5996:6059   */\n      swap2\n      pop\n        /* \"#utility.yul\":5952:6069   */\n      pop\n        /* \"#utility.yul\":5747:6076   */\n      swap3\n      swap2\n      pop\n      pop\n      jump\t// out\n        /* \"#utility.yul\":6082:6200   */\n    tag_125:\n        /* \"#utility.yul\":6169:6193   */\n      tag_231\n        /* \"#utility.yul\":6187:6192   */\n      dup2\n        /* \"#utility.yul\":6169:6193   */\n      tag_122\n      jump\t// in\n    tag_231:\n        /* \"#utility.yul\":6164:6167   */\n      dup3\n        /* \"#utility.yul\":6157:6194   */\n      mstore\n        /* \"#utility.yul\":6082:6200   */\n      pop\n      pop\n      jump\t// out\n        /* \"#utility.yul\":6206:6428   */\n    tag_31:\n        /* \"#utility.yul\":6299:6303   */\n      0x00\n        /* \"#utility.yul\":6337:6339   */\n      0x20\n        /* \"#utility.yul\":6326:6335   */\n      dup3\n        /* \"#utility.yul\":6322:6340   */\n      add\n        /* \"#utility.yul\":6314:6340   */\n      swap1\n      pop\n        /* \"#utility.yul\":6350:6421   */\n      tag_233\n        /* \"#utility.yul\":6418:6419   */\n      0x00\n        /* \"#utility.yul\":6407:6416   */\n      dup4\n        /* \"#utility.yul\":6403:6420   */\n      add\n        /* \"#utility.yul\":6394:6400   */\n      dup5\n        /* \"#utility.yul\":6350:6421   */\n      tag_125\n      jump\t// in\n    tag_233:\n        /* \"#utility.yul\":6206:6428   */\n      swap3\n      swap2\n      pop\n      pop\n      jump\t// out\n        /* \"#utility.yul\":6434:6524   */\n    tag_126:\n        /* \"#utility.yul\":6468:6475   */\n      0x00\n        /* \"#utility.yul\":6511:6516   */\n      dup2\n        /* \"#utility.yul\":6504:6517   */\n      iszero\n        /* \"#utility.yul\":6497:6518   */\n      iszero\n        /* \"#utility.yul\":6486:6518   */\n      swap1\n      pop\n        /* \"#utility.yul\":6434:6524   */\n      swap2\n      swap1\n      pop\n      jump\t// out\n        /* \"#utility.yul\":6530:6639   */\n    tag_127:\n        /* \"#utility.yul\":6611:6632   */\n      tag_236\n        /* \"#utility.yul\":6626:6631   */\n      dup2\n        /* \"#utility.yul\":6611:6632   */\n      tag_126\n      jump\t// in\n    tag_236:\n        /* \"#utility.yul\":6606:6609   */\n      dup3\n        /* \"#utility.yul\":6599:6633   */\n      mstore\n        /* \"#utility.yul\":6530:6639   */\n      pop\n      pop\n      jump\t// out\n        /* \"#utility.yul\":6645:6855   */\n    tag_36:\n        /* \"#utility.yul\":6732:6736   */\n      0x00\n        /* \"#utility.yul\":6770:6772   */\n      0x20\n        /* \"#utility.yul\":6759:6768   */\n      dup3\n        /* \"#utility.yul\":6755:6773   */\n      add\n        /* \"#utility.yul\":6747:6773   */\n      swap1\n      pop\n        /* \"#utility.yul\":6783:6848   */\n      tag_238\n        /* \"#utility.yul\":6845:6846   */\n      0x00\n        /* \"#utility.yul\":6834:6843   */\n      dup4\n        /* \"#utility.yul\":6830:6847   */\n      add\n        /* \"#utility.yul\":6821:6827   */\n      dup5\n        /* \"#utility.yul\":6783:6848   */\n      tag_127\n      jump\t// in\n    tag_238:\n        /* \"#utility.yul\":6645:6855   */\n      swap3\n      swap2\n      pop\n      pop\n      jump\t// out\n        /* \"#utility.yul\":6861:7515   */\n    tag_39:\n        /* \"#utility.yul\":6939:6945   */\n      0x00\n        /* \"#utility.yul\":6947:6953   */\n      0x00\n        /* \"#utility.yul\":6996:6998   */\n      0x40\n        /* \"#utility.yul\":6984:6993   */\n      dup4\n        /* \"#utility.yul\":6975:6982   */\n      dup6\n        /* \"#utility.yul\":6971:6994   */\n      sub\n        /* \"#utility.yul\":6967:6999   */\n      slt\n        /* \"#utility.yul\":6964:7083   */\n      iszero\n      tag_240\n      jumpi\n        /* \"#utility.yul\":7002:7081   */\n      tag_241\n      tag_101\n      jump\t// in\n    tag_241:\n        /* \"#utility.yul\":6964:7083   */\n    tag_240:\n        /* \"#utility.yul\":7122:7123   */\n      0x00\n        /* \"#utility.yul\":7147:7200   */\n      tag_242\n        /* \"#utility.yul\":7192:7199   */\n      dup6\n        /* \"#utility.yul\":7183:7189   */\n      dup3\n        /* \"#utility.yul\":7172:7181   */\n      dup7\n        /* \"#utility.yul\":7168:7190   */\n      add\n        /* \"#utility.yul\":7147:7200   */\n      tag_116\n      jump\t// in\n    tag_242:\n        /* \"#utility.yul\":7137:7200   */\n      swap3\n      pop\n        /* \"#utility.yul\":7093:7210   */\n      pop\n        /* \"#utility.yul\":7277:7279   */\n      0x20\n        /* \"#utility.yul\":7266:7275   */\n      dup4\n        /* \"#utility.yul\":7262:7280   */\n      add\n        /* \"#utility.yul\":7249:7281   */\n      calldataload\n        /* \"#utility.yul\":7308:7326   */\n      0xffffffffffffffff\n        /* \"#utility.yul\":7300:7306   */\n      dup2\n        /* \"#utility.yul\":7297:7327   */\n      gt\n        /* \"#utility.yul\":7294:7411   */\n      iszero\n      tag_243\n      jumpi\n        /* \"#utility.yul\":7330:7409   */\n      tag_244\n      tag_102\n      jump\t// in\n    tag_244:\n        /* \"#utility.yul\":7294:7411   */\n    tag_243:\n        /* \"#utility.yul\":7435:7498   */\n      tag_245\n        /* \"#utility.yul\":7490:7497   */\n      dup6\n        /* \"#utility.yul\":7481:7487   */\n      dup3\n        /* \"#utility.yul\":7470:7479   */\n      dup7\n        /* \"#utility.yul\":7466:7488   */\n      add\n        /* \"#utility.yul\":7435:7498   */\n      tag_112\n      jump\t// in\n    tag_245:\n        /* \"#utility.yul\":7425:7498   */\n      swap2\n      pop\n        /* \"#utility.yul\":7220:7508   */\n      pop\n        /* \"#utility.yul\":6861:7515   */\n      swap3\n      pop\n      swap3\n      swap1\n      pop\n      jump\t// out\n        /* \"#utility.yul\":7521:7645   */\n    tag_128:\n        /* \"#utility.yul\":7598:7604   */\n      0x00\n        /* \"#utility.yul\":7632:7637   */\n      dup2\n        /* \"#utility.yul\":7626:7638   */\n      mload\n        /* \"#utility.yul\":7616:7638   */\n      swap1\n      pop\n        /* \"#utility.yul\":7521:7645   */\n      swap2\n      swap1\n      pop\n      jump\t// out\n        /* \"#utility.yul\":7651:7845   */\n    tag_129:\n        /* \"#utility.yul\":7760:7771   */\n      0x00\n        /* \"#utility.yul\":7794:7800   */\n      dup3\n        /* \"#utility.yul\":7789:7792   */\n      dup3\n        /* \"#utility.yul\":7782:7801   */\n      mstore\n        /* \"#utility.yul\":7834:7838   */\n      0x20\n        /* \"#utility.yul\":7829:7832   */\n      dup3\n        /* \"#utility.yul\":7825:7839   */\n      add\n        /* \"#utility.yul\":7810:7839   */\n      swap1\n      pop\n        /* \"#utility.yul\":7651:7845   */\n      swap3\n      swap2\n      pop\n      pop\n      jump\t// out\n        /* \"#utility.yul\":7851:7993   */\n    tag_130:\n        /* \"#utility.yul\":7928:7932   */\n      0x00\n        /* \"#utility.yul\":7951:7954   */\n      dup2\n        /* \"#utility.yul\":7943:7954   */\n      swap1\n      pop\n        /* \"#utility.yul\":7981:7985   */\n      0x20\n        /* \"#utility.yul\":7976:7979   */\n      dup3\n        /* \"#utility.yul\":7972:7986   */\n      add\n        /* \"#utility.yul\":7964:7986   */\n      swap1\n      pop\n        /* \"#utility.yul\":7851:7993   */\n      swap2\n      swap1\n      pop\n      jump\t// out\n        /* \"#utility.yul\":7999:8158   */\n    tag_131:\n        /* \"#utility.yul\":8073:8084   */\n      0x00\n        /* \"#utility.yul\":8107:8113   */\n      dup3\n        /* \"#utility.yul\":8102:8105   */\n      dup3\n        /* \"#utility.yul\":8095:8114   */\n      mstore\n        /* \"#utility.yul\":8147:8151   */\n      0x20\n        /* \"#utility.yul\":8142:8145   */\n      dup3\n        /* \"#utility.yul\":8138:8152   */\n      add\n        /* \"#utility.yul\":8123:8152   */\n      swap1\n      pop\n        /* \"#utility.yul\":7999:8158   */\n      swap3\n      swap2\n      pop\n      pop\n      jump\t// out\n        /* \"#utility.yul\":8164:8521   */\n    tag_132:\n        /* \"#utility.yul\":8242:8245   */\n      0x00\n        /* \"#utility.yul\":8270:8309   */\n      tag_251\n        /* \"#utility.yul\":8303:8308   */\n      dup3\n        /* \"#utility.yul\":8270:8309   */\n      tag_117\n      jump\t// in\n    tag_251:\n        /* \"#utility.yul\":8325:8386   */\n      tag_252\n        /* \"#utility.yul\":8379:8385   */\n      dup2\n        /* \"#utility.yul\":8374:8377   */\n      dup6\n        /* \"#utility.yul\":8325:8386   */\n      tag_131\n      jump\t// in\n    tag_252:\n        /* \"#utility.yul\":8318:8386   */\n      swap4\n      pop\n        /* \"#utility.yul\":8395:8460   */\n      tag_253\n        /* \"#utility.yul\":8453:8459   */\n      dup2\n        /* \"#utility.yul\":8448:8451   */\n      dup6\n        /* \"#utility.yul\":8441:8445   */\n      0x20\n        /* \"#utility.yul\":8434:8439   */\n      dup7\n        /* \"#utility.yul\":8430:8446   */\n      add\n        /* \"#utility.yul\":8395:8460   */\n      tag_119\n      jump\t// in\n    tag_253:\n        /* \"#utility.yul\":8485:8514   */\n      tag_254\n        /* \"#utility.yul\":8507:8513   */\n      dup2\n        /* \"#utility.yul\":8485:8514   */\n      tag_105\n      jump\t// in\n    tag_254:\n        /* \"#utility.yul\":8480:8483   */\n      dup5\n        /* \"#utility.yul\":8476:8515   */\n      add\n        /* \"#utility.yul\":8469:8515   */\n      swap2\n      pop\n        /* \"#utility.yul\":8246:8521   */\n      pop\n        /* \"#utility.yul\":8164:8521   */\n      swap3\n      swap2\n      pop\n      pop\n      jump\t// out\n        /* \"#utility.yul\":8527:8723   */\n    tag_133:\n        /* \"#utility.yul\":8616:8626   */\n      0x00\n        /* \"#utility.yul\":8651:8717   */\n      tag_256\n        /* \"#utility.yul\":8713:8716   */\n      dup4\n        /* \"#utility.yul\":8705:8711   */\n      dup4\n        /* \"#utility.yul\":8651:8717   */\n      tag_132\n      jump\t// in\n    tag_256:\n        /* \"#utility.yul\":8637:8717   */\n      swap1\n      pop\n        /* \"#utility.yul\":8527:8723   */\n      swap3\n      swap2\n      pop\n      pop\n      jump\t// out\n        /* \"#utility.yul\":8729:8852   */\n    tag_134:\n        /* \"#utility.yul\":8809:8813   */\n      0x00\n        /* \"#utility.yul\":8841:8845   */\n      0x20\n        /* \"#utility.yul\":8836:8839   */\n      dup3\n        /* \"#utility.yul\":8832:8846   */\n      add\n        /* \"#utility.yul\":8824:8846   */\n      swap1\n      pop\n        /* \"#utility.yul\":8729:8852   */\n      swap2\n      swap1\n      pop\n      jump\t// out\n        /* \"#utility.yul\":8886:9877   */\n    tag_135:\n        /* \"#utility.yul\":9025:9028   */\n      0x00\n        /* \"#utility.yul\":9054:9118   */\n      tag_259\n        /* \"#utility.yul\":9112:9117   */\n      dup3\n        /* \"#utility.yul\":9054:9118   */\n      tag_128\n      jump\t// in\n    tag_259:\n        /* \"#utility.yul\":9134:9230   */\n      tag_260\n        /* \"#utility.yul\":9223:9229   */\n      dup2\n        /* \"#utility.yul\":9218:9221   */\n      dup6\n        /* \"#utility.yul\":9134:9230   */\n      tag_129\n      jump\t// in\n    tag_260:\n        /* \"#utility.yul\":9127:9230   */\n      swap4\n      pop\n        /* \"#utility.yul\":9256:9259   */\n      dup4\n        /* \"#utility.yul\":9301:9305   */\n      0x20\n        /* \"#utility.yul\":9293:9299   */\n      dup3\n        /* \"#utility.yul\":9289:9306   */\n      mul\n        /* \"#utility.yul\":9284:9287   */\n      dup6\n        /* \"#utility.yul\":9280:9307   */\n      add\n        /* \"#utility.yul\":9331:9397   */\n      tag_261\n        /* \"#utility.yul\":9391:9396   */\n      dup6\n        /* \"#utility.yul\":9331:9397   */\n      tag_130\n      jump\t// in\n    tag_261:\n        /* \"#utility.yul\":9420:9427   */\n      dup1\n        /* \"#utility.yul\":9451:9452   */\n      0x00\n        /* \"#utility.yul\":9436:9832   */\n    tag_262:\n        /* \"#utility.yul\":9461:9467   */\n      dup6\n        /* \"#utility.yul\":9458:9459   */\n      dup2\n        /* \"#utility.yul\":9455:9468   */\n      lt\n        /* \"#utility.yul\":9436:9832   */\n      iszero\n      tag_264\n      jumpi\n        /* \"#utility.yul\":9532:9541   */\n      dup5\n        /* \"#utility.yul\":9526:9530   */\n      dup5\n        /* \"#utility.yul\":9522:9542   */\n      sub\n        /* \"#utility.yul\":9517:9520   */\n      dup10\n        /* \"#utility.yul\":9510:9543   */\n      mstore\n        /* \"#utility.yul\":9583:9589   */\n      dup2\n        /* \"#utility.yul\":9577:9590   */\n      mload\n        /* \"#utility.yul\":9611:9695   */\n      tag_265\n        /* \"#utility.yul\":9690:9694   */\n      dup6\n        /* \"#utility.yul\":9675:9688   */\n      dup3\n        /* \"#utility.yul\":9611:9695   */\n      tag_133\n      jump\t// in\n    tag_265:\n        /* \"#utility.yul\":9603:9695   */\n      swap5\n      pop\n        /* \"#utility.yul\":9718:9788   */\n      tag_266\n        /* \"#utility.yul\":9781:9787   */\n      dup4\n        /* \"#utility.yul\":9718:9788   */\n      tag_134\n      jump\t// in\n    tag_266:\n        /* \"#utility.yul\":9708:9788   */\n      swap3\n      pop\n        /* \"#utility.yul\":9817:9821   */\n      0x20\n        /* \"#utility.yul\":9812:9815   */\n      dup11\n        /* \"#utility.yul\":9808:9822   */\n      add\n        /* \"#utility.yul\":9801:9822   */\n      swap10\n      pop\n        /* \"#utility.yul\":9496:9832   */\n      pop\n        /* \"#utility.yul\":9483:9484   */\n      0x01\n        /* \"#utility.yul\":9480:9481   */\n      dup2\n        /* \"#utility.yul\":9476:9485   */\n      add\n        /* \"#utility.yul\":9471:9485   */\n      swap1\n      pop\n        /* \"#utility.yul\":9436:9832   */\n      jump(tag_262)\n    tag_264:\n        /* \"#utility.yul\":9440:9454   */\n      pop\n        /* \"#utility.yul\":9848:9852   */\n      dup3\n        /* \"#utility.yul\":9841:9852   */\n      swap8\n      pop\n        /* \"#utility.yul\":9868:9871   */\n      dup8\n        /* \"#utility.yul\":9861:9871   */\n      swap6\n      pop\n        /* \"#utility.yul\":9030:9877   */\n      pop\n      pop\n      pop\n      pop\n      pop\n        /* \"#utility.yul\":8886:9877   */\n      swap3\n      swap2\n      pop\n      pop\n      jump\t// out\n        /* \"#utility.yul\":9883:10296   */\n    tag_47:\n        /* \"#utility.yul\":10046:10050   */\n      0x00\n        /* \"#utility.yul\":10084:10086   */\n      0x20\n        /* \"#utility.yul\":10073:10082   */\n      dup3\n        /* \"#utility.yul\":10069:10087   */\n      add\n        /* \"#utility.yul\":10061:10087   */\n      swap1\n      pop\n        /* \"#utility.yul\":10133:10142   */\n      dup2\n        /* \"#utility.yul\":10127:10131   */\n      dup2\n        /* \"#utility.yul\":10123:10143   */\n      sub\n        /* \"#utility.yul\":10119:10120   */\n      0x00\n        /* \"#utility.yul\":10108:10117   */\n      dup4\n        /* \"#utility.yul\":10104:10121   */\n      add\n        /* \"#utility.yul\":10097:10144   */\n      mstore\n        /* \"#utility.yul\":10161:10289   */\n      tag_268\n        /* \"#utility.yul\":10284:10288   */\n      dup2\n        /* \"#utility.yul\":10275:10281   */\n      dup5\n        /* \"#utility.yul\":10161:10289   */\n      tag_135\n      jump\t// in\n    tag_268:\n        /* \"#utility.yul\":10153:10289   */\n      swap1\n      pop\n        /* \"#utility.yul\":9883:10296   */\n      swap3\n      swap2\n      pop\n      pop\n      jump\t// out\n        /* \"#utility.yul\":10302:10467   */\n    tag_136:\n        /* \"#utility.yul\":10442:10459   */\n      0x4f6e6c7920616c6c6f776c6973742e0000000000000000000000000000000000\n        /* \"#utility.yul\":10438:10439   */\n      0x00\n        /* \"#utility.yul\":10430:10436   */\n      dup3\n        /* \"#utility.yul\":10426:10440   */\n      add\n        /* \"#utility.yul\":10419:10460   */\n      mstore\n        /* \"#utility.yul\":10302:10467   */\n      pop\n      jump\t// out\n        /* \"#utility.yul\":10473:10839   */\n    tag_137:\n        /* \"#utility.yul\":10615:10618   */\n      0x00\n        /* \"#utility.yul\":10636:10703   */\n      tag_271\n        /* \"#utility.yul\":10700:10702   */\n      0x0f\n        /* \"#utility.yul\":10695:10698   */\n      dup4\n        /* \"#utility.yul\":10636:10703   */\n      tag_118\n      jump\t// in\n    tag_271:\n        /* \"#utility.yul\":10629:10703   */\n      swap2\n      pop\n        /* \"#utility.yul\":10712:10805   */\n      tag_272\n        /* \"#utility.yul\":10801:10804   */\n      dup3\n        /* \"#utility.yul\":10712:10805   */\n      tag_136\n      jump\t// in\n    tag_272:\n        /* \"#utility.yul\":10830:10832   */\n      0x20\n        /* \"#utility.yul\":10825:10828   */\n      dup3\n        /* \"#utility.yul\":10821:10833   */\n      add\n        /* \"#utility.yul\":10814:10833   */\n      swap1\n      pop\n        /* \"#utility.yul\":10473:10839   */\n      swap2\n      swap1\n      pop\n      jump\t// out\n        /* \"#utility.yul\":10845:11264   */\n    tag_51:\n        /* \"#utility.yul\":11011:11015   */\n      0x00\n        /* \"#utility.yul\":11049:11051   */\n      0x20\n        /* \"#utility.yul\":11038:11047   */\n      dup3\n        /* \"#utility.yul\":11034:11052   */\n      add\n        /* \"#utility.yul\":11026:11052   */\n      swap1\n      pop\n        /* \"#utility.yul\":11098:11107   */\n      dup2\n        /* \"#utility.yul\":11092:11096   */\n      dup2\n        /* \"#utility.yul\":11088:11108   */\n      sub\n        /* \"#utility.yul\":11084:11085   */\n      0x00\n        /* \"#utility.yul\":11073:11082   */\n      dup4\n        /* \"#utility.yul\":11069:11086   */\n      add\n        /* \"#utility.yul\":11062:11109   */\n      mstore\n        /* \"#utility.yul\":11126:11257   */\n      tag_274\n        /* \"#utility.yul\":11252:11256   */\n      dup2\n        /* \"#utility.yul\":11126:11257   */\n      tag_137\n      jump\t// in\n    tag_274:\n        /* \"#utility.yul\":11118:11257   */\n      swap1\n      pop\n        /* \"#utility.yul\":10845:11264   */\n      swap2\n      swap1\n      pop\n      jump\t// out\n        /* \"#utility.yul\":11270:11450   */\n    tag_138:\n        /* \"#utility.yul\":11318:11395   */\n      0x4e487b7100000000000000000000000000000000000000000000000000000000\n        /* \"#utility.yul\":11315:11316   */\n      0x00\n        /* \"#utility.yul\":11308:11396   */\n      mstore\n        /* \"#utility.yul\":11415:11419   */\n      0x22\n        /* \"#utility.yul\":11412:11413   */\n      0x04\n        /* \"#utility.yul\":11405:11420   */\n      mstore\n        /* \"#utility.yul\":11439:11443   */\n      0x24\n        /* \"#utility.yul\":11436:11437   */\n      0x00\n        /* \"#utility.yul\":11429:11444   */\n      revert\n        /* \"#utility.yul\":11456:11776   */\n    tag_64:\n        /* \"#utility.yul\":11500:11506   */\n      0x00\n        /* \"#utility.yul\":11537:11538   */\n      0x02\n        /* \"#utility.yul\":11531:11535   */\n      dup3\n        /* \"#utility.yul\":11527:11539   */\n      div\n        /* \"#utility.yul\":11517:11539   */\n      swap1\n      pop\n        /* \"#utility.yul\":11584:11585   */\n      0x01\n        /* \"#utility.yul\":11578:11582   */\n      dup3\n        /* \"#utility.yul\":11574:11586   */\n      and\n        /* \"#utility.yul\":11605:11623   */\n      dup1\n        /* \"#utility.yul\":11595:11676   */\n      tag_277\n      jumpi\n        /* \"#utility.yul\":11661:11665   */\n      0x7f\n        /* \"#utility.yul\":11653:11659   */\n      dup3\n        /* \"#utility.yul\":11649:11666   */\n      and\n        /* \"#utility.yul\":11639:11666   */\n      swap2\n      pop\n        /* \"#utility.yul\":11595:11676   */\n    tag_277:\n        /* \"#utility.yul\":11723:11725   */\n      0x20\n        /* \"#utility.yul\":11715:11721   */\n      dup3\n        /* \"#utility.yul\":11712:11726   */\n      lt\n        /* \"#utility.yul\":11692:11710   */\n      dup2\n        /* \"#utility.yul\":11689:11727   */\n      sub\n        /* \"#utility.yul\":11686:11770   */\n      tag_278\n      jumpi\n        /* \"#utility.yul\":11742:11760   */\n      tag_279\n      tag_138\n      jump\t// in\n    tag_279:\n        /* \"#utility.yul\":11686:11770   */\n    tag_278:\n        /* \"#utility.yul\":11507:11776   */\n      pop\n        /* \"#utility.yul\":11456:11776   */\n      swap2\n      swap1\n      pop\n      jump\t// out\n        /* \"#utility.yul\":11782:11923   */\n    tag_139:\n        /* \"#utility.yul\":11831:11835   */\n      0x00\n        /* \"#utility.yul\":11854:11857   */\n      dup2\n        /* \"#utility.yul\":11846:11857   */\n      swap1\n      pop\n        /* \"#utility.yul\":11877:11880   */\n      dup2\n        /* \"#utility.yul\":11874:11875   */\n      0x00\n        /* \"#utility.yul\":11867:11881   */\n      mstore\n        /* \"#utility.yul\":11911:11915   */\n      0x20\n        /* \"#utility.yul\":11908:11909   */\n      0x00\n        /* \"#utility.yul\":11898:11916   */\n      keccak256\n        /* \"#utility.yul\":11890:11916   */\n      swap1\n      pop\n        /* \"#utility.yul\":11782:11923   */\n      swap2\n      swap1\n      pop\n      jump\t// out\n        /* \"#utility.yul\":11929:12022   */\n    tag_140:\n        /* \"#utility.yul\":11966:11972   */\n      0x00\n        /* \"#utility.yul\":12013:12015   */\n      0x20\n        /* \"#utility.yul\":12008:12010   */\n      0x1f\n        /* \"#utility.yul\":12001:12006   */\n      dup4\n        /* \"#utility.yul\":11997:12011   */\n      add\n        /* \"#utility.yul\":11993:12016   */\n      div\n        /* \"#utility.yul\":11983:12016   */\n      swap1\n      pop\n        /* \"#utility.yul\":11929:12022   */\n      swap2\n      swap1\n      pop\n      jump\t// out\n        /* \"#utility.yul\":12028:12135   */\n    tag_141:\n        /* \"#utility.yul\":12072:12080   */\n      0x00\n        /* \"#utility.yul\":12122:12127   */\n      dup3\n        /* \"#utility.yul\":12116:12120   */\n      dup3\n        /* \"#utility.yul\":12112:12128   */\n      shl\n        /* \"#utility.yul\":12091:12128   */\n      swap1\n      pop\n        /* \"#utility.yul\":12028:12135   */\n      swap3\n      swap2\n      pop\n      pop\n      jump\t// out\n        /* \"#utility.yul\":12141:12534   */\n    tag_142:\n        /* \"#utility.yul\":12210:12216   */\n      0x00\n        /* \"#utility.yul\":12260:12261   */\n      0x08\n        /* \"#utility.yul\":12248:12258   */\n      dup4\n        /* \"#utility.yul\":12244:12262   */\n      mul\n        /* \"#utility.yul\":12283:12380   */\n      tag_284\n        /* \"#utility.yul\":12313:12379   */\n      0xffffffffffffffffffffffffffffffffffffffffffffffffffffffffffffffff\n        /* \"#utility.yul\":12302:12311   */\n      dup3\n        /* \"#utility.yul\":12283:12380   */\n      tag_141\n      jump\t// in\n    tag_284:\n        /* \"#utility.yul\":12401:12440   */\n      tag_285\n        /* \"#utility.yul\":12431:12439   */\n      dup7\n        /* \"#utility.yul\":12420:12429   */\n      dup4\n        /* \"#utility.yul\":12401:12440   */\n      tag_141\n      jump\t// in\n    tag_285:\n        /* \"#utility.yul\":12389:12440   */\n      swap6\n      pop\n        /* \"#utility.yul\":12473:12477   */\n      dup1\n        /* \"#utility.yul\":12469:12478   */\n      not\n        /* \"#utility.yul\":12462:12467   */\n      dup5\n        /* \"#utility.yul\":12458:12479   */\n      and\n        /* \"#utility.yul\":12449:12479   */\n      swap4\n      pop\n        /* \"#utility.yul\":12522:12526   */\n      dup1\n        /* \"#utility.yul\":12512:12520   */\n      dup7\n        /* \"#utility.yul\":12508:12527   */\n      and\n        /* \"#utility.yul\":12501:12506   */\n      dup5\n        /* \"#utility.yul\":12498:12528   */\n      or\n        /* \"#utility.yul\":12488:12528   */\n      swap3\n      pop\n        /* \"#utility.yul\":12217:12534   */\n      pop\n      pop\n        /* \"#utility.yul\":12141:12534   */\n      swap4\n      swap3\n      pop\n      pop\n      pop\n      jump\t// out\n        /* \"#utility.yul\":12540:12600   */\n    tag_143:\n        /* \"#utility.yul\":12568:12571   */\n      0x00\n        /* \"#utility.yul\":12589:12594   */\n      dup2\n        /* \"#utility.yul\":12582:12594   */\n      swap1\n      pop\n        /* \"#utility.yul\":12540:12600   */\n      swap2\n      swap1\n      pop\n      jump\t// out\n        /* \"#utility.yul\":12606:12748   */\n    tag_144:\n        /* \"#utility.yul\":12656:12665   */\n      0x00\n        /* \"#utility.yul\":12689:12742   */\n      tag_288\n        /* \"#utility.yul\":12707:12741   */\n      tag_289\n        /* \"#utility.yul\":12716:12740   */\n      tag_290\n        /* \"#utility.yul\":12734:12739   */\n      dup5\n        /* \"#utility.yul\":12716:12740   */\n      tag_113\n      jump\t// in\n    tag_290:\n        /* \"#utility.yul\":12707:12741   */\n      tag_143\n      jump\t// in\n    tag_289:\n        /* \"#utility.yul\":12689:12742   */\n      tag_113\n      jump\t// in\n    tag_288:\n        /* \"#utility.yul\":12676:12742   */\n      swap1\n      pop\n        /* \"#utility.yul\":12606:12748   */\n      swap2\n      swap1\n      pop\n      jump\t// out\n        /* \"#utility.yul\":12754:12829   */\n    tag_145:\n        /* \"#utility.yul\":12797:12800   */\n      0x00\n        /* \"#utility.yul\":12818:12823   */\n      dup2\n        /* \"#utility.yul\":12811:12823   */\n      swap1\n      pop\n        /* \"#utility.yul\":12754:12829   */\n      swap2\n      swap1\n      pop\n      jump\t// out\n        /* \"#utility.yul\":12835:13104   */\n    tag_146:\n        /* \"#utility.yul\":12945:12984   */\n      tag_293\n        /* \"#utility.yul\":12976:12983   */\n      dup4\n        /* \"#utility.yul\":12945:12984   */\n      tag_144\n      jump\t// in\n    tag_293:\n        /* \"#utility.yul\":13006:13097   */\n      tag_294\n        /* \"#utility.yul\":13055:13096   */\n      tag_295\n        /* \"#utility.yul\":13079:13095   */\n      dup3\n        /* \"#utility.yul\":13055:13096   */\n      tag_145\n      jump\t// in\n    tag_295:\n        /* \"#utility.yul\":13047:13053   */\n      dup5\n        /* \"#utility.yul\":13040:13044   */\n      dup5\n        /* \"#utility.yul\":13034:13045   */\n      sload\n        /* \"#utility.yul\":13006:13097   */\n      tag_142\n      jump\t// in\n    tag_294:\n        /* \"#utility.yul\":13000:13004   */\n      dup3\n        /* \"#utility.yul\":12993:13098   */\n      sstore\n        /* \"#utility.yul\":12911:13104   */\n      pop\n        /* \"#utility.yul\":12835:13104   */\n      pop\n      pop\n      pop\n      jump\t// out\n        /* \"#utility.yul\":13110:13183   */\n    tag_147:\n        /* \"#utility.yul\":13155:13158   */\n      0x00\n        /* \"#utility.yul\":13176:13177   */\n      0x00\n        /* \"#utility.yul\":13169:13177   */\n      swap1\n      pop\n        /* \"#utility.yul\":13110:13183   */\n      swap1\n      jump\t// out\n        /* \"#utility.yul\":13189:13378   */\n    tag_148:\n        /* \"#utility.yul\":13266:13298   */\n      tag_298\n      tag_147\n      jump\t// in\n    tag_298:\n        /* \"#utility.yul\":13307:13372   */\n      tag_299\n        /* \"#utility.yul\":13365:13371   */\n      dup2\n        /* \"#utility.yul\":13357:13363   */\n      dup5\n        /* \"#utility.yul\":13351:13355   */\n      dup5\n        /* \"#utility.yul\":13307:13372   */\n      tag_146\n      jump\t// in\n    tag_299:\n        /* \"#utility.yul\":13242:13378   */\n      pop\n        /* \"#utility.yul\":13189:13378   */\n      pop\n      pop\n      jump\t// out\n        /* \"#utility.yul\":13384:13570   */\n    tag_149:\n        /* \"#utility.yul\":13444:13564   */\n    tag_301:\n        /* \"#utility.yul\":13461:13464   */\n      dup2\n        /* \"#utility.yul\":13454:13459   */\n      dup2\n        /* \"#utility.yul\":13451:13465   */\n      lt\n        /* \"#utility.yul\":13444:13564   */\n      iszero\n      tag_303\n      jumpi\n        /* \"#utility.yul\":13515:13554   */\n      tag_304\n        /* \"#utility.yul\":13552:13553   */\n      0x00\n        /* \"#utility.yul\":13545:13550   */\n      dup3\n        /* \"#utility.yul\":13515:13554   */\n      tag_148\n      jump\t// in\n    tag_304:\n        /* \"#utility.yul\":13488:13489   */\n      0x01\n        /* \"#utility.yul\":13481:13486   */\n      dup2\n        /* \"#utility.yul\":13477:13490   */\n      add\n        /* \"#utility.yul\":13468:13490   */\n      swap1\n      pop\n        /* \"#utility.yul\":13444:13564   */\n      jump(tag_301)\n    tag_303:\n        /* \"#utility.yul\":13384:13570   */\n      pop\n      pop\n      jump\t// out\n        /* \"#utility.yul\":13576:14119   */\n    tag_150:\n        /* \"#utility.yul\":13677:13679   */\n      0x1f\n        /* \"#utility.yul\":13672:13675   */\n      dup3\n        /* \"#utility.yul\":13669:13680   */\n      gt\n        /* \"#utility.yul\":13666:14112   */\n      iszero\n      tag_306\n      jumpi\n        /* \"#utility.yul\":13711:13749   */\n      tag_307\n        /* \"#utility.yul\":13743:13748   */\n      dup2\n        /* \"#utility.yul\":13711:13749   */\n      tag_139\n      jump\t// in\n    tag_307:\n        /* \"#utility.yul\":13795:13824   */\n      tag_308\n        /* \"#utility.yul\":13813:13823   */\n      dup5\n        /* \"#utility.yul\":13795:13824   */\n      tag_140\n      jump\t// in\n    tag_308:\n        /* \"#utility.yul\":13785:13793   */\n      dup2\n        /* \"#utility.yul\":13781:13825   */\n      add\n        /* \"#utility.yul\":13978:13980   */\n      0x20\n        /* \"#utility.yul\":13966:13976   */\n      dup6\n        /* \"#utility.yul\":13963:13981   */\n      lt\n        /* \"#utility.yul\":13960:14009   */\n      iszero\n      tag_309\n      jumpi\n        /* \"#utility.yul\":13999:14007   */\n      dup2\n        /* \"#utility.yul\":13984:14007   */\n      swap1\n      pop\n        /* \"#utility.yul\":13960:14009   */\n    tag_309:\n        /* \"#utility.yul\":14022:14102   */\n      tag_310\n        /* \"#utility.yul\":14078:14100   */\n      tag_311\n        /* \"#utility.yul\":14096:14099   */\n      dup6\n        /* \"#utility.yul\":14078:14100   */\n      tag_140\n      jump\t// in\n    tag_311:\n        /* \"#utility.yul\":14068:14076   */\n      dup4\n        /* \"#utility.yul\":14064:14101   */\n      add\n        /* \"#utility.yul\":14051:14062   */\n      dup3\n        /* \"#utility.yul\":14022:14102   */\n      tag_149\n      jump\t// in\n    tag_310:\n        /* \"#utility.yul\":13681:14112   */\n      pop\n      pop\n        /* \"#utility.yul\":13666:14112   */\n    tag_306:\n        /* \"#utility.yul\":13576:14119   */\n      pop\n      pop\n      pop\n      jump\t// out\n        /* \"#utility.yul\":14125:14242   */\n    tag_151:\n        /* \"#utility.yul\":14179:14187   */\n      0x00\n        /* \"#utility.yul\":14229:14234   */\n      dup3\n        /* \"#utility.yul\":14223:14227   */\n      dup3\n        /* \"#utility.yul\":14219:14235   */\n      shr\n        /* \"#utility.yul\":14198:14235   */\n      swap1\n      pop\n        /* \"#utility.yul\":14125:14242   */\n      swap3\n      swap2\n      pop\n      pop\n      jump\t// out\n        /* \"#utility.yul\":14248:14417   */\n    tag_152:\n        /* \"#utility.yul\":14292:14298   */\n      0x00\n        /* \"#utility.yul\":14325:14376   */\n      tag_314\n        /* \"#utility.yul\":14373:14374   */\n      0x00\n        /* \"#utility.yul\":14369:14375   */\n      not\n        /* \"#utility.yul\":14361:14366   */\n      dup5\n        /* \"#utility.yul\":14358:14359   */\n      0x08\n        /* \"#utility.yul\":14354:14367   */\n      mul\n        /* \"#utility.yul\":14325:14376   */\n      tag_151\n      jump\t// in\n    tag_314:\n        /* \"#utility.yul\":14321:14377   */\n      not\n        /* \"#utility.yul\":14406:14410   */\n      dup1\n        /* \"#utility.yul\":14400:14404   */\n      dup4\n        /* \"#utility.yul\":14396:14411   */\n      and\n        /* \"#utility.yul\":14386:14411   */\n      swap2\n      pop\n        /* \"#utility.yul\":14299:14417   */\n      pop\n        /* \"#utility.yul\":14248:14417   */\n      swap3\n      swap2\n      pop\n      pop\n      jump\t// out\n        /* \"#utility.yul\":14422:14717   */\n    tag_153:\n        /* \"#utility.yul\":14498:14502   */\n      0x00\n        /* \"#utility.yul\":14644:14673   */\n      tag_316\n        /* \"#utility.yul\":14669:14672   */\n      dup4\n        /* \"#utility.yul\":14663:14667   */\n      dup4\n        /* \"#utility.yul\":14644:14673   */\n      tag_152\n      jump\t// in\n    tag_316:\n        /* \"#utility.yul\":14636:14673   */\n      swap2\n      pop\n        /* \"#utility.yul\":14706:14709   */\n      dup3\n        /* \"#utility.yul\":14703:14704   */\n      0x02\n        /* \"#utility.yul\":14699:14710   */\n      mul\n        /* \"#utility.yul\":14693:14697   */\n      dup3\n        /* \"#utility.yul\":14690:14711   */\n      or\n        /* \"#utility.yul\":14682:14711   */\n      swap1\n      pop\n        /* \"#utility.yul\":14422:14717   */\n      swap3\n      swap2\n      pop\n      pop\n      jump\t// out\n        /* \"#utility.yul\":14722:16117   */\n    tag_55:\n        /* \"#utility.yul\":14839:14876   */\n      tag_318\n        /* \"#utility.yul\":14872:14875   */\n      dup3\n        /* \"#utility.yul\":14839:14876   */\n      tag_117\n      jump\t// in\n    tag_318:\n        /* \"#utility.yul\":14941:14959   */\n      0xffffffffffffffff\n        /* \"#utility.yul\":14933:14939   */\n      dup2\n        /* \"#utility.yul\":14930:14960   */\n      gt\n        /* \"#utility.yul\":14927:14983   */\n      iszero\n      tag_319\n      jumpi\n        /* \"#utility.yul\":14963:14981   */\n      tag_320\n      tag_106\n      jump\t// in\n    tag_320:\n        /* \"#utility.yul\":14927:14983   */\n    tag_319:\n        /* \"#utility.yul\":15007:15045   */\n      tag_321\n        /* \"#utility.yul\":15039:15043   */\n      dup3\n        /* \"#utility.yul\":15033:15044   */\n      sload\n        /* \"#utility.yul\":15007:15045   */\n      tag_64\n      jump\t// in\n    tag_321:\n        /* \"#utility.yul\":15092:15159   */\n      tag_322\n        /* \"#utility.yul\":15152:15158   */\n      dup3\n        /* \"#utility.yul\":15144:15150   */\n      dup3\n        /* \"#utility.yul\":15138:15142   */\n      dup6\n        /* \"#utility.yul\":15092:15159   */\n      tag_150\n      jump\t// in\n    tag_322:\n        /* \"#utility.yul\":15186:15187   */\n      0x00\n        /* \"#utility.yul\":15210:15214   */\n      0x20\n        /* \"#utility.yul\":15197:15214   */\n      swap1\n      pop\n        /* \"#utility.yul\":15242:15244   */\n      0x1f\n        /* \"#utility.yul\":15234:15240   */\n      dup4\n        /* \"#utility.yul\":15231:15245   */\n      gt\n        /* \"#utility.yul\":15259:15260   */\n      0x01\n        /* \"#utility.yul\":15254:15872   */\n      dup2\n      eq\n      tag_324\n      jumpi\n        /* \"#utility.yul\":15916:15917   */\n      0x00\n        /* \"#utility.yul\":15933:15939   */\n      dup5\n        /* \"#utility.yul\":15930:16007   */\n      iszero\n      tag_325\n      jumpi\n        /* \"#utility.yul\":15982:15991   */\n      dup3\n        /* \"#utility.yul\":15977:15980   */\n      dup8\n        /* \"#utility.yul\":15973:15992   */\n      add\n        /* \"#utility.yul\":15967:15993   */\n      mload\n        /* \"#utility.yul\":15958:15993   */\n      swap1\n      pop\n        /* \"#utility.yul\":15930:16007   */\n    tag_325:\n        /* \"#utility.yul\":16033:16100   */\n      tag_326\n        /* \"#utility.yul\":16093:16099   */\n      dup6\n        /* \"#utility.yul\":16086:16091   */\n      dup3\n        /* \"#utility.yul\":16033:16100   */\n      tag_153\n      jump\t// in\n    tag_326:\n        /* \"#utility.yul\":16027:16031   */\n      dup7\n        /* \"#utility.yul\":16020:16101   */\n      sstore\n        /* \"#utility.yul\":15889:16111   */\n      pop\n        /* \"#utility.yul\":15224:16111   */\n      jump(tag_323)\n        /* \"#utility.yul\":15254:15872   */\n    tag_324:\n        /* \"#utility.yul\":15306:15310   */\n      0x1f\n        /* \"#utility.yul\":15302:15311   */\n      not\n        /* \"#utility.yul\":15294:15300   */\n      dup5\n        /* \"#utility.yul\":15290:15312   */\n      and\n        /* \"#utility.yul\":15340:15377   */\n      tag_327\n        /* \"#utility.yul\":15372:15376   */\n      dup7\n        /* \"#utility.yul\":15340:15377   */\n      tag_139\n      jump\t// in\n    tag_327:\n        /* \"#utility.yul\":15399:15400   */\n      0x00\n        /* \"#utility.yul\":15413:15621   */\n    tag_328:\n        /* \"#utility.yul\":15427:15434   */\n      dup3\n        /* \"#utility.yul\":15424:15425   */\n      dup2\n        /* \"#utility.yul\":15421:15435   */\n      lt\n        /* \"#utility.yul\":15413:15621   */\n      iszero\n      tag_330\n      jumpi\n        /* \"#utility.yul\":15506:15515   */\n      dup5\n        /* \"#utility.yul\":15501:15504   */\n      dup10\n        /* \"#utility.yul\":15497:15516   */\n      add\n        /* \"#utility.yul\":15491:15517   */\n      mload\n        /* \"#utility.yul\":15483:15489   */\n      dup3\n        /* \"#utility.yul\":15476:15518   */\n      sstore\n        /* \"#utility.yul\":15557:15558   */\n      0x01\n        /* \"#utility.yul\":15549:15555   */\n      dup3\n        /* \"#utility.yul\":15545:15559   */\n      add\n        /* \"#utility.yul\":15535:15559   */\n      swap2\n      pop\n        /* \"#utility.yul\":15604:15606   */\n      0x20\n        /* \"#utility.yul\":15593:15602   */\n      dup6\n        /* \"#utility.yul\":15589:15607   */\n      add\n        /* \"#utility.yul\":15576:15607   */\n      swap5\n      pop\n        /* \"#utility.yul\":15450:15454   */\n      0x20\n        /* \"#utility.yul\":15447:15448   */\n      dup2\n        /* \"#utility.yul\":15443:15455   */\n      add\n        /* \"#utility.yul\":15438:15455   */\n      swap1\n      pop\n        /* \"#utility.yul\":15413:15621   */\n      jump(tag_328)\n    tag_330:\n        /* \"#utility.yul\":15649:15655   */\n      dup7\n        /* \"#utility.yul\":15640:15647   */\n      dup4\n        /* \"#utility.yul\":15637:15656   */\n      lt\n        /* \"#utility.yul\":15634:15813   */\n      iszero\n      tag_331\n      jumpi\n        /* \"#utility.yul\":15707:15716   */\n      dup5\n        /* \"#utility.yul\":15702:15705   */\n      dup10\n        /* \"#utility.yul\":15698:15717   */\n      add\n        /* \"#utility.yul\":15692:15718   */\n      mload\n        /* \"#utility.yul\":15750:15798   */\n      tag_332\n        /* \"#utility.yul\":15792:15796   */\n      0x1f\n        /* \"#utility.yul\":15784:15790   */\n      dup10\n        /* \"#utility.yul\":15780:15797   */\n      and\n        /* \"#utility.yul\":15769:15778   */\n      dup3\n        /* \"#utility.yul\":15750:15798   */\n      tag_152\n      jump\t// in\n    tag_332:\n        /* \"#utility.yul\":15742:15748   */\n      dup4\n        /* \"#utility.yul\":15735:15799   */\n      sstore\n        /* \"#utility.yul\":15657:15813   */\n      pop\n        /* \"#utility.yul\":15634:15813   */\n    tag_331:\n        /* \"#utility.yul\":15859:15860   */\n      0x01\n        /* \"#utility.yul\":15855:15856   */\n      0x02\n        /* \"#utility.yul\":15847:15853   */\n      dup9\n        /* \"#utility.yul\":15843:15857   */\n      mul\n        /* \"#utility.yul\":15839:15861   */\n      add\n        /* \"#utility.yul\":15833:15837   */\n      dup9\n        /* \"#utility.yul\":15826:15862   */\n      sstore\n        /* \"#utility.yul\":15261:15872   */\n      pop\n      pop\n      pop\n        /* \"#utility.yul\":15224:16111   */\n    tag_323:\n      pop\n        /* \"#utility.yul\":14814:16117   */\n      pop\n      pop\n      pop\n        /* \"#utility.yul\":14722:16117   */\n      pop\n      pop\n      jump\t// out\n        /* \"#utility.yul\":16123:16303   */\n    tag_154:\n        /* \"#utility.yul\":16171:16248   */\n      0x4e487b7100000000000000000000000000000000000000000000000000000000\n        /* \"#utility.yul\":16168:16169   */\n      0x00\n        /* \"#utility.yul\":16161:16249   */\n      mstore\n        /* \"#utility.yul\":16268:16272   */\n      0x11\n        /* \"#utility.yul\":16265:16266   */\n      0x04\n        /* \"#utility.yul\":16258:16273   */\n      mstore\n        /* \"#utility.yul\":16292:16296   */\n      0x24\n        /* \"#utility.yul\":16289:16290   */\n      0x00\n        /* \"#utility.yul\":16282:16297   */\n      revert\n        /* \"#utility.yul\":16309:16503   */\n    tag_57:\n        /* \"#utility.yul\":16349:16353   */\n      0x00\n        /* \"#utility.yul\":16369:16389   */\n      tag_335\n        /* \"#utility.yul\":16387:16388   */\n      dup3\n        /* \"#utility.yul\":16369:16389   */\n      tag_113\n      jump\t// in\n    tag_335:\n        /* \"#utility.yul\":16364:16389   */\n      swap2\n      pop\n        /* \"#utility.yul\":16403:16423   */\n      tag_336\n        /* \"#utility.yul\":16421:16422   */\n      dup4\n        /* \"#utility.yul\":16403:16423   */\n      tag_113\n      jump\t// in\n    tag_336:\n        /* \"#utility.yul\":16398:16423   */\n      swap3\n      pop\n        /* \"#utility.yul\":16447:16448   */\n      dup3\n        /* \"#utility.yul\":16444:16445   */\n      dup3\n        /* \"#utility.yul\":16440:16449   */\n      sub\n        /* \"#utility.yul\":16432:16449   */\n      swap1\n      pop\n        /* \"#utility.yul\":16471:16472   */\n      dup2\n        /* \"#utility.yul\":16465:16469   */\n      dup2\n        /* \"#utility.yul\":16462:16473   */\n      gt\n        /* \"#utility.yul\":16459:16496   */\n      iszero\n      tag_337\n      jumpi\n        /* \"#utility.yul\":16476:16494   */\n      tag_338\n      tag_154\n      jump\t// in\n    tag_338:\n        /* \"#utility.yul\":16459:16496   */\n    tag_337:\n        /* \"#utility.yul\":16309:16503   */\n      swap3\n      swap2\n      pop\n      pop\n      jump\t// out\n        /* \"#utility.yul\":16509:16689   */\n    tag_61:\n        /* \"#utility.yul\":16557:16634   */\n      0x4e487b7100000000000000000000000000000000000000000000000000000000\n        /* \"#utility.yul\":16554:16555   */\n      0x00\n        /* \"#utility.yul\":16547:16635   */\n      mstore\n        /* \"#utility.yul\":16654:16658   */\n      0x32\n        /* \"#utility.yul\":16651:16652   */\n      0x04\n        /* \"#utility.yul\":16644:16659   */\n      mstore\n        /* \"#utility.yul\":16678:16682   */\n      0x24\n        /* \"#utility.yul\":16675:16676   */\n      0x00\n        /* \"#utility.yul\":16668:16683   */\n      revert\n        /* \"#utility.yul\":16695:16856   */\n    tag_155:\n        /* \"#utility.yul\":16835:16848   */\n      0x4f6e6c79206f776e65722e000000000000000000000000000000000000000000\n        /* \"#utility.yul\":16831:16832   */\n      0x00\n        /* \"#utility.yul\":16823:16829   */\n      dup3\n        /* \"#utility.yul\":16819:16833   */\n      add\n        /* \"#utility.yul\":16812:16849   */\n      mstore\n        /* \"#utility.yul\":16695:16856   */\n      pop\n      jump\t// out\n        /* \"#utility.yul\":16862:17228   */\n    tag_156:\n        /* \"#utility.yul\":17004:17007   */\n      0x00\n        /* \"#utility.yul\":17025:17092   */\n      tag_342\n        /* \"#utility.yul\":17089:17091   */\n      0x0b\n        /* \"#utility.yul\":17084:17087   */\n      dup4\n        /* \"#utility.yul\":17025:17092   */\n      tag_118\n      jump\t// in\n    tag_342:\n        /* \"#utility.yul\":17018:17092   */\n      swap2\n      pop\n        /* \"#utility.yul\":17101:17194   */\n      tag_343\n        /* \"#utility.yul\":17190:17193   */\n      dup3\n        /* \"#utility.yul\":17101:17194   */\n      tag_155\n      jump\t// in\n    tag_343:\n        /* \"#utility.yul\":17219:17221   */\n      0x20\n        /* \"#utility.yul\":17214:17217   */\n      dup3\n        /* \"#utility.yul\":17210:17222   */\n      add\n        /* \"#utility.yul\":17203:17222   */\n      swap1\n      pop\n        /* \"#utility.yul\":16862:17228   */\n      swap2\n      swap1\n      pop\n      jump\t// out\n        /* \"#utility.yul\":17234:17653   */\n    tag_72:\n        /* \"#utility.yul\":17400:17404   */\n      0x00\n        /* \"#utility.yul\":17438:17440   */\n      0x20\n        /* \"#utility.yul\":17427:17436   */\n      dup3\n        /* \"#utility.yul\":17423:17441   */\n      add\n        /* \"#utility.yul\":17415:17441   */\n      swap1\n      pop\n        /* \"#utility.yul\":17487:17496   */\n      dup2\n        /* \"#utility.yul\":17481:17485   */\n      dup2\n        /* \"#utility.yul\":17477:17497   */\n      sub\n        /* \"#utility.yul\":17473:17474   */\n      0x00\n        /* \"#utility.yul\":17462:17471   */\n      dup4\n        /* \"#utility.yul\":17458:17475   */\n      add\n        /* \"#utility.yul\":17451:17498   */\n      mstore\n        /* \"#utility.yul\":17515:17646   */\n      tag_345\n        /* \"#utility.yul\":17641:17645   */\n      dup2\n        /* \"#utility.yul\":17515:17646   */\n      tag_156\n      jump\t// in\n    tag_345:\n        /* \"#utility.yul\":17507:17646   */\n      swap1\n      pop\n        /* \"#utility.yul\":17234:17653   */\n      swap2\n      swap1\n      pop\n      jump\t// out\n        /* \"#utility.yul\":17683:18514   */\n    tag_157:\n        /* \"#utility.yul\":17768:17771   */\n      0x00\n        /* \"#utility.yul\":17805:17810   */\n      dup2\n        /* \"#utility.yul\":17799:17811   */\n      sload\n        /* \"#utility.yul\":17834:17870   */\n      tag_347\n        /* \"#utility.yul\":17860:17869   */\n      dup2\n        /* \"#utility.yul\":17834:17870   */\n      tag_64\n      jump\t// in\n    tag_347:\n        /* \"#utility.yul\":17886:17957   */\n      tag_348\n        /* \"#utility.yul\":17950:17956   */\n      dup2\n        /* \"#utility.yul\":17945:17948   */\n      dup7\n        /* \"#utility.yul\":17886:17957   */\n      tag_118\n      jump\t// in\n    tag_348:\n        /* \"#utility.yul\":17879:17957   */\n      swap5\n      pop\n        /* \"#utility.yul\":17988:17989   */\n      0x01\n        /* \"#utility.yul\":17977:17986   */\n      dup3\n        /* \"#utility.yul\":17973:17990   */\n      and\n        /* \"#utility.yul\":18004:18005   */\n      0x00\n        /* \"#utility.yul\":17999:18163   */\n      dup2\n      eq\n      tag_350\n      jumpi\n        /* \"#utility.yul\":18177:18178   */\n      0x01\n        /* \"#utility.yul\":18172:18508   */\n      dup2\n      eq\n      tag_351\n      jumpi\n        /* \"#utility.yul\":17966:18508   */\n      jump(tag_349)\n        /* \"#utility.yul\":17999:18163   */\n    tag_350:\n        /* \"#utility.yul\":18083:18087   */\n      0xff\n        /* \"#utility.yul\":18079:18088   */\n      not\n        /* \"#utility.yul\":18068:18077   */\n      dup4\n        /* \"#utility.yul\":18064:18089   */\n      and\n        /* \"#utility.yul\":18059:18062   */\n      dup7\n        /* \"#utility.yul\":18052:18090   */\n      mstore\n        /* \"#utility.yul\":18143:18149   */\n      dup2\n        /* \"#utility.yul\":18136:18150   */\n      iszero\n        /* \"#utility.yul\":18129:18151   */\n      iszero\n        /* \"#utility.yul\":18123:18127   */\n      0x20\n        /* \"#utility.yul\":18119:18152   */\n      mul\n        /* \"#utility.yul\":18114:18117   */\n      dup7\n        /* \"#utility.yul\":18110:18153   */\n      add\n        /* \"#utility.yul\":18103:18153   */\n      swap4\n      pop\n        /* \"#utility.yul\":17999:18163   */\n      jump(tag_349)\n        /* \"#utility.yul\":18172:18508   */\n    tag_351:\n        /* \"#utility.yul\":18239:18277   */\n      tag_352\n        /* \"#utility.yul\":18271:18276   */\n      dup6\n        /* \"#utility.yul\":18239:18277   */\n      tag_139\n      jump\t// in\n    tag_352:\n        /* \"#utility.yul\":18299:18300   */\n      0x00\n        /* \"#utility.yul\":18313:18467   */\n    tag_353:\n        /* \"#utility.yul\":18327:18333   */\n      dup4\n        /* \"#utility.yul\":18324:18325   */\n      dup2\n        /* \"#utility.yul\":18321:18334   */\n      lt\n        /* \"#utility.yul\":18313:18467   */\n      iszero\n      tag_355\n      jumpi\n        /* \"#utility.yul\":18401:18408   */\n      dup2\n        /* \"#utility.yul\":18395:18409   */\n      sload\n        /* \"#utility.yul\":18391:18392   */\n      dup2\n        /* \"#utility.yul\":18386:18389   */\n      dup10\n        /* \"#utility.yul\":18382:18393   */\n      add\n        /* \"#utility.yul\":18375:18410   */\n      mstore\n        /* \"#utility.yul\":18451:18452   */\n      0x01\n        /* \"#utility.yul\":18442:18449   */\n      dup3\n        /* \"#utility.yul\":18438:18453   */\n      add\n        /* \"#utility.yul\":18427:18453   */\n      swap2\n      pop\n        /* \"#utility.yul\":18349:18353   */\n      0x20\n        /* \"#utility.yul\":18346:18347   */\n      dup2\n        /* \"#utility.yul\":18342:18354   */\n      add\n        /* \"#utility.yul\":18337:18354   */\n      swap1\n      pop\n        /* \"#utility.yul\":18313:18467   */\n      jump(tag_353)\n    tag_355:\n        /* \"#utility.yul\":18496:18497   */\n      dup1\n        /* \"#utility.yul\":18491:18494   */\n      dup9\n        /* \"#utility.yul\":18487:18498   */\n      add\n        /* \"#utility.yul\":18480:18498   */\n      swap6\n      pop\n        /* \"#utility.yul\":18179:18508   */\n      pop\n      pop\n        /* \"#utility.yul\":17966:18508   */\n    tag_349:\n      pop\n        /* \"#utility.yul\":17772:18514   */\n      pop\n      pop\n        /* \"#utility.yul\":17683:18514   */\n      swap3\n      swap2\n      pop\n      pop\n      jump\t// out\n        /* \"#utility.yul\":18520:19028   */\n    tag_82:\n        /* \"#utility.yul\":18678:18682   */\n      0x00\n        /* \"#utility.yul\":18716:18718   */\n      0x40\n        /* \"#utility.yul\":18705:18714   */\n      dup3\n        /* \"#utility.yul\":18701:18719   */\n      add\n        /* \"#utility.yul\":18693:18719   */\n      swap1\n      pop\n        /* \"#utility.yul\":18765:18774   */\n      dup2\n        /* \"#utility.yul\":18759:18763   */\n      dup2\n        /* \"#utility.yul\":18755:18775   */\n      sub\n        /* \"#utility.yul\":18751:18752   */\n      0x00\n        /* \"#utility.yul\":18740:18749   */\n      dup4\n        /* \"#utility.yul\":18736:18753   */\n      add\n        /* \"#utility.yul\":18729:18776   */\n      mstore\n        /* \"#utility.yul\":18793:18868   */\n      tag_357\n        /* \"#utility.yul\":18863:18867   */\n      dup2\n        /* \"#utility.yul\":18854:18860   */\n      dup6\n        /* \"#utility.yul\":18793:18868   */\n      tag_157\n      jump\t// in\n    tag_357:\n        /* \"#utility.yul\":18785:18868   */\n      swap1\n      pop\n        /* \"#utility.yul\":18915:18924   */\n      dup2\n        /* \"#utility.yul\":18909:18913   */\n      dup2\n        /* \"#utility.yul\":18905:18925   */\n      sub\n        /* \"#utility.yul\":18900:18902   */\n      0x20\n        /* \"#utility.yul\":18889:18898   */\n      dup4\n        /* \"#utility.yul\":18885:18903   */\n      add\n        /* \"#utility.yul\":18878:18926   */\n      mstore\n        /* \"#utility.yul\":18943:19021   */\n      tag_358\n        /* \"#utility.yul\":19016:19020   */\n      dup2\n        /* \"#utility.yul\":19007:19013   */\n      dup5\n        /* \"#utility.yul\":18943:19021   */\n      tag_120\n      jump\t// in\n    tag_358:\n        /* \"#utility.yul\":18935:19021   */\n      swap1\n      pop\n        /* \"#utility.yul\":18520:19028   */\n      swap4\n      swap3\n      pop\n      pop\n      pop\n      jump\t// out\n\n    auxdata: 0xa2646970667358221220061b27f0b6e480720d15daa5052d5ee25fe0c7ed04b7857cf7adcca2af606a8064736f6c634300081e0033\n}\n",
				"bytecode": {
					"linkReferences": {},
					"object": "6080604052348015600e575f5ffd5b503360015f6101000a81548173ffffffffffffffffffffffffffffffffffffffff021916908373ffffffffffffffffffffffffffffffffffffffff160217905550600160025f3373ffffffffffffffffffffffffffffffffffffffff1673ffffffffffffffffffffffffffffffffffffffff1681526020019081526020015f205f6101000a81548160ff02191690831515021790555061112d806100b15f395ff3fe608060405234801561000f575f5ffd5b5060043610610086575f3560e01c8063a7cd52cb11610059578063a7cd52cb14610124578063b682000214610154578063ca6d56dc14610170578063d03d58491461018c57610086565b80630bf803e41461008a5780631a3cd59a146100ba5780631f81595d146100ea5780638da5cb5b14610106575b5f5ffd5b6100a4600480360381019061009f919061086e565b6101aa565b6040516100b191906108cd565b60405180910390f35b6100d460048036038101906100cf9190610910565b610284565b6040516100e1919061099b565b60405180910390f35b61010460048036038101906100ff9190610a15565b61032f565b005b61010e610415565b60405161011b9190610a4f565b60405180910390f35b61013e60048036038101906101399190610a15565b61043a565b60405161014b9190610a82565b60405180910390f35b61016e60048036038101906101699190610a9b565b610457565b005b61018a60048036038101906101859190610a15565b610567565b005b61019461064e565b6040516101a19190610bf8565b60405180910390f35b5f6001151560025f3373ffffffffffffffffffffffffffffffffffffffff1673ffffffffffffffffffffffffffffffffffffffff1681526020019081526020015f205f9054906101000a900460ff1615151461023b576040517f08c379a000000000000000000000000000000000000000000000000000000000815260040161023290610c62565b60405180910390fd5b5f82908060018154018082558091505060019003905f5260205f20015f90919091909150908161026b9190610e7d565b5060015f8054905061027d9190610f79565b9050919050565b60605f828154811061029957610298610fac565b5b905f5260205f200180546102ac90610cad565b80601f01602080910402602001604051908101604052809291908181526020018280546102d890610cad565b80156103235780601f106102fa57610100808354040283529160200191610323565b820191905f5260205f20905b81548152906001019060200180831161030657829003601f168201915b50505050509050919050565b60015f9054906101000a900473ffffffffffffffffffffffffffffffffffffffff1673ffffffffffffffffffffffffffffffffffffffff163373ffffffffffffffffffffffffffffffffffffffff16146103be576040517f08c379a00000000000000000000000000000000000000000000000000000000081526004016103b590611023565b60405180910390fd5b5f60025f8373ffffffffffffffffffffffffffffffffffffffff1673ffffffffffffffffffffffffffffffffffffffff1681526020019081526020015f205f6101000a81548160ff02191690831515021790555050565b60015f9054906101000a900473ffffffffffffffffffffffffffffffffffffffff1681565b6002602052805f5260405f205f915054906101000a900460ff1681565b6001151560025f3373ffffffffffffffffffffffffffffffffffffffff1673ffffffffffffffffffffffffffffffffffffffff1681526020019081526020015f205f9054906101000a900460ff161515146104e7576040517f08c379a00000000000000000000000000000000000000000000000000000000081526004016104de90610c62565b60405180910390fd5b7f305058d54db6daf26994cd687b168a24cdd9a7201462f1659782c4e4299879925f838154811061051b5761051a610fac565b5b905f5260205f2001826040516105329291906110c2565b60405180910390a1805f838154811061054e5761054d610fac565b5b905f5260205f200190816105629190610e7d565b505050565b60015f9054906101000a900473ffffffffffffffffffffffffffffffffffffffff1673ffffffffffffffffffffffffffffffffffffffff163373ffffffffffffffffffffffffffffffffffffffff16146105f6576040517f08c379a00000000000000000000000000000000000000000000000000000000081526004016105ed90611023565b60405180910390fd5b600160025f8373ffffffffffffffffffffffffffffffffffffffff1673ffffffffffffffffffffffffffffffffffffffff1681526020019081526020015f205f6101000a81548160ff02191690831515021790555050565b60605f805480602002602001604051908101604052809291908181526020015f905b82821015610718578382905f5260205f2001805461068d90610cad565b80601f01602080910402602001604051908101604052809291908181526020018280546106b990610cad565b80156107045780601f106106db57610100808354040283529160200191610704565b820191905f5260205f20905b8154815290600101906020018083116106e757829003601f168201915b505050505081526020019060010190610670565b50505050905090565b5f604051905090565b5f5ffd5b5f5ffd5b5f5ffd5b5f5ffd5b5f601f19601f8301169050919050565b7f4e487b71000000000000000000000000000000000000000000000000000000005f52604160045260245ffd5b6107808261073a565b810181811067ffffffffffffffff8211171561079f5761079e61074a565b5b80604052505050565b5f6107b1610721565b90506107bd8282610777565b919050565b5f67ffffffffffffffff8211156107dc576107db61074a565b5b6107e58261073a565b9050602081019050919050565b828183375f83830152505050565b5f61081261080d846107c2565b6107a8565b90508281526020810184848401111561082e5761082d610736565b5b6108398482856107f2565b509392505050565b5f82601f83011261085557610854610732565b5b8135610865848260208601610800565b91505092915050565b5f602082840312156108835761088261072a565b5b5f82013567ffffffffffffffff8111156108a05761089f61072e565b5b6108ac84828501610841565b91505092915050565b5f819050919050565b6108c7816108b5565b82525050565b5f6020820190506108e05f8301846108be565b92915050565b6108ef816108b5565b81146108f9575f5ffd5b50565b5f8135905061090a816108e6565b92915050565b5f602082840312156109255761092461072a565b5b5f610932848285016108fc565b91505092915050565b5f81519050919050565b5f82825260208201905092915050565b8281835e5f83830152505050565b5f61096d8261093b565b6109778185610945565b9350610987818560208601610955565b6109908161073a565b840191505092915050565b5f6020820190508181035f8301526109b38184610963565b905092915050565b5f73ffffffffffffffffffffffffffffffffffffffff82169050919050565b5f6109e4826109bb565b9050919050565b6109f4816109da565b81146109fe575f5ffd5b50565b5f81359050610a0f816109eb565b92915050565b5f60208284031215610a2a57610a2961072a565b5b5f610a3784828501610a01565b91505092915050565b610a49816109da565b82525050565b5f602082019050610a625f830184610a40565b92915050565b5f8115159050919050565b610a7c81610a68565b82525050565b5f602082019050610a955f830184610a73565b92915050565b5f5f60408385031215610ab157610ab061072a565b5b5f610abe858286016108fc565b925050602083013567ffffffffffffffff811115610adf57610ade61072e565b5b610aeb85828601610841565b9150509250929050565b5f81519050919050565b5f82825260208201905092915050565b5f819050602082019050919050565b5f82825260208201905092915050565b5f610b388261093b565b610b428185610b1e565b9350610b52818560208601610955565b610b5b8161073a565b840191505092915050565b5f610b718383610b2e565b905092915050565b5f602082019050919050565b5f610b8f82610af5565b610b998185610aff565b935083602082028501610bab85610b0f565b805f5b85811015610be65784840389528151610bc78582610b66565b9450610bd283610b79565b925060208a01995050600181019050610bae565b50829750879550505050505092915050565b5f6020820190508181035f830152610c108184610b85565b905092915050565b7f4f6e6c7920616c6c6f776c6973742e00000000000000000000000000000000005f82015250565b5f610c4c600f83610945565b9150610c5782610c18565b602082019050919050565b5f6020820190508181035f830152610c7981610c40565b9050919050565b7f4e487b71000000000000000000000000000000000000000000000000000000005f52602260045260245ffd5b5f6002820490506001821680610cc457607f821691505b602082108103610cd757610cd6610c80565b5b50919050565b5f819050815f5260205f209050919050565b5f6020601f8301049050919050565b5f82821b905092915050565b5f60088302610d397fffffffffffffffffffffffffffffffffffffffffffffffffffffffffffffffff82610cfe565b610d438683610cfe565b95508019841693508086168417925050509392505050565b5f819050919050565b5f610d7e610d79610d74846108b5565b610d5b565b6108b5565b9050919050565b5f819050919050565b610d9783610d64565b610dab610da382610d85565b848454610d0a565b825550505050565b5f5f905090565b610dc2610db3565b610dcd818484610d8e565b505050565b5b81811015610df057610de55f82610dba565b600181019050610dd3565b5050565b601f821115610e3557610e0681610cdd565b610e0f84610cef565b81016020851015610e1e578190505b610e32610e2a85610cef565b830182610dd2565b50505b505050565b5f82821c905092915050565b5f610e555f1984600802610e3a565b1980831691505092915050565b5f610e6d8383610e46565b9150826002028217905092915050565b610e868261093b565b67ffffffffffffffff811115610e9f57610e9e61074a565b5b610ea98254610cad565b610eb4828285610df4565b5f60209050601f831160018114610ee5575f8415610ed3578287015190505b610edd8582610e62565b865550610f44565b601f198416610ef386610cdd565b5f5b82811015610f1a57848901518255600182019150602085019450602081019050610ef5565b86831015610f375784890151610f33601f891682610e46565b8355505b6001600288020188555050505b505050505050565b7f4e487b71000000000000000000000000000000000000000000000000000000005f52601160045260245ffd5b5f610f83826108b5565b9150610f8e836108b5565b9250828203905081811115610fa657610fa5610f4c565b5b92915050565b7f4e487b71000000000000000000000000000000000000000000000000000000005f52603260045260245ffd5b7f4f6e6c79206f776e65722e0000000000000000000000000000000000000000005f82015250565b5f61100d600b83610945565b915061101882610fd9565b602082019050919050565b5f6020820190508181035f83015261103a81611001565b9050919050565b5f815461104d81610cad565b6110578186610945565b9450600182165f81146110715760018114611087576110b9565b60ff1983168652811515602002860193506110b9565b61109085610cdd565b5f5b838110156110b157815481890152600182019150602081019050611092565b808801955050505b50505092915050565b5f6040820190508181035f8301526110da8185611041565b905081810360208301526110ee8184610963565b9050939250505056fea2646970667358221220061b27f0b6e480720d15daa5052d5ee25fe0c7ed04b7857cf7adcca2af606a8064736f6c634300081e0033",
					"opcodes": "PUSH1 0x80 PUSH1 0x40 MSTORE CALLVALUE DUP1 ISZERO PUSH1 0xE JUMPI PUSH0 PUSH0 REVERT JUMPDEST POP CALLER PUSH1 0x1 PUSH0 PUSH2 0x100 EXP DUP2 SLOAD DUP2 PUSH20 0xFFFFFFFFFFFFFFFFFFFFFFFFFFFFFFFFFFFFFFFF MUL NOT AND SWAP1 DUP4 PUSH20 0xFFFFFFFFFFFFFFFFFFFFFFFFFFFFFFFFFFFFFFFF AND MUL OR SWAP1 SSTORE POP PUSH1 0x1 PUSH1 0x2 PUSH0 CALLER PUSH20 0xFFFFFFFFFFFFFFFFFFFFFFFFFFFFFFFFFFFFFFFF AND PUSH20 0xFFFFFFFFFFFFFFFFFFFFFFFFFFFFFFFFFFFFFFFF AND DUP2 MSTORE PUSH1 0x20 ADD SWAP1 DUP2 MSTORE PUSH1 0x20 ADD PUSH0 KECCAK256 PUSH0 PUSH2 0x100 EXP DUP2 SLOAD DUP2 PUSH1 0xFF MUL NOT AND SWAP1 DUP4 ISZERO ISZERO MUL OR SWAP1 SSTORE POP PUSH2 0x112D DUP1 PUSH2 0xB1 PUSH0 CODECOPY PUSH0 RETURN INVALID PUSH1 0x80 PUSH1 0x40 MSTORE CALLVALUE DUP1 ISZERO PUSH2 0xF JUMPI PUSH0 PUSH0 REVERT JUMPDEST POP PUSH1 0x4 CALLDATASIZE LT PUSH2 0x86 JUMPI PUSH0 CALLDATALOAD PUSH1 0xE0 SHR DUP1 PUSH4 0xA7CD52CB GT PUSH2 0x59 JUMPI DUP1 PUSH4 0xA7CD52CB EQ PUSH2 0x124 JUMPI DUP1 PUSH4 0xB6820002 EQ PUSH2 0x154 JUMPI DUP1 PUSH4 0xCA6D56DC EQ PUSH2 0x170 JUMPI DUP1 PUSH4 0xD03D5849 EQ PUSH2 0x18C JUMPI PUSH2 0x86 JUMP JUMPDEST DUP1 PUSH4 0xBF803E4 EQ PUSH2 0x8A JUMPI DUP1 PUSH4 0x1A3CD59A EQ PUSH2 0xBA JUMPI DUP1 PUSH4 0x1F81595D EQ PUSH2 0xEA JUMPI DUP1 PUSH4 0x8DA5CB5B EQ PUSH2 0x106 JUMPI JUMPDEST PUSH0 PUSH0 REVERT JUMPDEST PUSH2 0xA4 PUSH1 0x4 DUP1 CALLDATASIZE SUB DUP2 ADD SWAP1 PUSH2 0x9F SWAP2 SWAP1 PUSH2 0x86E JUMP JUMPDEST PUSH2 0x1AA JUMP JUMPDEST PUSH1 0x40 MLOAD PUSH2 0xB1 SWAP2 SWAP1 PUSH2 0x8CD JUMP JUMPDEST PUSH1 0x40 MLOAD DUP1 SWAP2 SUB SWAP1 RETURN JUMPDEST PUSH2 0xD4 PUSH1 0x4 DUP1 CALLDATASIZE SUB DUP2 ADD SWAP1 PUSH2 0xCF SWAP2 SWAP1 PUSH2 0x910 JUMP JUMPDEST PUSH2 0x284 JUMP JUMPDEST PUSH1 0x40 MLOAD PUSH2 0xE1 SWAP2 SWAP1 PUSH2 0x99B JUMP JUMPDEST PUSH1 0x40 MLOAD DUP1 SWAP2 SUB SWAP1 RETURN JUMPDEST PUSH2 0x104 PUSH1 0x4 DUP1 CALLDATASIZE SUB DUP2 ADD SWAP1 PUSH2 0xFF SWAP2 SWAP1 PUSH2 0xA15 JUMP JUMPDEST PUSH2 0x32F JUMP JUMPDEST STOP JUMPDEST PUSH2 0x10E PUSH2 0x415 JUMP JUMPDEST PUSH1 0x40 MLOAD PUSH2 0x11B SWAP2 SWAP1 PUSH2 0xA4F JUMP JUMPDEST PUSH1 0x40 MLOAD DUP1 SWAP2 SUB SWAP1 RETURN JUMPDEST PUSH2 0x13E PUSH1 0x4 DUP1 CALLDATASIZE SUB DUP2 ADD SWAP1 PUSH2 0x139 SWAP2 SWAP1 PUSH2 0xA15 JUMP JUMPDEST PUSH2 0x43A JUMP JUMPDEST PUSH1 0x40 MLOAD PUSH2 0x14B SWAP2 SWAP1 PUSH2 0xA82 JUMP JUMPDEST PUSH1 0x40 MLOAD DUP1 SWAP2 SUB SWAP1 RETURN JUMPDEST PUSH2 0x16E PUSH1 0x4 DUP1 CALLDATASIZE SUB DUP2 ADD SWAP1 PUSH2 0x169 SWAP2 SWAP1 PUSH2 0xA9B JUMP JUMPDEST PUSH2 0x457 JUMP JUMPDEST STOP JUMPDEST PUSH2 0x18A PUSH1 0x4 DUP1 CALLDATASIZE SUB DUP2 ADD SWAP1 PUSH2 0x185 SWAP2 SWAP1 PUSH2 0xA15 JUMP JUMPDEST PUSH2 0x567 JUMP JUMPDEST STOP JUMPDEST PUSH2 0x194 PUSH2 0x64E JUMP JUMPDEST PUSH1 0x40 MLOAD PUSH2 0x1A1 SWAP2 SWAP1 PUSH2 0xBF8 JUMP JUMPDEST PUSH1 0x40 MLOAD DUP1 SWAP2 SUB SWAP1 RETURN JUMPDEST PUSH0 PUSH1 0x1 ISZERO ISZERO PUSH1 0x2 PUSH0 CALLER PUSH20 0xFFFFFFFFFFFFFFFFFFFFFFFFFFFFFFFFFFFFFFFF AND PUSH20 0xFFFFFFFFFFFFFFFFFFFFFFFFFFFFFFFFFFFFFFFF AND DUP2 MSTORE PUSH1 0x20 ADD SWAP1 DUP2 MSTORE PUSH1 0x20 ADD PUSH0 KECCAK256 PUSH0 SWAP1 SLOAD SWAP1 PUSH2 0x100 EXP SWAP1 DIV PUSH1 0xFF AND ISZERO ISZERO EQ PUSH2 0x23B JUMPI PUSH1 0x40 MLOAD PUSH32 0x8C379A000000000000000000000000000000000000000000000000000000000 DUP2 MSTORE PUSH1 0x4 ADD PUSH2 0x232 SWAP1 PUSH2 0xC62 JUMP JUMPDEST PUSH1 0x40 MLOAD DUP1 SWAP2 SUB SWAP1 REVERT JUMPDEST PUSH0 DUP3 SWAP1 DUP1 PUSH1 0x1 DUP2 SLOAD ADD DUP1 DUP3 SSTORE DUP1 SWAP2 POP POP PUSH1 0x1 SWAP1 SUB SWAP1 PUSH0 MSTORE PUSH1 0x20 PUSH0 KECCAK256 ADD PUSH0 SWAP1 SWAP2 SWAP1 SWAP2 SWAP1 SWAP2 POP SWAP1 DUP2 PUSH2 0x26B SWAP2 SWAP1 PUSH2 0xE7D JUMP JUMPDEST POP PUSH1 0x1 PUSH0 DUP1 SLOAD SWAP1 POP PUSH2 0x27D SWAP2 SWAP1 PUSH2 0xF79 JUMP JUMPDEST SWAP1 POP SWAP2 SWAP1 POP JUMP JUMPDEST PUSH1 0x60 PUSH0 DUP3 DUP2 SLOAD DUP2 LT PUSH2 0x299 JUMPI PUSH2 0x298 PUSH2 0xFAC JUMP JUMPDEST JUMPDEST SWAP1 PUSH0 MSTORE PUSH1 0x20 PUSH0 KECCAK256 ADD DUP1 SLOAD PUSH2 0x2AC SWAP1 PUSH2 0xCAD JUMP JUMPDEST DUP1 PUSH1 0x1F ADD PUSH1 0x20 DUP1 SWAP2 DIV MUL PUSH1 0x20 ADD PUSH1 0x40 MLOAD SWAP1 DUP2 ADD PUSH1 0x40 MSTORE DUP1 SWAP3 SWAP2 SWAP1 DUP2 DUP2 MSTORE PUSH1 0x20 ADD DUP3 DUP1 SLOAD PUSH2 0x2D8 SWAP1 PUSH2 0xCAD JUMP JUMPDEST DUP1 ISZERO PUSH2 0x323 JUMPI DUP1 PUSH1 0x1F LT PUSH2 0x2FA JUMPI PUSH2 0x100 DUP1 DUP4 SLOAD DIV MUL DUP4 MSTORE SWAP2 PUSH1 0x20 ADD SWAP2 PUSH2 0x323 JUMP JUMPDEST DUP3 ADD SWAP2 SWAP1 PUSH0 MSTORE PUSH1 0x20 PUSH0 KECCAK256 SWAP1 JUMPDEST DUP2 SLOAD DUP2 MSTORE SWAP1 PUSH1 0x1 ADD SWAP1 PUSH1 0x20 ADD DUP1 DUP4 GT PUSH2 0x306 JUMPI DUP3 SWAP1 SUB PUSH1 0x1F AND DUP3 ADD SWAP2 JUMPDEST POP POP POP POP POP SWAP1 POP SWAP2 SWAP1 POP JUMP JUMPDEST PUSH1 0x1 PUSH0 SWAP1 SLOAD SWAP1 PUSH2 0x100 EXP SWAP1 DIV PUSH20 0xFFFFFFFFFFFFFFFFFFFFFFFFFFFFFFFFFFFFFFFF AND PUSH20 0xFFFFFFFFFFFFFFFFFFFFFFFFFFFFFFFFFFFFFFFF AND CALLER PUSH20 0xFFFFFFFFFFFFFFFFFFFFFFFFFFFFFFFFFFFFFFFF AND EQ PUSH2 0x3BE JUMPI PUSH1 0x40 MLOAD PUSH32 0x8C379A000000000000000000000000000000000000000000000000000000000 DUP2 MSTORE PUSH1 0x4 ADD PUSH2 0x3B5 SWAP1 PUSH2 0x1023 JUMP JUMPDEST PUSH1 0x40 MLOAD DUP1 SWAP2 SUB SWAP1 REVERT JUMPDEST PUSH0 PUSH1 0x2 PUSH0 DUP4 PUSH20 0xFFFFFFFFFFFFFFFFFFFFFFFFFFFFFFFFFFFFFFFF AND PUSH20 0xFFFFFFFFFFFFFFFFFFFFFFFFFFFFFFFFFFFFFFFF AND DUP2 MSTORE PUSH1 0x20 ADD SWAP1 DUP2 MSTORE PUSH1 0x20 ADD PUSH0 KECCAK256 PUSH0 PUSH2 0x100 EXP DUP2 SLOAD DUP2 PUSH1 0xFF MUL NOT AND SWAP1 DUP4 ISZERO ISZERO MUL OR SWAP1 SSTORE POP POP JUMP JUMPDEST PUSH1 0x1 PUSH0 SWAP1 SLOAD SWAP1 PUSH2 0x100 EXP SWAP1 DIV PUSH20 0xFFFFFFFFFFFFFFFFFFFFFFFFFFFFFFFFFFFFFFFF AND DUP2 JUMP JUMPDEST PUSH1 0x2 PUSH1 0x20 MSTORE DUP1 PUSH0 MSTORE PUSH1 0x40 PUSH0 KECCAK256 PUSH0 SWAP2 POP SLOAD SWAP1 PUSH2 0x100 EXP SWAP1 DIV PUSH1 0xFF AND DUP2 JUMP JUMPDEST PUSH1 0x1 ISZERO ISZERO PUSH1 0x2 PUSH0 CALLER PUSH20 0xFFFFFFFFFFFFFFFFFFFFFFFFFFFFFFFFFFFFFFFF AND PUSH20 0xFFFFFFFFFFFFFFFFFFFFFFFFFFFFFFFFFFFFFFFF AND DUP2 MSTORE PUSH1 0x20 ADD SWAP1 DUP2 MSTORE PUSH1 0x20 ADD PUSH0 KECCAK256 PUSH0 SWAP1 SLOAD SWAP1 PUSH2 0x100 EXP SWAP1 DIV PUSH1 0xFF AND ISZERO ISZERO EQ PUSH2 0x4E7 JUMPI PUSH1 0x40 MLOAD PUSH32 0x8C379A000000000000000000000000000000000000000000000000000000000 DUP2 MSTORE PUSH1 0x4 ADD PUSH2 0x4DE SWAP1 PUSH2 0xC62 JUMP JUMPDEST PUSH1 0x40 MLOAD DUP1 SWAP2 SUB SWAP1 REVERT JUMPDEST PUSH32 0x305058D54DB6DAF26994CD687B168A24CDD9A7201462F1659782C4E429987992 PUSH0 DUP4 DUP2 SLOAD DUP2 LT PUSH2 0x51B JUMPI PUSH2 0x51A PUSH2 0xFAC JUMP JUMPDEST JUMPDEST SWAP1 PUSH0 MSTORE PUSH1 0x20 PUSH0 KECCAK256 ADD DUP3 PUSH1 0x40 MLOAD PUSH2 0x532 SWAP3 SWAP2 SWAP1 PUSH2 0x10C2 JUMP JUMPDEST PUSH1 0x40 MLOAD DUP1 SWAP2 SUB SWAP1 LOG1 DUP1 PUSH0 DUP4 DUP2 SLOAD DUP2 LT PUSH2 0x54E JUMPI PUSH2 0x54D PUSH2 0xFAC JUMP JUMPDEST JUMPDEST SWAP1 PUSH0 MSTORE PUSH1 0x20 PUSH0 KECCAK256 ADD SWAP1 DUP2 PUSH2 0x562 SWAP2 SWAP1 PUSH2 0xE7D JUMP JUMPDEST POP POP POP JUMP JUMPDEST PUSH1 0x1 PUSH0 SWAP1 SLOAD SWAP1 PUSH2 0x100 EXP SWAP1 DIV PUSH20 0xFFFFFFFFFFFFFFFFFFFFFFFFFFFFFFFFFFFFFFFF AND PUSH20 0xFFFFFFFFFFFFFFFFFFFFFFFFFFFFFFFFFFFFFFFF AND CALLER PUSH20 0xFFFFFFFFFFFFFFFFFFFFFFFFFFFFFFFFFFFFFFFF AND EQ PUSH2 0x5F6 JUMPI PUSH1 0x40 MLOAD PUSH32 0x8C379A000000000000000000000000000000000000000000000000000000000 DUP2 MSTORE PUSH1 0x4 ADD PUSH2 0x5ED SWAP1 PUSH2 0x1023 JUMP JUMPDEST PUSH1 0x40 MLOAD DUP1 SWAP2 SUB SWAP1 REVERT JUMPDEST PUSH1 0x1 PUSH1 0x2 PUSH0 DUP4 PUSH20 0xFFFFFFFFFFFFFFFFFFFFFFFFFFFFFFFFFFFFFFFF AND PUSH20 0xFFFFFFFFFFFFFFFFFFFFFFFFFFFFFFFFFFFFFFFF AND DUP2 MSTORE PUSH1 0x20 ADD SWAP1 DUP2 MSTORE PUSH1 0x20 ADD PUSH0 KECCAK256 PUSH0 PUSH2 0x100 EXP DUP2 SLOAD DUP2 PUSH1 0xFF MUL NOT AND SWAP1 DUP4 ISZERO ISZERO MUL OR SWAP1 SSTORE POP POP JUMP JUMPDEST PUSH1 0x60 PUSH0 DUP1 SLOAD DUP1 PUSH1 0x20 MUL PUSH1 0x20 ADD PUSH1 0x40 MLOAD SWAP1 DUP2 ADD PUSH1 0x40 MSTORE DUP1 SWAP3 SWAP2 SWAP1 DUP2 DUP2 MSTORE PUSH1 0x20 ADD PUSH0 SWAP1 JUMPDEST DUP3 DUP3 LT ISZERO PUSH2 0x718 JUMPI DUP4 DUP3 SWAP1 PUSH0 MSTORE PUSH1 0x20 PUSH0 KECCAK256 ADD DUP1 SLOAD PUSH2 0x68D SWAP1 PUSH2 0xCAD JUMP JUMPDEST DUP1 PUSH1 0x1F ADD PUSH1 0x20 DUP1 SWAP2 DIV MUL PUSH1 0x20 ADD PUSH1 0x40 MLOAD SWAP1 DUP2 ADD PUSH1 0x40 MSTORE DUP1 SWAP3 SWAP2 SWAP1 DUP2 DUP2 MSTORE PUSH1 0x20 ADD DUP3 DUP1 SLOAD PUSH2 0x6B9 SWAP1 PUSH2 0xCAD JUMP JUMPDEST DUP1 ISZERO PUSH2 0x704 JUMPI DUP1 PUSH1 0x1F LT PUSH2 0x6DB JUMPI PUSH2 0x100 DUP1 DUP4 SLOAD DIV MUL DUP4 MSTORE SWAP2 PUSH1 0x20 ADD SWAP2 PUSH2 0x704 JUMP JUMPDEST DUP3 ADD SWAP2 SWAP1 PUSH0 MSTORE PUSH1 0x20 PUSH0 KECCAK256 SWAP1 JUMPDEST DUP2 SLOAD DUP2 MSTORE SWAP1 PUSH1 0x1 ADD SWAP1 PUSH1 0x20 ADD DUP1 DUP4 GT PUSH2 0x6E7 JUMPI DUP3 SWAP1 SUB PUSH1 0x1F AND DUP3 ADD SWAP2 JUMPDEST POP POP POP POP POP DUP2 MSTORE PUSH1 0x20 ADD SWAP1 PUSH1 0x1 ADD SWAP1 PUSH2 0x670 JUMP JUMPDEST POP POP POP POP SWAP1 POP SWAP1 JUMP JUMPDEST PUSH0 PUSH1 0x40 MLOAD SWAP1 POP SWAP1 JUMP JUMPDEST PUSH0 PUSH0 REVERT JUMPDEST PUSH0 PUSH0 REVERT JUMPDEST PUSH0 PUSH0 REVERT JUMPDEST PUSH0 PUSH0 REVERT JUMPDEST PUSH0 PUSH1 0x1F NOT PUSH1 0x1F DUP4 ADD AND SWAP1 POP SWAP2 SWAP1 POP JUMP JUMPDEST PUSH32 0x4E487B7100000000000000000000000000000000000000000000000000000000 PUSH0 MSTORE PUSH1 0x41 PUSH1 0x4 MSTORE PUSH1 0x24 PUSH0 REVERT JUMPDEST PUSH2 0x780 DUP3 PUSH2 0x73A JUMP JUMPDEST DUP2 ADD DUP2 DUP2 LT PUSH8 0xFFFFFFFFFFFFFFFF DUP3 GT OR ISZERO PUSH2 0x79F JUMPI PUSH2 0x79E PUSH2 0x74A JUMP JUMPDEST JUMPDEST DUP1 PUSH1 0x40 MSTORE POP POP POP JUMP JUMPDEST PUSH0 PUSH2 0x7B1 PUSH2 0x721 JUMP JUMPDEST SWAP1 POP PUSH2 0x7BD DUP3 DUP3 PUSH2 0x777 JUMP JUMPDEST SWAP2 SWAP1 POP JUMP JUMPDEST PUSH0 PUSH8 0xFFFFFFFFFFFFFFFF DUP3 GT ISZERO PUSH2 0x7DC JUMPI PUSH2 0x7DB PUSH2 0x74A JUMP JUMPDEST JUMPDEST PUSH2 0x7E5 DUP3 PUSH2 0x73A JUMP JUMPDEST SWAP1 POP PUSH1 0x20 DUP2 ADD SWAP1 POP SWAP2 SWAP1 POP JUMP JUMPDEST DUP3 DUP2 DUP4 CALLDATACOPY PUSH0 DUP4 DUP4 ADD MSTORE POP POP POP JUMP JUMPDEST PUSH0 PUSH2 0x812 PUSH2 0x80D DUP5 PUSH2 0x7C2 JUMP JUMPDEST PUSH2 0x7A8 JUMP JUMPDEST SWAP1 POP DUP3 DUP2 MSTORE PUSH1 0x20 DUP2 ADD DUP5 DUP5 DUP5 ADD GT ISZERO PUSH2 0x82E JUMPI PUSH2 0x82D PUSH2 0x736 JUMP JUMPDEST JUMPDEST PUSH2 0x839 DUP5 DUP3 DUP6 PUSH2 0x7F2 JUMP JUMPDEST POP SWAP4 SWAP3 POP POP POP JUMP JUMPDEST PUSH0 DUP3 PUSH1 0x1F DUP4 ADD SLT PUSH2 0x855 JUMPI PUSH2 0x854 PUSH2 0x732 JUMP JUMPDEST JUMPDEST DUP2 CALLDATALOAD PUSH2 0x865 DUP5 DUP3 PUSH1 0x20 DUP7 ADD PUSH2 0x800 JUMP JUMPDEST SWAP2 POP POP SWAP3 SWAP2 POP POP JUMP JUMPDEST PUSH0 PUSH1 0x20 DUP3 DUP5 SUB SLT ISZERO PUSH2 0x883 JUMPI PUSH2 0x882 PUSH2 0x72A JUMP JUMPDEST JUMPDEST PUSH0 DUP3 ADD CALLDATALOAD PUSH8 0xFFFFFFFFFFFFFFFF DUP2 GT ISZERO PUSH2 0x8A0 JUMPI PUSH2 0x89F PUSH2 0x72E JUMP JUMPDEST JUMPDEST PUSH2 0x8AC DUP5 DUP3 DUP6 ADD PUSH2 0x841 JUMP JUMPDEST SWAP2 POP POP SWAP3 SWAP2 POP POP JUMP JUMPDEST PUSH0 DUP2 SWAP1 POP SWAP2 SWAP1 POP JUMP JUMPDEST PUSH2 0x8C7 DUP2 PUSH2 0x8B5 JUMP JUMPDEST DUP3 MSTORE POP POP JUMP JUMPDEST PUSH0 PUSH1 0x20 DUP3 ADD SWAP1 POP PUSH2 0x8E0 PUSH0 DUP4 ADD DUP5 PUSH2 0x8BE JUMP JUMPDEST SWAP3 SWAP2 POP POP JUMP JUMPDEST PUSH2 0x8EF DUP2 PUSH2 0x8B5 JUMP JUMPDEST DUP2 EQ PUSH2 0x8F9 JUMPI PUSH0 PUSH0 REVERT JUMPDEST POP JUMP JUMPDEST PUSH0 DUP2 CALLDATALOAD SWAP1 POP PUSH2 0x90A DUP2 PUSH2 0x8E6 JUMP JUMPDEST SWAP3 SWAP2 POP POP JUMP JUMPDEST PUSH0 PUSH1 0x20 DUP3 DUP5 SUB SLT ISZERO PUSH2 0x925 JUMPI PUSH2 0x924 PUSH2 0x72A JUMP JUMPDEST JUMPDEST PUSH0 PUSH2 0x932 DUP5 DUP3 DUP6 ADD PUSH2 0x8FC JUMP JUMPDEST SWAP2 POP POP SWAP3 SWAP2 POP POP JUMP JUMPDEST PUSH0 DUP2 MLOAD SWAP1 POP SWAP2 SWAP1 POP JUMP JUMPDEST PUSH0 DUP3 DUP3 MSTORE PUSH1 0x20 DUP3 ADD SWAP1 POP SWAP3 SWAP2 POP POP JUMP JUMPDEST DUP3 DUP2 DUP4 MCOPY PUSH0 DUP4 DUP4 ADD MSTORE POP POP POP JUMP JUMPDEST PUSH0 PUSH2 0x96D DUP3 PUSH2 0x93B JUMP JUMPDEST PUSH2 0x977 DUP2 DUP6 PUSH2 0x945 JUMP JUMPDEST SWAP4 POP PUSH2 0x987 DUP2 DUP6 PUSH1 0x20 DUP7 ADD PUSH2 0x955 JUMP JUMPDEST PUSH2 0x990 DUP2 PUSH2 0x73A JUMP JUMPDEST DUP5 ADD SWAP2 POP POP SWAP3 SWAP2 POP POP JUMP JUMPDEST PUSH0 PUSH1 0x20 DUP3 ADD SWAP1 POP DUP2 DUP2 SUB PUSH0 DUP4 ADD MSTORE PUSH2 0x9B3 DUP2 DUP5 PUSH2 0x963 JUMP JUMPDEST SWAP1 POP SWAP3 SWAP2 POP POP JUMP JUMPDEST PUSH0 PUSH20 0xFFFFFFFFFFFFFFFFFFFFFFFFFFFFFFFFFFFFFFFF DUP3 AND SWAP1 POP SWAP2 SWAP1 POP JUMP JUMPDEST PUSH0 PUSH2 0x9E4 DUP3 PUSH2 0x9BB JUMP JUMPDEST SWAP1 POP SWAP2 SWAP1 POP JUMP JUMPDEST PUSH2 0x9F4 DUP2 PUSH2 0x9DA JUMP JUMPDEST DUP2 EQ PUSH2 0x9FE JUMPI PUSH0 PUSH0 REVERT JUMPDEST POP JUMP JUMPDEST PUSH0 DUP2 CALLDATALOAD SWAP1 POP PUSH2 0xA0F DUP2 PUSH2 0x9EB JUMP JUMPDEST SWAP3 SWAP2 POP POP JUMP JUMPDEST PUSH0 PUSH1 0x20 DUP3 DUP5 SUB SLT ISZERO PUSH2 0xA2A JUMPI PUSH2 0xA29 PUSH2 0x72A JUMP JUMPDEST JUMPDEST PUSH0 PUSH2 0xA37 DUP5 DUP3 DUP6 ADD PUSH2 0xA01 JUMP JUMPDEST SWAP2 POP POP SWAP3 SWAP2 POP POP JUMP JUMPDEST PUSH2 0xA49 DUP2 PUSH2 0x9DA JUMP JUMPDEST DUP3 MSTORE POP POP JUMP JUMPDEST PUSH0 PUSH1 0x20 DUP3 ADD SWAP1 POP PUSH2 0xA62 PUSH0 DUP4 ADD DUP5 PUSH2 0xA40 JUMP JUMPDEST SWAP3 SWAP2 POP POP JUMP JUMPDEST PUSH0 DUP2 ISZERO ISZERO SWAP1 POP SWAP2 SWAP1 POP JUMP JUMPDEST PUSH2 0xA7C DUP2 PUSH2 0xA68 JUMP JUMPDEST DUP3 MSTORE POP POP JUMP JUMPDEST PUSH0 PUSH1 0x20 DUP3 ADD SWAP1 POP PUSH2 0xA95 PUSH0 DUP4 ADD DUP5 PUSH2 0xA73 JUMP JUMPDEST SWAP3 SWAP2 POP POP JUMP JUMPDEST PUSH0 PUSH0 PUSH1 0x40 DUP4 DUP6 SUB SLT ISZERO PUSH2 0xAB1 JUMPI PUSH2 0xAB0 PUSH2 0x72A JUMP JUMPDEST JUMPDEST PUSH0 PUSH2 0xABE DUP6 DUP3 DUP7 ADD PUSH2 0x8FC JUMP JUMPDEST SWAP3 POP POP PUSH1 0x20 DUP4 ADD CALLDATALOAD PUSH8 0xFFFFFFFFFFFFFFFF DUP2 GT ISZERO PUSH2 0xADF JUMPI PUSH2 0xADE PUSH2 0x72E JUMP JUMPDEST JUMPDEST PUSH2 0xAEB DUP6 DUP3 DUP7 ADD PUSH2 0x841 JUMP JUMPDEST SWAP2 POP POP SWAP3 POP SWAP3 SWAP1 POP JUMP JUMPDEST PUSH0 DUP2 MLOAD SWAP1 POP SWAP2 SWAP1 POP JUMP JUMPDEST PUSH0 DUP3 DUP3 MSTORE PUSH1 0x20 DUP3 ADD SWAP1 POP SWAP3 SWAP2 POP POP JUMP JUMPDEST PUSH0 DUP2 SWAP1 POP PUSH1 0x20 DUP3 ADD SWAP1 POP SWAP2 SWAP1 POP JUMP JUMPDEST PUSH0 DUP3 DUP3 MSTORE PUSH1 0x20 DUP3 ADD SWAP1 POP SWAP3 SWAP2 POP POP JUMP JUMPDEST PUSH0 PUSH2 0xB38 DUP3 PUSH2 0x93B JUMP JUMPDEST PUSH2 0xB42 DUP2 DUP6 PUSH2 0xB1E JUMP JUMPDEST SWAP4 POP PUSH2 0xB52 DUP2 DUP6 PUSH1 0x20 DUP7 ADD PUSH2 0x955 JUMP JUMPDEST PUSH2 0xB5B DUP2 PUSH2 0x73A JUMP JUMPDEST DUP5 ADD SWAP2 POP POP SWAP3 SWAP2 POP POP JUMP JUMPDEST PUSH0 PUSH2 0xB71 DUP4 DUP4 PUSH2 0xB2E JUMP JUMPDEST SWAP1 POP SWAP3 SWAP2 POP POP JUMP JUMPDEST PUSH0 PUSH1 0x20 DUP3 ADD SWAP1 POP SWAP2 SWAP1 POP JUMP JUMPDEST PUSH0 PUSH2 0xB8F DUP3 PUSH2 0xAF5 JUMP JUMPDEST PUSH2 0xB99 DUP2 DUP6 PUSH2 0xAFF JUMP JUMPDEST SWAP4 POP DUP4 PUSH1 0x20 DUP3 MUL DUP6 ADD PUSH2 0xBAB DUP6 PUSH2 0xB0F JUMP JUMPDEST DUP1 PUSH0 JUMPDEST DUP6 DUP2 LT ISZERO PUSH2 0xBE6 JUMPI DUP5 DUP5 SUB DUP10 MSTORE DUP2 MLOAD PUSH2 0xBC7 DUP6 DUP3 PUSH2 0xB66 JUMP JUMPDEST SWAP5 POP PUSH2 0xBD2 DUP4 PUSH2 0xB79 JUMP JUMPDEST SWAP3 POP PUSH1 0x20 DUP11 ADD SWAP10 POP POP PUSH1 0x1 DUP2 ADD SWAP1 POP PUSH2 0xBAE JUMP JUMPDEST POP DUP3 SWAP8 POP DUP8 SWAP6 POP POP POP POP POP POP SWAP3 SWAP2 POP POP JUMP JUMPDEST PUSH0 PUSH1 0x20 DUP3 ADD SWAP1 POP DUP2 DUP2 SUB PUSH0 DUP4 ADD MSTORE PUSH2 0xC10 DUP2 DUP5 PUSH2 0xB85 JUMP JUMPDEST SWAP1 POP SWAP3 SWAP2 POP POP JUMP JUMPDEST PUSH32 0x4F6E6C7920616C6C6F776C6973742E0000000000000000000000000000000000 PUSH0 DUP3 ADD MSTORE POP JUMP JUMPDEST PUSH0 PUSH2 0xC4C PUSH1 0xF DUP4 PUSH2 0x945 JUMP JUMPDEST SWAP2 POP PUSH2 0xC57 DUP3 PUSH2 0xC18 JUMP JUMPDEST PUSH1 0x20 DUP3 ADD SWAP1 POP SWAP2 SWAP1 POP JUMP JUMPDEST PUSH0 PUSH1 0x20 DUP3 ADD SWAP1 POP DUP2 DUP2 SUB PUSH0 DUP4 ADD MSTORE PUSH2 0xC79 DUP2 PUSH2 0xC40 JUMP JUMPDEST SWAP1 POP SWAP2 SWAP1 POP JUMP JUMPDEST PUSH32 0x4E487B7100000000000000000000000000000000000000000000000000000000 PUSH0 MSTORE PUSH1 0x22 PUSH1 0x4 MSTORE PUSH1 0x24 PUSH0 REVERT JUMPDEST PUSH0 PUSH1 0x2 DUP3 DIV SWAP1 POP PUSH1 0x1 DUP3 AND DUP1 PUSH2 0xCC4 JUMPI PUSH1 0x7F DUP3 AND SWAP2 POP JUMPDEST PUSH1 0x20 DUP3 LT DUP2 SUB PUSH2 0xCD7 JUMPI PUSH2 0xCD6 PUSH2 0xC80 JUMP JUMPDEST JUMPDEST POP SWAP2 SWAP1 POP JUMP JUMPDEST PUSH0 DUP2 SWAP1 POP DUP2 PUSH0 MSTORE PUSH1 0x20 PUSH0 KECCAK256 SWAP1 POP SWAP2 SWAP1 POP JUMP JUMPDEST PUSH0 PUSH1 0x20 PUSH1 0x1F DUP4 ADD DIV SWAP1 POP SWAP2 SWAP1 POP JUMP JUMPDEST PUSH0 DUP3 DUP3 SHL SWAP1 POP SWAP3 SWAP2 POP POP JUMP JUMPDEST PUSH0 PUSH1 0x8 DUP4 MUL PUSH2 0xD39 PUSH32 0xFFFFFFFFFFFFFFFFFFFFFFFFFFFFFFFFFFFFFFFFFFFFFFFFFFFFFFFFFFFFFFFF DUP3 PUSH2 0xCFE JUMP JUMPDEST PUSH2 0xD43 DUP7 DUP4 PUSH2 0xCFE JUMP JUMPDEST SWAP6 POP DUP1 NOT DUP5 AND SWAP4 POP DUP1 DUP7 AND DUP5 OR SWAP3 POP POP POP SWAP4 SWAP3 POP POP POP JUMP JUMPDEST PUSH0 DUP2 SWAP1 POP SWAP2 SWAP1 POP JUMP JUMPDEST PUSH0 PUSH2 0xD7E PUSH2 0xD79 PUSH2 0xD74 DUP5 PUSH2 0x8B5 JUMP JUMPDEST PUSH2 0xD5B JUMP JUMPDEST PUSH2 0x8B5 JUMP JUMPDEST SWAP1 POP SWAP2 SWAP1 POP JUMP JUMPDEST PUSH0 DUP2 SWAP1 POP SWAP2 SWAP1 POP JUMP JUMPDEST PUSH2 0xD97 DUP4 PUSH2 0xD64 JUMP JUMPDEST PUSH2 0xDAB PUSH2 0xDA3 DUP3 PUSH2 0xD85 JUMP JUMPDEST DUP5 DUP5 SLOAD PUSH2 0xD0A JUMP JUMPDEST DUP3 SSTORE POP POP POP POP JUMP JUMPDEST PUSH0 PUSH0 SWAP1 POP SWAP1 JUMP JUMPDEST PUSH2 0xDC2 PUSH2 0xDB3 JUMP JUMPDEST PUSH2 0xDCD DUP2 DUP5 DUP5 PUSH2 0xD8E JUMP JUMPDEST POP POP POP JUMP JUMPDEST JUMPDEST DUP2 DUP2 LT ISZERO PUSH2 0xDF0 JUMPI PUSH2 0xDE5 PUSH0 DUP3 PUSH2 0xDBA JUMP JUMPDEST PUSH1 0x1 DUP2 ADD SWAP1 POP PUSH2 0xDD3 JUMP JUMPDEST POP POP JUMP JUMPDEST PUSH1 0x1F DUP3 GT ISZERO PUSH2 0xE35 JUMPI PUSH2 0xE06 DUP2 PUSH2 0xCDD JUMP JUMPDEST PUSH2 0xE0F DUP5 PUSH2 0xCEF JUMP JUMPDEST DUP2 ADD PUSH1 0x20 DUP6 LT ISZERO PUSH2 0xE1E JUMPI DUP2 SWAP1 POP JUMPDEST PUSH2 0xE32 PUSH2 0xE2A DUP6 PUSH2 0xCEF JUMP JUMPDEST DUP4 ADD DUP3 PUSH2 0xDD2 JUMP JUMPDEST POP POP JUMPDEST POP POP POP JUMP JUMPDEST PUSH0 DUP3 DUP3 SHR SWAP1 POP SWAP3 SWAP2 POP POP JUMP JUMPDEST PUSH0 PUSH2 0xE55 PUSH0 NOT DUP5 PUSH1 0x8 MUL PUSH2 0xE3A JUMP JUMPDEST NOT DUP1 DUP4 AND SWAP2 POP POP SWAP3 SWAP2 POP POP JUMP JUMPDEST PUSH0 PUSH2 0xE6D DUP4 DUP4 PUSH2 0xE46 JUMP JUMPDEST SWAP2 POP DUP3 PUSH1 0x2 MUL DUP3 OR SWAP1 POP SWAP3 SWAP2 POP POP JUMP JUMPDEST PUSH2 0xE86 DUP3 PUSH2 0x93B JUMP JUMPDEST PUSH8 0xFFFFFFFFFFFFFFFF DUP2 GT ISZERO PUSH2 0xE9F JUMPI PUSH2 0xE9E PUSH2 0x74A JUMP JUMPDEST JUMPDEST PUSH2 0xEA9 DUP3 SLOAD PUSH2 0xCAD JUMP JUMPDEST PUSH2 0xEB4 DUP3 DUP3 DUP6 PUSH2 0xDF4 JUMP JUMPDEST PUSH0 PUSH1 0x20 SWAP1 POP PUSH1 0x1F DUP4 GT PUSH1 0x1 DUP2 EQ PUSH2 0xEE5 JUMPI PUSH0 DUP5 ISZERO PUSH2 0xED3 JUMPI DUP3 DUP8 ADD MLOAD SWAP1 POP JUMPDEST PUSH2 0xEDD DUP6 DUP3 PUSH2 0xE62 JUMP JUMPDEST DUP7 SSTORE POP PUSH2 0xF44 JUMP JUMPDEST PUSH1 0x1F NOT DUP5 AND PUSH2 0xEF3 DUP7 PUSH2 0xCDD JUMP JUMPDEST PUSH0 JUMPDEST DUP3 DUP2 LT ISZERO PUSH2 0xF1A JUMPI DUP5 DUP10 ADD MLOAD DUP3 SSTORE PUSH1 0x1 DUP3 ADD SWAP2 POP PUSH1 0x20 DUP6 ADD SWAP5 POP PUSH1 0x20 DUP2 ADD SWAP1 POP PUSH2 0xEF5 JUMP JUMPDEST DUP7 DUP4 LT ISZERO PUSH2 0xF37 JUMPI DUP5 DUP10 ADD MLOAD PUSH2 0xF33 PUSH1 0x1F DUP10 AND DUP3 PUSH2 0xE46 JUMP JUMPDEST DUP4 SSTORE POP JUMPDEST PUSH1 0x1 PUSH1 0x2 DUP9 MUL ADD DUP9 SSTORE POP POP POP JUMPDEST POP POP POP POP POP POP JUMP JUMPDEST PUSH32 0x4E487B7100000000000000000000000000000000000000000000000000000000 PUSH0 MSTORE PUSH1 0x11 PUSH1 0x4 MSTORE PUSH1 0x24 PUSH0 REVERT JUMPDEST PUSH0 PUSH2 0xF83 DUP3 PUSH2 0x8B5 JUMP JUMPDEST SWAP2 POP PUSH2 0xF8E DUP4 PUSH2 0x8B5 JUMP JUMPDEST SWAP3 POP DUP3 DUP3 SUB SWAP1 POP DUP2 DUP2 GT ISZERO PUSH2 0xFA6 JUMPI PUSH2 0xFA5 PUSH2 0xF4C JUMP JUMPDEST JUMPDEST SWAP3 SWAP2 POP POP JUMP JUMPDEST PUSH32 0x4E487B7100000000000000000000000000000000000000000000000000000000 PUSH0 MSTORE PUSH1 0x32 PUSH1 0x4 MSTORE PUSH1 0x24 PUSH0 REVERT JUMPDEST PUSH32 0x4F6E6C79206F776E65722E000000000000000000000000000000000000000000 PUSH0 DUP3 ADD MSTORE POP JUMP JUMPDEST PUSH0 PUSH2 0x100D PUSH1 0xB DUP4 PUSH2 0x945 JUMP JUMPDEST SWAP2 POP PUSH2 0x1018 DUP3 PUSH2 0xFD9 JUMP JUMPDEST PUSH1 0x20 DUP3 ADD SWAP1 POP SWAP2 SWAP1 POP JUMP JUMPDEST PUSH0 PUSH1 0x20 DUP3 ADD SWAP1 POP DUP2 DUP2 SUB PUSH0 DUP4 ADD MSTORE PUSH2 0x103A DUP2 PUSH2 0x1001 JUMP JUMPDEST SWAP1 POP SWAP2 SWAP1 POP JUMP JUMPDEST PUSH0 DUP2 SLOAD PUSH2 0x104D DUP2 PUSH2 0xCAD JUMP JUMPDEST PUSH2 0x1057 DUP2 DUP7 PUSH2 0x945 JUMP JUMPDEST SWAP5 POP PUSH1 0x1 DUP3 AND PUSH0 DUP2 EQ PUSH2 0x1071 JUMPI PUSH1 0x1 DUP2 EQ PUSH2 0x1087 JUMPI PUSH2 0x10B9 JUMP JUMPDEST PUSH1 0xFF NOT DUP4 AND DUP7 MSTORE DUP2 ISZERO ISZERO PUSH1 0x20 MUL DUP7 ADD SWAP4 POP PUSH2 0x10B9 JUMP JUMPDEST PUSH2 0x1090 DUP6 PUSH2 0xCDD JUMP JUMPDEST PUSH0 JUMPDEST DUP4 DUP2 LT ISZERO PUSH2 0x10B1 JUMPI DUP2 SLOAD DUP2 DUP10 ADD MSTORE PUSH1 0x1 DUP3 ADD SWAP2 POP PUSH1 0x20 DUP2 ADD SWAP1 POP PUSH2 0x1092 JUMP JUMPDEST DUP1 DUP9 ADD SWAP6 POP POP POP JUMPDEST POP POP POP SWAP3 SWAP2 POP POP JUMP JUMPDEST PUSH0 PUSH1 0x40 DUP3 ADD SWAP1 POP DUP2 DUP2 SUB PUSH0 DUP4 ADD MSTORE PUSH2 0x10DA DUP2 DUP6 PUSH2 0x1041 JUMP JUMPDEST SWAP1 POP DUP2 DUP2 SUB PUSH1 0x20 DUP4 ADD MSTORE PUSH2 0x10EE DUP2 DUP5 PUSH2 0x963 JUMP JUMPDEST SWAP1 POP SWAP4 SWAP3 POP POP POP JUMP INVALID LOG2 PUSH5 0x6970667358 0x22 SLT KECCAK256 MOD SHL 0x27 CREATE 0xB6 RETF DUP1 PUSH19 0xD15DAA5052D5EE25FE0C7ED04B7857CF7ADCC LOG2 0xAF PUSH1 0x6A DUP1 PUSH5 0x736F6C6343 STOP ADDMOD 0x1E STOP CALLER "
				},
				"gasEstimates": {
					"creation": {
						"codeDepositCost": "879400",
						"executionCost": "49532",
						"totalCost": "928932"
					},
					"external": {
						"addInfo(string)": "infinite",
						"addMember(address)": "27016",
						"allowlist(address)": "2833",
						"delMember(address)": "27016",
						"getInfo(uint256)": "infinite",
						"listInfo()": "infinite",
						"owner()": "2575",
						"setInfo(uint256,string)": "infinite"
					}
				},
				"methodIdentifiers": {
					"addInfo(string)": "0bf803e4",
					"addMember(address)": "ca6d56dc",
					"allowlist(address)": "a7cd52cb",
					"delMember(address)": "1f81595d",
					"getInfo(uint256)": "1a3cd59a",
					"listInfo()": "d03d5849",
					"owner()": "8da5cb5b",
					"setInfo(uint256,string)": "b6820002"
				}
			},
			"storageLayout": {
				"storage": [
					{
						"astId": 4,
						"contract": "RegisterAccess.sol:RegisterAccess",
						"label": "info",
						"offset": 0,
						"slot": "0",
						"type": "t_array(t_string_storage)dyn_storage"
					},
					{
						"astId": 6,
						"contract": "RegisterAccess.sol:RegisterAccess",
						"label": "owner",
						"offset": 0,
						"slot": "1",
						"type": "t_address"
					},
					{
						"astId": 10,
						"contract": "RegisterAccess.sol:RegisterAccess",
						"label": "allowlist",
						"offset": 0,
						"slot": "2",
						"type": "t_mapping(t_address,t_bool)"
					}
				],
				"types": {
					"t_address": {
						"encoding": "inplace",
						"label": "address",
						"numberOfBytes": "20"
					},
					"t_array(t_string_storage)dyn_storage": {
						"base": "t_string_storage",
						"encoding": "dynamic_array",
						"label": "string[]",
						"numberOfBytes": "32"
					},
					"t_bool": {
						"encoding": "inplace",
						"label": "bool",
						"numberOfBytes": "1"
					},
					"t_mapping(t_address,t_bool)": {
						"encoding": "mapping",
						"key": "t_address",
						"label": "mapping(address => bool)",
						"numberOfBytes": "32",
						"value": "t_bool"
					},
					"t_string_storage": {
						"encoding": "bytes",
						"label": "string",
						"numberOfBytes": "32"
					}
				}
			},
			"userdoc": {
				"kind": "user",
				"methods": {
					"constructor": {
						"notice": "Atribui uma autorização (true)/ negação(false) do endereço na allowlist"
					}
				},
				"version": 1
			}
		}
	}
}