{
	"kipu-bank/contracts/KipuBank.sol": {
		"KipuBank": {
			"abi": [
				{
					"inputs": [
						{
							"internalType": "uint256",
							"name": "_bankCap",
							"type": "uint256"
						},
						{
							"internalType": "uint256",
							"name": "_perTxLimit",
							"type": "uint256"
						}
					],
					"stateMutability": "nonpayable",
					"type": "constructor"
				},
				{
					"inputs": [
						{
							"internalType": "uint256",
							"name": "requested",
							"type": "uint256"
						},
						{
							"internalType": "uint256",
							"name": "available",
							"type": "uint256"
						}
					],
					"name": "ExceedsBankCap",
					"type": "error"
				},
				{
					"inputs": [
						{
							"internalType": "uint256",
							"name": "requested",
							"type": "uint256"
						},
						{
							"internalType": "uint256",
							"name": "limit",
							"type": "uint256"
						}
					],
					"name": "ExceedsPerTxLimit",
					"type": "error"
				},
				{
					"inputs": [
						{
							"internalType": "address",
							"name": "account",
							"type": "address"
						},
						{
							"internalType": "uint256",
							"name": "requested",
							"type": "uint256"
						},
						{
							"internalType": "uint256",
							"name": "balance",
							"type": "uint256"
						}
					],
					"name": "InsufficientBalance",
					"type": "error"
				},
				{
					"inputs": [],
					"name": "InvalidInitParams",
					"type": "error"
				},
				{
					"inputs": [
						{
							"internalType": "address",
							"name": "to",
							"type": "address"
						},
						{
							"internalType": "uint256",
							"name": "amount",
							"type": "uint256"
						}
					],
					"name": "TransferFailed",
					"type": "error"
				},
				{
					"inputs": [],
					"name": "ZeroValueNotAllowed",
					"type": "error"
				},
				{
					"anonymous": false,
					"inputs": [
						{
							"indexed": true,
							"internalType": "address",
							"name": "user",
							"type": "address"
						},
						{
							"indexed": false,
							"internalType": "uint256",
							"name": "amount",
							"type": "uint256"
						},
						{
							"indexed": false,
							"internalType": "uint256",
							"name": "newBalance",
							"type": "uint256"
						}
					],
					"name": "Deposit",
					"type": "event"
				},
				{
					"anonymous": false,
					"inputs": [
						{
							"indexed": true,
							"internalType": "address",
							"name": "user",
							"type": "address"
						},
						{
							"indexed": false,
							"internalType": "uint256",
							"name": "amount",
							"type": "uint256"
						},
						{
							"indexed": false,
							"internalType": "uint256",
							"name": "newBalance",
							"type": "uint256"
						}
					],
					"name": "Withdrawal",
					"type": "event"
				},
				{
					"stateMutability": "payable",
					"type": "fallback"
				},
				{
					"inputs": [],
					"name": "bankCap",
					"outputs": [
						{
							"internalType": "uint256",
							"name": "",
							"type": "uint256"
						}
					],
					"stateMutability": "view",
					"type": "function"
				},
				{
					"inputs": [],
					"name": "deposit",
					"outputs": [],
					"stateMutability": "payable",
					"type": "function"
				},
				{
					"inputs": [
						{
							"internalType": "address",
							"name": "account",
							"type": "address"
						}
					],
					"name": "getBalance",
					"outputs": [
						{
							"internalType": "uint256",
							"name": "",
							"type": "uint256"
						}
					],
					"stateMutability": "view",
					"type": "function"
				},
				{
					"inputs": [
						{
							"internalType": "address",
							"name": "account",
							"type": "address"
						}
					],
					"name": "getCounts",
					"outputs": [
						{
							"internalType": "uint256",
							"name": "deposits",
							"type": "uint256"
						},
						{
							"internalType": "uint256",
							"name": "withdraws",
							"type": "uint256"
						}
					],
					"stateMutability": "view",
					"type": "function"
				},
				{
					"inputs": [],
					"name": "perTxLimit",
					"outputs": [
						{
							"internalType": "uint256",
							"name": "",
							"type": "uint256"
						}
					],
					"stateMutability": "view",
					"type": "function"
				},
				{
					"inputs": [],
					"name": "totalDeposits",
					"outputs": [
						{
							"internalType": "uint256",
							"name": "",
							"type": "uint256"
						}
					],
					"stateMutability": "view",
					"type": "function"
				},
				{
					"inputs": [
						{
							"internalType": "uint256",
							"name": "amount",
							"type": "uint256"
						}
					],
					"name": "withdraw",
					"outputs": [],
					"stateMutability": "nonpayable",
					"type": "function"
				},
				{
					"stateMutability": "payable",
					"type": "receive"
				}
			],
			"devdoc": {
				"kind": "dev",
				"methods": {
					"constructor": {
						"params": {
							"_bankCap": "total allowed deposits at deployment (in wei)",
							"_perTxLimit": "max allowed withdraw per transaction (wei)"
						}
					},
					"deposit()": {
						"details": "Reverts with ExceedsBankCap if bank would exceed cap"
					},
					"withdraw(uint256)": {
						"details": "Uses checks-effects-interactions and safe call transfer",
						"params": {
							"amount": "in wei to withdraw"
						}
					}
				},
				"version": 1
			},
			"evm": {
				"assembly": "    /* \"kipu-bank/contracts/KipuBank.sol\":1084:5221  contract KipuBank {... */\n  mstore(0x40, 0xc0)\n    /* \"kipu-bank/contracts/KipuBank.sol\":2160:2431  constructor(uint256 _bankCap, uint256 _perTxLimit) {... */\n  callvalue\n  dup1\n  iszero\n  tag_1\n  jumpi\n  revert(0x00, 0x00)\ntag_1:\n  pop\n  mload(0x40)\n  sub(codesize, bytecodeSize)\n  dup1\n  bytecodeSize\n  dup4\n  codecopy\n  dup2\n  dup2\n  add\n  0x40\n  mstore\n  dup2\n  add\n  swap1\n  tag_2\n  swap2\n  swap1\n  tag_3\n  jump\t// in\ntag_2:\n    /* \"kipu-bank/contracts/KipuBank.sol\":2309:2310  0 */\n  0x00\n    /* \"kipu-bank/contracts/KipuBank.sol\":2297:2305  _bankCap */\n  dup3\n    /* \"kipu-bank/contracts/KipuBank.sol\":2297:2310  _bankCap == 0 */\n  eq\n    /* \"kipu-bank/contracts/KipuBank.sol\":2297:2330  _bankCap == 0 || _perTxLimit == 0 */\n  dup1\n  tag_6\n  jumpi\n  pop\n    /* \"kipu-bank/contracts/KipuBank.sol\":2329:2330  0 */\n  0x00\n    /* \"kipu-bank/contracts/KipuBank.sol\":2314:2325  _perTxLimit */\n  dup2\n    /* \"kipu-bank/contracts/KipuBank.sol\":2314:2330  _perTxLimit == 0 */\n  eq\n    /* \"kipu-bank/contracts/KipuBank.sol\":2297:2330  _bankCap == 0 || _perTxLimit == 0 */\ntag_6:\n    /* \"kipu-bank/contracts/KipuBank.sol\":2294:2358  if(_bankCap == 0 || _perTxLimit == 0) revert InvalidInitParams() */\n  iszero\n  tag_7\n  jumpi\n    /* \"kipu-bank/contracts/KipuBank.sol\":2339:2358  InvalidInitParams() */\n  mload(0x40)\n  0x296b774400000000000000000000000000000000000000000000000000000000\n  dup2\n  mstore\n  0x04\n  add\n  mload(0x40)\n  dup1\n  swap2\n  sub\n  swap1\n  revert\n    /* \"kipu-bank/contracts/KipuBank.sol\":2294:2358  if(_bankCap == 0 || _perTxLimit == 0) revert InvalidInitParams() */\ntag_7:\n    /* \"kipu-bank/contracts/KipuBank.sol\":2380:2388  _bankCap */\n  dup2\n    /* \"kipu-bank/contracts/KipuBank.sol\":2370:2388  bankCap = _bankCap */\n  0x80\n  dup2\n  dup2\n  mstore\n  pop\n  pop\n    /* \"kipu-bank/contracts/KipuBank.sol\":2412:2423  _perTxLimit */\n  dup1\n    /* \"kipu-bank/contracts/KipuBank.sol\":2399:2423  perTxLimit = _perTxLimit */\n  0xa0\n  dup2\n  dup2\n  mstore\n  pop\n  pop\n    /* \"kipu-bank/contracts/KipuBank.sol\":2160:2431  constructor(uint256 _bankCap, uint256 _perTxLimit) {... */\n  pop\n  pop\n    /* \"kipu-bank/contracts/KipuBank.sol\":1084:5221  contract KipuBank {... */\n  jump(tag_8)\n    /* \"#utility.yul\":88:205   */\ntag_10:\n    /* \"#utility.yul\":197:198   */\n  0x00\n    /* \"#utility.yul\":194:195   */\n  0x00\n    /* \"#utility.yul\":187:199   */\n  revert\n    /* \"#utility.yul\":334:411   */\ntag_12:\n    /* \"#utility.yul\":371:378   */\n  0x00\n    /* \"#utility.yul\":400:405   */\n  dup2\n    /* \"#utility.yul\":389:405   */\n  swap1\n  pop\n    /* \"#utility.yul\":334:411   */\n  swap2\n  swap1\n  pop\n  jump\t// out\n    /* \"#utility.yul\":417:539   */\ntag_13:\n    /* \"#utility.yul\":490:514   */\n  tag_21\n    /* \"#utility.yul\":508:513   */\n  dup2\n    /* \"#utility.yul\":490:514   */\n  tag_12\n  jump\t// in\ntag_21:\n    /* \"#utility.yul\":483:488   */\n  dup2\n    /* \"#utility.yul\":480:515   */\n  eq\n    /* \"#utility.yul\":470:533   */\n  tag_22\n  jumpi\n    /* \"#utility.yul\":529:530   */\n  0x00\n    /* \"#utility.yul\":526:527   */\n  0x00\n    /* \"#utility.yul\":519:531   */\n  revert\n    /* \"#utility.yul\":470:533   */\ntag_22:\n    /* \"#utility.yul\":417:539   */\n  pop\n  jump\t// out\n    /* \"#utility.yul\":545:688   */\ntag_14:\n    /* \"#utility.yul\":602:607   */\n  0x00\n    /* \"#utility.yul\":633:639   */\n  dup2\n    /* \"#utility.yul\":627:640   */\n  mload\n    /* \"#utility.yul\":618:640   */\n  swap1\n  pop\n    /* \"#utility.yul\":649:682   */\n  tag_24\n    /* \"#utility.yul\":676:681   */\n  dup2\n    /* \"#utility.yul\":649:682   */\n  tag_13\n  jump\t// in\ntag_24:\n    /* \"#utility.yul\":545:688   */\n  swap3\n  swap2\n  pop\n  pop\n  jump\t// out\n    /* \"#utility.yul\":694:1201   */\ntag_3:\n    /* \"#utility.yul\":773:779   */\n  0x00\n    /* \"#utility.yul\":781:787   */\n  0x00\n    /* \"#utility.yul\":830:832   */\n  0x40\n    /* \"#utility.yul\":818:827   */\n  dup4\n    /* \"#utility.yul\":809:816   */\n  dup6\n    /* \"#utility.yul\":805:828   */\n  sub\n    /* \"#utility.yul\":801:833   */\n  slt\n    /* \"#utility.yul\":798:917   */\n  iszero\n  tag_26\n  jumpi\n    /* \"#utility.yul\":836:915   */\n  tag_27\n  tag_10\n  jump\t// in\ntag_27:\n    /* \"#utility.yul\":798:917   */\ntag_26:\n    /* \"#utility.yul\":956:957   */\n  0x00\n    /* \"#utility.yul\":981:1045   */\n  tag_28\n    /* \"#utility.yul\":1037:1044   */\n  dup6\n    /* \"#utility.yul\":1028:1034   */\n  dup3\n    /* \"#utility.yul\":1017:1026   */\n  dup7\n    /* \"#utility.yul\":1013:1035   */\n  add\n    /* \"#utility.yul\":981:1045   */\n  tag_14\n  jump\t// in\ntag_28:\n    /* \"#utility.yul\":971:1045   */\n  swap3\n  pop\n    /* \"#utility.yul\":927:1055   */\n  pop\n    /* \"#utility.yul\":1094:1096   */\n  0x20\n    /* \"#utility.yul\":1120:1184   */\n  tag_29\n    /* \"#utility.yul\":1176:1183   */\n  dup6\n    /* \"#utility.yul\":1167:1173   */\n  dup3\n    /* \"#utility.yul\":1156:1165   */\n  dup7\n    /* \"#utility.yul\":1152:1174   */\n  add\n    /* \"#utility.yul\":1120:1184   */\n  tag_14\n  jump\t// in\ntag_29:\n    /* \"#utility.yul\":1110:1184   */\n  swap2\n  pop\n    /* \"#utility.yul\":1065:1194   */\n  pop\n    /* \"#utility.yul\":694:1201   */\n  swap3\n  pop\n  swap3\n  swap1\n  pop\n  jump\t// out\n    /* \"kipu-bank/contracts/KipuBank.sol\":1084:5221  contract KipuBank {... */\ntag_8:\n  mload(0x80)\n  mload(0xa0)\n  codecopy(0x00, dataOffset(sub_0), dataSize(sub_0))\n  0x00\n  assignImmutable(\"0x4dfb3440902001bce9b7ebf7be7d95fe9e2056bd5ce309ceb83b32f4e00e21ed\")\n  0x00\n  assignImmutable(\"0x880de8116b3dfac28e9ff528a9fef1d1e0a51449c1addce011ffec1f302992b6\")\n  return(0x00, dataSize(sub_0))\nstop\n\nsub_0: assembly {\n        /* \"kipu-bank/contracts/KipuBank.sol\":1084:5221  contract KipuBank {... */\n      mstore(0x40, 0x80)\n      jumpi(tag_1, lt(calldatasize, 0x04))\n      shr(0xe0, calldataload(0x00))\n      dup1\n      0xd0e30db0\n      gt\n      tag_10\n      jumpi\n      dup1\n      0xd0e30db0\n      eq\n      tag_6\n      jumpi\n      dup1\n      0xdf772941\n      eq\n      tag_7\n      jumpi\n      dup1\n      0xecbea24d\n      eq\n      tag_8\n      jumpi\n      dup1\n      0xf8b2cb4f\n      eq\n      tag_9\n      jumpi\n      jump(tag_2)\n    tag_10:\n      dup1\n      0x2e1a7d4d\n      eq\n      tag_3\n      jumpi\n      dup1\n      0x5b467404\n      eq\n      tag_4\n      jumpi\n      dup1\n      0x7d882097\n      eq\n      tag_5\n      jumpi\n      jump(tag_2)\n    tag_1:\n      jumpi(tag_2, calldatasize)\n        /* \"kipu-bank/contracts/KipuBank.sol\":3476:3513  _handleDeposit(msg.sender, msg.value) */\n      tag_13\n        /* \"kipu-bank/contracts/KipuBank.sol\":3491:3501  msg.sender */\n      caller\n        /* \"kipu-bank/contracts/KipuBank.sol\":3503:3512  msg.value */\n      callvalue\n        /* \"kipu-bank/contracts/KipuBank.sol\":3476:3490  _handleDeposit */\n      tag_14\n        /* \"kipu-bank/contracts/KipuBank.sol\":3476:3513  _handleDeposit(msg.sender, msg.value) */\n      jump\t// in\n    tag_13:\n        /* \"kipu-bank/contracts/KipuBank.sol\":1084:5221  contract KipuBank {... */\n      stop\n    tag_2:\n        /* \"kipu-bank/contracts/KipuBank.sol\":3626:3663  _handleDeposit(msg.sender, msg.value) */\n      tag_17\n        /* \"kipu-bank/contracts/KipuBank.sol\":3641:3651  msg.sender */\n      caller\n        /* \"kipu-bank/contracts/KipuBank.sol\":3653:3662  msg.value */\n      callvalue\n        /* \"kipu-bank/contracts/KipuBank.sol\":3626:3640  _handleDeposit */\n      tag_14\n        /* \"kipu-bank/contracts/KipuBank.sol\":3626:3663  _handleDeposit(msg.sender, msg.value) */\n      jump\t// in\n    tag_17:\n        /* \"kipu-bank/contracts/KipuBank.sol\":1084:5221  contract KipuBank {... */\n      stop\n        /* \"kipu-bank/contracts/KipuBank.sol\":3874:4492  function withdraw(uint256 amount) external {... */\n    tag_3:\n      callvalue\n      dup1\n      iszero\n      tag_18\n      jumpi\n      revert(0x00, 0x00)\n    tag_18:\n      pop\n      tag_19\n      0x04\n      dup1\n      calldatasize\n      sub\n      dup2\n      add\n      swap1\n      tag_20\n      swap2\n      swap1\n      tag_21\n      jump\t// in\n    tag_20:\n      tag_22\n      jump\t// in\n    tag_19:\n      stop\n        /* \"kipu-bank/contracts/KipuBank.sol\":5047:5216  function getCounts(address account) external view returns (uint256 deposits, uint256 withdraws) {... */\n    tag_4:\n      callvalue\n      dup1\n      iszero\n      tag_23\n      jumpi\n      revert(0x00, 0x00)\n    tag_23:\n      pop\n      tag_24\n      0x04\n      dup1\n      calldatasize\n      sub\n      dup2\n      add\n      swap1\n      tag_25\n      swap2\n      swap1\n      tag_26\n      jump\t// in\n    tag_25:\n      tag_27\n      jump\t// in\n    tag_24:\n      mload(0x40)\n      tag_28\n      swap3\n      swap2\n      swap1\n      tag_29\n      jump\t// in\n    tag_28:\n      mload(0x40)\n      dup1\n      swap2\n      sub\n      swap1\n      return\n        /* \"kipu-bank/contracts/KipuBank.sol\":1403:1431  uint256 public totalDeposits */\n    tag_5:\n      callvalue\n      dup1\n      iszero\n      tag_30\n      jumpi\n      revert(0x00, 0x00)\n    tag_30:\n      pop\n      tag_31\n      tag_32\n      jump\t// in\n    tag_31:\n      mload(0x40)\n      tag_33\n      swap2\n      swap1\n      tag_34\n      jump\t// in\n    tag_33:\n      mload(0x40)\n      dup1\n      swap2\n      sub\n      swap1\n      return\n        /* \"kipu-bank/contracts/KipuBank.sol\":2585:2677  function deposit() external payable {... */\n    tag_6:\n      tag_35\n      tag_36\n      jump\t// in\n    tag_35:\n      stop\n        /* \"kipu-bank/contracts/KipuBank.sol\":1291:1326  uint256 public immutable perTxLimit */\n    tag_7:\n      callvalue\n      dup1\n      iszero\n      tag_37\n      jumpi\n      revert(0x00, 0x00)\n    tag_37:\n      pop\n      tag_38\n      tag_39\n      jump\t// in\n    tag_38:\n      mload(0x40)\n      tag_40\n      swap2\n      swap1\n      tag_34\n      jump\t// in\n    tag_40:\n      mload(0x40)\n      dup1\n      swap2\n      sub\n      swap1\n      return\n        /* \"kipu-bank/contracts/KipuBank.sol\":1180:1212  uint256 public immutable bankCap */\n    tag_8:\n      callvalue\n      dup1\n      iszero\n      tag_41\n      jumpi\n      revert(0x00, 0x00)\n    tag_41:\n      pop\n      tag_42\n      tag_43\n      jump\t// in\n    tag_42:\n      mload(0x40)\n      tag_44\n      swap2\n      swap1\n      tag_34\n      jump\t// in\n    tag_44:\n      mload(0x40)\n      dup1\n      swap2\n      sub\n      swap1\n      return\n        /* \"kipu-bank/contracts/KipuBank.sol\":4859:4971  function getBalance(address account) external view returns (uint256) {... */\n    tag_9:\n      callvalue\n      dup1\n      iszero\n      tag_45\n      jumpi\n      revert(0x00, 0x00)\n    tag_45:\n      pop\n      tag_46\n      0x04\n      dup1\n      calldatasize\n      sub\n      dup2\n      add\n      swap1\n      tag_47\n      swap2\n      swap1\n      tag_26\n      jump\t// in\n    tag_47:\n      tag_48\n      jump\t// in\n    tag_46:\n      mload(0x40)\n      tag_49\n      swap2\n      swap1\n      tag_34\n      jump\t// in\n    tag_49:\n      mload(0x40)\n      dup1\n      swap2\n      sub\n      swap1\n      return\n        /* \"kipu-bank/contracts/KipuBank.sol\":2763:3284  function _handleDeposit(address from, uint256 amount) private {... */\n    tag_14:\n        /* \"kipu-bank/contracts/KipuBank.sol\":2849:2850  0 */\n      0x00\n        /* \"kipu-bank/contracts/KipuBank.sol\":2839:2845  amount */\n      dup2\n        /* \"kipu-bank/contracts/KipuBank.sol\":2839:2850  amount == 0 */\n      sub\n        /* \"kipu-bank/contracts/KipuBank.sol\":2836:2880  if(amount == 0) revert ZeroValueNotAllowed() */\n      tag_51\n      jumpi\n        /* \"kipu-bank/contracts/KipuBank.sol\":2859:2880  ZeroValueNotAllowed() */\n      mload(0x40)\n      0x9cf8540c00000000000000000000000000000000000000000000000000000000\n      dup2\n      mstore\n      0x04\n      add\n      mload(0x40)\n      dup1\n      swap2\n      sub\n      swap1\n      revert\n        /* \"kipu-bank/contracts/KipuBank.sol\":2836:2880  if(amount == 0) revert ZeroValueNotAllowed() */\n    tag_51:\n        /* \"kipu-bank/contracts/KipuBank.sol\":2912:2928  uint256 newTotal */\n      0x00\n        /* \"kipu-bank/contracts/KipuBank.sol\":2947:2953  amount */\n      dup2\n        /* \"kipu-bank/contracts/KipuBank.sol\":2931:2944  totalDeposits */\n      sload(0x00)\n        /* \"kipu-bank/contracts/KipuBank.sol\":2931:2953  totalDeposits + amount */\n      tag_52\n      swap2\n      swap1\n      tag_53\n      jump\t// in\n    tag_52:\n        /* \"kipu-bank/contracts/KipuBank.sol\":2912:2953  uint256 newTotal = totalDeposits + amount */\n      swap1\n      pop\n        /* \"kipu-bank/contracts/KipuBank.sol\":2979:2986  bankCap */\n      immutable(\"0x880de8116b3dfac28e9ff528a9fef1d1e0a51449c1addce011ffec1f302992b6\")\n        /* \"kipu-bank/contracts/KipuBank.sol\":2968:2976  newTotal */\n      dup2\n        /* \"kipu-bank/contracts/KipuBank.sol\":2968:2986  newTotal > bankCap */\n      gt\n        /* \"kipu-bank/contracts/KipuBank.sol\":2964:3042  if (newTotal > bankCap) revert ExceedsBankCap(amount, bankCap - totalDeposits) */\n      iszero\n      tag_54\n      jumpi\n        /* \"kipu-bank/contracts/KipuBank.sol\":3010:3016  amount */\n      dup2\n        /* \"kipu-bank/contracts/KipuBank.sol\":3028:3041  totalDeposits */\n      sload(0x00)\n        /* \"kipu-bank/contracts/KipuBank.sol\":3018:3025  bankCap */\n      immutable(\"0x880de8116b3dfac28e9ff528a9fef1d1e0a51449c1addce011ffec1f302992b6\")\n        /* \"kipu-bank/contracts/KipuBank.sol\":3018:3041  bankCap - totalDeposits */\n      tag_55\n      swap2\n      swap1\n      tag_56\n      jump\t// in\n    tag_55:\n        /* \"kipu-bank/contracts/KipuBank.sol\":2995:3042  ExceedsBankCap(amount, bankCap - totalDeposits) */\n      mload(0x40)\n      0x4274ef7700000000000000000000000000000000000000000000000000000000\n      dup2\n      mstore\n      0x04\n      add\n      tag_57\n      swap3\n      swap2\n      swap1\n      tag_29\n      jump\t// in\n    tag_57:\n      mload(0x40)\n      dup1\n      swap2\n      sub\n      swap1\n      revert\n        /* \"kipu-bank/contracts/KipuBank.sol\":2964:3042  if (newTotal > bankCap) revert ExceedsBankCap(amount, bankCap - totalDeposits) */\n    tag_54:\n        /* \"kipu-bank/contracts/KipuBank.sol\":3093:3099  amount */\n      dup2\n        /* \"kipu-bank/contracts/KipuBank.sol\":3075:3083  balances */\n      0x01\n        /* \"kipu-bank/contracts/KipuBank.sol\":3075:3089  balances[from] */\n      0x00\n        /* \"kipu-bank/contracts/KipuBank.sol\":3084:3088  from */\n      dup6\n        /* \"kipu-bank/contracts/KipuBank.sol\":3075:3089  balances[from] */\n      0xffffffffffffffffffffffffffffffffffffffff\n      and\n      0xffffffffffffffffffffffffffffffffffffffff\n      and\n      dup2\n      mstore\n      0x20\n      add\n      swap1\n      dup2\n      mstore\n      0x20\n      add\n      0x00\n      keccak256\n      0x00\n        /* \"kipu-bank/contracts/KipuBank.sol\":3075:3099  balances[from] += amount */\n      dup3\n      dup3\n      sload\n      tag_58\n      swap2\n      swap1\n      tag_53\n      jump\t// in\n    tag_58:\n      swap3\n      pop\n      pop\n      dup2\n      swap1\n      sstore\n      pop\n        /* \"kipu-bank/contracts/KipuBank.sol\":3126:3134  newTotal */\n      dup1\n        /* \"kipu-bank/contracts/KipuBank.sol\":3110:3123  totalDeposits */\n      0x00\n        /* \"kipu-bank/contracts/KipuBank.sol\":3110:3134  totalDeposits = newTotal */\n      dup2\n      swap1\n      sstore\n      pop\n        /* \"kipu-bank/contracts/KipuBank.sol\":3145:3157  depositCount */\n      0x02\n        /* \"kipu-bank/contracts/KipuBank.sol\":3145:3163  depositCount[from] */\n      0x00\n        /* \"kipu-bank/contracts/KipuBank.sol\":3158:3162  from */\n      dup5\n        /* \"kipu-bank/contracts/KipuBank.sol\":3145:3163  depositCount[from] */\n      0xffffffffffffffffffffffffffffffffffffffff\n      and\n      0xffffffffffffffffffffffffffffffffffffffff\n      and\n      dup2\n      mstore\n      0x20\n      add\n      swap1\n      dup2\n      mstore\n      0x20\n      add\n      0x00\n      keccak256\n      0x00\n        /* \"kipu-bank/contracts/KipuBank.sol\":3145:3165  depositCount[from]++ */\n      dup2\n      sload\n      dup1\n      swap3\n      swap2\n      swap1\n      tag_59\n      swap1\n      tag_60\n      jump\t// in\n    tag_59:\n      swap2\n      swap1\n      pop\n      sstore\n      pop\n        /* \"kipu-bank/contracts/KipuBank.sol\":3247:3251  from */\n      dup3\n        /* \"kipu-bank/contracts/KipuBank.sol\":3239:3276  Deposit(from, amount, balances[from]) */\n      0xffffffffffffffffffffffffffffffffffffffff\n      and\n      0x90890809c654f11d6e72a28fa60149770a0d11ec6c92319d6ceb2bb0a4ea1a15\n        /* \"kipu-bank/contracts/KipuBank.sol\":3253:3259  amount */\n      dup4\n        /* \"kipu-bank/contracts/KipuBank.sol\":3261:3269  balances */\n      0x01\n        /* \"kipu-bank/contracts/KipuBank.sol\":3261:3275  balances[from] */\n      0x00\n        /* \"kipu-bank/contracts/KipuBank.sol\":3270:3274  from */\n      dup8\n        /* \"kipu-bank/contracts/KipuBank.sol\":3261:3275  balances[from] */\n      0xffffffffffffffffffffffffffffffffffffffff\n      and\n      0xffffffffffffffffffffffffffffffffffffffff\n      and\n      dup2\n      mstore\n      0x20\n      add\n      swap1\n      dup2\n      mstore\n      0x20\n      add\n      0x00\n      keccak256\n      sload\n        /* \"kipu-bank/contracts/KipuBank.sol\":3239:3276  Deposit(from, amount, balances[from]) */\n      mload(0x40)\n      tag_61\n      swap3\n      swap2\n      swap1\n      tag_29\n      jump\t// in\n    tag_61:\n      mload(0x40)\n      dup1\n      swap2\n      sub\n      swap1\n      log2\n        /* \"kipu-bank/contracts/KipuBank.sol\":2825:3284  {... */\n      pop\n        /* \"kipu-bank/contracts/KipuBank.sol\":2763:3284  function _handleDeposit(address from, uint256 amount) private {... */\n      pop\n      pop\n      jump\t// out\n        /* \"kipu-bank/contracts/KipuBank.sol\":3874:4492  function withdraw(uint256 amount) external {... */\n    tag_22:\n        /* \"kipu-bank/contracts/KipuBank.sol\":3941:3942  0 */\n      0x00\n        /* \"kipu-bank/contracts/KipuBank.sol\":3931:3937  amount */\n      dup2\n        /* \"kipu-bank/contracts/KipuBank.sol\":3931:3942  amount == 0 */\n      sub\n        /* \"kipu-bank/contracts/KipuBank.sol\":3928:3972  if(amount == 0) revert ZeroValueNotAllowed() */\n      tag_63\n      jumpi\n        /* \"kipu-bank/contracts/KipuBank.sol\":3951:3972  ZeroValueNotAllowed() */\n      mload(0x40)\n      0x9cf8540c00000000000000000000000000000000000000000000000000000000\n      dup2\n      mstore\n      0x04\n      add\n      mload(0x40)\n      dup1\n      swap2\n      sub\n      swap1\n      revert\n        /* \"kipu-bank/contracts/KipuBank.sol\":3928:3972  if(amount == 0) revert ZeroValueNotAllowed() */\n    tag_63:\n        /* \"kipu-bank/contracts/KipuBank.sol\":3995:4005  perTxLimit */\n      immutable(\"0x4dfb3440902001bce9b7ebf7be7d95fe9e2056bd5ce309ceb83b32f4e00e21ed\")\n        /* \"kipu-bank/contracts/KipuBank.sol\":3986:3992  amount */\n      dup2\n        /* \"kipu-bank/contracts/KipuBank.sol\":3986:4005  amount > perTxLimit */\n      gt\n        /* \"kipu-bank/contracts/KipuBank.sol\":3983:4051  if(amount > perTxLimit) revert ExceedsPerTxLimit(amount, perTxLimit) */\n      iszero\n      tag_64\n      jumpi\n        /* \"kipu-bank/contracts/KipuBank.sol\":4032:4038  amount */\n      dup1\n        /* \"kipu-bank/contracts/KipuBank.sol\":4040:4050  perTxLimit */\n      immutable(\"0x4dfb3440902001bce9b7ebf7be7d95fe9e2056bd5ce309ceb83b32f4e00e21ed\")\n        /* \"kipu-bank/contracts/KipuBank.sol\":4014:4051  ExceedsPerTxLimit(amount, perTxLimit) */\n      mload(0x40)\n      0xd1e6b2fa00000000000000000000000000000000000000000000000000000000\n      dup2\n      mstore\n      0x04\n      add\n      tag_65\n      swap3\n      swap2\n      swap1\n      tag_29\n      jump\t// in\n    tag_65:\n      mload(0x40)\n      dup1\n      swap2\n      sub\n      swap1\n      revert\n        /* \"kipu-bank/contracts/KipuBank.sol\":3983:4051  if(amount > perTxLimit) revert ExceedsPerTxLimit(amount, perTxLimit) */\n    tag_64:\n        /* \"kipu-bank/contracts/KipuBank.sol\":4064:4075  uint256 bal */\n      0x00\n        /* \"kipu-bank/contracts/KipuBank.sol\":4078:4086  balances */\n      0x01\n        /* \"kipu-bank/contracts/KipuBank.sol\":4078:4098  balances[msg.sender] */\n      0x00\n        /* \"kipu-bank/contracts/KipuBank.sol\":4087:4097  msg.sender */\n      caller\n        /* \"kipu-bank/contracts/KipuBank.sol\":4078:4098  balances[msg.sender] */\n      0xffffffffffffffffffffffffffffffffffffffff\n      and\n      0xffffffffffffffffffffffffffffffffffffffff\n      and\n      dup2\n      mstore\n      0x20\n      add\n      swap1\n      dup2\n      mstore\n      0x20\n      add\n      0x00\n      keccak256\n      sload\n        /* \"kipu-bank/contracts/KipuBank.sol\":4064:4098  uint256 bal = balances[msg.sender] */\n      swap1\n      pop\n        /* \"kipu-bank/contracts/KipuBank.sol\":4121:4124  bal */\n      dup1\n        /* \"kipu-bank/contracts/KipuBank.sol\":4112:4118  amount */\n      dup3\n        /* \"kipu-bank/contracts/KipuBank.sol\":4112:4124  amount > bal */\n      gt\n        /* \"kipu-bank/contracts/KipuBank.sol\":4109:4177  if(amount > bal) revert InsufficientBalance(msg.sender, amount, bal) */\n      iszero\n      tag_66\n      jumpi\n        /* \"kipu-bank/contracts/KipuBank.sol\":4153:4163  msg.sender */\n      caller\n        /* \"kipu-bank/contracts/KipuBank.sol\":4165:4171  amount */\n      dup3\n        /* \"kipu-bank/contracts/KipuBank.sol\":4173:4176  bal */\n      dup3\n        /* \"kipu-bank/contracts/KipuBank.sol\":4133:4177  InsufficientBalance(msg.sender, amount, bal) */\n      mload(0x40)\n      0xdb42144d00000000000000000000000000000000000000000000000000000000\n      dup2\n      mstore\n      0x04\n      add\n      tag_67\n      swap4\n      swap3\n      swap2\n      swap1\n      tag_68\n      jump\t// in\n    tag_67:\n      mload(0x40)\n      dup1\n      swap2\n      sub\n      swap1\n      revert\n        /* \"kipu-bank/contracts/KipuBank.sol\":4109:4177  if(amount > bal) revert InsufficientBalance(msg.sender, amount, bal) */\n    tag_66:\n        /* \"kipu-bank/contracts/KipuBank.sol\":4239:4245  amount */\n      dup2\n        /* \"kipu-bank/contracts/KipuBank.sol\":4233:4236  bal */\n      dup2\n        /* \"kipu-bank/contracts/KipuBank.sol\":4233:4245  bal - amount */\n      tag_69\n      swap2\n      swap1\n      tag_56\n      jump\t// in\n    tag_69:\n        /* \"kipu-bank/contracts/KipuBank.sol\":4210:4218  balances */\n      0x01\n        /* \"kipu-bank/contracts/KipuBank.sol\":4210:4230  balances[msg.sender] */\n      0x00\n        /* \"kipu-bank/contracts/KipuBank.sol\":4219:4229  msg.sender */\n      caller\n        /* \"kipu-bank/contracts/KipuBank.sol\":4210:4230  balances[msg.sender] */\n      0xffffffffffffffffffffffffffffffffffffffff\n      and\n      0xffffffffffffffffffffffffffffffffffffffff\n      and\n      dup2\n      mstore\n      0x20\n      add\n      swap1\n      dup2\n      mstore\n      0x20\n      add\n      0x00\n      keccak256\n        /* \"kipu-bank/contracts/KipuBank.sol\":4210:4245  balances[msg.sender] = bal - amount */\n      dup2\n      swap1\n      sstore\n      pop\n        /* \"kipu-bank/contracts/KipuBank.sol\":4273:4279  amount */\n      dup2\n        /* \"kipu-bank/contracts/KipuBank.sol\":4256:4269  totalDeposits */\n      0x00\n      0x00\n        /* \"kipu-bank/contracts/KipuBank.sol\":4256:4279  totalDeposits -= amount */\n      dup3\n      dup3\n      sload\n      tag_70\n      swap2\n      swap1\n      tag_56\n      jump\t// in\n    tag_70:\n      swap3\n      pop\n      pop\n      dup2\n      swap1\n      sstore\n      pop\n        /* \"kipu-bank/contracts/KipuBank.sol\":4290:4303  withdrawCount */\n      0x03\n        /* \"kipu-bank/contracts/KipuBank.sol\":4290:4315  withdrawCount[msg.sender] */\n      0x00\n        /* \"kipu-bank/contracts/KipuBank.sol\":4304:4314  msg.sender */\n      caller\n        /* \"kipu-bank/contracts/KipuBank.sol\":4290:4315  withdrawCount[msg.sender] */\n      0xffffffffffffffffffffffffffffffffffffffff\n      and\n      0xffffffffffffffffffffffffffffffffffffffff\n      and\n      dup2\n      mstore\n      0x20\n      add\n      swap1\n      dup2\n      mstore\n      0x20\n      add\n      0x00\n      keccak256\n      0x00\n        /* \"kipu-bank/contracts/KipuBank.sol\":4290:4317  withdrawCount[msg.sender]++ */\n      dup2\n      sload\n      dup1\n      swap3\n      swap2\n      swap1\n      tag_71\n      swap1\n      tag_60\n      jump\t// in\n    tag_71:\n      swap2\n      swap1\n      pop\n      sstore\n      pop\n        /* \"kipu-bank/contracts/KipuBank.sol\":4376:4414  _safeSend(payable(msg.sender), amount) */\n      tag_72\n        /* \"kipu-bank/contracts/KipuBank.sol\":4394:4404  msg.sender */\n      caller\n        /* \"kipu-bank/contracts/KipuBank.sol\":4407:4413  amount */\n      dup4\n        /* \"kipu-bank/contracts/KipuBank.sol\":4376:4385  _safeSend */\n      tag_73\n        /* \"kipu-bank/contracts/KipuBank.sol\":4376:4414  _safeSend(payable(msg.sender), amount) */\n      jump\t// in\n    tag_72:\n        /* \"kipu-bank/contracts/KipuBank.sol\":4443:4453  msg.sender */\n      caller\n        /* \"kipu-bank/contracts/KipuBank.sol\":4432:4484  Withdrawal(msg.sender, amount, balances[msg.sender]) */\n      0xffffffffffffffffffffffffffffffffffffffff\n      and\n      0xdf273cb619d95419a9cd0ec88123a0538c85064229baa6363788f743fff90deb\n        /* \"kipu-bank/contracts/KipuBank.sol\":4455:4461  amount */\n      dup4\n        /* \"kipu-bank/contracts/KipuBank.sol\":4463:4471  balances */\n      0x01\n        /* \"kipu-bank/contracts/KipuBank.sol\":4463:4483  balances[msg.sender] */\n      0x00\n        /* \"kipu-bank/contracts/KipuBank.sol\":4472:4482  msg.sender */\n      caller\n        /* \"kipu-bank/contracts/KipuBank.sol\":4463:4483  balances[msg.sender] */\n      0xffffffffffffffffffffffffffffffffffffffff\n      and\n      0xffffffffffffffffffffffffffffffffffffffff\n      and\n      dup2\n      mstore\n      0x20\n      add\n      swap1\n      dup2\n      mstore\n      0x20\n      add\n      0x00\n      keccak256\n      sload\n        /* \"kipu-bank/contracts/KipuBank.sol\":4432:4484  Withdrawal(msg.sender, amount, balances[msg.sender]) */\n      mload(0x40)\n      tag_74\n      swap3\n      swap2\n      swap1\n      tag_29\n      jump\t// in\n    tag_74:\n      mload(0x40)\n      dup1\n      swap2\n      sub\n      swap1\n      log2\n        /* \"kipu-bank/contracts/KipuBank.sol\":3917:4492  {... */\n      pop\n        /* \"kipu-bank/contracts/KipuBank.sol\":3874:4492  function withdraw(uint256 amount) external {... */\n      pop\n      jump\t// out\n        /* \"kipu-bank/contracts/KipuBank.sol\":5047:5216  function getCounts(address account) external view returns (uint256 deposits, uint256 withdraws) {... */\n    tag_27:\n        /* \"kipu-bank/contracts/KipuBank.sol\":5106:5122  uint256 deposits */\n      0x00\n        /* \"kipu-bank/contracts/KipuBank.sol\":5124:5141  uint256 withdraws */\n      0x00\n        /* \"kipu-bank/contracts/KipuBank.sol\":5162:5174  depositCount */\n      0x02\n        /* \"kipu-bank/contracts/KipuBank.sol\":5162:5183  depositCount[account] */\n      0x00\n        /* \"kipu-bank/contracts/KipuBank.sol\":5175:5182  account */\n      dup5\n        /* \"kipu-bank/contracts/KipuBank.sol\":5162:5183  depositCount[account] */\n      0xffffffffffffffffffffffffffffffffffffffff\n      and\n      0xffffffffffffffffffffffffffffffffffffffff\n      and\n      dup2\n      mstore\n      0x20\n      add\n      swap1\n      dup2\n      mstore\n      0x20\n      add\n      0x00\n      keccak256\n      sload\n        /* \"kipu-bank/contracts/KipuBank.sol\":5185:5198  withdrawCount */\n      0x03\n        /* \"kipu-bank/contracts/KipuBank.sol\":5185:5207  withdrawCount[account] */\n      0x00\n        /* \"kipu-bank/contracts/KipuBank.sol\":5199:5206  account */\n      dup6\n        /* \"kipu-bank/contracts/KipuBank.sol\":5185:5207  withdrawCount[account] */\n      0xffffffffffffffffffffffffffffffffffffffff\n      and\n      0xffffffffffffffffffffffffffffffffffffffff\n      and\n      dup2\n      mstore\n      0x20\n      add\n      swap1\n      dup2\n      mstore\n      0x20\n      add\n      0x00\n      keccak256\n      sload\n        /* \"kipu-bank/contracts/KipuBank.sol\":5154:5208  return (depositCount[account], withdrawCount[account]) */\n      swap2\n      pop\n      swap2\n      pop\n        /* \"kipu-bank/contracts/KipuBank.sol\":5047:5216  function getCounts(address account) external view returns (uint256 deposits, uint256 withdraws) {... */\n      swap2\n      pop\n      swap2\n      jump\t// out\n        /* \"kipu-bank/contracts/KipuBank.sol\":1403:1431  uint256 public totalDeposits */\n    tag_32:\n      sload(0x00)\n      dup2\n      jump\t// out\n        /* \"kipu-bank/contracts/KipuBank.sol\":2585:2677  function deposit() external payable {... */\n    tag_36:\n        /* \"kipu-bank/contracts/KipuBank.sol\":2632:2669  _handleDeposit(msg.sender, msg.value) */\n      tag_77\n        /* \"kipu-bank/contracts/KipuBank.sol\":2647:2657  msg.sender */\n      caller\n        /* \"kipu-bank/contracts/KipuBank.sol\":2659:2668  msg.value */\n      callvalue\n        /* \"kipu-bank/contracts/KipuBank.sol\":2632:2646  _handleDeposit */\n      tag_14\n        /* \"kipu-bank/contracts/KipuBank.sol\":2632:2669  _handleDeposit(msg.sender, msg.value) */\n      jump\t// in\n    tag_77:\n        /* \"kipu-bank/contracts/KipuBank.sol\":2585:2677  function deposit() external payable {... */\n      jump\t// out\n        /* \"kipu-bank/contracts/KipuBank.sol\":1291:1326  uint256 public immutable perTxLimit */\n    tag_39:\n      immutable(\"0x4dfb3440902001bce9b7ebf7be7d95fe9e2056bd5ce309ceb83b32f4e00e21ed\")\n      dup2\n      jump\t// out\n        /* \"kipu-bank/contracts/KipuBank.sol\":1180:1212  uint256 public immutable bankCap */\n    tag_43:\n      immutable(\"0x880de8116b3dfac28e9ff528a9fef1d1e0a51449c1addce011ffec1f302992b6\")\n      dup2\n      jump\t// out\n        /* \"kipu-bank/contracts/KipuBank.sol\":4859:4971  function getBalance(address account) external view returns (uint256) {... */\n    tag_48:\n        /* \"kipu-bank/contracts/KipuBank.sol\":4919:4926  uint256 */\n      0x00\n        /* \"kipu-bank/contracts/KipuBank.sol\":4946:4954  balances */\n      0x01\n        /* \"kipu-bank/contracts/KipuBank.sol\":4946:4963  balances[account] */\n      0x00\n        /* \"kipu-bank/contracts/KipuBank.sol\":4955:4962  account */\n      dup4\n        /* \"kipu-bank/contracts/KipuBank.sol\":4946:4963  balances[account] */\n      0xffffffffffffffffffffffffffffffffffffffff\n      and\n      0xffffffffffffffffffffffffffffffffffffffff\n      and\n      dup2\n      mstore\n      0x20\n      add\n      swap1\n      dup2\n      mstore\n      0x20\n      add\n      0x00\n      keccak256\n      sload\n        /* \"kipu-bank/contracts/KipuBank.sol\":4939:4963  return balances[account] */\n      swap1\n      pop\n        /* \"kipu-bank/contracts/KipuBank.sol\":4859:4971  function getBalance(address account) external view returns (uint256) {... */\n      swap2\n      swap1\n      pop\n      jump\t// out\n        /* \"kipu-bank/contracts/KipuBank.sol\":4582:4768  function _safeSend(address payable to, uint256 amount) private {... */\n    tag_73:\n        /* \"kipu-bank/contracts/KipuBank.sol\":4657:4669  bool success */\n      0x00\n        /* \"kipu-bank/contracts/KipuBank.sol\":4675:4677  to */\n      dup3\n        /* \"kipu-bank/contracts/KipuBank.sol\":4675:4682  to.call */\n      0xffffffffffffffffffffffffffffffffffffffff\n      and\n        /* \"kipu-bank/contracts/KipuBank.sol\":4690:4696  amount */\n      dup3\n        /* \"kipu-bank/contracts/KipuBank.sol\":4675:4702  to.call{value: amount} (\"\") */\n      mload(0x40)\n      tag_80\n      swap1\n      tag_81\n      jump\t// in\n    tag_80:\n      0x00\n      mload(0x40)\n      dup1\n      dup4\n      sub\n      dup2\n      dup6\n      dup8\n      gas\n      call\n      swap3\n      pop\n      pop\n      pop\n      returndatasize\n      dup1\n      0x00\n      dup2\n      eq\n      tag_84\n      jumpi\n      mload(0x40)\n      swap2\n      pop\n      and(add(returndatasize, 0x3f), not(0x1f))\n      dup3\n      add\n      0x40\n      mstore\n      returndatasize\n      dup3\n      mstore\n      returndatasize\n      0x00\n      0x20\n      dup5\n      add\n      returndatacopy\n      jump(tag_83)\n    tag_84:\n      0x60\n      swap2\n      pop\n    tag_83:\n      pop\n        /* \"kipu-bank/contracts/KipuBank.sol\":4656:4702  (bool success, ) = to.call{value: amount} (\"\") */\n      pop\n      swap1\n      pop\n        /* \"kipu-bank/contracts/KipuBank.sol\":4718:4725  success */\n      dup1\n        /* \"kipu-bank/contracts/KipuBank.sol\":4713:4760  if (!success) revert TransferFailed(to, amount) */\n      tag_85\n      jumpi\n        /* \"kipu-bank/contracts/KipuBank.sol\":4749:4751  to */\n      dup3\n        /* \"kipu-bank/contracts/KipuBank.sol\":4753:4759  amount */\n      dup3\n        /* \"kipu-bank/contracts/KipuBank.sol\":4734:4760  TransferFailed(to, amount) */\n      mload(0x40)\n      0x1c43b97600000000000000000000000000000000000000000000000000000000\n      dup2\n      mstore\n      0x04\n      add\n      tag_86\n      swap3\n      swap2\n      swap1\n      tag_87\n      jump\t// in\n    tag_86:\n      mload(0x40)\n      dup1\n      swap2\n      sub\n      swap1\n      revert\n        /* \"kipu-bank/contracts/KipuBank.sol\":4713:4760  if (!success) revert TransferFailed(to, amount) */\n    tag_85:\n        /* \"kipu-bank/contracts/KipuBank.sol\":4645:4768  {... */\n      pop\n        /* \"kipu-bank/contracts/KipuBank.sol\":4582:4768  function _safeSend(address payable to, uint256 amount) private {... */\n      pop\n      pop\n      jump\t// out\n        /* \"#utility.yul\":88:205   */\n    tag_89:\n        /* \"#utility.yul\":197:198   */\n      0x00\n        /* \"#utility.yul\":194:195   */\n      0x00\n        /* \"#utility.yul\":187:199   */\n      revert\n        /* \"#utility.yul\":334:411   */\n    tag_91:\n        /* \"#utility.yul\":371:378   */\n      0x00\n        /* \"#utility.yul\":400:405   */\n      dup2\n        /* \"#utility.yul\":389:405   */\n      swap1\n      pop\n        /* \"#utility.yul\":334:411   */\n      swap2\n      swap1\n      pop\n      jump\t// out\n        /* \"#utility.yul\":417:539   */\n    tag_92:\n        /* \"#utility.yul\":490:514   */\n      tag_115\n        /* \"#utility.yul\":508:513   */\n      dup2\n        /* \"#utility.yul\":490:514   */\n      tag_91\n      jump\t// in\n    tag_115:\n        /* \"#utility.yul\":483:488   */\n      dup2\n        /* \"#utility.yul\":480:515   */\n      eq\n        /* \"#utility.yul\":470:533   */\n      tag_116\n      jumpi\n        /* \"#utility.yul\":529:530   */\n      0x00\n        /* \"#utility.yul\":526:527   */\n      0x00\n        /* \"#utility.yul\":519:531   */\n      revert\n        /* \"#utility.yul\":470:533   */\n    tag_116:\n        /* \"#utility.yul\":417:539   */\n      pop\n      jump\t// out\n        /* \"#utility.yul\":545:684   */\n    tag_93:\n        /* \"#utility.yul\":591:596   */\n      0x00\n        /* \"#utility.yul\":629:635   */\n      dup2\n        /* \"#utility.yul\":616:636   */\n      calldataload\n        /* \"#utility.yul\":607:636   */\n      swap1\n      pop\n        /* \"#utility.yul\":645:678   */\n      tag_118\n        /* \"#utility.yul\":672:677   */\n      dup2\n        /* \"#utility.yul\":645:678   */\n      tag_92\n      jump\t// in\n    tag_118:\n        /* \"#utility.yul\":545:684   */\n      swap3\n      swap2\n      pop\n      pop\n      jump\t// out\n        /* \"#utility.yul\":690:1019   */\n    tag_21:\n        /* \"#utility.yul\":749:755   */\n      0x00\n        /* \"#utility.yul\":798:800   */\n      0x20\n        /* \"#utility.yul\":786:795   */\n      dup3\n        /* \"#utility.yul\":777:784   */\n      dup5\n        /* \"#utility.yul\":773:796   */\n      sub\n        /* \"#utility.yul\":769:801   */\n      slt\n        /* \"#utility.yul\":766:885   */\n      iszero\n      tag_120\n      jumpi\n        /* \"#utility.yul\":804:883   */\n      tag_121\n      tag_89\n      jump\t// in\n    tag_121:\n        /* \"#utility.yul\":766:885   */\n    tag_120:\n        /* \"#utility.yul\":924:925   */\n      0x00\n        /* \"#utility.yul\":949:1002   */\n      tag_122\n        /* \"#utility.yul\":994:1001   */\n      dup5\n        /* \"#utility.yul\":985:991   */\n      dup3\n        /* \"#utility.yul\":974:983   */\n      dup6\n        /* \"#utility.yul\":970:992   */\n      add\n        /* \"#utility.yul\":949:1002   */\n      tag_93\n      jump\t// in\n    tag_122:\n        /* \"#utility.yul\":939:1002   */\n      swap2\n      pop\n        /* \"#utility.yul\":895:1012   */\n      pop\n        /* \"#utility.yul\":690:1019   */\n      swap3\n      swap2\n      pop\n      pop\n      jump\t// out\n        /* \"#utility.yul\":1025:1151   */\n    tag_94:\n        /* \"#utility.yul\":1062:1069   */\n      0x00\n        /* \"#utility.yul\":1102:1144   */\n      0xffffffffffffffffffffffffffffffffffffffff\n        /* \"#utility.yul\":1095:1100   */\n      dup3\n        /* \"#utility.yul\":1091:1145   */\n      and\n        /* \"#utility.yul\":1080:1145   */\n      swap1\n      pop\n        /* \"#utility.yul\":1025:1151   */\n      swap2\n      swap1\n      pop\n      jump\t// out\n        /* \"#utility.yul\":1157:1253   */\n    tag_95:\n        /* \"#utility.yul\":1194:1201   */\n      0x00\n        /* \"#utility.yul\":1223:1247   */\n      tag_125\n        /* \"#utility.yul\":1241:1246   */\n      dup3\n        /* \"#utility.yul\":1223:1247   */\n      tag_94\n      jump\t// in\n    tag_125:\n        /* \"#utility.yul\":1212:1247   */\n      swap1\n      pop\n        /* \"#utility.yul\":1157:1253   */\n      swap2\n      swap1\n      pop\n      jump\t// out\n        /* \"#utility.yul\":1259:1381   */\n    tag_96:\n        /* \"#utility.yul\":1332:1356   */\n      tag_127\n        /* \"#utility.yul\":1350:1355   */\n      dup2\n        /* \"#utility.yul\":1332:1356   */\n      tag_95\n      jump\t// in\n    tag_127:\n        /* \"#utility.yul\":1325:1330   */\n      dup2\n        /* \"#utility.yul\":1322:1357   */\n      eq\n        /* \"#utility.yul\":1312:1375   */\n      tag_128\n      jumpi\n        /* \"#utility.yul\":1371:1372   */\n      0x00\n        /* \"#utility.yul\":1368:1369   */\n      0x00\n        /* \"#utility.yul\":1361:1373   */\n      revert\n        /* \"#utility.yul\":1312:1375   */\n    tag_128:\n        /* \"#utility.yul\":1259:1381   */\n      pop\n      jump\t// out\n        /* \"#utility.yul\":1387:1526   */\n    tag_97:\n        /* \"#utility.yul\":1433:1438   */\n      0x00\n        /* \"#utility.yul\":1471:1477   */\n      dup2\n        /* \"#utility.yul\":1458:1478   */\n      calldataload\n        /* \"#utility.yul\":1449:1478   */\n      swap1\n      pop\n        /* \"#utility.yul\":1487:1520   */\n      tag_130\n        /* \"#utility.yul\":1514:1519   */\n      dup2\n        /* \"#utility.yul\":1487:1520   */\n      tag_96\n      jump\t// in\n    tag_130:\n        /* \"#utility.yul\":1387:1526   */\n      swap3\n      swap2\n      pop\n      pop\n      jump\t// out\n        /* \"#utility.yul\":1532:1861   */\n    tag_26:\n        /* \"#utility.yul\":1591:1597   */\n      0x00\n        /* \"#utility.yul\":1640:1642   */\n      0x20\n        /* \"#utility.yul\":1628:1637   */\n      dup3\n        /* \"#utility.yul\":1619:1626   */\n      dup5\n        /* \"#utility.yul\":1615:1638   */\n      sub\n        /* \"#utility.yul\":1611:1643   */\n      slt\n        /* \"#utility.yul\":1608:1727   */\n      iszero\n      tag_132\n      jumpi\n        /* \"#utility.yul\":1646:1725   */\n      tag_133\n      tag_89\n      jump\t// in\n    tag_133:\n        /* \"#utility.yul\":1608:1727   */\n    tag_132:\n        /* \"#utility.yul\":1766:1767   */\n      0x00\n        /* \"#utility.yul\":1791:1844   */\n      tag_134\n        /* \"#utility.yul\":1836:1843   */\n      dup5\n        /* \"#utility.yul\":1827:1833   */\n      dup3\n        /* \"#utility.yul\":1816:1825   */\n      dup6\n        /* \"#utility.yul\":1812:1834   */\n      add\n        /* \"#utility.yul\":1791:1844   */\n      tag_97\n      jump\t// in\n    tag_134:\n        /* \"#utility.yul\":1781:1844   */\n      swap2\n      pop\n        /* \"#utility.yul\":1737:1854   */\n      pop\n        /* \"#utility.yul\":1532:1861   */\n      swap3\n      swap2\n      pop\n      pop\n      jump\t// out\n        /* \"#utility.yul\":1867:1985   */\n    tag_98:\n        /* \"#utility.yul\":1954:1978   */\n      tag_136\n        /* \"#utility.yul\":1972:1977   */\n      dup2\n        /* \"#utility.yul\":1954:1978   */\n      tag_91\n      jump\t// in\n    tag_136:\n        /* \"#utility.yul\":1949:1952   */\n      dup3\n        /* \"#utility.yul\":1942:1979   */\n      mstore\n        /* \"#utility.yul\":1867:1985   */\n      pop\n      pop\n      jump\t// out\n        /* \"#utility.yul\":1991:2323   */\n    tag_29:\n        /* \"#utility.yul\":2112:2116   */\n      0x00\n        /* \"#utility.yul\":2150:2152   */\n      0x40\n        /* \"#utility.yul\":2139:2148   */\n      dup3\n        /* \"#utility.yul\":2135:2153   */\n      add\n        /* \"#utility.yul\":2127:2153   */\n      swap1\n      pop\n        /* \"#utility.yul\":2163:2234   */\n      tag_138\n        /* \"#utility.yul\":2231:2232   */\n      0x00\n        /* \"#utility.yul\":2220:2229   */\n      dup4\n        /* \"#utility.yul\":2216:2233   */\n      add\n        /* \"#utility.yul\":2207:2213   */\n      dup6\n        /* \"#utility.yul\":2163:2234   */\n      tag_98\n      jump\t// in\n    tag_138:\n        /* \"#utility.yul\":2244:2316   */\n      tag_139\n        /* \"#utility.yul\":2312:2314   */\n      0x20\n        /* \"#utility.yul\":2301:2310   */\n      dup4\n        /* \"#utility.yul\":2297:2315   */\n      add\n        /* \"#utility.yul\":2288:2294   */\n      dup5\n        /* \"#utility.yul\":2244:2316   */\n      tag_98\n      jump\t// in\n    tag_139:\n        /* \"#utility.yul\":1991:2323   */\n      swap4\n      swap3\n      pop\n      pop\n      pop\n      jump\t// out\n        /* \"#utility.yul\":2329:2551   */\n    tag_34:\n        /* \"#utility.yul\":2422:2426   */\n      0x00\n        /* \"#utility.yul\":2460:2462   */\n      0x20\n        /* \"#utility.yul\":2449:2458   */\n      dup3\n        /* \"#utility.yul\":2445:2463   */\n      add\n        /* \"#utility.yul\":2437:2463   */\n      swap1\n      pop\n        /* \"#utility.yul\":2473:2544   */\n      tag_141\n        /* \"#utility.yul\":2541:2542   */\n      0x00\n        /* \"#utility.yul\":2530:2539   */\n      dup4\n        /* \"#utility.yul\":2526:2543   */\n      add\n        /* \"#utility.yul\":2517:2523   */\n      dup5\n        /* \"#utility.yul\":2473:2544   */\n      tag_98\n      jump\t// in\n    tag_141:\n        /* \"#utility.yul\":2329:2551   */\n      swap3\n      swap2\n      pop\n      pop\n      jump\t// out\n        /* \"#utility.yul\":2557:2737   */\n    tag_99:\n        /* \"#utility.yul\":2605:2682   */\n      0x4e487b7100000000000000000000000000000000000000000000000000000000\n        /* \"#utility.yul\":2602:2603   */\n      0x00\n        /* \"#utility.yul\":2595:2683   */\n      mstore\n        /* \"#utility.yul\":2702:2706   */\n      0x11\n        /* \"#utility.yul\":2699:2700   */\n      0x04\n        /* \"#utility.yul\":2692:2707   */\n      mstore\n        /* \"#utility.yul\":2726:2730   */\n      0x24\n        /* \"#utility.yul\":2723:2724   */\n      0x00\n        /* \"#utility.yul\":2716:2731   */\n      revert\n        /* \"#utility.yul\":2743:2934   */\n    tag_53:\n        /* \"#utility.yul\":2783:2786   */\n      0x00\n        /* \"#utility.yul\":2802:2822   */\n      tag_144\n        /* \"#utility.yul\":2820:2821   */\n      dup3\n        /* \"#utility.yul\":2802:2822   */\n      tag_91\n      jump\t// in\n    tag_144:\n        /* \"#utility.yul\":2797:2822   */\n      swap2\n      pop\n        /* \"#utility.yul\":2836:2856   */\n      tag_145\n        /* \"#utility.yul\":2854:2855   */\n      dup4\n        /* \"#utility.yul\":2836:2856   */\n      tag_91\n      jump\t// in\n    tag_145:\n        /* \"#utility.yul\":2831:2856   */\n      swap3\n      pop\n        /* \"#utility.yul\":2879:2880   */\n      dup3\n        /* \"#utility.yul\":2876:2877   */\n      dup3\n        /* \"#utility.yul\":2872:2881   */\n      add\n        /* \"#utility.yul\":2865:2881   */\n      swap1\n      pop\n        /* \"#utility.yul\":2900:2903   */\n      dup1\n        /* \"#utility.yul\":2897:2898   */\n      dup3\n        /* \"#utility.yul\":2894:2904   */\n      gt\n        /* \"#utility.yul\":2891:2927   */\n      iszero\n      tag_146\n      jumpi\n        /* \"#utility.yul\":2907:2925   */\n      tag_147\n      tag_99\n      jump\t// in\n    tag_147:\n        /* \"#utility.yul\":2891:2927   */\n    tag_146:\n        /* \"#utility.yul\":2743:2934   */\n      swap3\n      swap2\n      pop\n      pop\n      jump\t// out\n        /* \"#utility.yul\":2940:3134   */\n    tag_56:\n        /* \"#utility.yul\":2980:2984   */\n      0x00\n        /* \"#utility.yul\":3000:3020   */\n      tag_149\n        /* \"#utility.yul\":3018:3019   */\n      dup3\n        /* \"#utility.yul\":3000:3020   */\n      tag_91\n      jump\t// in\n    tag_149:\n        /* \"#utility.yul\":2995:3020   */\n      swap2\n      pop\n        /* \"#utility.yul\":3034:3054   */\n      tag_150\n        /* \"#utility.yul\":3052:3053   */\n      dup4\n        /* \"#utility.yul\":3034:3054   */\n      tag_91\n      jump\t// in\n    tag_150:\n        /* \"#utility.yul\":3029:3054   */\n      swap3\n      pop\n        /* \"#utility.yul\":3078:3079   */\n      dup3\n        /* \"#utility.yul\":3075:3076   */\n      dup3\n        /* \"#utility.yul\":3071:3080   */\n      sub\n        /* \"#utility.yul\":3063:3080   */\n      swap1\n      pop\n        /* \"#utility.yul\":3102:3103   */\n      dup2\n        /* \"#utility.yul\":3096:3100   */\n      dup2\n        /* \"#utility.yul\":3093:3104   */\n      gt\n        /* \"#utility.yul\":3090:3127   */\n      iszero\n      tag_151\n      jumpi\n        /* \"#utility.yul\":3107:3125   */\n      tag_152\n      tag_99\n      jump\t// in\n    tag_152:\n        /* \"#utility.yul\":3090:3127   */\n    tag_151:\n        /* \"#utility.yul\":2940:3134   */\n      swap3\n      swap2\n      pop\n      pop\n      jump\t// out\n        /* \"#utility.yul\":3140:3373   */\n    tag_60:\n        /* \"#utility.yul\":3179:3182   */\n      0x00\n        /* \"#utility.yul\":3202:3226   */\n      tag_154\n        /* \"#utility.yul\":3220:3225   */\n      dup3\n        /* \"#utility.yul\":3202:3226   */\n      tag_91\n      jump\t// in\n    tag_154:\n        /* \"#utility.yul\":3193:3226   */\n      swap2\n      pop\n        /* \"#utility.yul\":3248:3314   */\n      0xffffffffffffffffffffffffffffffffffffffffffffffffffffffffffffffff\n        /* \"#utility.yul\":3241:3246   */\n      dup3\n        /* \"#utility.yul\":3238:3315   */\n      sub\n        /* \"#utility.yul\":3235:3338   */\n      tag_155\n      jumpi\n        /* \"#utility.yul\":3318:3336   */\n      tag_156\n      tag_99\n      jump\t// in\n    tag_156:\n        /* \"#utility.yul\":3235:3338   */\n    tag_155:\n        /* \"#utility.yul\":3365:3366   */\n      0x01\n        /* \"#utility.yul\":3358:3363   */\n      dup3\n        /* \"#utility.yul\":3354:3367   */\n      add\n        /* \"#utility.yul\":3347:3367   */\n      swap1\n      pop\n        /* \"#utility.yul\":3140:3373   */\n      swap2\n      swap1\n      pop\n      jump\t// out\n        /* \"#utility.yul\":3379:3497   */\n    tag_100:\n        /* \"#utility.yul\":3466:3490   */\n      tag_158\n        /* \"#utility.yul\":3484:3489   */\n      dup2\n        /* \"#utility.yul\":3466:3490   */\n      tag_95\n      jump\t// in\n    tag_158:\n        /* \"#utility.yul\":3461:3464   */\n      dup3\n        /* \"#utility.yul\":3454:3491   */\n      mstore\n        /* \"#utility.yul\":3379:3497   */\n      pop\n      pop\n      jump\t// out\n        /* \"#utility.yul\":3503:3945   */\n    tag_68:\n        /* \"#utility.yul\":3652:3656   */\n      0x00\n        /* \"#utility.yul\":3690:3692   */\n      0x60\n        /* \"#utility.yul\":3679:3688   */\n      dup3\n        /* \"#utility.yul\":3675:3693   */\n      add\n        /* \"#utility.yul\":3667:3693   */\n      swap1\n      pop\n        /* \"#utility.yul\":3703:3774   */\n      tag_160\n        /* \"#utility.yul\":3771:3772   */\n      0x00\n        /* \"#utility.yul\":3760:3769   */\n      dup4\n        /* \"#utility.yul\":3756:3773   */\n      add\n        /* \"#utility.yul\":3747:3753   */\n      dup7\n        /* \"#utility.yul\":3703:3774   */\n      tag_100\n      jump\t// in\n    tag_160:\n        /* \"#utility.yul\":3784:3856   */\n      tag_161\n        /* \"#utility.yul\":3852:3854   */\n      0x20\n        /* \"#utility.yul\":3841:3850   */\n      dup4\n        /* \"#utility.yul\":3837:3855   */\n      add\n        /* \"#utility.yul\":3828:3834   */\n      dup6\n        /* \"#utility.yul\":3784:3856   */\n      tag_98\n      jump\t// in\n    tag_161:\n        /* \"#utility.yul\":3866:3938   */\n      tag_162\n        /* \"#utility.yul\":3934:3936   */\n      0x40\n        /* \"#utility.yul\":3923:3932   */\n      dup4\n        /* \"#utility.yul\":3919:3937   */\n      add\n        /* \"#utility.yul\":3910:3916   */\n      dup5\n        /* \"#utility.yul\":3866:3938   */\n      tag_98\n      jump\t// in\n    tag_162:\n        /* \"#utility.yul\":3503:3945   */\n      swap5\n      swap4\n      pop\n      pop\n      pop\n      pop\n      jump\t// out\n        /* \"#utility.yul\":3951:4098   */\n    tag_101:\n        /* \"#utility.yul\":4052:4063   */\n      0x00\n        /* \"#utility.yul\":4089:4092   */\n      dup2\n        /* \"#utility.yul\":4074:4092   */\n      swap1\n      pop\n        /* \"#utility.yul\":3951:4098   */\n      swap3\n      swap2\n      pop\n      pop\n      jump\t// out\n        /* \"#utility.yul\":4104:4218   */\n    tag_102:\n      pop\n      jump\t// out\n        /* \"#utility.yul\":4224:4622   */\n    tag_103:\n        /* \"#utility.yul\":4383:4386   */\n      0x00\n        /* \"#utility.yul\":4404:4487   */\n      tag_166\n        /* \"#utility.yul\":4485:4486   */\n      0x00\n        /* \"#utility.yul\":4480:4483   */\n      dup4\n        /* \"#utility.yul\":4404:4487   */\n      tag_101\n      jump\t// in\n    tag_166:\n        /* \"#utility.yul\":4397:4487   */\n      swap2\n      pop\n        /* \"#utility.yul\":4496:4589   */\n      tag_167\n        /* \"#utility.yul\":4585:4588   */\n      dup3\n        /* \"#utility.yul\":4496:4589   */\n      tag_102\n      jump\t// in\n    tag_167:\n        /* \"#utility.yul\":4614:4615   */\n      0x00\n        /* \"#utility.yul\":4609:4612   */\n      dup3\n        /* \"#utility.yul\":4605:4616   */\n      add\n        /* \"#utility.yul\":4598:4616   */\n      swap1\n      pop\n        /* \"#utility.yul\":4224:4622   */\n      swap2\n      swap1\n      pop\n      jump\t// out\n        /* \"#utility.yul\":4628:5007   */\n    tag_81:\n        /* \"#utility.yul\":4812:4815   */\n      0x00\n        /* \"#utility.yul\":4834:4981   */\n      tag_169\n        /* \"#utility.yul\":4977:4980   */\n      dup3\n        /* \"#utility.yul\":4834:4981   */\n      tag_103\n      jump\t// in\n    tag_169:\n        /* \"#utility.yul\":4827:4981   */\n      swap2\n      pop\n        /* \"#utility.yul\":4998:5001   */\n      dup2\n        /* \"#utility.yul\":4991:5001   */\n      swap1\n      pop\n        /* \"#utility.yul\":4628:5007   */\n      swap2\n      swap1\n      pop\n      jump\t// out\n        /* \"#utility.yul\":5013:5073   */\n    tag_104:\n        /* \"#utility.yul\":5041:5044   */\n      0x00\n        /* \"#utility.yul\":5062:5067   */\n      dup2\n        /* \"#utility.yul\":5055:5067   */\n      swap1\n      pop\n        /* \"#utility.yul\":5013:5073   */\n      swap2\n      swap1\n      pop\n      jump\t// out\n        /* \"#utility.yul\":5079:5221   */\n    tag_105:\n        /* \"#utility.yul\":5129:5138   */\n      0x00\n        /* \"#utility.yul\":5162:5215   */\n      tag_172\n        /* \"#utility.yul\":5180:5214   */\n      tag_173\n        /* \"#utility.yul\":5189:5213   */\n      tag_174\n        /* \"#utility.yul\":5207:5212   */\n      dup5\n        /* \"#utility.yul\":5189:5213   */\n      tag_94\n      jump\t// in\n    tag_174:\n        /* \"#utility.yul\":5180:5214   */\n      tag_104\n      jump\t// in\n    tag_173:\n        /* \"#utility.yul\":5162:5215   */\n      tag_94\n      jump\t// in\n    tag_172:\n        /* \"#utility.yul\":5149:5215   */\n      swap1\n      pop\n        /* \"#utility.yul\":5079:5221   */\n      swap2\n      swap1\n      pop\n      jump\t// out\n        /* \"#utility.yul\":5227:5353   */\n    tag_106:\n        /* \"#utility.yul\":5277:5286   */\n      0x00\n        /* \"#utility.yul\":5310:5347   */\n      tag_176\n        /* \"#utility.yul\":5341:5346   */\n      dup3\n        /* \"#utility.yul\":5310:5347   */\n      tag_105\n      jump\t// in\n    tag_176:\n        /* \"#utility.yul\":5297:5347   */\n      swap1\n      pop\n        /* \"#utility.yul\":5227:5353   */\n      swap2\n      swap1\n      pop\n      jump\t// out\n        /* \"#utility.yul\":5359:5493   */\n    tag_107:\n        /* \"#utility.yul\":5417:5426   */\n      0x00\n        /* \"#utility.yul\":5450:5487   */\n      tag_178\n        /* \"#utility.yul\":5481:5486   */\n      dup3\n        /* \"#utility.yul\":5450:5487   */\n      tag_106\n      jump\t// in\n    tag_178:\n        /* \"#utility.yul\":5437:5487   */\n      swap1\n      pop\n        /* \"#utility.yul\":5359:5493   */\n      swap2\n      swap1\n      pop\n      jump\t// out\n        /* \"#utility.yul\":5499:5646   */\n    tag_108:\n        /* \"#utility.yul\":5594:5639   */\n      tag_180\n        /* \"#utility.yul\":5633:5638   */\n      dup2\n        /* \"#utility.yul\":5594:5639   */\n      tag_107\n      jump\t// in\n    tag_180:\n        /* \"#utility.yul\":5589:5592   */\n      dup3\n        /* \"#utility.yul\":5582:5640   */\n      mstore\n        /* \"#utility.yul\":5499:5646   */\n      pop\n      pop\n      jump\t// out\n        /* \"#utility.yul\":5652:6000   */\n    tag_87:\n        /* \"#utility.yul\":5781:5785   */\n      0x00\n        /* \"#utility.yul\":5819:5821   */\n      0x40\n        /* \"#utility.yul\":5808:5817   */\n      dup3\n        /* \"#utility.yul\":5804:5822   */\n      add\n        /* \"#utility.yul\":5796:5822   */\n      swap1\n      pop\n        /* \"#utility.yul\":5832:5911   */\n      tag_182\n        /* \"#utility.yul\":5908:5909   */\n      0x00\n        /* \"#utility.yul\":5897:5906   */\n      dup4\n        /* \"#utility.yul\":5893:5910   */\n      add\n        /* \"#utility.yul\":5884:5890   */\n      dup6\n        /* \"#utility.yul\":5832:5911   */\n      tag_108\n      jump\t// in\n    tag_182:\n        /* \"#utility.yul\":5921:5993   */\n      tag_183\n        /* \"#utility.yul\":5989:5991   */\n      0x20\n        /* \"#utility.yul\":5978:5987   */\n      dup4\n        /* \"#utility.yul\":5974:5992   */\n      add\n        /* \"#utility.yul\":5965:5971   */\n      dup5\n        /* \"#utility.yul\":5921:5993   */\n      tag_98\n      jump\t// in\n    tag_183:\n        /* \"#utility.yul\":5652:6000   */\n      swap4\n      swap3\n      pop\n      pop\n      pop\n      jump\t// out\n\n    auxdata: 0xa2646970667358221220008338608ef21196b3f6e4500fdd8a3c57195403a2e16401f633a42eae7e029a64736f6c634300081e0033\n}\n",
				"bytecode": {
					"linkReferences": {},
					"object": "60c060405234801561000f575f5ffd5b50604051610ccf380380610ccf833981810160405281019061003191906100c3565b5f82148061003e57505f81145b15610075576040517f296b774400000000000000000000000000000000000000000000000000000000815260040160405180910390fd5b81608081815250508060a081815250505050610101565b5f5ffd5b5f819050919050565b6100a281610090565b81146100ac575f5ffd5b50565b5f815190506100bd81610099565b92915050565b5f5f604083850312156100d9576100d861008c565b5b5f6100e6858286016100af565b92505060206100f7858286016100af565b9150509250929050565b60805160a051610b9161013e5f395f818161040d01528181610436015261070701525f81816102040152818161022f015261072b0152610b915ff3fe608060405260043610610073575f3560e01c8063d0e30db01161004d578063d0e30db01461011f578063df77294114610129578063ecbea24d14610153578063f8b2cb4f1461017d57610084565b80632e1a7d4d146100905780635b467404146100b85780637d882097146100f557610084565b366100845761008233346101b9565b005b61008e33346101b9565b005b34801561009b575f5ffd5b506100b660048036038101906100b1919061087b565b6103d2565b005b3480156100c3575f5ffd5b506100de60048036038101906100d99190610900565b61066d565b6040516100ec92919061093a565b60405180910390f35b348015610100575f5ffd5b506101096106f4565b6040516101169190610961565b60405180910390f35b6101276106f9565b005b348015610134575f5ffd5b5061013d610705565b60405161014a9190610961565b60405180910390f35b34801561015e575f5ffd5b50610167610729565b6040516101749190610961565b60405180910390f35b348015610188575f5ffd5b506101a3600480360381019061019e9190610900565b61074d565b6040516101b09190610961565b60405180910390f35b5f81036101f2576040517f9cf8540c00000000000000000000000000000000000000000000000000000000815260040160405180910390fd5b5f815f5461020091906109a7565b90507f000000000000000000000000000000000000000000000000000000000000000081111561029557815f547f000000000000000000000000000000000000000000000000000000000000000061025891906109da565b6040517f4274ef7700000000000000000000000000000000000000000000000000000000815260040161028c92919061093a565b60405180910390fd5b8160015f8573ffffffffffffffffffffffffffffffffffffffff1673ffffffffffffffffffffffffffffffffffffffff1681526020019081526020015f205f8282546102e191906109a7565b92505081905550805f8190555060025f8473ffffffffffffffffffffffffffffffffffffffff1673ffffffffffffffffffffffffffffffffffffffff1681526020019081526020015f205f81548092919061033b90610a0d565b91905055508273ffffffffffffffffffffffffffffffffffffffff167f90890809c654f11d6e72a28fa60149770a0d11ec6c92319d6ceb2bb0a4ea1a158360015f8773ffffffffffffffffffffffffffffffffffffffff1673ffffffffffffffffffffffffffffffffffffffff1681526020019081526020015f20546040516103c592919061093a565b60405180910390a2505050565b5f810361040b576040517f9cf8540c00000000000000000000000000000000000000000000000000000000815260040160405180910390fd5b7f000000000000000000000000000000000000000000000000000000000000000081111561049257807f00000000000000000000000000000000000000000000000000000000000000006040517fd1e6b2fa00000000000000000000000000000000000000000000000000000000815260040161048992919061093a565b60405180910390fd5b5f60015f3373ffffffffffffffffffffffffffffffffffffffff1673ffffffffffffffffffffffffffffffffffffffff1681526020019081526020015f205490508082111561051c573382826040517fdb42144d00000000000000000000000000000000000000000000000000000000815260040161051393929190610a63565b60405180910390fd5b818161052891906109da565b60015f3373ffffffffffffffffffffffffffffffffffffffff1673ffffffffffffffffffffffffffffffffffffffff1681526020019081526020015f2081905550815f5f82825461057991906109da565b9250508190555060035f3373ffffffffffffffffffffffffffffffffffffffff1673ffffffffffffffffffffffffffffffffffffffff1681526020019081526020015f205f8154809291906105cd90610a0d565b91905055506105dc3383610793565b3373ffffffffffffffffffffffffffffffffffffffff167fdf273cb619d95419a9cd0ec88123a0538c85064229baa6363788f743fff90deb8360015f3373ffffffffffffffffffffffffffffffffffffffff1673ffffffffffffffffffffffffffffffffffffffff1681526020019081526020015f205460405161066192919061093a565b60405180910390a25050565b5f5f60025f8473ffffffffffffffffffffffffffffffffffffffff1673ffffffffffffffffffffffffffffffffffffffff1681526020019081526020015f205460035f8573ffffffffffffffffffffffffffffffffffffffff1673ffffffffffffffffffffffffffffffffffffffff1681526020019081526020015f205491509150915091565b5f5481565b61070333346101b9565b565b7f000000000000000000000000000000000000000000000000000000000000000081565b7f000000000000000000000000000000000000000000000000000000000000000081565b5f60015f8373ffffffffffffffffffffffffffffffffffffffff1673ffffffffffffffffffffffffffffffffffffffff1681526020019081526020015f20549050919050565b5f8273ffffffffffffffffffffffffffffffffffffffff16826040516107b890610ac5565b5f6040518083038185875af1925050503d805f81146107f2576040519150601f19603f3d011682016040523d82523d5f602084013e6107f7565b606091505b505090508061083f5782826040517f1c43b976000000000000000000000000000000000000000000000000000000008152600401610836929190610b34565b60405180910390fd5b505050565b5f5ffd5b5f819050919050565b61085a81610848565b8114610864575f5ffd5b50565b5f8135905061087581610851565b92915050565b5f602082840312156108905761088f610844565b5b5f61089d84828501610867565b91505092915050565b5f73ffffffffffffffffffffffffffffffffffffffff82169050919050565b5f6108cf826108a6565b9050919050565b6108df816108c5565b81146108e9575f5ffd5b50565b5f813590506108fa816108d6565b92915050565b5f6020828403121561091557610914610844565b5b5f610922848285016108ec565b91505092915050565b61093481610848565b82525050565b5f60408201905061094d5f83018561092b565b61095a602083018461092b565b9392505050565b5f6020820190506109745f83018461092b565b92915050565b7f4e487b71000000000000000000000000000000000000000000000000000000005f52601160045260245ffd5b5f6109b182610848565b91506109bc83610848565b92508282019050808211156109d4576109d361097a565b5b92915050565b5f6109e482610848565b91506109ef83610848565b9250828203905081811115610a0757610a0661097a565b5b92915050565b5f610a1782610848565b91507fffffffffffffffffffffffffffffffffffffffffffffffffffffffffffffffff8203610a4957610a4861097a565b5b600182019050919050565b610a5d816108c5565b82525050565b5f606082019050610a765f830186610a54565b610a83602083018561092b565b610a90604083018461092b565b949350505050565b5f81905092915050565b50565b5f610ab05f83610a98565b9150610abb82610aa2565b5f82019050919050565b5f610acf82610aa5565b9150819050919050565b5f819050919050565b5f610afc610af7610af2846108a6565b610ad9565b6108a6565b9050919050565b5f610b0d82610ae2565b9050919050565b5f610b1e82610b03565b9050919050565b610b2e81610b14565b82525050565b5f604082019050610b475f830185610b25565b610b54602083018461092b565b939250505056fea2646970667358221220008338608ef21196b3f6e4500fdd8a3c57195403a2e16401f633a42eae7e029a64736f6c634300081e0033",
					"opcodes": "PUSH1 0xC0 PUSH1 0x40 MSTORE CALLVALUE DUP1 ISZERO PUSH2 0xF JUMPI PUSH0 PUSH0 REVERT JUMPDEST POP PUSH1 0x40 MLOAD PUSH2 0xCCF CODESIZE SUB DUP1 PUSH2 0xCCF DUP4 CODECOPY DUP2 DUP2 ADD PUSH1 0x40 MSTORE DUP2 ADD SWAP1 PUSH2 0x31 SWAP2 SWAP1 PUSH2 0xC3 JUMP JUMPDEST PUSH0 DUP3 EQ DUP1 PUSH2 0x3E JUMPI POP PUSH0 DUP2 EQ JUMPDEST ISZERO PUSH2 0x75 JUMPI PUSH1 0x40 MLOAD PUSH32 0x296B774400000000000000000000000000000000000000000000000000000000 DUP2 MSTORE PUSH1 0x4 ADD PUSH1 0x40 MLOAD DUP1 SWAP2 SUB SWAP1 REVERT JUMPDEST DUP2 PUSH1 0x80 DUP2 DUP2 MSTORE POP POP DUP1 PUSH1 0xA0 DUP2 DUP2 MSTORE POP POP POP POP PUSH2 0x101 JUMP JUMPDEST PUSH0 PUSH0 REVERT JUMPDEST PUSH0 DUP2 SWAP1 POP SWAP2 SWAP1 POP JUMP JUMPDEST PUSH2 0xA2 DUP2 PUSH2 0x90 JUMP JUMPDEST DUP2 EQ PUSH2 0xAC JUMPI PUSH0 PUSH0 REVERT JUMPDEST POP JUMP JUMPDEST PUSH0 DUP2 MLOAD SWAP1 POP PUSH2 0xBD DUP2 PUSH2 0x99 JUMP JUMPDEST SWAP3 SWAP2 POP POP JUMP JUMPDEST PUSH0 PUSH0 PUSH1 0x40 DUP4 DUP6 SUB SLT ISZERO PUSH2 0xD9 JUMPI PUSH2 0xD8 PUSH2 0x8C JUMP JUMPDEST JUMPDEST PUSH0 PUSH2 0xE6 DUP6 DUP3 DUP7 ADD PUSH2 0xAF JUMP JUMPDEST SWAP3 POP POP PUSH1 0x20 PUSH2 0xF7 DUP6 DUP3 DUP7 ADD PUSH2 0xAF JUMP JUMPDEST SWAP2 POP POP SWAP3 POP SWAP3 SWAP1 POP JUMP JUMPDEST PUSH1 0x80 MLOAD PUSH1 0xA0 MLOAD PUSH2 0xB91 PUSH2 0x13E PUSH0 CODECOPY PUSH0 DUP2 DUP2 PUSH2 0x40D ADD MSTORE DUP2 DUP2 PUSH2 0x436 ADD MSTORE PUSH2 0x707 ADD MSTORE PUSH0 DUP2 DUP2 PUSH2 0x204 ADD MSTORE DUP2 DUP2 PUSH2 0x22F ADD MSTORE PUSH2 0x72B ADD MSTORE PUSH2 0xB91 PUSH0 RETURN INVALID PUSH1 0x80 PUSH1 0x40 MSTORE PUSH1 0x4 CALLDATASIZE LT PUSH2 0x73 JUMPI PUSH0 CALLDATALOAD PUSH1 0xE0 SHR DUP1 PUSH4 0xD0E30DB0 GT PUSH2 0x4D JUMPI DUP1 PUSH4 0xD0E30DB0 EQ PUSH2 0x11F JUMPI DUP1 PUSH4 0xDF772941 EQ PUSH2 0x129 JUMPI DUP1 PUSH4 0xECBEA24D EQ PUSH2 0x153 JUMPI DUP1 PUSH4 0xF8B2CB4F EQ PUSH2 0x17D JUMPI PUSH2 0x84 JUMP JUMPDEST DUP1 PUSH4 0x2E1A7D4D EQ PUSH2 0x90 JUMPI DUP1 PUSH4 0x5B467404 EQ PUSH2 0xB8 JUMPI DUP1 PUSH4 0x7D882097 EQ PUSH2 0xF5 JUMPI PUSH2 0x84 JUMP JUMPDEST CALLDATASIZE PUSH2 0x84 JUMPI PUSH2 0x82 CALLER CALLVALUE PUSH2 0x1B9 JUMP JUMPDEST STOP JUMPDEST PUSH2 0x8E CALLER CALLVALUE PUSH2 0x1B9 JUMP JUMPDEST STOP JUMPDEST CALLVALUE DUP1 ISZERO PUSH2 0x9B JUMPI PUSH0 PUSH0 REVERT JUMPDEST POP PUSH2 0xB6 PUSH1 0x4 DUP1 CALLDATASIZE SUB DUP2 ADD SWAP1 PUSH2 0xB1 SWAP2 SWAP1 PUSH2 0x87B JUMP JUMPDEST PUSH2 0x3D2 JUMP JUMPDEST STOP JUMPDEST CALLVALUE DUP1 ISZERO PUSH2 0xC3 JUMPI PUSH0 PUSH0 REVERT JUMPDEST POP PUSH2 0xDE PUSH1 0x4 DUP1 CALLDATASIZE SUB DUP2 ADD SWAP1 PUSH2 0xD9 SWAP2 SWAP1 PUSH2 0x900 JUMP JUMPDEST PUSH2 0x66D JUMP JUMPDEST PUSH1 0x40 MLOAD PUSH2 0xEC SWAP3 SWAP2 SWAP1 PUSH2 0x93A JUMP JUMPDEST PUSH1 0x40 MLOAD DUP1 SWAP2 SUB SWAP1 RETURN JUMPDEST CALLVALUE DUP1 ISZERO PUSH2 0x100 JUMPI PUSH0 PUSH0 REVERT JUMPDEST POP PUSH2 0x109 PUSH2 0x6F4 JUMP JUMPDEST PUSH1 0x40 MLOAD PUSH2 0x116 SWAP2 SWAP1 PUSH2 0x961 JUMP JUMPDEST PUSH1 0x40 MLOAD DUP1 SWAP2 SUB SWAP1 RETURN JUMPDEST PUSH2 0x127 PUSH2 0x6F9 JUMP JUMPDEST STOP JUMPDEST CALLVALUE DUP1 ISZERO PUSH2 0x134 JUMPI PUSH0 PUSH0 REVERT JUMPDEST POP PUSH2 0x13D PUSH2 0x705 JUMP JUMPDEST PUSH1 0x40 MLOAD PUSH2 0x14A SWAP2 SWAP1 PUSH2 0x961 JUMP JUMPDEST PUSH1 0x40 MLOAD DUP1 SWAP2 SUB SWAP1 RETURN JUMPDEST CALLVALUE DUP1 ISZERO PUSH2 0x15E JUMPI PUSH0 PUSH0 REVERT JUMPDEST POP PUSH2 0x167 PUSH2 0x729 JUMP JUMPDEST PUSH1 0x40 MLOAD PUSH2 0x174 SWAP2 SWAP1 PUSH2 0x961 JUMP JUMPDEST PUSH1 0x40 MLOAD DUP1 SWAP2 SUB SWAP1 RETURN JUMPDEST CALLVALUE DUP1 ISZERO PUSH2 0x188 JUMPI PUSH0 PUSH0 REVERT JUMPDEST POP PUSH2 0x1A3 PUSH1 0x4 DUP1 CALLDATASIZE SUB DUP2 ADD SWAP1 PUSH2 0x19E SWAP2 SWAP1 PUSH2 0x900 JUMP JUMPDEST PUSH2 0x74D JUMP JUMPDEST PUSH1 0x40 MLOAD PUSH2 0x1B0 SWAP2 SWAP1 PUSH2 0x961 JUMP JUMPDEST PUSH1 0x40 MLOAD DUP1 SWAP2 SUB SWAP1 RETURN JUMPDEST PUSH0 DUP2 SUB PUSH2 0x1F2 JUMPI PUSH1 0x40 MLOAD PUSH32 0x9CF8540C00000000000000000000000000000000000000000000000000000000 DUP2 MSTORE PUSH1 0x4 ADD PUSH1 0x40 MLOAD DUP1 SWAP2 SUB SWAP1 REVERT JUMPDEST PUSH0 DUP2 PUSH0 SLOAD PUSH2 0x200 SWAP2 SWAP1 PUSH2 0x9A7 JUMP JUMPDEST SWAP1 POP PUSH32 0x0 DUP2 GT ISZERO PUSH2 0x295 JUMPI DUP2 PUSH0 SLOAD PUSH32 0x0 PUSH2 0x258 SWAP2 SWAP1 PUSH2 0x9DA JUMP JUMPDEST PUSH1 0x40 MLOAD PUSH32 0x4274EF7700000000000000000000000000000000000000000000000000000000 DUP2 MSTORE PUSH1 0x4 ADD PUSH2 0x28C SWAP3 SWAP2 SWAP1 PUSH2 0x93A JUMP JUMPDEST PUSH1 0x40 MLOAD DUP1 SWAP2 SUB SWAP1 REVERT JUMPDEST DUP2 PUSH1 0x1 PUSH0 DUP6 PUSH20 0xFFFFFFFFFFFFFFFFFFFFFFFFFFFFFFFFFFFFFFFF AND PUSH20 0xFFFFFFFFFFFFFFFFFFFFFFFFFFFFFFFFFFFFFFFF AND DUP2 MSTORE PUSH1 0x20 ADD SWAP1 DUP2 MSTORE PUSH1 0x20 ADD PUSH0 KECCAK256 PUSH0 DUP3 DUP3 SLOAD PUSH2 0x2E1 SWAP2 SWAP1 PUSH2 0x9A7 JUMP JUMPDEST SWAP3 POP POP DUP2 SWAP1 SSTORE POP DUP1 PUSH0 DUP2 SWAP1 SSTORE POP PUSH1 0x2 PUSH0 DUP5 PUSH20 0xFFFFFFFFFFFFFFFFFFFFFFFFFFFFFFFFFFFFFFFF AND PUSH20 0xFFFFFFFFFFFFFFFFFFFFFFFFFFFFFFFFFFFFFFFF AND DUP2 MSTORE PUSH1 0x20 ADD SWAP1 DUP2 MSTORE PUSH1 0x20 ADD PUSH0 KECCAK256 PUSH0 DUP2 SLOAD DUP1 SWAP3 SWAP2 SWAP1 PUSH2 0x33B SWAP1 PUSH2 0xA0D JUMP JUMPDEST SWAP2 SWAP1 POP SSTORE POP DUP3 PUSH20 0xFFFFFFFFFFFFFFFFFFFFFFFFFFFFFFFFFFFFFFFF AND PUSH32 0x90890809C654F11D6E72A28FA60149770A0D11EC6C92319D6CEB2BB0A4EA1A15 DUP4 PUSH1 0x1 PUSH0 DUP8 PUSH20 0xFFFFFFFFFFFFFFFFFFFFFFFFFFFFFFFFFFFFFFFF AND PUSH20 0xFFFFFFFFFFFFFFFFFFFFFFFFFFFFFFFFFFFFFFFF AND DUP2 MSTORE PUSH1 0x20 ADD SWAP1 DUP2 MSTORE PUSH1 0x20 ADD PUSH0 KECCAK256 SLOAD PUSH1 0x40 MLOAD PUSH2 0x3C5 SWAP3 SWAP2 SWAP1 PUSH2 0x93A JUMP JUMPDEST PUSH1 0x40 MLOAD DUP1 SWAP2 SUB SWAP1 LOG2 POP POP POP JUMP JUMPDEST PUSH0 DUP2 SUB PUSH2 0x40B JUMPI PUSH1 0x40 MLOAD PUSH32 0x9CF8540C00000000000000000000000000000000000000000000000000000000 DUP2 MSTORE PUSH1 0x4 ADD PUSH1 0x40 MLOAD DUP1 SWAP2 SUB SWAP1 REVERT JUMPDEST PUSH32 0x0 DUP2 GT ISZERO PUSH2 0x492 JUMPI DUP1 PUSH32 0x0 PUSH1 0x40 MLOAD PUSH32 0xD1E6B2FA00000000000000000000000000000000000000000000000000000000 DUP2 MSTORE PUSH1 0x4 ADD PUSH2 0x489 SWAP3 SWAP2 SWAP1 PUSH2 0x93A JUMP JUMPDEST PUSH1 0x40 MLOAD DUP1 SWAP2 SUB SWAP1 REVERT JUMPDEST PUSH0 PUSH1 0x1 PUSH0 CALLER PUSH20 0xFFFFFFFFFFFFFFFFFFFFFFFFFFFFFFFFFFFFFFFF AND PUSH20 0xFFFFFFFFFFFFFFFFFFFFFFFFFFFFFFFFFFFFFFFF AND DUP2 MSTORE PUSH1 0x20 ADD SWAP1 DUP2 MSTORE PUSH1 0x20 ADD PUSH0 KECCAK256 SLOAD SWAP1 POP DUP1 DUP3 GT ISZERO PUSH2 0x51C JUMPI CALLER DUP3 DUP3 PUSH1 0x40 MLOAD PUSH32 0xDB42144D00000000000000000000000000000000000000000000000000000000 DUP2 MSTORE PUSH1 0x4 ADD PUSH2 0x513 SWAP4 SWAP3 SWAP2 SWAP1 PUSH2 0xA63 JUMP JUMPDEST PUSH1 0x40 MLOAD DUP1 SWAP2 SUB SWAP1 REVERT JUMPDEST DUP2 DUP2 PUSH2 0x528 SWAP2 SWAP1 PUSH2 0x9DA JUMP JUMPDEST PUSH1 0x1 PUSH0 CALLER PUSH20 0xFFFFFFFFFFFFFFFFFFFFFFFFFFFFFFFFFFFFFFFF AND PUSH20 0xFFFFFFFFFFFFFFFFFFFFFFFFFFFFFFFFFFFFFFFF AND DUP2 MSTORE PUSH1 0x20 ADD SWAP1 DUP2 MSTORE PUSH1 0x20 ADD PUSH0 KECCAK256 DUP2 SWAP1 SSTORE POP DUP2 PUSH0 PUSH0 DUP3 DUP3 SLOAD PUSH2 0x579 SWAP2 SWAP1 PUSH2 0x9DA JUMP JUMPDEST SWAP3 POP POP DUP2 SWAP1 SSTORE POP PUSH1 0x3 PUSH0 CALLER PUSH20 0xFFFFFFFFFFFFFFFFFFFFFFFFFFFFFFFFFFFFFFFF AND PUSH20 0xFFFFFFFFFFFFFFFFFFFFFFFFFFFFFFFFFFFFFFFF AND DUP2 MSTORE PUSH1 0x20 ADD SWAP1 DUP2 MSTORE PUSH1 0x20 ADD PUSH0 KECCAK256 PUSH0 DUP2 SLOAD DUP1 SWAP3 SWAP2 SWAP1 PUSH2 0x5CD SWAP1 PUSH2 0xA0D JUMP JUMPDEST SWAP2 SWAP1 POP SSTORE POP PUSH2 0x5DC CALLER DUP4 PUSH2 0x793 JUMP JUMPDEST CALLER PUSH20 0xFFFFFFFFFFFFFFFFFFFFFFFFFFFFFFFFFFFFFFFF AND PUSH32 0xDF273CB619D95419A9CD0EC88123A0538C85064229BAA6363788F743FFF90DEB DUP4 PUSH1 0x1 PUSH0 CALLER PUSH20 0xFFFFFFFFFFFFFFFFFFFFFFFFFFFFFFFFFFFFFFFF AND PUSH20 0xFFFFFFFFFFFFFFFFFFFFFFFFFFFFFFFFFFFFFFFF AND DUP2 MSTORE PUSH1 0x20 ADD SWAP1 DUP2 MSTORE PUSH1 0x20 ADD PUSH0 KECCAK256 SLOAD PUSH1 0x40 MLOAD PUSH2 0x661 SWAP3 SWAP2 SWAP1 PUSH2 0x93A JUMP JUMPDEST PUSH1 0x40 MLOAD DUP1 SWAP2 SUB SWAP1 LOG2 POP POP JUMP JUMPDEST PUSH0 PUSH0 PUSH1 0x2 PUSH0 DUP5 PUSH20 0xFFFFFFFFFFFFFFFFFFFFFFFFFFFFFFFFFFFFFFFF AND PUSH20 0xFFFFFFFFFFFFFFFFFFFFFFFFFFFFFFFFFFFFFFFF AND DUP2 MSTORE PUSH1 0x20 ADD SWAP1 DUP2 MSTORE PUSH1 0x20 ADD PUSH0 KECCAK256 SLOAD PUSH1 0x3 PUSH0 DUP6 PUSH20 0xFFFFFFFFFFFFFFFFFFFFFFFFFFFFFFFFFFFFFFFF AND PUSH20 0xFFFFFFFFFFFFFFFFFFFFFFFFFFFFFFFFFFFFFFFF AND DUP2 MSTORE PUSH1 0x20 ADD SWAP1 DUP2 MSTORE PUSH1 0x20 ADD PUSH0 KECCAK256 SLOAD SWAP2 POP SWAP2 POP SWAP2 POP SWAP2 JUMP JUMPDEST PUSH0 SLOAD DUP2 JUMP JUMPDEST PUSH2 0x703 CALLER CALLVALUE PUSH2 0x1B9 JUMP JUMPDEST JUMP JUMPDEST PUSH32 0x0 DUP2 JUMP JUMPDEST PUSH32 0x0 DUP2 JUMP JUMPDEST PUSH0 PUSH1 0x1 PUSH0 DUP4 PUSH20 0xFFFFFFFFFFFFFFFFFFFFFFFFFFFFFFFFFFFFFFFF AND PUSH20 0xFFFFFFFFFFFFFFFFFFFFFFFFFFFFFFFFFFFFFFFF AND DUP2 MSTORE PUSH1 0x20 ADD SWAP1 DUP2 MSTORE PUSH1 0x20 ADD PUSH0 KECCAK256 SLOAD SWAP1 POP SWAP2 SWAP1 POP JUMP JUMPDEST PUSH0 DUP3 PUSH20 0xFFFFFFFFFFFFFFFFFFFFFFFFFFFFFFFFFFFFFFFF AND DUP3 PUSH1 0x40 MLOAD PUSH2 0x7B8 SWAP1 PUSH2 0xAC5 JUMP JUMPDEST PUSH0 PUSH1 0x40 MLOAD DUP1 DUP4 SUB DUP2 DUP6 DUP8 GAS CALL SWAP3 POP POP POP RETURNDATASIZE DUP1 PUSH0 DUP2 EQ PUSH2 0x7F2 JUMPI PUSH1 0x40 MLOAD SWAP2 POP PUSH1 0x1F NOT PUSH1 0x3F RETURNDATASIZE ADD AND DUP3 ADD PUSH1 0x40 MSTORE RETURNDATASIZE DUP3 MSTORE RETURNDATASIZE PUSH0 PUSH1 0x20 DUP5 ADD RETURNDATACOPY PUSH2 0x7F7 JUMP JUMPDEST PUSH1 0x60 SWAP2 POP JUMPDEST POP POP SWAP1 POP DUP1 PUSH2 0x83F JUMPI DUP3 DUP3 PUSH1 0x40 MLOAD PUSH32 0x1C43B97600000000000000000000000000000000000000000000000000000000 DUP2 MSTORE PUSH1 0x4 ADD PUSH2 0x836 SWAP3 SWAP2 SWAP1 PUSH2 0xB34 JUMP JUMPDEST PUSH1 0x40 MLOAD DUP1 SWAP2 SUB SWAP1 REVERT JUMPDEST POP POP POP JUMP JUMPDEST PUSH0 PUSH0 REVERT JUMPDEST PUSH0 DUP2 SWAP1 POP SWAP2 SWAP1 POP JUMP JUMPDEST PUSH2 0x85A DUP2 PUSH2 0x848 JUMP JUMPDEST DUP2 EQ PUSH2 0x864 JUMPI PUSH0 PUSH0 REVERT JUMPDEST POP JUMP JUMPDEST PUSH0 DUP2 CALLDATALOAD SWAP1 POP PUSH2 0x875 DUP2 PUSH2 0x851 JUMP JUMPDEST SWAP3 SWAP2 POP POP JUMP JUMPDEST PUSH0 PUSH1 0x20 DUP3 DUP5 SUB SLT ISZERO PUSH2 0x890 JUMPI PUSH2 0x88F PUSH2 0x844 JUMP JUMPDEST JUMPDEST PUSH0 PUSH2 0x89D DUP5 DUP3 DUP6 ADD PUSH2 0x867 JUMP JUMPDEST SWAP2 POP POP SWAP3 SWAP2 POP POP JUMP JUMPDEST PUSH0 PUSH20 0xFFFFFFFFFFFFFFFFFFFFFFFFFFFFFFFFFFFFFFFF DUP3 AND SWAP1 POP SWAP2 SWAP1 POP JUMP JUMPDEST PUSH0 PUSH2 0x8CF DUP3 PUSH2 0x8A6 JUMP JUMPDEST SWAP1 POP SWAP2 SWAP1 POP JUMP JUMPDEST PUSH2 0x8DF DUP2 PUSH2 0x8C5 JUMP JUMPDEST DUP2 EQ PUSH2 0x8E9 JUMPI PUSH0 PUSH0 REVERT JUMPDEST POP JUMP JUMPDEST PUSH0 DUP2 CALLDATALOAD SWAP1 POP PUSH2 0x8FA DUP2 PUSH2 0x8D6 JUMP JUMPDEST SWAP3 SWAP2 POP POP JUMP JUMPDEST PUSH0 PUSH1 0x20 DUP3 DUP5 SUB SLT ISZERO PUSH2 0x915 JUMPI PUSH2 0x914 PUSH2 0x844 JUMP JUMPDEST JUMPDEST PUSH0 PUSH2 0x922 DUP5 DUP3 DUP6 ADD PUSH2 0x8EC JUMP JUMPDEST SWAP2 POP POP SWAP3 SWAP2 POP POP JUMP JUMPDEST PUSH2 0x934 DUP2 PUSH2 0x848 JUMP JUMPDEST DUP3 MSTORE POP POP JUMP JUMPDEST PUSH0 PUSH1 0x40 DUP3 ADD SWAP1 POP PUSH2 0x94D PUSH0 DUP4 ADD DUP6 PUSH2 0x92B JUMP JUMPDEST PUSH2 0x95A PUSH1 0x20 DUP4 ADD DUP5 PUSH2 0x92B JUMP JUMPDEST SWAP4 SWAP3 POP POP POP JUMP JUMPDEST PUSH0 PUSH1 0x20 DUP3 ADD SWAP1 POP PUSH2 0x974 PUSH0 DUP4 ADD DUP5 PUSH2 0x92B JUMP JUMPDEST SWAP3 SWAP2 POP POP JUMP JUMPDEST PUSH32 0x4E487B7100000000000000000000000000000000000000000000000000000000 PUSH0 MSTORE PUSH1 0x11 PUSH1 0x4 MSTORE PUSH1 0x24 PUSH0 REVERT JUMPDEST PUSH0 PUSH2 0x9B1 DUP3 PUSH2 0x848 JUMP JUMPDEST SWAP2 POP PUSH2 0x9BC DUP4 PUSH2 0x848 JUMP JUMPDEST SWAP3 POP DUP3 DUP3 ADD SWAP1 POP DUP1 DUP3 GT ISZERO PUSH2 0x9D4 JUMPI PUSH2 0x9D3 PUSH2 0x97A JUMP JUMPDEST JUMPDEST SWAP3 SWAP2 POP POP JUMP JUMPDEST PUSH0 PUSH2 0x9E4 DUP3 PUSH2 0x848 JUMP JUMPDEST SWAP2 POP PUSH2 0x9EF DUP4 PUSH2 0x848 JUMP JUMPDEST SWAP3 POP DUP3 DUP3 SUB SWAP1 POP DUP2 DUP2 GT ISZERO PUSH2 0xA07 JUMPI PUSH2 0xA06 PUSH2 0x97A JUMP JUMPDEST JUMPDEST SWAP3 SWAP2 POP POP JUMP JUMPDEST PUSH0 PUSH2 0xA17 DUP3 PUSH2 0x848 JUMP JUMPDEST SWAP2 POP PUSH32 0xFFFFFFFFFFFFFFFFFFFFFFFFFFFFFFFFFFFFFFFFFFFFFFFFFFFFFFFFFFFFFFFF DUP3 SUB PUSH2 0xA49 JUMPI PUSH2 0xA48 PUSH2 0x97A JUMP JUMPDEST JUMPDEST PUSH1 0x1 DUP3 ADD SWAP1 POP SWAP2 SWAP1 POP JUMP JUMPDEST PUSH2 0xA5D DUP2 PUSH2 0x8C5 JUMP JUMPDEST DUP3 MSTORE POP POP JUMP JUMPDEST PUSH0 PUSH1 0x60 DUP3 ADD SWAP1 POP PUSH2 0xA76 PUSH0 DUP4 ADD DUP7 PUSH2 0xA54 JUMP JUMPDEST PUSH2 0xA83 PUSH1 0x20 DUP4 ADD DUP6 PUSH2 0x92B JUMP JUMPDEST PUSH2 0xA90 PUSH1 0x40 DUP4 ADD DUP5 PUSH2 0x92B JUMP JUMPDEST SWAP5 SWAP4 POP POP POP POP JUMP JUMPDEST PUSH0 DUP2 SWAP1 POP SWAP3 SWAP2 POP POP JUMP JUMPDEST POP JUMP JUMPDEST PUSH0 PUSH2 0xAB0 PUSH0 DUP4 PUSH2 0xA98 JUMP JUMPDEST SWAP2 POP PUSH2 0xABB DUP3 PUSH2 0xAA2 JUMP JUMPDEST PUSH0 DUP3 ADD SWAP1 POP SWAP2 SWAP1 POP JUMP JUMPDEST PUSH0 PUSH2 0xACF DUP3 PUSH2 0xAA5 JUMP JUMPDEST SWAP2 POP DUP2 SWAP1 POP SWAP2 SWAP1 POP JUMP JUMPDEST PUSH0 DUP2 SWAP1 POP SWAP2 SWAP1 POP JUMP JUMPDEST PUSH0 PUSH2 0xAFC PUSH2 0xAF7 PUSH2 0xAF2 DUP5 PUSH2 0x8A6 JUMP JUMPDEST PUSH2 0xAD9 JUMP JUMPDEST PUSH2 0x8A6 JUMP JUMPDEST SWAP1 POP SWAP2 SWAP1 POP JUMP JUMPDEST PUSH0 PUSH2 0xB0D DUP3 PUSH2 0xAE2 JUMP JUMPDEST SWAP1 POP SWAP2 SWAP1 POP JUMP JUMPDEST PUSH0 PUSH2 0xB1E DUP3 PUSH2 0xB03 JUMP JUMPDEST SWAP1 POP SWAP2 SWAP1 POP JUMP JUMPDEST PUSH2 0xB2E DUP2 PUSH2 0xB14 JUMP JUMPDEST DUP3 MSTORE POP POP JUMP JUMPDEST PUSH0 PUSH1 0x40 DUP3 ADD SWAP1 POP PUSH2 0xB47 PUSH0 DUP4 ADD DUP6 PUSH2 0xB25 JUMP JUMPDEST PUSH2 0xB54 PUSH1 0x20 DUP4 ADD DUP5 PUSH2 0x92B JUMP JUMPDEST SWAP4 SWAP3 POP POP POP JUMP INVALID LOG2 PUSH5 0x6970667358 0x22 SLT KECCAK256 STOP DUP4 CODESIZE PUSH1 0x8E CALLCODE GT SWAP7 0xB3 0xF6 RETF POP 0xF 0xDD DUP11 EXTCODECOPY JUMPI NOT SLOAD SUB LOG2 RJUMPI 0x6401 0xF6 CALLER LOG4 0x2E 0xAE PUSH31 0x29A64736F6C634300081E0033000000000000000000000000000000000000 "
				},
				"gasEstimates": {
					"creation": {
						"codeDepositCost": "592200",
						"executionCost": "infinite",
						"totalCost": "infinite"
					},
					"external": {
						"": "infinite",
						"bankCap()": "infinite",
						"deposit()": "infinite",
						"getBalance(address)": "2895",
						"getCounts(address)": "infinite",
						"perTxLimit()": "infinite",
						"totalDeposits()": "2469",
						"withdraw(uint256)": "infinite"
					},
					"internal": {
						"_handleDeposit(address,uint256)": "infinite",
						"_safeSend(address payable,uint256)": "infinite"
					}
				},
				"methodIdentifiers": {
					"bankCap()": "ecbea24d",
					"deposit()": "d0e30db0",
					"getBalance(address)": "f8b2cb4f",
					"getCounts(address)": "5b467404",
					"perTxLimit()": "df772941",
					"totalDeposits()": "7d882097",
					"withdraw(uint256)": "2e1a7d4d"
				}
			},
			"storageLayout": {
				"storage": [
					{
						"astId": 46,
						"contract": "kipu-bank/contracts/KipuBank.sol:KipuBank",
						"label": "totalDeposits",
						"offset": 0,
						"slot": "0",
						"type": "t_uint256"
					},
					{
						"astId": 51,
						"contract": "kipu-bank/contracts/KipuBank.sol:KipuBank",
						"label": "balances",
						"offset": 0,
						"slot": "1",
						"type": "t_mapping(t_address,t_uint256)"
					},
					{
						"astId": 56,
						"contract": "kipu-bank/contracts/KipuBank.sol:KipuBank",
						"label": "depositCount",
						"offset": 0,
						"slot": "2",
						"type": "t_mapping(t_address,t_uint256)"
					},
					{
						"astId": 61,
						"contract": "kipu-bank/contracts/KipuBank.sol:KipuBank",
						"label": "withdrawCount",
						"offset": 0,
						"slot": "3",
						"type": "t_mapping(t_address,t_uint256)"
					}
				],
				"types": {
					"t_address": {
						"encoding": "inplace",
						"label": "address",
						"numberOfBytes": "20"
					},
					"t_mapping(t_address,t_uint256)": {
						"encoding": "mapping",
						"key": "t_address",
						"label": "mapping(address => uint256)",
						"numberOfBytes": "32",
						"value": "t_uint256"
					},
					"t_uint256": {
						"encoding": "inplace",
						"label": "uint256",
						"numberOfBytes": "32"
					}
				}
			},
			"userdoc": {
				"errors": {
					"ExceedsBankCap(uint256,uint256)": [
						{
							"notice": "Reverted when a deposit would exceed the global bank cap"
						}
					],
					"ExceedsPerTxLimit(uint256,uint256)": [
						{
							"notice": "Reverted when a withdraw amount exceeds the per-transaction limit "
						}
					],
					"InsufficientBalance(address,uint256,uint256)": [
						{
							"notice": "Reverted when an account attempts to withdraw more than its balance"
						}
					],
					"InvalidInitParams()": [
						{
							"notice": "Reverted when constructor parameters are invalid"
						}
					],
					"TransferFailed(address,uint256)": [
						{
							"notice": "Reverted when a native transfer {to} fails"
						}
					],
					"ZeroValueNotAllowed()": [
						{
							"notice": "Reverted when a zero value is used where not allowed"
						}
					]
				},
				"events": {
					"Deposit(address,uint256,uint256)": {
						"notice": "Emitted when a user deposits ETH"
					},
					"Withdrawal(address,uint256,uint256)": {
						"notice": "Emitted when a user withdraws ETH"
					}
				},
				"kind": "user",
				"methods": {
					"bankCap()": {
						"notice": "Global cap for total deposits to the bank (immutable)"
					},
					"deposit()": {
						"notice": "Deposit native ETH into your personal vault"
					},
					"getBalance(address)": {
						"notice": "Returns the balance of 'account' in wei"
					},
					"getCounts(address)": {
						"notice": "Returns deposit and withdraw counts for an account"
					},
					"perTxLimit()": {
						"notice": "Withdraw limit per transaction for users (immutable)"
					},
					"totalDeposits()": {
						"notice": "Total deposits currently held in contract (in wei)"
					},
					"withdraw(uint256)": {
						"notice": "Withdraw up to perTxLimit from your vault"
					}
				},
				"version": 1
			}
		}
	}
}