{
	"kipu-bank/contracts/KipuBank.sol": {
		"KipuBank": {
			"abi": [
				{
					"inputs": [
						{
							"internalType": "uint256",
							"name": "_bankCap",
							"type": "uint256"
						},
						{
							"internalType": "uint256",
							"name": "_perTxLimit",
							"type": "uint256"
						}
					],
					"stateMutability": "nonpayable",
					"type": "constructor"
				},
				{
					"inputs": [
						{
							"internalType": "uint256",
							"name": "requested",
							"type": "uint256"
						},
						{
							"internalType": "uint256",
							"name": "available",
							"type": "uint256"
						}
					],
					"name": "ExceedsBankCap",
					"type": "error"
				},
				{
					"inputs": [
						{
							"internalType": "uint256",
							"name": "requested",
							"type": "uint256"
						},
						{
							"internalType": "uint256",
							"name": "limit",
							"type": "uint256"
						}
					],
					"name": "ExceedsPerTxLimit",
					"type": "error"
				},
				{
					"inputs": [],
					"name": "FallbackNotAllowed",
					"type": "error"
				},
				{
					"inputs": [
						{
							"internalType": "address",
							"name": "account",
							"type": "address"
						},
						{
							"internalType": "uint256",
							"name": "requested",
							"type": "uint256"
						},
						{
							"internalType": "uint256",
							"name": "balance",
							"type": "uint256"
						}
					],
					"name": "InsufficientBalance",
					"type": "error"
				},
				{
					"inputs": [],
					"name": "InvalidInitParams",
					"type": "error"
				},
				{
					"inputs": [
						{
							"internalType": "address",
							"name": "to",
							"type": "address"
						},
						{
							"internalType": "uint256",
							"name": "amount",
							"type": "uint256"
						}
					],
					"name": "TransferFailed",
					"type": "error"
				},
				{
					"inputs": [],
					"name": "ZeroValueNotAllowed",
					"type": "error"
				},
				{
					"anonymous": false,
					"inputs": [
						{
							"indexed": true,
							"internalType": "address",
							"name": "user",
							"type": "address"
						},
						{
							"indexed": false,
							"internalType": "uint256",
							"name": "amount",
							"type": "uint256"
						},
						{
							"indexed": false,
							"internalType": "uint256",
							"name": "newBalance",
							"type": "uint256"
						}
					],
					"name": "Deposit",
					"type": "event"
				},
				{
					"anonymous": false,
					"inputs": [
						{
							"indexed": true,
							"internalType": "address",
							"name": "user",
							"type": "address"
						},
						{
							"indexed": false,
							"internalType": "uint256",
							"name": "amount",
							"type": "uint256"
						},
						{
							"indexed": false,
							"internalType": "uint256",
							"name": "newBalance",
							"type": "uint256"
						}
					],
					"name": "Withdrawal",
					"type": "event"
				},
				{
					"stateMutability": "payable",
					"type": "fallback"
				},
				{
					"inputs": [],
					"name": "bankCap",
					"outputs": [
						{
							"internalType": "uint256",
							"name": "",
							"type": "uint256"
						}
					],
					"stateMutability": "view",
					"type": "function"
				},
				{
					"inputs": [],
					"name": "deposit",
					"outputs": [],
					"stateMutability": "payable",
					"type": "function"
				},
				{
					"inputs": [
						{
							"internalType": "address",
							"name": "account",
							"type": "address"
						}
					],
					"name": "getBalance",
					"outputs": [
						{
							"internalType": "uint256",
							"name": "",
							"type": "uint256"
						}
					],
					"stateMutability": "view",
					"type": "function"
				},
				{
					"inputs": [
						{
							"internalType": "address",
							"name": "account",
							"type": "address"
						}
					],
					"name": "getCounts",
					"outputs": [
						{
							"internalType": "uint256",
							"name": "deposits",
							"type": "uint256"
						},
						{
							"internalType": "uint256",
							"name": "withdraws",
							"type": "uint256"
						}
					],
					"stateMutability": "view",
					"type": "function"
				},
				{
					"inputs": [],
					"name": "perTxLimit",
					"outputs": [
						{
							"internalType": "uint256",
							"name": "",
							"type": "uint256"
						}
					],
					"stateMutability": "view",
					"type": "function"
				},
				{
					"inputs": [],
					"name": "totalDeposits",
					"outputs": [
						{
							"internalType": "uint256",
							"name": "",
							"type": "uint256"
						}
					],
					"stateMutability": "view",
					"type": "function"
				},
				{
					"inputs": [
						{
							"internalType": "uint256",
							"name": "amount",
							"type": "uint256"
						}
					],
					"name": "withdraw",
					"outputs": [],
					"stateMutability": "nonpayable",
					"type": "function"
				},
				{
					"stateMutability": "payable",
					"type": "receive"
				}
			],
			"devdoc": {
				"kind": "dev",
				"methods": {
					"constructor": {
						"params": {
							"_bankCap": "total allowed deposits at deployment (in wei)",
							"_perTxLimit": "max allowed withdraw per transaction (wei)"
						}
					},
					"deposit()": {
						"details": "Reverts with ExceedsBankCap if bank would exceed cap"
					},
					"withdraw(uint256)": {
						"details": "Uses checks-effects-interactions and safe call transfer",
						"params": {
							"amount": "in wei to withdraw"
						}
					}
				},
				"version": 1
			},
			"evm": {
				"assembly": "    /* \"kipu-bank/contracts/KipuBank.sol\":1195:5567  contract KipuBank {... */\n  mstore(0x40, 0xc0)\n    /* \"kipu-bank/contracts/KipuBank.sol\":2532:2803  constructor(uint256 _bankCap, uint256 _perTxLimit) {... */\n  callvalue\n  dup1\n  iszero\n  tag_1\n  jumpi\n  0x00\n  dup1\n  revert\ntag_1:\n  pop\n  mload(0x40)\n  sub(codesize, bytecodeSize)\n  dup1\n  bytecodeSize\n  dup4\n  codecopy\n  dup2\n  dup2\n  add\n  0x40\n  mstore\n  dup2\n  add\n  swap1\n  tag_2\n  swap2\n  swap1\n  tag_3\n  jump\t// in\ntag_2:\n    /* \"kipu-bank/contracts/KipuBank.sol\":2681:2682  0 */\n  0x00\n    /* \"kipu-bank/contracts/KipuBank.sol\":2669:2677  _bankCap */\n  dup3\n    /* \"kipu-bank/contracts/KipuBank.sol\":2669:2682  _bankCap == 0 */\n  eq\n    /* \"kipu-bank/contracts/KipuBank.sol\":2669:2702  _bankCap == 0 || _perTxLimit == 0 */\n  dup1\n  tag_6\n  jumpi\n  pop\n    /* \"kipu-bank/contracts/KipuBank.sol\":2701:2702  0 */\n  0x00\n    /* \"kipu-bank/contracts/KipuBank.sol\":2686:2697  _perTxLimit */\n  dup2\n    /* \"kipu-bank/contracts/KipuBank.sol\":2686:2702  _perTxLimit == 0 */\n  eq\n    /* \"kipu-bank/contracts/KipuBank.sol\":2669:2702  _bankCap == 0 || _perTxLimit == 0 */\ntag_6:\n    /* \"kipu-bank/contracts/KipuBank.sol\":2666:2730  if(_bankCap == 0 || _perTxLimit == 0) revert InvalidInitParams() */\n  iszero\n  tag_7\n  jumpi\n    /* \"kipu-bank/contracts/KipuBank.sol\":2711:2730  InvalidInitParams() */\n  mload(0x40)\n  0x296b774400000000000000000000000000000000000000000000000000000000\n  dup2\n  mstore\n  0x04\n  add\n  mload(0x40)\n  dup1\n  swap2\n  sub\n  swap1\n  revert\n    /* \"kipu-bank/contracts/KipuBank.sol\":2666:2730  if(_bankCap == 0 || _perTxLimit == 0) revert InvalidInitParams() */\ntag_7:\n    /* \"kipu-bank/contracts/KipuBank.sol\":2752:2760  _bankCap */\n  dup2\n    /* \"kipu-bank/contracts/KipuBank.sol\":2742:2760  bankCap = _bankCap */\n  0x80\n  dup2\n  dup2\n  mstore\n  pop\n  pop\n    /* \"kipu-bank/contracts/KipuBank.sol\":2784:2795  _perTxLimit */\n  dup1\n    /* \"kipu-bank/contracts/KipuBank.sol\":2771:2795  perTxLimit = _perTxLimit */\n  0xa0\n  dup2\n  dup2\n  mstore\n  pop\n  pop\n    /* \"kipu-bank/contracts/KipuBank.sol\":2532:2803  constructor(uint256 _bankCap, uint256 _perTxLimit) {... */\n  pop\n  pop\n    /* \"kipu-bank/contracts/KipuBank.sol\":1195:5567  contract KipuBank {... */\n  jump(tag_8)\n    /* \"#utility.yul\":88:205   */\ntag_10:\n    /* \"#utility.yul\":197:198   */\n  0x00\n    /* \"#utility.yul\":194:195   */\n  dup1\n    /* \"#utility.yul\":187:199   */\n  revert\n    /* \"#utility.yul\":334:411   */\ntag_12:\n    /* \"#utility.yul\":371:378   */\n  0x00\n    /* \"#utility.yul\":400:405   */\n  dup2\n    /* \"#utility.yul\":389:405   */\n  swap1\n  pop\n    /* \"#utility.yul\":334:411   */\n  swap2\n  swap1\n  pop\n  jump\t// out\n    /* \"#utility.yul\":417:539   */\ntag_13:\n    /* \"#utility.yul\":490:514   */\n  tag_21\n    /* \"#utility.yul\":508:513   */\n  dup2\n    /* \"#utility.yul\":490:514   */\n  tag_12\n  jump\t// in\ntag_21:\n    /* \"#utility.yul\":483:488   */\n  dup2\n    /* \"#utility.yul\":480:515   */\n  eq\n    /* \"#utility.yul\":470:533   */\n  tag_22\n  jumpi\n    /* \"#utility.yul\":529:530   */\n  0x00\n    /* \"#utility.yul\":526:527   */\n  dup1\n    /* \"#utility.yul\":519:531   */\n  revert\n    /* \"#utility.yul\":470:533   */\ntag_22:\n    /* \"#utility.yul\":417:539   */\n  pop\n  jump\t// out\n    /* \"#utility.yul\":545:688   */\ntag_14:\n    /* \"#utility.yul\":602:607   */\n  0x00\n    /* \"#utility.yul\":633:639   */\n  dup2\n    /* \"#utility.yul\":627:640   */\n  mload\n    /* \"#utility.yul\":618:640   */\n  swap1\n  pop\n    /* \"#utility.yul\":649:682   */\n  tag_24\n    /* \"#utility.yul\":676:681   */\n  dup2\n    /* \"#utility.yul\":649:682   */\n  tag_13\n  jump\t// in\ntag_24:\n    /* \"#utility.yul\":545:688   */\n  swap3\n  swap2\n  pop\n  pop\n  jump\t// out\n    /* \"#utility.yul\":694:1201   */\ntag_3:\n    /* \"#utility.yul\":773:779   */\n  0x00\n    /* \"#utility.yul\":781:787   */\n  dup1\n    /* \"#utility.yul\":830:832   */\n  0x40\n    /* \"#utility.yul\":818:827   */\n  dup4\n    /* \"#utility.yul\":809:816   */\n  dup6\n    /* \"#utility.yul\":805:828   */\n  sub\n    /* \"#utility.yul\":801:833   */\n  slt\n    /* \"#utility.yul\":798:917   */\n  iszero\n  tag_26\n  jumpi\n    /* \"#utility.yul\":836:915   */\n  tag_27\n  tag_10\n  jump\t// in\ntag_27:\n    /* \"#utility.yul\":798:917   */\ntag_26:\n    /* \"#utility.yul\":956:957   */\n  0x00\n    /* \"#utility.yul\":981:1045   */\n  tag_28\n    /* \"#utility.yul\":1037:1044   */\n  dup6\n    /* \"#utility.yul\":1028:1034   */\n  dup3\n    /* \"#utility.yul\":1017:1026   */\n  dup7\n    /* \"#utility.yul\":1013:1035   */\n  add\n    /* \"#utility.yul\":981:1045   */\n  tag_14\n  jump\t// in\ntag_28:\n    /* \"#utility.yul\":971:1045   */\n  swap3\n  pop\n    /* \"#utility.yul\":927:1055   */\n  pop\n    /* \"#utility.yul\":1094:1096   */\n  0x20\n    /* \"#utility.yul\":1120:1184   */\n  tag_29\n    /* \"#utility.yul\":1176:1183   */\n  dup6\n    /* \"#utility.yul\":1167:1173   */\n  dup3\n    /* \"#utility.yul\":1156:1165   */\n  dup7\n    /* \"#utility.yul\":1152:1174   */\n  add\n    /* \"#utility.yul\":1120:1184   */\n  tag_14\n  jump\t// in\ntag_29:\n    /* \"#utility.yul\":1110:1184   */\n  swap2\n  pop\n    /* \"#utility.yul\":1065:1194   */\n  pop\n    /* \"#utility.yul\":694:1201   */\n  swap3\n  pop\n  swap3\n  swap1\n  pop\n  jump\t// out\n    /* \"kipu-bank/contracts/KipuBank.sol\":1195:5567  contract KipuBank {... */\ntag_8:\n  mload(0x80)\n  mload(0xa0)\n  codecopy(0x00, dataOffset(sub_0), dataSize(sub_0))\n  0x00\n  assignImmutable(\"0x7446b42d7fe1689ec32fc1ca65129d9f21f1979742315d34500a6886f6986bea\")\n  0x00\n  assignImmutable(\"0xe921da22f871c25c63f06c1365385cbb26397f64f79055cdbab32187a9377d16\")\n  return(0x00, dataSize(sub_0))\nstop\n\nsub_0: assembly {\n        /* \"kipu-bank/contracts/KipuBank.sol\":1195:5567  contract KipuBank {... */\n      mstore(0x40, 0x80)\n      jumpi(tag_1, lt(calldatasize, 0x04))\n      shr(0xe0, calldataload(0x00))\n      dup1\n      0xd0e30db0\n      gt\n      tag_10\n      jumpi\n      dup1\n      0xd0e30db0\n      eq\n      tag_6\n      jumpi\n      dup1\n      0xdf772941\n      eq\n      tag_7\n      jumpi\n      dup1\n      0xecbea24d\n      eq\n      tag_8\n      jumpi\n      dup1\n      0xf8b2cb4f\n      eq\n      tag_9\n      jumpi\n      jump(tag_2)\n    tag_10:\n      dup1\n      0x2e1a7d4d\n      eq\n      tag_3\n      jumpi\n      dup1\n      0x5b467404\n      eq\n      tag_4\n      jumpi\n      dup1\n      0x7d882097\n      eq\n      tag_5\n      jumpi\n      jump(tag_2)\n    tag_1:\n      jumpi(tag_2, calldatasize)\n        /* \"kipu-bank/contracts/KipuBank.sol\":3806:3815  msg.value */\n      callvalue\n        /* \"kipu-bank/contracts/KipuBank.sol\":1421:1422  0 */\n      0x00\n        /* \"kipu-bank/contracts/KipuBank.sol\":1411:1417  amount */\n      dup2\n        /* \"kipu-bank/contracts/KipuBank.sol\":1411:1422  amount == 0 */\n      sub\n        /* \"kipu-bank/contracts/KipuBank.sol\":1407:1452  if (amount == 0) revert ZeroValueNotAllowed() */\n      tag_13\n      jumpi\n        /* \"kipu-bank/contracts/KipuBank.sol\":1431:1452  ZeroValueNotAllowed() */\n      mload(0x40)\n      0x9cf8540c00000000000000000000000000000000000000000000000000000000\n      dup2\n      mstore\n      0x04\n      add\n      mload(0x40)\n      dup1\n      swap2\n      sub\n      swap1\n      revert\n        /* \"kipu-bank/contracts/KipuBank.sol\":1407:1452  if (amount == 0) revert ZeroValueNotAllowed() */\n    tag_13:\n        /* \"kipu-bank/contracts/KipuBank.sol\":3828:3865  _handleDeposit(msg.sender, msg.value) */\n      tag_15\n        /* \"kipu-bank/contracts/KipuBank.sol\":3843:3853  msg.sender */\n      caller\n        /* \"kipu-bank/contracts/KipuBank.sol\":3855:3864  msg.value */\n      callvalue\n        /* \"kipu-bank/contracts/KipuBank.sol\":3828:3842  _handleDeposit */\n      tag_16\n        /* \"kipu-bank/contracts/KipuBank.sol\":3828:3865  _handleDeposit(msg.sender, msg.value) */\n      jump\t// in\n    tag_15:\n        /* \"kipu-bank/contracts/KipuBank.sol\":3771:3873  receive() external payable nonZero(msg.value) {... */\n      stop\n        /* \"kipu-bank/contracts/KipuBank.sol\":1195:5567  contract KipuBank {... */\n    tag_2:\n        /* \"kipu-bank/contracts/KipuBank.sol\":4030:4050  FallbackNotAllowed() */\n      mload(0x40)\n      0xdeab4c3000000000000000000000000000000000000000000000000000000000\n      dup2\n      mstore\n      0x04\n      add\n      mload(0x40)\n      dup1\n      swap2\n      sub\n      swap1\n      revert\n        /* \"kipu-bank/contracts/KipuBank.sol\":4260:4839  function withdraw(uint256 amount) external nonZero(amount) {... */\n    tag_3:\n      callvalue\n      dup1\n      iszero\n      tag_19\n      jumpi\n      0x00\n      dup1\n      revert\n    tag_19:\n      pop\n      tag_20\n      0x04\n      dup1\n      calldatasize\n      sub\n      dup2\n      add\n      swap1\n      tag_21\n      swap2\n      swap1\n      tag_22\n      jump\t// in\n    tag_21:\n      tag_23\n      jump\t// in\n    tag_20:\n      stop\n        /* \"kipu-bank/contracts/KipuBank.sol\":5393:5562  function getCounts(address account) external view returns (uint256 deposits, uint256 withdraws) {... */\n    tag_4:\n      callvalue\n      dup1\n      iszero\n      tag_24\n      jumpi\n      0x00\n      dup1\n      revert\n    tag_24:\n      pop\n      tag_25\n      0x04\n      dup1\n      calldatasize\n      sub\n      dup2\n      add\n      swap1\n      tag_26\n      swap2\n      swap1\n      tag_27\n      jump\t// in\n    tag_26:\n      tag_28\n      jump\t// in\n    tag_25:\n      mload(0x40)\n      tag_29\n      swap3\n      swap2\n      swap1\n      tag_30\n      jump\t// in\n    tag_29:\n      mload(0x40)\n      dup1\n      swap2\n      sub\n      swap1\n      return\n        /* \"kipu-bank/contracts/KipuBank.sol\":1775:1803  uint256 public totalDeposits */\n    tag_5:\n      callvalue\n      dup1\n      iszero\n      tag_31\n      jumpi\n      0x00\n      dup1\n      revert\n    tag_31:\n      pop\n      tag_32\n      tag_33\n      jump\t// in\n    tag_32:\n      mload(0x40)\n      tag_34\n      swap2\n      swap1\n      tag_35\n      jump\t// in\n    tag_34:\n      mload(0x40)\n      dup1\n      swap2\n      sub\n      swap1\n      return\n        /* \"kipu-bank/contracts/KipuBank.sol\":2957:3067  function deposit() external payable nonZero(msg.value){... */\n    tag_6:\n      tag_36\n      tag_37\n      jump\t// in\n    tag_36:\n      stop\n        /* \"kipu-bank/contracts/KipuBank.sol\":1663:1698  uint256 public immutable perTxLimit */\n    tag_7:\n      callvalue\n      dup1\n      iszero\n      tag_38\n      jumpi\n      0x00\n      dup1\n      revert\n    tag_38:\n      pop\n      tag_39\n      tag_40\n      jump\t// in\n    tag_39:\n      mload(0x40)\n      tag_41\n      swap2\n      swap1\n      tag_35\n      jump\t// in\n    tag_41:\n      mload(0x40)\n      dup1\n      swap2\n      sub\n      swap1\n      return\n        /* \"kipu-bank/contracts/KipuBank.sol\":1552:1584  uint256 public immutable bankCap */\n    tag_8:\n      callvalue\n      dup1\n      iszero\n      tag_42\n      jumpi\n      0x00\n      dup1\n      revert\n    tag_42:\n      pop\n      tag_43\n      tag_44\n      jump\t// in\n    tag_43:\n      mload(0x40)\n      tag_45\n      swap2\n      swap1\n      tag_35\n      jump\t// in\n    tag_45:\n      mload(0x40)\n      dup1\n      swap2\n      sub\n      swap1\n      return\n        /* \"kipu-bank/contracts/KipuBank.sol\":5205:5317  function getBalance(address account) external view returns (uint256) {... */\n    tag_9:\n      callvalue\n      dup1\n      iszero\n      tag_46\n      jumpi\n      0x00\n      dup1\n      revert\n    tag_46:\n      pop\n      tag_47\n      0x04\n      dup1\n      calldatasize\n      sub\n      dup2\n      add\n      swap1\n      tag_48\n      swap2\n      swap1\n      tag_27\n      jump\t// in\n    tag_48:\n      tag_49\n      jump\t// in\n    tag_47:\n      mload(0x40)\n      tag_50\n      swap2\n      swap1\n      tag_35\n      jump\t// in\n    tag_50:\n      mload(0x40)\n      dup1\n      swap2\n      sub\n      swap1\n      return\n        /* \"kipu-bank/contracts/KipuBank.sol\":3153:3617  function _handleDeposit(address from, uint256 amount) private {... */\n    tag_16:\n        /* \"kipu-bank/contracts/KipuBank.sol\":3245:3261  uint256 newTotal */\n      0x00\n        /* \"kipu-bank/contracts/KipuBank.sol\":3280:3286  amount */\n      dup2\n        /* \"kipu-bank/contracts/KipuBank.sol\":3264:3277  totalDeposits */\n      sload(0x00)\n        /* \"kipu-bank/contracts/KipuBank.sol\":3264:3286  totalDeposits + amount */\n      tag_52\n      swap2\n      swap1\n      tag_53\n      jump\t// in\n    tag_52:\n        /* \"kipu-bank/contracts/KipuBank.sol\":3245:3286  uint256 newTotal = totalDeposits + amount */\n      swap1\n      pop\n        /* \"kipu-bank/contracts/KipuBank.sol\":3312:3319  bankCap */\n      immutable(\"0xe921da22f871c25c63f06c1365385cbb26397f64f79055cdbab32187a9377d16\")\n        /* \"kipu-bank/contracts/KipuBank.sol\":3301:3309  newTotal */\n      dup2\n        /* \"kipu-bank/contracts/KipuBank.sol\":3301:3319  newTotal > bankCap */\n      gt\n        /* \"kipu-bank/contracts/KipuBank.sol\":3297:3375  if (newTotal > bankCap) revert ExceedsBankCap(amount, bankCap - totalDeposits) */\n      iszero\n      tag_54\n      jumpi\n        /* \"kipu-bank/contracts/KipuBank.sol\":3343:3349  amount */\n      dup2\n        /* \"kipu-bank/contracts/KipuBank.sol\":3361:3374  totalDeposits */\n      sload(0x00)\n        /* \"kipu-bank/contracts/KipuBank.sol\":3351:3358  bankCap */\n      immutable(\"0xe921da22f871c25c63f06c1365385cbb26397f64f79055cdbab32187a9377d16\")\n        /* \"kipu-bank/contracts/KipuBank.sol\":3351:3374  bankCap - totalDeposits */\n      tag_55\n      swap2\n      swap1\n      tag_56\n      jump\t// in\n    tag_55:\n        /* \"kipu-bank/contracts/KipuBank.sol\":3328:3375  ExceedsBankCap(amount, bankCap - totalDeposits) */\n      mload(0x40)\n      0x4274ef7700000000000000000000000000000000000000000000000000000000\n      dup2\n      mstore\n      0x04\n      add\n      tag_57\n      swap3\n      swap2\n      swap1\n      tag_30\n      jump\t// in\n    tag_57:\n      mload(0x40)\n      dup1\n      swap2\n      sub\n      swap1\n      revert\n        /* \"kipu-bank/contracts/KipuBank.sol\":3297:3375  if (newTotal > bankCap) revert ExceedsBankCap(amount, bankCap - totalDeposits) */\n    tag_54:\n        /* \"kipu-bank/contracts/KipuBank.sol\":3426:3432  amount */\n      dup2\n        /* \"kipu-bank/contracts/KipuBank.sol\":3408:3416  balances */\n      0x01\n        /* \"kipu-bank/contracts/KipuBank.sol\":3408:3422  balances[from] */\n      0x00\n        /* \"kipu-bank/contracts/KipuBank.sol\":3417:3421  from */\n      dup6\n        /* \"kipu-bank/contracts/KipuBank.sol\":3408:3422  balances[from] */\n      0xffffffffffffffffffffffffffffffffffffffff\n      and\n      0xffffffffffffffffffffffffffffffffffffffff\n      and\n      dup2\n      mstore\n      0x20\n      add\n      swap1\n      dup2\n      mstore\n      0x20\n      add\n      0x00\n      keccak256\n      0x00\n        /* \"kipu-bank/contracts/KipuBank.sol\":3408:3432  balances[from] += amount */\n      dup3\n      dup3\n      sload\n      tag_58\n      swap2\n      swap1\n      tag_53\n      jump\t// in\n    tag_58:\n      swap3\n      pop\n      pop\n      dup2\n      swap1\n      sstore\n      pop\n        /* \"kipu-bank/contracts/KipuBank.sol\":3459:3467  newTotal */\n      dup1\n        /* \"kipu-bank/contracts/KipuBank.sol\":3443:3456  totalDeposits */\n      0x00\n        /* \"kipu-bank/contracts/KipuBank.sol\":3443:3467  totalDeposits = newTotal */\n      dup2\n      swap1\n      sstore\n      pop\n        /* \"kipu-bank/contracts/KipuBank.sol\":3478:3490  depositCount */\n      0x02\n        /* \"kipu-bank/contracts/KipuBank.sol\":3478:3496  depositCount[from] */\n      0x00\n        /* \"kipu-bank/contracts/KipuBank.sol\":3491:3495  from */\n      dup5\n        /* \"kipu-bank/contracts/KipuBank.sol\":3478:3496  depositCount[from] */\n      0xffffffffffffffffffffffffffffffffffffffff\n      and\n      0xffffffffffffffffffffffffffffffffffffffff\n      and\n      dup2\n      mstore\n      0x20\n      add\n      swap1\n      dup2\n      mstore\n      0x20\n      add\n      0x00\n      keccak256\n      0x00\n        /* \"kipu-bank/contracts/KipuBank.sol\":3478:3498  depositCount[from]++ */\n      dup2\n      sload\n      dup1\n      swap3\n      swap2\n      swap1\n      tag_59\n      swap1\n      tag_60\n      jump\t// in\n    tag_59:\n      swap2\n      swap1\n      pop\n      sstore\n      pop\n        /* \"kipu-bank/contracts/KipuBank.sol\":3580:3584  from */\n      dup3\n        /* \"kipu-bank/contracts/KipuBank.sol\":3572:3609  Deposit(from, amount, balances[from]) */\n      0xffffffffffffffffffffffffffffffffffffffff\n      and\n      0x90890809c654f11d6e72a28fa60149770a0d11ec6c92319d6ceb2bb0a4ea1a15\n        /* \"kipu-bank/contracts/KipuBank.sol\":3586:3592  amount */\n      dup4\n        /* \"kipu-bank/contracts/KipuBank.sol\":3594:3602  balances */\n      0x01\n        /* \"kipu-bank/contracts/KipuBank.sol\":3594:3608  balances[from] */\n      0x00\n        /* \"kipu-bank/contracts/KipuBank.sol\":3603:3607  from */\n      dup8\n        /* \"kipu-bank/contracts/KipuBank.sol\":3594:3608  balances[from] */\n      0xffffffffffffffffffffffffffffffffffffffff\n      and\n      0xffffffffffffffffffffffffffffffffffffffff\n      and\n      dup2\n      mstore\n      0x20\n      add\n      swap1\n      dup2\n      mstore\n      0x20\n      add\n      0x00\n      keccak256\n      sload\n        /* \"kipu-bank/contracts/KipuBank.sol\":3572:3609  Deposit(from, amount, balances[from]) */\n      mload(0x40)\n      tag_61\n      swap3\n      swap2\n      swap1\n      tag_30\n      jump\t// in\n    tag_61:\n      mload(0x40)\n      dup1\n      swap2\n      sub\n      swap1\n      log2\n        /* \"kipu-bank/contracts/KipuBank.sol\":3215:3617  {... */\n      pop\n        /* \"kipu-bank/contracts/KipuBank.sol\":3153:3617  function _handleDeposit(address from, uint256 amount) private {... */\n      pop\n      pop\n      jump\t// out\n        /* \"kipu-bank/contracts/KipuBank.sol\":4260:4839  function withdraw(uint256 amount) external nonZero(amount) {... */\n    tag_23:\n        /* \"kipu-bank/contracts/KipuBank.sol\":4311:4317  amount */\n      dup1\n        /* \"kipu-bank/contracts/KipuBank.sol\":1421:1422  0 */\n      0x00\n        /* \"kipu-bank/contracts/KipuBank.sol\":1411:1417  amount */\n      dup2\n        /* \"kipu-bank/contracts/KipuBank.sol\":1411:1422  amount == 0 */\n      sub\n        /* \"kipu-bank/contracts/KipuBank.sol\":1407:1452  if (amount == 0) revert ZeroValueNotAllowed() */\n      tag_63\n      jumpi\n        /* \"kipu-bank/contracts/KipuBank.sol\":1431:1452  ZeroValueNotAllowed() */\n      mload(0x40)\n      0x9cf8540c00000000000000000000000000000000000000000000000000000000\n      dup2\n      mstore\n      0x04\n      add\n      mload(0x40)\n      dup1\n      swap2\n      sub\n      swap1\n      revert\n        /* \"kipu-bank/contracts/KipuBank.sol\":1407:1452  if (amount == 0) revert ZeroValueNotAllowed() */\n    tag_63:\n        /* \"kipu-bank/contracts/KipuBank.sol\":4342:4352  perTxLimit */\n      immutable(\"0x7446b42d7fe1689ec32fc1ca65129d9f21f1979742315d34500a6886f6986bea\")\n        /* \"kipu-bank/contracts/KipuBank.sol\":4333:4339  amount */\n      dup3\n        /* \"kipu-bank/contracts/KipuBank.sol\":4333:4352  amount > perTxLimit */\n      gt\n        /* \"kipu-bank/contracts/KipuBank.sol\":4330:4398  if(amount > perTxLimit) revert ExceedsPerTxLimit(amount, perTxLimit) */\n      iszero\n      tag_65\n      jumpi\n        /* \"kipu-bank/contracts/KipuBank.sol\":4379:4385  amount */\n      dup2\n        /* \"kipu-bank/contracts/KipuBank.sol\":4387:4397  perTxLimit */\n      immutable(\"0x7446b42d7fe1689ec32fc1ca65129d9f21f1979742315d34500a6886f6986bea\")\n        /* \"kipu-bank/contracts/KipuBank.sol\":4361:4398  ExceedsPerTxLimit(amount, perTxLimit) */\n      mload(0x40)\n      0xd1e6b2fa00000000000000000000000000000000000000000000000000000000\n      dup2\n      mstore\n      0x04\n      add\n      tag_66\n      swap3\n      swap2\n      swap1\n      tag_30\n      jump\t// in\n    tag_66:\n      mload(0x40)\n      dup1\n      swap2\n      sub\n      swap1\n      revert\n        /* \"kipu-bank/contracts/KipuBank.sol\":4330:4398  if(amount > perTxLimit) revert ExceedsPerTxLimit(amount, perTxLimit) */\n    tag_65:\n        /* \"kipu-bank/contracts/KipuBank.sol\":4411:4422  uint256 bal */\n      0x00\n        /* \"kipu-bank/contracts/KipuBank.sol\":4425:4433  balances */\n      0x01\n        /* \"kipu-bank/contracts/KipuBank.sol\":4425:4445  balances[msg.sender] */\n      0x00\n        /* \"kipu-bank/contracts/KipuBank.sol\":4434:4444  msg.sender */\n      caller\n        /* \"kipu-bank/contracts/KipuBank.sol\":4425:4445  balances[msg.sender] */\n      0xffffffffffffffffffffffffffffffffffffffff\n      and\n      0xffffffffffffffffffffffffffffffffffffffff\n      and\n      dup2\n      mstore\n      0x20\n      add\n      swap1\n      dup2\n      mstore\n      0x20\n      add\n      0x00\n      keccak256\n      sload\n        /* \"kipu-bank/contracts/KipuBank.sol\":4411:4445  uint256 bal = balances[msg.sender] */\n      swap1\n      pop\n        /* \"kipu-bank/contracts/KipuBank.sol\":4468:4471  bal */\n      dup1\n        /* \"kipu-bank/contracts/KipuBank.sol\":4459:4465  amount */\n      dup4\n        /* \"kipu-bank/contracts/KipuBank.sol\":4459:4471  amount > bal */\n      gt\n        /* \"kipu-bank/contracts/KipuBank.sol\":4456:4524  if(amount > bal) revert InsufficientBalance(msg.sender, amount, bal) */\n      iszero\n      tag_67\n      jumpi\n        /* \"kipu-bank/contracts/KipuBank.sol\":4500:4510  msg.sender */\n      caller\n        /* \"kipu-bank/contracts/KipuBank.sol\":4512:4518  amount */\n      dup4\n        /* \"kipu-bank/contracts/KipuBank.sol\":4520:4523  bal */\n      dup3\n        /* \"kipu-bank/contracts/KipuBank.sol\":4480:4524  InsufficientBalance(msg.sender, amount, bal) */\n      mload(0x40)\n      0xdb42144d00000000000000000000000000000000000000000000000000000000\n      dup2\n      mstore\n      0x04\n      add\n      tag_68\n      swap4\n      swap3\n      swap2\n      swap1\n      tag_69\n      jump\t// in\n    tag_68:\n      mload(0x40)\n      dup1\n      swap2\n      sub\n      swap1\n      revert\n        /* \"kipu-bank/contracts/KipuBank.sol\":4456:4524  if(amount > bal) revert InsufficientBalance(msg.sender, amount, bal) */\n    tag_67:\n        /* \"kipu-bank/contracts/KipuBank.sol\":4586:4592  amount */\n      dup3\n        /* \"kipu-bank/contracts/KipuBank.sol\":4580:4583  bal */\n      dup2\n        /* \"kipu-bank/contracts/KipuBank.sol\":4580:4592  bal - amount */\n      tag_70\n      swap2\n      swap1\n      tag_56\n      jump\t// in\n    tag_70:\n        /* \"kipu-bank/contracts/KipuBank.sol\":4557:4565  balances */\n      0x01\n        /* \"kipu-bank/contracts/KipuBank.sol\":4557:4577  balances[msg.sender] */\n      0x00\n        /* \"kipu-bank/contracts/KipuBank.sol\":4566:4576  msg.sender */\n      caller\n        /* \"kipu-bank/contracts/KipuBank.sol\":4557:4577  balances[msg.sender] */\n      0xffffffffffffffffffffffffffffffffffffffff\n      and\n      0xffffffffffffffffffffffffffffffffffffffff\n      and\n      dup2\n      mstore\n      0x20\n      add\n      swap1\n      dup2\n      mstore\n      0x20\n      add\n      0x00\n      keccak256\n        /* \"kipu-bank/contracts/KipuBank.sol\":4557:4592  balances[msg.sender] = bal - amount */\n      dup2\n      swap1\n      sstore\n      pop\n        /* \"kipu-bank/contracts/KipuBank.sol\":4620:4626  amount */\n      dup3\n        /* \"kipu-bank/contracts/KipuBank.sol\":4603:4616  totalDeposits */\n      0x00\n      dup1\n        /* \"kipu-bank/contracts/KipuBank.sol\":4603:4626  totalDeposits -= amount */\n      dup3\n      dup3\n      sload\n      tag_71\n      swap2\n      swap1\n      tag_56\n      jump\t// in\n    tag_71:\n      swap3\n      pop\n      pop\n      dup2\n      swap1\n      sstore\n      pop\n        /* \"kipu-bank/contracts/KipuBank.sol\":4637:4650  withdrawCount */\n      0x03\n        /* \"kipu-bank/contracts/KipuBank.sol\":4637:4662  withdrawCount[msg.sender] */\n      0x00\n        /* \"kipu-bank/contracts/KipuBank.sol\":4651:4661  msg.sender */\n      caller\n        /* \"kipu-bank/contracts/KipuBank.sol\":4637:4662  withdrawCount[msg.sender] */\n      0xffffffffffffffffffffffffffffffffffffffff\n      and\n      0xffffffffffffffffffffffffffffffffffffffff\n      and\n      dup2\n      mstore\n      0x20\n      add\n      swap1\n      dup2\n      mstore\n      0x20\n      add\n      0x00\n      keccak256\n      0x00\n        /* \"kipu-bank/contracts/KipuBank.sol\":4637:4664  withdrawCount[msg.sender]++ */\n      dup2\n      sload\n      dup1\n      swap3\n      swap2\n      swap1\n      tag_72\n      swap1\n      tag_60\n      jump\t// in\n    tag_72:\n      swap2\n      swap1\n      pop\n      sstore\n      pop\n        /* \"kipu-bank/contracts/KipuBank.sol\":4723:4761  _safeSend(payable(msg.sender), amount) */\n      tag_73\n        /* \"kipu-bank/contracts/KipuBank.sol\":4741:4751  msg.sender */\n      caller\n        /* \"kipu-bank/contracts/KipuBank.sol\":4754:4760  amount */\n      dup5\n        /* \"kipu-bank/contracts/KipuBank.sol\":4723:4732  _safeSend */\n      tag_74\n        /* \"kipu-bank/contracts/KipuBank.sol\":4723:4761  _safeSend(payable(msg.sender), amount) */\n      jump\t// in\n    tag_73:\n        /* \"kipu-bank/contracts/KipuBank.sol\":4790:4800  msg.sender */\n      caller\n        /* \"kipu-bank/contracts/KipuBank.sol\":4779:4831  Withdrawal(msg.sender, amount, balances[msg.sender]) */\n      0xffffffffffffffffffffffffffffffffffffffff\n      and\n      0xdf273cb619d95419a9cd0ec88123a0538c85064229baa6363788f743fff90deb\n        /* \"kipu-bank/contracts/KipuBank.sol\":4802:4808  amount */\n      dup5\n        /* \"kipu-bank/contracts/KipuBank.sol\":4810:4818  balances */\n      0x01\n        /* \"kipu-bank/contracts/KipuBank.sol\":4810:4830  balances[msg.sender] */\n      0x00\n        /* \"kipu-bank/contracts/KipuBank.sol\":4819:4829  msg.sender */\n      caller\n        /* \"kipu-bank/contracts/KipuBank.sol\":4810:4830  balances[msg.sender] */\n      0xffffffffffffffffffffffffffffffffffffffff\n      and\n      0xffffffffffffffffffffffffffffffffffffffff\n      and\n      dup2\n      mstore\n      0x20\n      add\n      swap1\n      dup2\n      mstore\n      0x20\n      add\n      0x00\n      keccak256\n      sload\n        /* \"kipu-bank/contracts/KipuBank.sol\":4779:4831  Withdrawal(msg.sender, amount, balances[msg.sender]) */\n      mload(0x40)\n      tag_75\n      swap3\n      swap2\n      swap1\n      tag_30\n      jump\t// in\n    tag_75:\n      mload(0x40)\n      dup1\n      swap2\n      sub\n      swap1\n      log2\n        /* \"kipu-bank/contracts/KipuBank.sol\":4319:4839  {... */\n      pop\n        /* \"kipu-bank/contracts/KipuBank.sol\":4260:4839  function withdraw(uint256 amount) external nonZero(amount) {... */\n      pop\n      pop\n      jump\t// out\n        /* \"kipu-bank/contracts/KipuBank.sol\":5393:5562  function getCounts(address account) external view returns (uint256 deposits, uint256 withdraws) {... */\n    tag_28:\n        /* \"kipu-bank/contracts/KipuBank.sol\":5452:5468  uint256 deposits */\n      0x00\n        /* \"kipu-bank/contracts/KipuBank.sol\":5470:5487  uint256 withdraws */\n      dup1\n        /* \"kipu-bank/contracts/KipuBank.sol\":5508:5520  depositCount */\n      0x02\n        /* \"kipu-bank/contracts/KipuBank.sol\":5508:5529  depositCount[account] */\n      0x00\n        /* \"kipu-bank/contracts/KipuBank.sol\":5521:5528  account */\n      dup5\n        /* \"kipu-bank/contracts/KipuBank.sol\":5508:5529  depositCount[account] */\n      0xffffffffffffffffffffffffffffffffffffffff\n      and\n      0xffffffffffffffffffffffffffffffffffffffff\n      and\n      dup2\n      mstore\n      0x20\n      add\n      swap1\n      dup2\n      mstore\n      0x20\n      add\n      0x00\n      keccak256\n      sload\n        /* \"kipu-bank/contracts/KipuBank.sol\":5531:5544  withdrawCount */\n      0x03\n        /* \"kipu-bank/contracts/KipuBank.sol\":5531:5553  withdrawCount[account] */\n      0x00\n        /* \"kipu-bank/contracts/KipuBank.sol\":5545:5552  account */\n      dup6\n        /* \"kipu-bank/contracts/KipuBank.sol\":5531:5553  withdrawCount[account] */\n      0xffffffffffffffffffffffffffffffffffffffff\n      and\n      0xffffffffffffffffffffffffffffffffffffffff\n      and\n      dup2\n      mstore\n      0x20\n      add\n      swap1\n      dup2\n      mstore\n      0x20\n      add\n      0x00\n      keccak256\n      sload\n        /* \"kipu-bank/contracts/KipuBank.sol\":5500:5554  return (depositCount[account], withdrawCount[account]) */\n      swap2\n      pop\n      swap2\n      pop\n        /* \"kipu-bank/contracts/KipuBank.sol\":5393:5562  function getCounts(address account) external view returns (uint256 deposits, uint256 withdraws) {... */\n      swap2\n      pop\n      swap2\n      jump\t// out\n        /* \"kipu-bank/contracts/KipuBank.sol\":1775:1803  uint256 public totalDeposits */\n    tag_33:\n      sload(0x00)\n      dup2\n      jump\t// out\n        /* \"kipu-bank/contracts/KipuBank.sol\":2957:3067  function deposit() external payable nonZero(msg.value){... */\n    tag_37:\n        /* \"kipu-bank/contracts/KipuBank.sol\":3001:3010  msg.value */\n      callvalue\n        /* \"kipu-bank/contracts/KipuBank.sol\":1421:1422  0 */\n      0x00\n        /* \"kipu-bank/contracts/KipuBank.sol\":1411:1417  amount */\n      dup2\n        /* \"kipu-bank/contracts/KipuBank.sol\":1411:1422  amount == 0 */\n      sub\n        /* \"kipu-bank/contracts/KipuBank.sol\":1407:1452  if (amount == 0) revert ZeroValueNotAllowed() */\n      tag_78\n      jumpi\n        /* \"kipu-bank/contracts/KipuBank.sol\":1431:1452  ZeroValueNotAllowed() */\n      mload(0x40)\n      0x9cf8540c00000000000000000000000000000000000000000000000000000000\n      dup2\n      mstore\n      0x04\n      add\n      mload(0x40)\n      dup1\n      swap2\n      sub\n      swap1\n      revert\n        /* \"kipu-bank/contracts/KipuBank.sol\":1407:1452  if (amount == 0) revert ZeroValueNotAllowed() */\n    tag_78:\n        /* \"kipu-bank/contracts/KipuBank.sol\":3022:3059  _handleDeposit(msg.sender, msg.value) */\n      tag_80\n        /* \"kipu-bank/contracts/KipuBank.sol\":3037:3047  msg.sender */\n      caller\n        /* \"kipu-bank/contracts/KipuBank.sol\":3049:3058  msg.value */\n      callvalue\n        /* \"kipu-bank/contracts/KipuBank.sol\":3022:3036  _handleDeposit */\n      tag_16\n        /* \"kipu-bank/contracts/KipuBank.sol\":3022:3059  _handleDeposit(msg.sender, msg.value) */\n      jump\t// in\n    tag_80:\n        /* \"kipu-bank/contracts/KipuBank.sol\":2957:3067  function deposit() external payable nonZero(msg.value){... */\n      pop\n      jump\t// out\n        /* \"kipu-bank/contracts/KipuBank.sol\":1663:1698  uint256 public immutable perTxLimit */\n    tag_40:\n      immutable(\"0x7446b42d7fe1689ec32fc1ca65129d9f21f1979742315d34500a6886f6986bea\")\n      dup2\n      jump\t// out\n        /* \"kipu-bank/contracts/KipuBank.sol\":1552:1584  uint256 public immutable bankCap */\n    tag_44:\n      immutable(\"0xe921da22f871c25c63f06c1365385cbb26397f64f79055cdbab32187a9377d16\")\n      dup2\n      jump\t// out\n        /* \"kipu-bank/contracts/KipuBank.sol\":5205:5317  function getBalance(address account) external view returns (uint256) {... */\n    tag_49:\n        /* \"kipu-bank/contracts/KipuBank.sol\":5265:5272  uint256 */\n      0x00\n        /* \"kipu-bank/contracts/KipuBank.sol\":5292:5300  balances */\n      0x01\n        /* \"kipu-bank/contracts/KipuBank.sol\":5292:5309  balances[account] */\n      0x00\n        /* \"kipu-bank/contracts/KipuBank.sol\":5301:5308  account */\n      dup4\n        /* \"kipu-bank/contracts/KipuBank.sol\":5292:5309  balances[account] */\n      0xffffffffffffffffffffffffffffffffffffffff\n      and\n      0xffffffffffffffffffffffffffffffffffffffff\n      and\n      dup2\n      mstore\n      0x20\n      add\n      swap1\n      dup2\n      mstore\n      0x20\n      add\n      0x00\n      keccak256\n      sload\n        /* \"kipu-bank/contracts/KipuBank.sol\":5285:5309  return balances[account] */\n      swap1\n      pop\n        /* \"kipu-bank/contracts/KipuBank.sol\":5205:5317  function getBalance(address account) external view returns (uint256) {... */\n      swap2\n      swap1\n      pop\n      jump\t// out\n        /* \"kipu-bank/contracts/KipuBank.sol\":4929:5114  function _safeSend(address payable to, uint256 amount) private {... */\n    tag_74:\n        /* \"kipu-bank/contracts/KipuBank.sol\":5004:5016  bool success */\n      0x00\n        /* \"kipu-bank/contracts/KipuBank.sol\":5022:5024  to */\n      dup3\n        /* \"kipu-bank/contracts/KipuBank.sol\":5022:5029  to.call */\n      0xffffffffffffffffffffffffffffffffffffffff\n      and\n        /* \"kipu-bank/contracts/KipuBank.sol\":5037:5043  amount */\n      dup3\n        /* \"kipu-bank/contracts/KipuBank.sol\":5022:5048  to.call{value: amount}(\"\") */\n      mload(0x40)\n      tag_83\n      swap1\n      tag_84\n      jump\t// in\n    tag_83:\n      0x00\n      mload(0x40)\n      dup1\n      dup4\n      sub\n      dup2\n      dup6\n      dup8\n      gas\n      call\n      swap3\n      pop\n      pop\n      pop\n      returndatasize\n      dup1\n      0x00\n      dup2\n      eq\n      tag_87\n      jumpi\n      mload(0x40)\n      swap2\n      pop\n      and(add(returndatasize, 0x3f), not(0x1f))\n      dup3\n      add\n      0x40\n      mstore\n      returndatasize\n      dup3\n      mstore\n      returndatasize\n      0x00\n      0x20\n      dup5\n      add\n      returndatacopy\n      jump(tag_86)\n    tag_87:\n      0x60\n      swap2\n      pop\n    tag_86:\n      pop\n        /* \"kipu-bank/contracts/KipuBank.sol\":5003:5048  (bool success, ) = to.call{value: amount}(\"\") */\n      pop\n      swap1\n      pop\n        /* \"kipu-bank/contracts/KipuBank.sol\":5064:5071  success */\n      dup1\n        /* \"kipu-bank/contracts/KipuBank.sol\":5059:5106  if (!success) revert TransferFailed(to, amount) */\n      tag_88\n      jumpi\n        /* \"kipu-bank/contracts/KipuBank.sol\":5095:5097  to */\n      dup3\n        /* \"kipu-bank/contracts/KipuBank.sol\":5099:5105  amount */\n      dup3\n        /* \"kipu-bank/contracts/KipuBank.sol\":5080:5106  TransferFailed(to, amount) */\n      mload(0x40)\n      0x1c43b97600000000000000000000000000000000000000000000000000000000\n      dup2\n      mstore\n      0x04\n      add\n      tag_89\n      swap3\n      swap2\n      swap1\n      tag_90\n      jump\t// in\n    tag_89:\n      mload(0x40)\n      dup1\n      swap2\n      sub\n      swap1\n      revert\n        /* \"kipu-bank/contracts/KipuBank.sol\":5059:5106  if (!success) revert TransferFailed(to, amount) */\n    tag_88:\n        /* \"kipu-bank/contracts/KipuBank.sol\":4992:5114  {... */\n      pop\n        /* \"kipu-bank/contracts/KipuBank.sol\":4929:5114  function _safeSend(address payable to, uint256 amount) private {... */\n      pop\n      pop\n      jump\t// out\n        /* \"#utility.yul\":88:205   */\n    tag_92:\n        /* \"#utility.yul\":197:198   */\n      0x00\n        /* \"#utility.yul\":194:195   */\n      dup1\n        /* \"#utility.yul\":187:199   */\n      revert\n        /* \"#utility.yul\":334:411   */\n    tag_94:\n        /* \"#utility.yul\":371:378   */\n      0x00\n        /* \"#utility.yul\":400:405   */\n      dup2\n        /* \"#utility.yul\":389:405   */\n      swap1\n      pop\n        /* \"#utility.yul\":334:411   */\n      swap2\n      swap1\n      pop\n      jump\t// out\n        /* \"#utility.yul\":417:539   */\n    tag_95:\n        /* \"#utility.yul\":490:514   */\n      tag_118\n        /* \"#utility.yul\":508:513   */\n      dup2\n        /* \"#utility.yul\":490:514   */\n      tag_94\n      jump\t// in\n    tag_118:\n        /* \"#utility.yul\":483:488   */\n      dup2\n        /* \"#utility.yul\":480:515   */\n      eq\n        /* \"#utility.yul\":470:533   */\n      tag_119\n      jumpi\n        /* \"#utility.yul\":529:530   */\n      0x00\n        /* \"#utility.yul\":526:527   */\n      dup1\n        /* \"#utility.yul\":519:531   */\n      revert\n        /* \"#utility.yul\":470:533   */\n    tag_119:\n        /* \"#utility.yul\":417:539   */\n      pop\n      jump\t// out\n        /* \"#utility.yul\":545:684   */\n    tag_96:\n        /* \"#utility.yul\":591:596   */\n      0x00\n        /* \"#utility.yul\":629:635   */\n      dup2\n        /* \"#utility.yul\":616:636   */\n      calldataload\n        /* \"#utility.yul\":607:636   */\n      swap1\n      pop\n        /* \"#utility.yul\":645:678   */\n      tag_121\n        /* \"#utility.yul\":672:677   */\n      dup2\n        /* \"#utility.yul\":645:678   */\n      tag_95\n      jump\t// in\n    tag_121:\n        /* \"#utility.yul\":545:684   */\n      swap3\n      swap2\n      pop\n      pop\n      jump\t// out\n        /* \"#utility.yul\":690:1019   */\n    tag_22:\n        /* \"#utility.yul\":749:755   */\n      0x00\n        /* \"#utility.yul\":798:800   */\n      0x20\n        /* \"#utility.yul\":786:795   */\n      dup3\n        /* \"#utility.yul\":777:784   */\n      dup5\n        /* \"#utility.yul\":773:796   */\n      sub\n        /* \"#utility.yul\":769:801   */\n      slt\n        /* \"#utility.yul\":766:885   */\n      iszero\n      tag_123\n      jumpi\n        /* \"#utility.yul\":804:883   */\n      tag_124\n      tag_92\n      jump\t// in\n    tag_124:\n        /* \"#utility.yul\":766:885   */\n    tag_123:\n        /* \"#utility.yul\":924:925   */\n      0x00\n        /* \"#utility.yul\":949:1002   */\n      tag_125\n        /* \"#utility.yul\":994:1001   */\n      dup5\n        /* \"#utility.yul\":985:991   */\n      dup3\n        /* \"#utility.yul\":974:983   */\n      dup6\n        /* \"#utility.yul\":970:992   */\n      add\n        /* \"#utility.yul\":949:1002   */\n      tag_96\n      jump\t// in\n    tag_125:\n        /* \"#utility.yul\":939:1002   */\n      swap2\n      pop\n        /* \"#utility.yul\":895:1012   */\n      pop\n        /* \"#utility.yul\":690:1019   */\n      swap3\n      swap2\n      pop\n      pop\n      jump\t// out\n        /* \"#utility.yul\":1025:1151   */\n    tag_97:\n        /* \"#utility.yul\":1062:1069   */\n      0x00\n        /* \"#utility.yul\":1102:1144   */\n      0xffffffffffffffffffffffffffffffffffffffff\n        /* \"#utility.yul\":1095:1100   */\n      dup3\n        /* \"#utility.yul\":1091:1145   */\n      and\n        /* \"#utility.yul\":1080:1145   */\n      swap1\n      pop\n        /* \"#utility.yul\":1025:1151   */\n      swap2\n      swap1\n      pop\n      jump\t// out\n        /* \"#utility.yul\":1157:1253   */\n    tag_98:\n        /* \"#utility.yul\":1194:1201   */\n      0x00\n        /* \"#utility.yul\":1223:1247   */\n      tag_128\n        /* \"#utility.yul\":1241:1246   */\n      dup3\n        /* \"#utility.yul\":1223:1247   */\n      tag_97\n      jump\t// in\n    tag_128:\n        /* \"#utility.yul\":1212:1247   */\n      swap1\n      pop\n        /* \"#utility.yul\":1157:1253   */\n      swap2\n      swap1\n      pop\n      jump\t// out\n        /* \"#utility.yul\":1259:1381   */\n    tag_99:\n        /* \"#utility.yul\":1332:1356   */\n      tag_130\n        /* \"#utility.yul\":1350:1355   */\n      dup2\n        /* \"#utility.yul\":1332:1356   */\n      tag_98\n      jump\t// in\n    tag_130:\n        /* \"#utility.yul\":1325:1330   */\n      dup2\n        /* \"#utility.yul\":1322:1357   */\n      eq\n        /* \"#utility.yul\":1312:1375   */\n      tag_131\n      jumpi\n        /* \"#utility.yul\":1371:1372   */\n      0x00\n        /* \"#utility.yul\":1368:1369   */\n      dup1\n        /* \"#utility.yul\":1361:1373   */\n      revert\n        /* \"#utility.yul\":1312:1375   */\n    tag_131:\n        /* \"#utility.yul\":1259:1381   */\n      pop\n      jump\t// out\n        /* \"#utility.yul\":1387:1526   */\n    tag_100:\n        /* \"#utility.yul\":1433:1438   */\n      0x00\n        /* \"#utility.yul\":1471:1477   */\n      dup2\n        /* \"#utility.yul\":1458:1478   */\n      calldataload\n        /* \"#utility.yul\":1449:1478   */\n      swap1\n      pop\n        /* \"#utility.yul\":1487:1520   */\n      tag_133\n        /* \"#utility.yul\":1514:1519   */\n      dup2\n        /* \"#utility.yul\":1487:1520   */\n      tag_99\n      jump\t// in\n    tag_133:\n        /* \"#utility.yul\":1387:1526   */\n      swap3\n      swap2\n      pop\n      pop\n      jump\t// out\n        /* \"#utility.yul\":1532:1861   */\n    tag_27:\n        /* \"#utility.yul\":1591:1597   */\n      0x00\n        /* \"#utility.yul\":1640:1642   */\n      0x20\n        /* \"#utility.yul\":1628:1637   */\n      dup3\n        /* \"#utility.yul\":1619:1626   */\n      dup5\n        /* \"#utility.yul\":1615:1638   */\n      sub\n        /* \"#utility.yul\":1611:1643   */\n      slt\n        /* \"#utility.yul\":1608:1727   */\n      iszero\n      tag_135\n      jumpi\n        /* \"#utility.yul\":1646:1725   */\n      tag_136\n      tag_92\n      jump\t// in\n    tag_136:\n        /* \"#utility.yul\":1608:1727   */\n    tag_135:\n        /* \"#utility.yul\":1766:1767   */\n      0x00\n        /* \"#utility.yul\":1791:1844   */\n      tag_137\n        /* \"#utility.yul\":1836:1843   */\n      dup5\n        /* \"#utility.yul\":1827:1833   */\n      dup3\n        /* \"#utility.yul\":1816:1825   */\n      dup6\n        /* \"#utility.yul\":1812:1834   */\n      add\n        /* \"#utility.yul\":1791:1844   */\n      tag_100\n      jump\t// in\n    tag_137:\n        /* \"#utility.yul\":1781:1844   */\n      swap2\n      pop\n        /* \"#utility.yul\":1737:1854   */\n      pop\n        /* \"#utility.yul\":1532:1861   */\n      swap3\n      swap2\n      pop\n      pop\n      jump\t// out\n        /* \"#utility.yul\":1867:1985   */\n    tag_101:\n        /* \"#utility.yul\":1954:1978   */\n      tag_139\n        /* \"#utility.yul\":1972:1977   */\n      dup2\n        /* \"#utility.yul\":1954:1978   */\n      tag_94\n      jump\t// in\n    tag_139:\n        /* \"#utility.yul\":1949:1952   */\n      dup3\n        /* \"#utility.yul\":1942:1979   */\n      mstore\n        /* \"#utility.yul\":1867:1985   */\n      pop\n      pop\n      jump\t// out\n        /* \"#utility.yul\":1991:2323   */\n    tag_30:\n        /* \"#utility.yul\":2112:2116   */\n      0x00\n        /* \"#utility.yul\":2150:2152   */\n      0x40\n        /* \"#utility.yul\":2139:2148   */\n      dup3\n        /* \"#utility.yul\":2135:2153   */\n      add\n        /* \"#utility.yul\":2127:2153   */\n      swap1\n      pop\n        /* \"#utility.yul\":2163:2234   */\n      tag_141\n        /* \"#utility.yul\":2231:2232   */\n      0x00\n        /* \"#utility.yul\":2220:2229   */\n      dup4\n        /* \"#utility.yul\":2216:2233   */\n      add\n        /* \"#utility.yul\":2207:2213   */\n      dup6\n        /* \"#utility.yul\":2163:2234   */\n      tag_101\n      jump\t// in\n    tag_141:\n        /* \"#utility.yul\":2244:2316   */\n      tag_142\n        /* \"#utility.yul\":2312:2314   */\n      0x20\n        /* \"#utility.yul\":2301:2310   */\n      dup4\n        /* \"#utility.yul\":2297:2315   */\n      add\n        /* \"#utility.yul\":2288:2294   */\n      dup5\n        /* \"#utility.yul\":2244:2316   */\n      tag_101\n      jump\t// in\n    tag_142:\n        /* \"#utility.yul\":1991:2323   */\n      swap4\n      swap3\n      pop\n      pop\n      pop\n      jump\t// out\n        /* \"#utility.yul\":2329:2551   */\n    tag_35:\n        /* \"#utility.yul\":2422:2426   */\n      0x00\n        /* \"#utility.yul\":2460:2462   */\n      0x20\n        /* \"#utility.yul\":2449:2458   */\n      dup3\n        /* \"#utility.yul\":2445:2463   */\n      add\n        /* \"#utility.yul\":2437:2463   */\n      swap1\n      pop\n        /* \"#utility.yul\":2473:2544   */\n      tag_144\n        /* \"#utility.yul\":2541:2542   */\n      0x00\n        /* \"#utility.yul\":2530:2539   */\n      dup4\n        /* \"#utility.yul\":2526:2543   */\n      add\n        /* \"#utility.yul\":2517:2523   */\n      dup5\n        /* \"#utility.yul\":2473:2544   */\n      tag_101\n      jump\t// in\n    tag_144:\n        /* \"#utility.yul\":2329:2551   */\n      swap3\n      swap2\n      pop\n      pop\n      jump\t// out\n        /* \"#utility.yul\":2557:2737   */\n    tag_102:\n        /* \"#utility.yul\":2605:2682   */\n      0x4e487b7100000000000000000000000000000000000000000000000000000000\n        /* \"#utility.yul\":2602:2603   */\n      0x00\n        /* \"#utility.yul\":2595:2683   */\n      mstore\n        /* \"#utility.yul\":2702:2706   */\n      0x11\n        /* \"#utility.yul\":2699:2700   */\n      0x04\n        /* \"#utility.yul\":2692:2707   */\n      mstore\n        /* \"#utility.yul\":2726:2730   */\n      0x24\n        /* \"#utility.yul\":2723:2724   */\n      0x00\n        /* \"#utility.yul\":2716:2731   */\n      revert\n        /* \"#utility.yul\":2743:2934   */\n    tag_53:\n        /* \"#utility.yul\":2783:2786   */\n      0x00\n        /* \"#utility.yul\":2802:2822   */\n      tag_147\n        /* \"#utility.yul\":2820:2821   */\n      dup3\n        /* \"#utility.yul\":2802:2822   */\n      tag_94\n      jump\t// in\n    tag_147:\n        /* \"#utility.yul\":2797:2822   */\n      swap2\n      pop\n        /* \"#utility.yul\":2836:2856   */\n      tag_148\n        /* \"#utility.yul\":2854:2855   */\n      dup4\n        /* \"#utility.yul\":2836:2856   */\n      tag_94\n      jump\t// in\n    tag_148:\n        /* \"#utility.yul\":2831:2856   */\n      swap3\n      pop\n        /* \"#utility.yul\":2879:2880   */\n      dup3\n        /* \"#utility.yul\":2876:2877   */\n      dup3\n        /* \"#utility.yul\":2872:2881   */\n      add\n        /* \"#utility.yul\":2865:2881   */\n      swap1\n      pop\n        /* \"#utility.yul\":2900:2903   */\n      dup1\n        /* \"#utility.yul\":2897:2898   */\n      dup3\n        /* \"#utility.yul\":2894:2904   */\n      gt\n        /* \"#utility.yul\":2891:2927   */\n      iszero\n      tag_149\n      jumpi\n        /* \"#utility.yul\":2907:2925   */\n      tag_150\n      tag_102\n      jump\t// in\n    tag_150:\n        /* \"#utility.yul\":2891:2927   */\n    tag_149:\n        /* \"#utility.yul\":2743:2934   */\n      swap3\n      swap2\n      pop\n      pop\n      jump\t// out\n        /* \"#utility.yul\":2940:3134   */\n    tag_56:\n        /* \"#utility.yul\":2980:2984   */\n      0x00\n        /* \"#utility.yul\":3000:3020   */\n      tag_152\n        /* \"#utility.yul\":3018:3019   */\n      dup3\n        /* \"#utility.yul\":3000:3020   */\n      tag_94\n      jump\t// in\n    tag_152:\n        /* \"#utility.yul\":2995:3020   */\n      swap2\n      pop\n        /* \"#utility.yul\":3034:3054   */\n      tag_153\n        /* \"#utility.yul\":3052:3053   */\n      dup4\n        /* \"#utility.yul\":3034:3054   */\n      tag_94\n      jump\t// in\n    tag_153:\n        /* \"#utility.yul\":3029:3054   */\n      swap3\n      pop\n        /* \"#utility.yul\":3078:3079   */\n      dup3\n        /* \"#utility.yul\":3075:3076   */\n      dup3\n        /* \"#utility.yul\":3071:3080   */\n      sub\n        /* \"#utility.yul\":3063:3080   */\n      swap1\n      pop\n        /* \"#utility.yul\":3102:3103   */\n      dup2\n        /* \"#utility.yul\":3096:3100   */\n      dup2\n        /* \"#utility.yul\":3093:3104   */\n      gt\n        /* \"#utility.yul\":3090:3127   */\n      iszero\n      tag_154\n      jumpi\n        /* \"#utility.yul\":3107:3125   */\n      tag_155\n      tag_102\n      jump\t// in\n    tag_155:\n        /* \"#utility.yul\":3090:3127   */\n    tag_154:\n        /* \"#utility.yul\":2940:3134   */\n      swap3\n      swap2\n      pop\n      pop\n      jump\t// out\n        /* \"#utility.yul\":3140:3373   */\n    tag_60:\n        /* \"#utility.yul\":3179:3182   */\n      0x00\n        /* \"#utility.yul\":3202:3226   */\n      tag_157\n        /* \"#utility.yul\":3220:3225   */\n      dup3\n        /* \"#utility.yul\":3202:3226   */\n      tag_94\n      jump\t// in\n    tag_157:\n        /* \"#utility.yul\":3193:3226   */\n      swap2\n      pop\n        /* \"#utility.yul\":3248:3314   */\n      0xffffffffffffffffffffffffffffffffffffffffffffffffffffffffffffffff\n        /* \"#utility.yul\":3241:3246   */\n      dup3\n        /* \"#utility.yul\":3238:3315   */\n      sub\n        /* \"#utility.yul\":3235:3338   */\n      tag_158\n      jumpi\n        /* \"#utility.yul\":3318:3336   */\n      tag_159\n      tag_102\n      jump\t// in\n    tag_159:\n        /* \"#utility.yul\":3235:3338   */\n    tag_158:\n        /* \"#utility.yul\":3365:3366   */\n      0x01\n        /* \"#utility.yul\":3358:3363   */\n      dup3\n        /* \"#utility.yul\":3354:3367   */\n      add\n        /* \"#utility.yul\":3347:3367   */\n      swap1\n      pop\n        /* \"#utility.yul\":3140:3373   */\n      swap2\n      swap1\n      pop\n      jump\t// out\n        /* \"#utility.yul\":3379:3497   */\n    tag_103:\n        /* \"#utility.yul\":3466:3490   */\n      tag_161\n        /* \"#utility.yul\":3484:3489   */\n      dup2\n        /* \"#utility.yul\":3466:3490   */\n      tag_98\n      jump\t// in\n    tag_161:\n        /* \"#utility.yul\":3461:3464   */\n      dup3\n        /* \"#utility.yul\":3454:3491   */\n      mstore\n        /* \"#utility.yul\":3379:3497   */\n      pop\n      pop\n      jump\t// out\n        /* \"#utility.yul\":3503:3945   */\n    tag_69:\n        /* \"#utility.yul\":3652:3656   */\n      0x00\n        /* \"#utility.yul\":3690:3692   */\n      0x60\n        /* \"#utility.yul\":3679:3688   */\n      dup3\n        /* \"#utility.yul\":3675:3693   */\n      add\n        /* \"#utility.yul\":3667:3693   */\n      swap1\n      pop\n        /* \"#utility.yul\":3703:3774   */\n      tag_163\n        /* \"#utility.yul\":3771:3772   */\n      0x00\n        /* \"#utility.yul\":3760:3769   */\n      dup4\n        /* \"#utility.yul\":3756:3773   */\n      add\n        /* \"#utility.yul\":3747:3753   */\n      dup7\n        /* \"#utility.yul\":3703:3774   */\n      tag_103\n      jump\t// in\n    tag_163:\n        /* \"#utility.yul\":3784:3856   */\n      tag_164\n        /* \"#utility.yul\":3852:3854   */\n      0x20\n        /* \"#utility.yul\":3841:3850   */\n      dup4\n        /* \"#utility.yul\":3837:3855   */\n      add\n        /* \"#utility.yul\":3828:3834   */\n      dup6\n        /* \"#utility.yul\":3784:3856   */\n      tag_101\n      jump\t// in\n    tag_164:\n        /* \"#utility.yul\":3866:3938   */\n      tag_165\n        /* \"#utility.yul\":3934:3936   */\n      0x40\n        /* \"#utility.yul\":3923:3932   */\n      dup4\n        /* \"#utility.yul\":3919:3937   */\n      add\n        /* \"#utility.yul\":3910:3916   */\n      dup5\n        /* \"#utility.yul\":3866:3938   */\n      tag_101\n      jump\t// in\n    tag_165:\n        /* \"#utility.yul\":3503:3945   */\n      swap5\n      swap4\n      pop\n      pop\n      pop\n      pop\n      jump\t// out\n        /* \"#utility.yul\":3951:4098   */\n    tag_104:\n        /* \"#utility.yul\":4052:4063   */\n      0x00\n        /* \"#utility.yul\":4089:4092   */\n      dup2\n        /* \"#utility.yul\":4074:4092   */\n      swap1\n      pop\n        /* \"#utility.yul\":3951:4098   */\n      swap3\n      swap2\n      pop\n      pop\n      jump\t// out\n        /* \"#utility.yul\":4104:4218   */\n    tag_105:\n      pop\n      jump\t// out\n        /* \"#utility.yul\":4224:4622   */\n    tag_106:\n        /* \"#utility.yul\":4383:4386   */\n      0x00\n        /* \"#utility.yul\":4404:4487   */\n      tag_169\n        /* \"#utility.yul\":4485:4486   */\n      0x00\n        /* \"#utility.yul\":4480:4483   */\n      dup4\n        /* \"#utility.yul\":4404:4487   */\n      tag_104\n      jump\t// in\n    tag_169:\n        /* \"#utility.yul\":4397:4487   */\n      swap2\n      pop\n        /* \"#utility.yul\":4496:4589   */\n      tag_170\n        /* \"#utility.yul\":4585:4588   */\n      dup3\n        /* \"#utility.yul\":4496:4589   */\n      tag_105\n      jump\t// in\n    tag_170:\n        /* \"#utility.yul\":4614:4615   */\n      0x00\n        /* \"#utility.yul\":4609:4612   */\n      dup3\n        /* \"#utility.yul\":4605:4616   */\n      add\n        /* \"#utility.yul\":4598:4616   */\n      swap1\n      pop\n        /* \"#utility.yul\":4224:4622   */\n      swap2\n      swap1\n      pop\n      jump\t// out\n        /* \"#utility.yul\":4628:5007   */\n    tag_84:\n        /* \"#utility.yul\":4812:4815   */\n      0x00\n        /* \"#utility.yul\":4834:4981   */\n      tag_172\n        /* \"#utility.yul\":4977:4980   */\n      dup3\n        /* \"#utility.yul\":4834:4981   */\n      tag_106\n      jump\t// in\n    tag_172:\n        /* \"#utility.yul\":4827:4981   */\n      swap2\n      pop\n        /* \"#utility.yul\":4998:5001   */\n      dup2\n        /* \"#utility.yul\":4991:5001   */\n      swap1\n      pop\n        /* \"#utility.yul\":4628:5007   */\n      swap2\n      swap1\n      pop\n      jump\t// out\n        /* \"#utility.yul\":5013:5073   */\n    tag_107:\n        /* \"#utility.yul\":5041:5044   */\n      0x00\n        /* \"#utility.yul\":5062:5067   */\n      dup2\n        /* \"#utility.yul\":5055:5067   */\n      swap1\n      pop\n        /* \"#utility.yul\":5013:5073   */\n      swap2\n      swap1\n      pop\n      jump\t// out\n        /* \"#utility.yul\":5079:5221   */\n    tag_108:\n        /* \"#utility.yul\":5129:5138   */\n      0x00\n        /* \"#utility.yul\":5162:5215   */\n      tag_175\n        /* \"#utility.yul\":5180:5214   */\n      tag_176\n        /* \"#utility.yul\":5189:5213   */\n      tag_177\n        /* \"#utility.yul\":5207:5212   */\n      dup5\n        /* \"#utility.yul\":5189:5213   */\n      tag_97\n      jump\t// in\n    tag_177:\n        /* \"#utility.yul\":5180:5214   */\n      tag_107\n      jump\t// in\n    tag_176:\n        /* \"#utility.yul\":5162:5215   */\n      tag_97\n      jump\t// in\n    tag_175:\n        /* \"#utility.yul\":5149:5215   */\n      swap1\n      pop\n        /* \"#utility.yul\":5079:5221   */\n      swap2\n      swap1\n      pop\n      jump\t// out\n        /* \"#utility.yul\":5227:5353   */\n    tag_109:\n        /* \"#utility.yul\":5277:5286   */\n      0x00\n        /* \"#utility.yul\":5310:5347   */\n      tag_179\n        /* \"#utility.yul\":5341:5346   */\n      dup3\n        /* \"#utility.yul\":5310:5347   */\n      tag_108\n      jump\t// in\n    tag_179:\n        /* \"#utility.yul\":5297:5347   */\n      swap1\n      pop\n        /* \"#utility.yul\":5227:5353   */\n      swap2\n      swap1\n      pop\n      jump\t// out\n        /* \"#utility.yul\":5359:5493   */\n    tag_110:\n        /* \"#utility.yul\":5417:5426   */\n      0x00\n        /* \"#utility.yul\":5450:5487   */\n      tag_181\n        /* \"#utility.yul\":5481:5486   */\n      dup3\n        /* \"#utility.yul\":5450:5487   */\n      tag_109\n      jump\t// in\n    tag_181:\n        /* \"#utility.yul\":5437:5487   */\n      swap1\n      pop\n        /* \"#utility.yul\":5359:5493   */\n      swap2\n      swap1\n      pop\n      jump\t// out\n        /* \"#utility.yul\":5499:5646   */\n    tag_111:\n        /* \"#utility.yul\":5594:5639   */\n      tag_183\n        /* \"#utility.yul\":5633:5638   */\n      dup2\n        /* \"#utility.yul\":5594:5639   */\n      tag_110\n      jump\t// in\n    tag_183:\n        /* \"#utility.yul\":5589:5592   */\n      dup3\n        /* \"#utility.yul\":5582:5640   */\n      mstore\n        /* \"#utility.yul\":5499:5646   */\n      pop\n      pop\n      jump\t// out\n        /* \"#utility.yul\":5652:6000   */\n    tag_90:\n        /* \"#utility.yul\":5781:5785   */\n      0x00\n        /* \"#utility.yul\":5819:5821   */\n      0x40\n        /* \"#utility.yul\":5808:5817   */\n      dup3\n        /* \"#utility.yul\":5804:5822   */\n      add\n        /* \"#utility.yul\":5796:5822   */\n      swap1\n      pop\n        /* \"#utility.yul\":5832:5911   */\n      tag_185\n        /* \"#utility.yul\":5908:5909   */\n      0x00\n        /* \"#utility.yul\":5897:5906   */\n      dup4\n        /* \"#utility.yul\":5893:5910   */\n      add\n        /* \"#utility.yul\":5884:5890   */\n      dup6\n        /* \"#utility.yul\":5832:5911   */\n      tag_111\n      jump\t// in\n    tag_185:\n        /* \"#utility.yul\":5921:5993   */\n      tag_186\n        /* \"#utility.yul\":5989:5991   */\n      0x20\n        /* \"#utility.yul\":5978:5987   */\n      dup4\n        /* \"#utility.yul\":5974:5992   */\n      add\n        /* \"#utility.yul\":5965:5971   */\n      dup5\n        /* \"#utility.yul\":5921:5993   */\n      tag_101\n      jump\t// in\n    tag_186:\n        /* \"#utility.yul\":5652:6000   */\n      swap4\n      swap3\n      pop\n      pop\n      pop\n      jump\t// out\n\n    auxdata: 0xa2646970667358221220dc8bc739fd9838f9f095bc25a8f17a43008fd06c4e1bdb8f5103c9c7c43e697764736f6c63430008130033\n}\n",
				"bytecode": {
					"linkReferences": {},
					"object": "60c060405234801561001057600080fd5b50604051610d90380380610d90833981810160405281019061003291906100ca565b60008214806100415750600081145b15610078576040517f296b774400000000000000000000000000000000000000000000000000000000815260040160405180910390fd5b81608081815250508060a08181525050505061010a565b600080fd5b6000819050919050565b6100a781610094565b81146100b257600080fd5b50565b6000815190506100c48161009e565b92915050565b600080604083850312156100e1576100e061008f565b5b60006100ef858286016100b5565b9250506020610100858286016100b5565b9150509250929050565b60805160a051610c4561014b6000396000818161044a0152818161047301526107920152600081816102350152818161026101526107b60152610c456000f3fe6080604052600436106100745760003560e01c8063d0e30db01161004e578063d0e30db014610184578063df7729411461018e578063ecbea24d146101b9578063f8b2cb4f146101e4576100c0565b80632e1a7d4d146100f25780635b4674041461011b5780637d88209714610159576100c0565b366100c05734600081036100b4576040517f9cf8540c00000000000000000000000000000000000000000000000000000000815260040160405180910390fd5b6100be3334610221565b005b6040517fdeab4c3000000000000000000000000000000000000000000000000000000000815260040160405180910390fd5b3480156100fe57600080fd5b5061011960048036038101906101149190610911565b61040d565b005b34801561012757600080fd5b50610142600480360381019061013d919061099c565b6106b6565b6040516101509291906109d8565b60405180910390f35b34801561016557600080fd5b5061016e610742565b60405161017b9190610a01565b60405180910390f35b61018c610748565b005b34801561019a57600080fd5b506101a3610790565b6040516101b09190610a01565b60405180910390f35b3480156101c557600080fd5b506101ce6107b4565b6040516101db9190610a01565b60405180910390f35b3480156101f057600080fd5b5061020b6004803603810190610206919061099c565b6107d8565b6040516102189190610a01565b60405180910390f35b6000816000546102319190610a4b565b90507f00000000000000000000000000000000000000000000000000000000000000008111156102c757816000547f000000000000000000000000000000000000000000000000000000000000000061028a9190610a7f565b6040517f4274ef770000000000000000000000000000000000000000000000000000000081526004016102be9291906109d8565b60405180910390fd5b81600160008573ffffffffffffffffffffffffffffffffffffffff1673ffffffffffffffffffffffffffffffffffffffff16815260200190815260200160002060008282546103169190610a4b565b9250508190555080600081905550600260008473ffffffffffffffffffffffffffffffffffffffff1673ffffffffffffffffffffffffffffffffffffffff168152602001908152602001600020600081548092919061037490610ab3565b91905055508273ffffffffffffffffffffffffffffffffffffffff167f90890809c654f11d6e72a28fa60149770a0d11ec6c92319d6ceb2bb0a4ea1a1583600160008773ffffffffffffffffffffffffffffffffffffffff1673ffffffffffffffffffffffffffffffffffffffff168152602001908152602001600020546040516104009291906109d8565b60405180910390a2505050565b8060008103610448576040517f9cf8540c00000000000000000000000000000000000000000000000000000000815260040160405180910390fd5b7f00000000000000000000000000000000000000000000000000000000000000008211156104cf57817f00000000000000000000000000000000000000000000000000000000000000006040517fd1e6b2fa0000000000000000000000000000000000000000000000000000000081526004016104c69291906109d8565b60405180910390fd5b6000600160003373ffffffffffffffffffffffffffffffffffffffff1673ffffffffffffffffffffffffffffffffffffffff1681526020019081526020016000205490508083111561055c573383826040517fdb42144d00000000000000000000000000000000000000000000000000000000815260040161055393929190610b0a565b60405180910390fd5b82816105689190610a7f565b600160003373ffffffffffffffffffffffffffffffffffffffff1673ffffffffffffffffffffffffffffffffffffffff16815260200190815260200160002081905550826000808282546105bc9190610a7f565b92505081905550600360003373ffffffffffffffffffffffffffffffffffffffff1673ffffffffffffffffffffffffffffffffffffffff168152602001908152602001600020600081548092919061061390610ab3565b91905055506106223384610821565b3373ffffffffffffffffffffffffffffffffffffffff167fdf273cb619d95419a9cd0ec88123a0538c85064229baa6363788f743fff90deb84600160003373ffffffffffffffffffffffffffffffffffffffff1673ffffffffffffffffffffffffffffffffffffffff168152602001908152602001600020546040516106a99291906109d8565b60405180910390a2505050565b600080600260008473ffffffffffffffffffffffffffffffffffffffff1673ffffffffffffffffffffffffffffffffffffffff16815260200190815260200160002054600360008573ffffffffffffffffffffffffffffffffffffffff1673ffffffffffffffffffffffffffffffffffffffff1681526020019081526020016000205491509150915091565b60005481565b3460008103610783576040517f9cf8540c00000000000000000000000000000000000000000000000000000000815260040160405180910390fd5b61078d3334610221565b50565b7f000000000000000000000000000000000000000000000000000000000000000081565b7f000000000000000000000000000000000000000000000000000000000000000081565b6000600160008373ffffffffffffffffffffffffffffffffffffffff1673ffffffffffffffffffffffffffffffffffffffff168152602001908152602001600020549050919050565b60008273ffffffffffffffffffffffffffffffffffffffff168260405161084790610b72565b60006040518083038185875af1925050503d8060008114610884576040519150601f19603f3d011682016040523d82523d6000602084013e610889565b606091505b50509050806108d15782826040517f1c43b9760000000000000000000000000000000000000000000000000000000081526004016108c8929190610be6565b60405180910390fd5b505050565b600080fd5b6000819050919050565b6108ee816108db565b81146108f957600080fd5b50565b60008135905061090b816108e5565b92915050565b600060208284031215610927576109266108d6565b5b6000610935848285016108fc565b91505092915050565b600073ffffffffffffffffffffffffffffffffffffffff82169050919050565b60006109698261093e565b9050919050565b6109798161095e565b811461098457600080fd5b50565b60008135905061099681610970565b92915050565b6000602082840312156109b2576109b16108d6565b5b60006109c084828501610987565b91505092915050565b6109d2816108db565b82525050565b60006040820190506109ed60008301856109c9565b6109fa60208301846109c9565b9392505050565b6000602082019050610a1660008301846109c9565b92915050565b7f4e487b7100000000000000000000000000000000000000000000000000000000600052601160045260246000fd5b6000610a56826108db565b9150610a61836108db565b9250828201905080821115610a7957610a78610a1c565b5b92915050565b6000610a8a826108db565b9150610a95836108db565b9250828203905081811115610aad57610aac610a1c565b5b92915050565b6000610abe826108db565b91507fffffffffffffffffffffffffffffffffffffffffffffffffffffffffffffffff8203610af057610aef610a1c565b5b600182019050919050565b610b048161095e565b82525050565b6000606082019050610b1f6000830186610afb565b610b2c60208301856109c9565b610b3960408301846109c9565b949350505050565b600081905092915050565b50565b6000610b5c600083610b41565b9150610b6782610b4c565b600082019050919050565b6000610b7d82610b4f565b9150819050919050565b6000819050919050565b6000610bac610ba7610ba28461093e565b610b87565b61093e565b9050919050565b6000610bbe82610b91565b9050919050565b6000610bd082610bb3565b9050919050565b610be081610bc5565b82525050565b6000604082019050610bfb6000830185610bd7565b610c0860208301846109c9565b939250505056fea2646970667358221220dc8bc739fd9838f9f095bc25a8f17a43008fd06c4e1bdb8f5103c9c7c43e697764736f6c63430008130033",
					"opcodes": "PUSH1 0xC0 PUSH1 0x40 MSTORE CALLVALUE DUP1 ISZERO PUSH2 0x10 JUMPI PUSH1 0x0 DUP1 REVERT JUMPDEST POP PUSH1 0x40 MLOAD PUSH2 0xD90 CODESIZE SUB DUP1 PUSH2 0xD90 DUP4 CODECOPY DUP2 DUP2 ADD PUSH1 0x40 MSTORE DUP2 ADD SWAP1 PUSH2 0x32 SWAP2 SWAP1 PUSH2 0xCA JUMP JUMPDEST PUSH1 0x0 DUP3 EQ DUP1 PUSH2 0x41 JUMPI POP PUSH1 0x0 DUP2 EQ JUMPDEST ISZERO PUSH2 0x78 JUMPI PUSH1 0x40 MLOAD PUSH32 0x296B774400000000000000000000000000000000000000000000000000000000 DUP2 MSTORE PUSH1 0x4 ADD PUSH1 0x40 MLOAD DUP1 SWAP2 SUB SWAP1 REVERT JUMPDEST DUP2 PUSH1 0x80 DUP2 DUP2 MSTORE POP POP DUP1 PUSH1 0xA0 DUP2 DUP2 MSTORE POP POP POP POP PUSH2 0x10A JUMP JUMPDEST PUSH1 0x0 DUP1 REVERT JUMPDEST PUSH1 0x0 DUP2 SWAP1 POP SWAP2 SWAP1 POP JUMP JUMPDEST PUSH2 0xA7 DUP2 PUSH2 0x94 JUMP JUMPDEST DUP2 EQ PUSH2 0xB2 JUMPI PUSH1 0x0 DUP1 REVERT JUMPDEST POP JUMP JUMPDEST PUSH1 0x0 DUP2 MLOAD SWAP1 POP PUSH2 0xC4 DUP2 PUSH2 0x9E JUMP JUMPDEST SWAP3 SWAP2 POP POP JUMP JUMPDEST PUSH1 0x0 DUP1 PUSH1 0x40 DUP4 DUP6 SUB SLT ISZERO PUSH2 0xE1 JUMPI PUSH2 0xE0 PUSH2 0x8F JUMP JUMPDEST JUMPDEST PUSH1 0x0 PUSH2 0xEF DUP6 DUP3 DUP7 ADD PUSH2 0xB5 JUMP JUMPDEST SWAP3 POP POP PUSH1 0x20 PUSH2 0x100 DUP6 DUP3 DUP7 ADD PUSH2 0xB5 JUMP JUMPDEST SWAP2 POP POP SWAP3 POP SWAP3 SWAP1 POP JUMP JUMPDEST PUSH1 0x80 MLOAD PUSH1 0xA0 MLOAD PUSH2 0xC45 PUSH2 0x14B PUSH1 0x0 CODECOPY PUSH1 0x0 DUP2 DUP2 PUSH2 0x44A ADD MSTORE DUP2 DUP2 PUSH2 0x473 ADD MSTORE PUSH2 0x792 ADD MSTORE PUSH1 0x0 DUP2 DUP2 PUSH2 0x235 ADD MSTORE DUP2 DUP2 PUSH2 0x261 ADD MSTORE PUSH2 0x7B6 ADD MSTORE PUSH2 0xC45 PUSH1 0x0 RETURN INVALID PUSH1 0x80 PUSH1 0x40 MSTORE PUSH1 0x4 CALLDATASIZE LT PUSH2 0x74 JUMPI PUSH1 0x0 CALLDATALOAD PUSH1 0xE0 SHR DUP1 PUSH4 0xD0E30DB0 GT PUSH2 0x4E JUMPI DUP1 PUSH4 0xD0E30DB0 EQ PUSH2 0x184 JUMPI DUP1 PUSH4 0xDF772941 EQ PUSH2 0x18E JUMPI DUP1 PUSH4 0xECBEA24D EQ PUSH2 0x1B9 JUMPI DUP1 PUSH4 0xF8B2CB4F EQ PUSH2 0x1E4 JUMPI PUSH2 0xC0 JUMP JUMPDEST DUP1 PUSH4 0x2E1A7D4D EQ PUSH2 0xF2 JUMPI DUP1 PUSH4 0x5B467404 EQ PUSH2 0x11B JUMPI DUP1 PUSH4 0x7D882097 EQ PUSH2 0x159 JUMPI PUSH2 0xC0 JUMP JUMPDEST CALLDATASIZE PUSH2 0xC0 JUMPI CALLVALUE PUSH1 0x0 DUP2 SUB PUSH2 0xB4 JUMPI PUSH1 0x40 MLOAD PUSH32 0x9CF8540C00000000000000000000000000000000000000000000000000000000 DUP2 MSTORE PUSH1 0x4 ADD PUSH1 0x40 MLOAD DUP1 SWAP2 SUB SWAP1 REVERT JUMPDEST PUSH2 0xBE CALLER CALLVALUE PUSH2 0x221 JUMP JUMPDEST STOP JUMPDEST PUSH1 0x40 MLOAD PUSH32 0xDEAB4C3000000000000000000000000000000000000000000000000000000000 DUP2 MSTORE PUSH1 0x4 ADD PUSH1 0x40 MLOAD DUP1 SWAP2 SUB SWAP1 REVERT JUMPDEST CALLVALUE DUP1 ISZERO PUSH2 0xFE JUMPI PUSH1 0x0 DUP1 REVERT JUMPDEST POP PUSH2 0x119 PUSH1 0x4 DUP1 CALLDATASIZE SUB DUP2 ADD SWAP1 PUSH2 0x114 SWAP2 SWAP1 PUSH2 0x911 JUMP JUMPDEST PUSH2 0x40D JUMP JUMPDEST STOP JUMPDEST CALLVALUE DUP1 ISZERO PUSH2 0x127 JUMPI PUSH1 0x0 DUP1 REVERT JUMPDEST POP PUSH2 0x142 PUSH1 0x4 DUP1 CALLDATASIZE SUB DUP2 ADD SWAP1 PUSH2 0x13D SWAP2 SWAP1 PUSH2 0x99C JUMP JUMPDEST PUSH2 0x6B6 JUMP JUMPDEST PUSH1 0x40 MLOAD PUSH2 0x150 SWAP3 SWAP2 SWAP1 PUSH2 0x9D8 JUMP JUMPDEST PUSH1 0x40 MLOAD DUP1 SWAP2 SUB SWAP1 RETURN JUMPDEST CALLVALUE DUP1 ISZERO PUSH2 0x165 JUMPI PUSH1 0x0 DUP1 REVERT JUMPDEST POP PUSH2 0x16E PUSH2 0x742 JUMP JUMPDEST PUSH1 0x40 MLOAD PUSH2 0x17B SWAP2 SWAP1 PUSH2 0xA01 JUMP JUMPDEST PUSH1 0x40 MLOAD DUP1 SWAP2 SUB SWAP1 RETURN JUMPDEST PUSH2 0x18C PUSH2 0x748 JUMP JUMPDEST STOP JUMPDEST CALLVALUE DUP1 ISZERO PUSH2 0x19A JUMPI PUSH1 0x0 DUP1 REVERT JUMPDEST POP PUSH2 0x1A3 PUSH2 0x790 JUMP JUMPDEST PUSH1 0x40 MLOAD PUSH2 0x1B0 SWAP2 SWAP1 PUSH2 0xA01 JUMP JUMPDEST PUSH1 0x40 MLOAD DUP1 SWAP2 SUB SWAP1 RETURN JUMPDEST CALLVALUE DUP1 ISZERO PUSH2 0x1C5 JUMPI PUSH1 0x0 DUP1 REVERT JUMPDEST POP PUSH2 0x1CE PUSH2 0x7B4 JUMP JUMPDEST PUSH1 0x40 MLOAD PUSH2 0x1DB SWAP2 SWAP1 PUSH2 0xA01 JUMP JUMPDEST PUSH1 0x40 MLOAD DUP1 SWAP2 SUB SWAP1 RETURN JUMPDEST CALLVALUE DUP1 ISZERO PUSH2 0x1F0 JUMPI PUSH1 0x0 DUP1 REVERT JUMPDEST POP PUSH2 0x20B PUSH1 0x4 DUP1 CALLDATASIZE SUB DUP2 ADD SWAP1 PUSH2 0x206 SWAP2 SWAP1 PUSH2 0x99C JUMP JUMPDEST PUSH2 0x7D8 JUMP JUMPDEST PUSH1 0x40 MLOAD PUSH2 0x218 SWAP2 SWAP1 PUSH2 0xA01 JUMP JUMPDEST PUSH1 0x40 MLOAD DUP1 SWAP2 SUB SWAP1 RETURN JUMPDEST PUSH1 0x0 DUP2 PUSH1 0x0 SLOAD PUSH2 0x231 SWAP2 SWAP1 PUSH2 0xA4B JUMP JUMPDEST SWAP1 POP PUSH32 0x0 DUP2 GT ISZERO PUSH2 0x2C7 JUMPI DUP2 PUSH1 0x0 SLOAD PUSH32 0x0 PUSH2 0x28A SWAP2 SWAP1 PUSH2 0xA7F JUMP JUMPDEST PUSH1 0x40 MLOAD PUSH32 0x4274EF7700000000000000000000000000000000000000000000000000000000 DUP2 MSTORE PUSH1 0x4 ADD PUSH2 0x2BE SWAP3 SWAP2 SWAP1 PUSH2 0x9D8 JUMP JUMPDEST PUSH1 0x40 MLOAD DUP1 SWAP2 SUB SWAP1 REVERT JUMPDEST DUP2 PUSH1 0x1 PUSH1 0x0 DUP6 PUSH20 0xFFFFFFFFFFFFFFFFFFFFFFFFFFFFFFFFFFFFFFFF AND PUSH20 0xFFFFFFFFFFFFFFFFFFFFFFFFFFFFFFFFFFFFFFFF AND DUP2 MSTORE PUSH1 0x20 ADD SWAP1 DUP2 MSTORE PUSH1 0x20 ADD PUSH1 0x0 KECCAK256 PUSH1 0x0 DUP3 DUP3 SLOAD PUSH2 0x316 SWAP2 SWAP1 PUSH2 0xA4B JUMP JUMPDEST SWAP3 POP POP DUP2 SWAP1 SSTORE POP DUP1 PUSH1 0x0 DUP2 SWAP1 SSTORE POP PUSH1 0x2 PUSH1 0x0 DUP5 PUSH20 0xFFFFFFFFFFFFFFFFFFFFFFFFFFFFFFFFFFFFFFFF AND PUSH20 0xFFFFFFFFFFFFFFFFFFFFFFFFFFFFFFFFFFFFFFFF AND DUP2 MSTORE PUSH1 0x20 ADD SWAP1 DUP2 MSTORE PUSH1 0x20 ADD PUSH1 0x0 KECCAK256 PUSH1 0x0 DUP2 SLOAD DUP1 SWAP3 SWAP2 SWAP1 PUSH2 0x374 SWAP1 PUSH2 0xAB3 JUMP JUMPDEST SWAP2 SWAP1 POP SSTORE POP DUP3 PUSH20 0xFFFFFFFFFFFFFFFFFFFFFFFFFFFFFFFFFFFFFFFF AND PUSH32 0x90890809C654F11D6E72A28FA60149770A0D11EC6C92319D6CEB2BB0A4EA1A15 DUP4 PUSH1 0x1 PUSH1 0x0 DUP8 PUSH20 0xFFFFFFFFFFFFFFFFFFFFFFFFFFFFFFFFFFFFFFFF AND PUSH20 0xFFFFFFFFFFFFFFFFFFFFFFFFFFFFFFFFFFFFFFFF AND DUP2 MSTORE PUSH1 0x20 ADD SWAP1 DUP2 MSTORE PUSH1 0x20 ADD PUSH1 0x0 KECCAK256 SLOAD PUSH1 0x40 MLOAD PUSH2 0x400 SWAP3 SWAP2 SWAP1 PUSH2 0x9D8 JUMP JUMPDEST PUSH1 0x40 MLOAD DUP1 SWAP2 SUB SWAP1 LOG2 POP POP POP JUMP JUMPDEST DUP1 PUSH1 0x0 DUP2 SUB PUSH2 0x448 JUMPI PUSH1 0x40 MLOAD PUSH32 0x9CF8540C00000000000000000000000000000000000000000000000000000000 DUP2 MSTORE PUSH1 0x4 ADD PUSH1 0x40 MLOAD DUP1 SWAP2 SUB SWAP1 REVERT JUMPDEST PUSH32 0x0 DUP3 GT ISZERO PUSH2 0x4CF JUMPI DUP2 PUSH32 0x0 PUSH1 0x40 MLOAD PUSH32 0xD1E6B2FA00000000000000000000000000000000000000000000000000000000 DUP2 MSTORE PUSH1 0x4 ADD PUSH2 0x4C6 SWAP3 SWAP2 SWAP1 PUSH2 0x9D8 JUMP JUMPDEST PUSH1 0x40 MLOAD DUP1 SWAP2 SUB SWAP1 REVERT JUMPDEST PUSH1 0x0 PUSH1 0x1 PUSH1 0x0 CALLER PUSH20 0xFFFFFFFFFFFFFFFFFFFFFFFFFFFFFFFFFFFFFFFF AND PUSH20 0xFFFFFFFFFFFFFFFFFFFFFFFFFFFFFFFFFFFFFFFF AND DUP2 MSTORE PUSH1 0x20 ADD SWAP1 DUP2 MSTORE PUSH1 0x20 ADD PUSH1 0x0 KECCAK256 SLOAD SWAP1 POP DUP1 DUP4 GT ISZERO PUSH2 0x55C JUMPI CALLER DUP4 DUP3 PUSH1 0x40 MLOAD PUSH32 0xDB42144D00000000000000000000000000000000000000000000000000000000 DUP2 MSTORE PUSH1 0x4 ADD PUSH2 0x553 SWAP4 SWAP3 SWAP2 SWAP1 PUSH2 0xB0A JUMP JUMPDEST PUSH1 0x40 MLOAD DUP1 SWAP2 SUB SWAP1 REVERT JUMPDEST DUP3 DUP2 PUSH2 0x568 SWAP2 SWAP1 PUSH2 0xA7F JUMP JUMPDEST PUSH1 0x1 PUSH1 0x0 CALLER PUSH20 0xFFFFFFFFFFFFFFFFFFFFFFFFFFFFFFFFFFFFFFFF AND PUSH20 0xFFFFFFFFFFFFFFFFFFFFFFFFFFFFFFFFFFFFFFFF AND DUP2 MSTORE PUSH1 0x20 ADD SWAP1 DUP2 MSTORE PUSH1 0x20 ADD PUSH1 0x0 KECCAK256 DUP2 SWAP1 SSTORE POP DUP3 PUSH1 0x0 DUP1 DUP3 DUP3 SLOAD PUSH2 0x5BC SWAP2 SWAP1 PUSH2 0xA7F JUMP JUMPDEST SWAP3 POP POP DUP2 SWAP1 SSTORE POP PUSH1 0x3 PUSH1 0x0 CALLER PUSH20 0xFFFFFFFFFFFFFFFFFFFFFFFFFFFFFFFFFFFFFFFF AND PUSH20 0xFFFFFFFFFFFFFFFFFFFFFFFFFFFFFFFFFFFFFFFF AND DUP2 MSTORE PUSH1 0x20 ADD SWAP1 DUP2 MSTORE PUSH1 0x20 ADD PUSH1 0x0 KECCAK256 PUSH1 0x0 DUP2 SLOAD DUP1 SWAP3 SWAP2 SWAP1 PUSH2 0x613 SWAP1 PUSH2 0xAB3 JUMP JUMPDEST SWAP2 SWAP1 POP SSTORE POP PUSH2 0x622 CALLER DUP5 PUSH2 0x821 JUMP JUMPDEST CALLER PUSH20 0xFFFFFFFFFFFFFFFFFFFFFFFFFFFFFFFFFFFFFFFF AND PUSH32 0xDF273CB619D95419A9CD0EC88123A0538C85064229BAA6363788F743FFF90DEB DUP5 PUSH1 0x1 PUSH1 0x0 CALLER PUSH20 0xFFFFFFFFFFFFFFFFFFFFFFFFFFFFFFFFFFFFFFFF AND PUSH20 0xFFFFFFFFFFFFFFFFFFFFFFFFFFFFFFFFFFFFFFFF AND DUP2 MSTORE PUSH1 0x20 ADD SWAP1 DUP2 MSTORE PUSH1 0x20 ADD PUSH1 0x0 KECCAK256 SLOAD PUSH1 0x40 MLOAD PUSH2 0x6A9 SWAP3 SWAP2 SWAP1 PUSH2 0x9D8 JUMP JUMPDEST PUSH1 0x40 MLOAD DUP1 SWAP2 SUB SWAP1 LOG2 POP POP POP JUMP JUMPDEST PUSH1 0x0 DUP1 PUSH1 0x2 PUSH1 0x0 DUP5 PUSH20 0xFFFFFFFFFFFFFFFFFFFFFFFFFFFFFFFFFFFFFFFF AND PUSH20 0xFFFFFFFFFFFFFFFFFFFFFFFFFFFFFFFFFFFFFFFF AND DUP2 MSTORE PUSH1 0x20 ADD SWAP1 DUP2 MSTORE PUSH1 0x20 ADD PUSH1 0x0 KECCAK256 SLOAD PUSH1 0x3 PUSH1 0x0 DUP6 PUSH20 0xFFFFFFFFFFFFFFFFFFFFFFFFFFFFFFFFFFFFFFFF AND PUSH20 0xFFFFFFFFFFFFFFFFFFFFFFFFFFFFFFFFFFFFFFFF AND DUP2 MSTORE PUSH1 0x20 ADD SWAP1 DUP2 MSTORE PUSH1 0x20 ADD PUSH1 0x0 KECCAK256 SLOAD SWAP2 POP SWAP2 POP SWAP2 POP SWAP2 JUMP JUMPDEST PUSH1 0x0 SLOAD DUP2 JUMP JUMPDEST CALLVALUE PUSH1 0x0 DUP2 SUB PUSH2 0x783 JUMPI PUSH1 0x40 MLOAD PUSH32 0x9CF8540C00000000000000000000000000000000000000000000000000000000 DUP2 MSTORE PUSH1 0x4 ADD PUSH1 0x40 MLOAD DUP1 SWAP2 SUB SWAP1 REVERT JUMPDEST PUSH2 0x78D CALLER CALLVALUE PUSH2 0x221 JUMP JUMPDEST POP JUMP JUMPDEST PUSH32 0x0 DUP2 JUMP JUMPDEST PUSH32 0x0 DUP2 JUMP JUMPDEST PUSH1 0x0 PUSH1 0x1 PUSH1 0x0 DUP4 PUSH20 0xFFFFFFFFFFFFFFFFFFFFFFFFFFFFFFFFFFFFFFFF AND PUSH20 0xFFFFFFFFFFFFFFFFFFFFFFFFFFFFFFFFFFFFFFFF AND DUP2 MSTORE PUSH1 0x20 ADD SWAP1 DUP2 MSTORE PUSH1 0x20 ADD PUSH1 0x0 KECCAK256 SLOAD SWAP1 POP SWAP2 SWAP1 POP JUMP JUMPDEST PUSH1 0x0 DUP3 PUSH20 0xFFFFFFFFFFFFFFFFFFFFFFFFFFFFFFFFFFFFFFFF AND DUP3 PUSH1 0x40 MLOAD PUSH2 0x847 SWAP1 PUSH2 0xB72 JUMP JUMPDEST PUSH1 0x0 PUSH1 0x40 MLOAD DUP1 DUP4 SUB DUP2 DUP6 DUP8 GAS CALL SWAP3 POP POP POP RETURNDATASIZE DUP1 PUSH1 0x0 DUP2 EQ PUSH2 0x884 JUMPI PUSH1 0x40 MLOAD SWAP2 POP PUSH1 0x1F NOT PUSH1 0x3F RETURNDATASIZE ADD AND DUP3 ADD PUSH1 0x40 MSTORE RETURNDATASIZE DUP3 MSTORE RETURNDATASIZE PUSH1 0x0 PUSH1 0x20 DUP5 ADD RETURNDATACOPY PUSH2 0x889 JUMP JUMPDEST PUSH1 0x60 SWAP2 POP JUMPDEST POP POP SWAP1 POP DUP1 PUSH2 0x8D1 JUMPI DUP3 DUP3 PUSH1 0x40 MLOAD PUSH32 0x1C43B97600000000000000000000000000000000000000000000000000000000 DUP2 MSTORE PUSH1 0x4 ADD PUSH2 0x8C8 SWAP3 SWAP2 SWAP1 PUSH2 0xBE6 JUMP JUMPDEST PUSH1 0x40 MLOAD DUP1 SWAP2 SUB SWAP1 REVERT JUMPDEST POP POP POP JUMP JUMPDEST PUSH1 0x0 DUP1 REVERT JUMPDEST PUSH1 0x0 DUP2 SWAP1 POP SWAP2 SWAP1 POP JUMP JUMPDEST PUSH2 0x8EE DUP2 PUSH2 0x8DB JUMP JUMPDEST DUP2 EQ PUSH2 0x8F9 JUMPI PUSH1 0x0 DUP1 REVERT JUMPDEST POP JUMP JUMPDEST PUSH1 0x0 DUP2 CALLDATALOAD SWAP1 POP PUSH2 0x90B DUP2 PUSH2 0x8E5 JUMP JUMPDEST SWAP3 SWAP2 POP POP JUMP JUMPDEST PUSH1 0x0 PUSH1 0x20 DUP3 DUP5 SUB SLT ISZERO PUSH2 0x927 JUMPI PUSH2 0x926 PUSH2 0x8D6 JUMP JUMPDEST JUMPDEST PUSH1 0x0 PUSH2 0x935 DUP5 DUP3 DUP6 ADD PUSH2 0x8FC JUMP JUMPDEST SWAP2 POP POP SWAP3 SWAP2 POP POP JUMP JUMPDEST PUSH1 0x0 PUSH20 0xFFFFFFFFFFFFFFFFFFFFFFFFFFFFFFFFFFFFFFFF DUP3 AND SWAP1 POP SWAP2 SWAP1 POP JUMP JUMPDEST PUSH1 0x0 PUSH2 0x969 DUP3 PUSH2 0x93E JUMP JUMPDEST SWAP1 POP SWAP2 SWAP1 POP JUMP JUMPDEST PUSH2 0x979 DUP2 PUSH2 0x95E JUMP JUMPDEST DUP2 EQ PUSH2 0x984 JUMPI PUSH1 0x0 DUP1 REVERT JUMPDEST POP JUMP JUMPDEST PUSH1 0x0 DUP2 CALLDATALOAD SWAP1 POP PUSH2 0x996 DUP2 PUSH2 0x970 JUMP JUMPDEST SWAP3 SWAP2 POP POP JUMP JUMPDEST PUSH1 0x0 PUSH1 0x20 DUP3 DUP5 SUB SLT ISZERO PUSH2 0x9B2 JUMPI PUSH2 0x9B1 PUSH2 0x8D6 JUMP JUMPDEST JUMPDEST PUSH1 0x0 PUSH2 0x9C0 DUP5 DUP3 DUP6 ADD PUSH2 0x987 JUMP JUMPDEST SWAP2 POP POP SWAP3 SWAP2 POP POP JUMP JUMPDEST PUSH2 0x9D2 DUP2 PUSH2 0x8DB JUMP JUMPDEST DUP3 MSTORE POP POP JUMP JUMPDEST PUSH1 0x0 PUSH1 0x40 DUP3 ADD SWAP1 POP PUSH2 0x9ED PUSH1 0x0 DUP4 ADD DUP6 PUSH2 0x9C9 JUMP JUMPDEST PUSH2 0x9FA PUSH1 0x20 DUP4 ADD DUP5 PUSH2 0x9C9 JUMP JUMPDEST SWAP4 SWAP3 POP POP POP JUMP JUMPDEST PUSH1 0x0 PUSH1 0x20 DUP3 ADD SWAP1 POP PUSH2 0xA16 PUSH1 0x0 DUP4 ADD DUP5 PUSH2 0x9C9 JUMP JUMPDEST SWAP3 SWAP2 POP POP JUMP JUMPDEST PUSH32 0x4E487B7100000000000000000000000000000000000000000000000000000000 PUSH1 0x0 MSTORE PUSH1 0x11 PUSH1 0x4 MSTORE PUSH1 0x24 PUSH1 0x0 REVERT JUMPDEST PUSH1 0x0 PUSH2 0xA56 DUP3 PUSH2 0x8DB JUMP JUMPDEST SWAP2 POP PUSH2 0xA61 DUP4 PUSH2 0x8DB JUMP JUMPDEST SWAP3 POP DUP3 DUP3 ADD SWAP1 POP DUP1 DUP3 GT ISZERO PUSH2 0xA79 JUMPI PUSH2 0xA78 PUSH2 0xA1C JUMP JUMPDEST JUMPDEST SWAP3 SWAP2 POP POP JUMP JUMPDEST PUSH1 0x0 PUSH2 0xA8A DUP3 PUSH2 0x8DB JUMP JUMPDEST SWAP2 POP PUSH2 0xA95 DUP4 PUSH2 0x8DB JUMP JUMPDEST SWAP3 POP DUP3 DUP3 SUB SWAP1 POP DUP2 DUP2 GT ISZERO PUSH2 0xAAD JUMPI PUSH2 0xAAC PUSH2 0xA1C JUMP JUMPDEST JUMPDEST SWAP3 SWAP2 POP POP JUMP JUMPDEST PUSH1 0x0 PUSH2 0xABE DUP3 PUSH2 0x8DB JUMP JUMPDEST SWAP2 POP PUSH32 0xFFFFFFFFFFFFFFFFFFFFFFFFFFFFFFFFFFFFFFFFFFFFFFFFFFFFFFFFFFFFFFFF DUP3 SUB PUSH2 0xAF0 JUMPI PUSH2 0xAEF PUSH2 0xA1C JUMP JUMPDEST JUMPDEST PUSH1 0x1 DUP3 ADD SWAP1 POP SWAP2 SWAP1 POP JUMP JUMPDEST PUSH2 0xB04 DUP2 PUSH2 0x95E JUMP JUMPDEST DUP3 MSTORE POP POP JUMP JUMPDEST PUSH1 0x0 PUSH1 0x60 DUP3 ADD SWAP1 POP PUSH2 0xB1F PUSH1 0x0 DUP4 ADD DUP7 PUSH2 0xAFB JUMP JUMPDEST PUSH2 0xB2C PUSH1 0x20 DUP4 ADD DUP6 PUSH2 0x9C9 JUMP JUMPDEST PUSH2 0xB39 PUSH1 0x40 DUP4 ADD DUP5 PUSH2 0x9C9 JUMP JUMPDEST SWAP5 SWAP4 POP POP POP POP JUMP JUMPDEST PUSH1 0x0 DUP2 SWAP1 POP SWAP3 SWAP2 POP POP JUMP JUMPDEST POP JUMP JUMPDEST PUSH1 0x0 PUSH2 0xB5C PUSH1 0x0 DUP4 PUSH2 0xB41 JUMP JUMPDEST SWAP2 POP PUSH2 0xB67 DUP3 PUSH2 0xB4C JUMP JUMPDEST PUSH1 0x0 DUP3 ADD SWAP1 POP SWAP2 SWAP1 POP JUMP JUMPDEST PUSH1 0x0 PUSH2 0xB7D DUP3 PUSH2 0xB4F JUMP JUMPDEST SWAP2 POP DUP2 SWAP1 POP SWAP2 SWAP1 POP JUMP JUMPDEST PUSH1 0x0 DUP2 SWAP1 POP SWAP2 SWAP1 POP JUMP JUMPDEST PUSH1 0x0 PUSH2 0xBAC PUSH2 0xBA7 PUSH2 0xBA2 DUP5 PUSH2 0x93E JUMP JUMPDEST PUSH2 0xB87 JUMP JUMPDEST PUSH2 0x93E JUMP JUMPDEST SWAP1 POP SWAP2 SWAP1 POP JUMP JUMPDEST PUSH1 0x0 PUSH2 0xBBE DUP3 PUSH2 0xB91 JUMP JUMPDEST SWAP1 POP SWAP2 SWAP1 POP JUMP JUMPDEST PUSH1 0x0 PUSH2 0xBD0 DUP3 PUSH2 0xBB3 JUMP JUMPDEST SWAP1 POP SWAP2 SWAP1 POP JUMP JUMPDEST PUSH2 0xBE0 DUP2 PUSH2 0xBC5 JUMP JUMPDEST DUP3 MSTORE POP POP JUMP JUMPDEST PUSH1 0x0 PUSH1 0x40 DUP3 ADD SWAP1 POP PUSH2 0xBFB PUSH1 0x0 DUP4 ADD DUP6 PUSH2 0xBD7 JUMP JUMPDEST PUSH2 0xC08 PUSH1 0x20 DUP4 ADD DUP5 PUSH2 0x9C9 JUMP JUMPDEST SWAP4 SWAP3 POP POP POP JUMP INVALID LOG2 PUSH5 0x6970667358 0x22 SLT KECCAK256 0xDC DUP12 0xC7 CODECOPY REVERT SWAP9 CODESIZE 0xF9 CREATE SWAP6 0xBC 0x25 0xA8 CALL PUSH27 0x43008FD06C4E1BDB8F5103C9C7C43E697764736F6C634300081300 CALLER "
				},
				"gasEstimates": {
					"creation": {
						"codeDepositCost": "628200",
						"executionCost": "infinite",
						"totalCost": "infinite"
					},
					"external": {
						"": "197",
						"bankCap()": "infinite",
						"deposit()": "infinite",
						"getBalance(address)": "2907",
						"getCounts(address)": "infinite",
						"perTxLimit()": "infinite",
						"totalDeposits()": "2474",
						"withdraw(uint256)": "infinite"
					},
					"internal": {
						"_handleDeposit(address,uint256)": "infinite",
						"_safeSend(address payable,uint256)": "infinite"
					}
				},
				"methodIdentifiers": {
					"bankCap()": "ecbea24d",
					"deposit()": "d0e30db0",
					"getBalance(address)": "f8b2cb4f",
					"getCounts(address)": "5b467404",
					"perTxLimit()": "df772941",
					"totalDeposits()": "7d882097",
					"withdraw(uint256)": "2e1a7d4d"
				}
			},
			"storageLayout": {
				"storage": [
					{
						"astId": 63,
						"contract": "kipu-bank/contracts/KipuBank.sol:KipuBank",
						"label": "totalDeposits",
						"offset": 0,
						"slot": "0",
						"type": "t_uint256"
					},
					{
						"astId": 68,
						"contract": "kipu-bank/contracts/KipuBank.sol:KipuBank",
						"label": "balances",
						"offset": 0,
						"slot": "1",
						"type": "t_mapping(t_address,t_uint256)"
					},
					{
						"astId": 73,
						"contract": "kipu-bank/contracts/KipuBank.sol:KipuBank",
						"label": "depositCount",
						"offset": 0,
						"slot": "2",
						"type": "t_mapping(t_address,t_uint256)"
					},
					{
						"astId": 78,
						"contract": "kipu-bank/contracts/KipuBank.sol:KipuBank",
						"label": "withdrawCount",
						"offset": 0,
						"slot": "3",
						"type": "t_mapping(t_address,t_uint256)"
					}
				],
				"types": {
					"t_address": {
						"encoding": "inplace",
						"label": "address",
						"numberOfBytes": "20"
					},
					"t_mapping(t_address,t_uint256)": {
						"encoding": "mapping",
						"key": "t_address",
						"label": "mapping(address => uint256)",
						"numberOfBytes": "32",
						"value": "t_uint256"
					},
					"t_uint256": {
						"encoding": "inplace",
						"label": "uint256",
						"numberOfBytes": "32"
					}
				}
			},
			"userdoc": {
				"errors": {
					"ExceedsBankCap(uint256,uint256)": [
						{
							"notice": "Reverted when a deposit would exceed the global bank cap"
						}
					],
					"ExceedsPerTxLimit(uint256,uint256)": [
						{
							"notice": "Reverted when a withdraw amount exceeds the per-transaction limit "
						}
					],
					"FallbackNotAllowed()": [
						{
							"notice": "Reverted when calls with calldata to prevent accidental deposits"
						}
					],
					"InsufficientBalance(address,uint256,uint256)": [
						{
							"notice": "Reverted when an account attempts to withdraw more than its balance"
						}
					],
					"InvalidInitParams()": [
						{
							"notice": "Reverted when constructor parameters are invalid"
						}
					],
					"TransferFailed(address,uint256)": [
						{
							"notice": "Reverted when a native transfer {to} fails"
						}
					],
					"ZeroValueNotAllowed()": [
						{
							"notice": "Reverted when a zero value is used where not allowed"
						}
					]
				},
				"events": {
					"Deposit(address,uint256,uint256)": {
						"notice": "Emitted when a user deposits ETH"
					},
					"Withdrawal(address,uint256,uint256)": {
						"notice": "Emitted when a user withdraws ETH"
					}
				},
				"kind": "user",
				"methods": {
					"bankCap()": {
						"notice": "Global cap for total deposits to the bank (immutable)"
					},
					"deposit()": {
						"notice": "Deposit native ETH into your personal vault"
					},
					"getBalance(address)": {
						"notice": "Returns the balance of 'account' in wei"
					},
					"getCounts(address)": {
						"notice": "Returns deposit and withdraw counts for an account"
					},
					"perTxLimit()": {
						"notice": "Withdraw limit per transaction for users (immutable)"
					},
					"totalDeposits()": {
						"notice": "Total deposits currently held in contract (in wei)"
					},
					"withdraw(uint256)": {
						"notice": "Withdraw up to perTxLimit from your vault"
					}
				},
				"version": 1
			}
		}
	}
}