{
	"TavsStable.sol": {
		"TAVSStable": {
			"abi": [
				{
					"inputs": [],
					"stateMutability": "nonpayable",
					"type": "constructor"
				},
				{
					"inputs": [
						{
							"internalType": "address",
							"name": "spender",
							"type": "address"
						},
						{
							"internalType": "uint256",
							"name": "allowance",
							"type": "uint256"
						},
						{
							"internalType": "uint256",
							"name": "needed",
							"type": "uint256"
						}
					],
					"name": "ERC20InsufficientAllowance",
					"type": "error"
				},
				{
					"inputs": [
						{
							"internalType": "address",
							"name": "sender",
							"type": "address"
						},
						{
							"internalType": "uint256",
							"name": "balance",
							"type": "uint256"
						},
						{
							"internalType": "uint256",
							"name": "needed",
							"type": "uint256"
						}
					],
					"name": "ERC20InsufficientBalance",
					"type": "error"
				},
				{
					"inputs": [
						{
							"internalType": "address",
							"name": "approver",
							"type": "address"
						}
					],
					"name": "ERC20InvalidApprover",
					"type": "error"
				},
				{
					"inputs": [
						{
							"internalType": "address",
							"name": "receiver",
							"type": "address"
						}
					],
					"name": "ERC20InvalidReceiver",
					"type": "error"
				},
				{
					"inputs": [
						{
							"internalType": "address",
							"name": "sender",
							"type": "address"
						}
					],
					"name": "ERC20InvalidSender",
					"type": "error"
				},
				{
					"inputs": [
						{
							"internalType": "address",
							"name": "spender",
							"type": "address"
						}
					],
					"name": "ERC20InvalidSpender",
					"type": "error"
				},
				{
					"anonymous": false,
					"inputs": [
						{
							"indexed": true,
							"internalType": "address",
							"name": "owner",
							"type": "address"
						},
						{
							"indexed": true,
							"internalType": "address",
							"name": "spender",
							"type": "address"
						},
						{
							"indexed": false,
							"internalType": "uint256",
							"name": "value",
							"type": "uint256"
						}
					],
					"name": "Approval",
					"type": "event"
				},
				{
					"anonymous": false,
					"inputs": [
						{
							"indexed": true,
							"internalType": "address",
							"name": "user",
							"type": "address"
						},
						{
							"indexed": false,
							"internalType": "uint256",
							"name": "burnAmount",
							"type": "uint256"
						},
						{
							"indexed": false,
							"internalType": "uint256",
							"name": "ethReturned",
							"type": "uint256"
						}
					],
					"name": "Burn",
					"type": "event"
				},
				{
					"anonymous": false,
					"inputs": [
						{
							"indexed": true,
							"internalType": "address",
							"name": "user",
							"type": "address"
						},
						{
							"indexed": false,
							"internalType": "uint256",
							"name": "ethAmount",
							"type": "uint256"
						},
						{
							"indexed": false,
							"internalType": "uint256",
							"name": "mintAmount",
							"type": "uint256"
						}
					],
					"name": "Deposit",
					"type": "event"
				},
				{
					"anonymous": false,
					"inputs": [
						{
							"indexed": true,
							"internalType": "address",
							"name": "user",
							"type": "address"
						},
						{
							"indexed": false,
							"internalType": "uint256",
							"name": "collateralSeized",
							"type": "uint256"
						}
					],
					"name": "Liquidated",
					"type": "event"
				},
				{
					"anonymous": false,
					"inputs": [
						{
							"indexed": true,
							"internalType": "address",
							"name": "from",
							"type": "address"
						},
						{
							"indexed": true,
							"internalType": "address",
							"name": "to",
							"type": "address"
						},
						{
							"indexed": false,
							"internalType": "uint256",
							"name": "value",
							"type": "uint256"
						}
					],
					"name": "Transfer",
					"type": "event"
				},
				{
					"inputs": [],
					"name": "COLLATERAL_RATIO",
					"outputs": [
						{
							"internalType": "uint256",
							"name": "",
							"type": "uint256"
						}
					],
					"stateMutability": "view",
					"type": "function"
				},
				{
					"inputs": [],
					"name": "DATAFEED_PRICE_DECIMALS",
					"outputs": [
						{
							"internalType": "uint256",
							"name": "",
							"type": "uint256"
						}
					],
					"stateMutability": "view",
					"type": "function"
				},
				{
					"inputs": [],
					"name": "DECIMALS_FACTOR",
					"outputs": [
						{
							"internalType": "uint256",
							"name": "",
							"type": "uint256"
						}
					],
					"stateMutability": "view",
					"type": "function"
				},
				{
					"inputs": [
						{
							"internalType": "address",
							"name": "owner",
							"type": "address"
						},
						{
							"internalType": "address",
							"name": "spender",
							"type": "address"
						}
					],
					"name": "allowance",
					"outputs": [
						{
							"internalType": "uint256",
							"name": "",
							"type": "uint256"
						}
					],
					"stateMutability": "view",
					"type": "function"
				},
				{
					"inputs": [
						{
							"internalType": "address",
							"name": "spender",
							"type": "address"
						},
						{
							"internalType": "uint256",
							"name": "value",
							"type": "uint256"
						}
					],
					"name": "approve",
					"outputs": [
						{
							"internalType": "bool",
							"name": "",
							"type": "bool"
						}
					],
					"stateMutability": "nonpayable",
					"type": "function"
				},
				{
					"inputs": [
						{
							"internalType": "address",
							"name": "account",
							"type": "address"
						}
					],
					"name": "balanceOf",
					"outputs": [
						{
							"internalType": "uint256",
							"name": "",
							"type": "uint256"
						}
					],
					"stateMutability": "view",
					"type": "function"
				},
				{
					"inputs": [
						{
							"internalType": "uint256",
							"name": "burnAmount",
							"type": "uint256"
						}
					],
					"name": "burnAndWithdraw",
					"outputs": [],
					"stateMutability": "nonpayable",
					"type": "function"
				},
				{
					"inputs": [
						{
							"internalType": "bytes",
							"name": "",
							"type": "bytes"
						}
					],
					"name": "checkUpkeep",
					"outputs": [
						{
							"internalType": "bool",
							"name": "upkeepNeeded",
							"type": "bool"
						},
						{
							"internalType": "bytes",
							"name": "performData",
							"type": "bytes"
						}
					],
					"stateMutability": "view",
					"type": "function"
				},
				{
					"inputs": [],
					"name": "decimals",
					"outputs": [
						{
							"internalType": "uint8",
							"name": "",
							"type": "uint8"
						}
					],
					"stateMutability": "pure",
					"type": "function"
				},
				{
					"inputs": [],
					"name": "depositAndMint",
					"outputs": [],
					"stateMutability": "payable",
					"type": "function"
				},
				{
					"inputs": [
						{
							"internalType": "uint256",
							"name": "ethAmount",
							"type": "uint256"
						}
					],
					"name": "estimateMintAmount",
					"outputs": [
						{
							"internalType": "uint256",
							"name": "",
							"type": "uint256"
						}
					],
					"stateMutability": "view",
					"type": "function"
				},
				{
					"inputs": [
						{
							"internalType": "uint256",
							"name": "burnAmount",
							"type": "uint256"
						}
					],
					"name": "estimateWithdrawETH",
					"outputs": [
						{
							"internalType": "uint256",
							"name": "",
							"type": "uint256"
						}
					],
					"stateMutability": "view",
					"type": "function"
				},
				{
					"inputs": [
						{
							"internalType": "address",
							"name": "user",
							"type": "address"
						}
					],
					"name": "getCollateralRatio",
					"outputs": [
						{
							"internalType": "uint256",
							"name": "",
							"type": "uint256"
						}
					],
					"stateMutability": "view",
					"type": "function"
				},
				{
					"inputs": [],
					"name": "getLatestPrice",
					"outputs": [
						{
							"internalType": "uint256",
							"name": "",
							"type": "uint256"
						}
					],
					"stateMutability": "view",
					"type": "function"
				},
				{
					"inputs": [
						{
							"internalType": "address",
							"name": "user",
							"type": "address"
						}
					],
					"name": "getUserCollateralUSD",
					"outputs": [
						{
							"internalType": "uint256",
							"name": "",
							"type": "uint256"
						}
					],
					"stateMutability": "view",
					"type": "function"
				},
				{
					"inputs": [],
					"name": "getUsers",
					"outputs": [
						{
							"internalType": "address[]",
							"name": "",
							"type": "address[]"
						}
					],
					"stateMutability": "view",
					"type": "function"
				},
				{
					"inputs": [],
					"name": "liquidationAddress",
					"outputs": [
						{
							"internalType": "address",
							"name": "",
							"type": "address"
						}
					],
					"stateMutability": "view",
					"type": "function"
				},
				{
					"inputs": [],
					"name": "name",
					"outputs": [
						{
							"internalType": "string",
							"name": "",
							"type": "string"
						}
					],
					"stateMutability": "view",
					"type": "function"
				},
				{
					"inputs": [
						{
							"internalType": "bytes",
							"name": "performData",
							"type": "bytes"
						}
					],
					"name": "performUpkeep",
					"outputs": [],
					"stateMutability": "nonpayable",
					"type": "function"
				},
				{
					"inputs": [
						{
							"internalType": "address",
							"name": "",
							"type": "address"
						}
					],
					"name": "positions",
					"outputs": [
						{
							"internalType": "uint256",
							"name": "collateralETH",
							"type": "uint256"
						},
						{
							"internalType": "uint256",
							"name": "stablecoinDebt",
							"type": "uint256"
						}
					],
					"stateMutability": "view",
					"type": "function"
				},
				{
					"inputs": [],
					"name": "priceFeed",
					"outputs": [
						{
							"internalType": "contract AggregatorV3Interface",
							"name": "",
							"type": "address"
						}
					],
					"stateMutability": "view",
					"type": "function"
				},
				{
					"inputs": [],
					"name": "symbol",
					"outputs": [
						{
							"internalType": "string",
							"name": "",
							"type": "string"
						}
					],
					"stateMutability": "view",
					"type": "function"
				},
				{
					"inputs": [],
					"name": "totalSupply",
					"outputs": [
						{
							"internalType": "uint256",
							"name": "",
							"type": "uint256"
						}
					],
					"stateMutability": "view",
					"type": "function"
				},
				{
					"inputs": [
						{
							"internalType": "address",
							"name": "to",
							"type": "address"
						},
						{
							"internalType": "uint256",
							"name": "value",
							"type": "uint256"
						}
					],
					"name": "transfer",
					"outputs": [
						{
							"internalType": "bool",
							"name": "",
							"type": "bool"
						}
					],
					"stateMutability": "nonpayable",
					"type": "function"
				},
				{
					"inputs": [
						{
							"internalType": "address",
							"name": "from",
							"type": "address"
						},
						{
							"internalType": "address",
							"name": "to",
							"type": "address"
						},
						{
							"internalType": "uint256",
							"name": "value",
							"type": "uint256"
						}
					],
					"name": "transferFrom",
					"outputs": [
						{
							"internalType": "bool",
							"name": "",
							"type": "bool"
						}
					],
					"stateMutability": "nonpayable",
					"type": "function"
				},
				{
					"inputs": [
						{
							"internalType": "uint256",
							"name": "",
							"type": "uint256"
						}
					],
					"name": "users",
					"outputs": [
						{
							"internalType": "address",
							"name": "",
							"type": "address"
						}
					],
					"stateMutability": "view",
					"type": "function"
				},
				{
					"stateMutability": "payable",
					"type": "receive"
				}
			],
			"devdoc": {
				"errors": {
					"ERC20InsufficientAllowance(address,uint256,uint256)": [
						{
							"details": "Indicates a failure with the `spender`’s `allowance`. Used in transfers.",
							"params": {
								"allowance": "Amount of tokens a `spender` is allowed to operate with.",
								"needed": "Minimum amount required to perform a transfer.",
								"spender": "Address that may be allowed to operate on tokens without being their owner."
							}
						}
					],
					"ERC20InsufficientBalance(address,uint256,uint256)": [
						{
							"details": "Indicates an error related to the current `balance` of a `sender`. Used in transfers.",
							"params": {
								"balance": "Current balance for the interacting account.",
								"needed": "Minimum amount required to perform a transfer.",
								"sender": "Address whose tokens are being transferred."
							}
						}
					],
					"ERC20InvalidApprover(address)": [
						{
							"details": "Indicates a failure with the `approver` of a token to be approved. Used in approvals.",
							"params": {
								"approver": "Address initiating an approval operation."
							}
						}
					],
					"ERC20InvalidReceiver(address)": [
						{
							"details": "Indicates a failure with the token `receiver`. Used in transfers.",
							"params": {
								"receiver": "Address to which tokens are being transferred."
							}
						}
					],
					"ERC20InvalidSender(address)": [
						{
							"details": "Indicates a failure with the token `sender`. Used in transfers.",
							"params": {
								"sender": "Address whose tokens are being transferred."
							}
						}
					],
					"ERC20InvalidSpender(address)": [
						{
							"details": "Indicates a failure with the `spender` to be approved. Used in approvals.",
							"params": {
								"spender": "Address that may be allowed to operate on tokens without being their owner."
							}
						}
					]
				},
				"events": {
					"Approval(address,address,uint256)": {
						"details": "Emitted when the allowance of a `spender` for an `owner` is set by a call to {approve}. `value` is the new allowance."
					},
					"Transfer(address,address,uint256)": {
						"details": "Emitted when `value` tokens are moved from one account (`from`) to another (`to`). Note that `value` may be zero."
					}
				},
				"kind": "dev",
				"methods": {
					"allowance(address,address)": {
						"details": "Returns the remaining number of tokens that `spender` will be allowed to spend on behalf of `owner` through {transferFrom}. This is zero by default. This value changes when {approve} or {transferFrom} are called."
					},
					"approve(address,uint256)": {
						"details": "See {IERC20-approve}. NOTE: If `value` is the maximum `uint256`, the allowance is not updated on `transferFrom`. This is semantically equivalent to an infinite approval. Requirements: - `spender` cannot be the zero address."
					},
					"balanceOf(address)": {
						"details": "Returns the value of tokens owned by `account`."
					},
					"decimals()": {
						"details": "Returns the number of decimals used to get its user representation. For example, if `decimals` equals `2`, a balance of `505` tokens should be displayed to a user as `5.05` (`505 / 10 ** 2`). Tokens usually opt for a value of 18, imitating the relationship between Ether and Wei. This is the default value returned by this function, unless it's overridden. NOTE: This information is only used for _display_ purposes: it in no way affects any of the arithmetic of the contract, including {IERC20-balanceOf} and {IERC20-transfer}."
					},
					"name()": {
						"details": "Returns the name of the token."
					},
					"performUpkeep(bytes)": {
						"details": "The input to this method should not be trusted, and the caller of the method should not even be restricted to any single registry. Anyone should be able call it, and the input should be validated, there is no guarantee that the data passed in is the performData returned from checkUpkeep. This could happen due to malicious keepers, racing keepers, or simply a state change while the performUpkeep transaction is waiting for confirmation. Always validate the data passed in.",
						"params": {
							"performData": "is the data which was passed back from the checkData simulation. If it is encoded, it can easily be decoded into other types by calling `abi.decode`. This data should not be trusted, and should be validated against the contract's current state."
						}
					},
					"symbol()": {
						"details": "Returns the symbol of the token, usually a shorter version of the name."
					},
					"totalSupply()": {
						"details": "Returns the value of tokens in existence."
					},
					"transfer(address,uint256)": {
						"details": "See {IERC20-transfer}. Requirements: - `to` cannot be the zero address. - the caller must have a balance of at least `value`."
					},
					"transferFrom(address,address,uint256)": {
						"details": "See {IERC20-transferFrom}. Skips emitting an {Approval} event indicating an allowance update. This is not required by the ERC. See {xref-ERC20-_approve-address-address-uint256-bool-}[_approve]. NOTE: Does not update the allowance if the current allowance is the maximum `uint256`. Requirements: - `from` and `to` cannot be the zero address. - `from` must have a balance of at least `value`. - the caller must have allowance for ``from``'s tokens of at least `value`."
					}
				},
				"version": 1
			},
			"evm": {
				"assembly": "    /* \"TavsStable.sol\":313:7963  contract TAVSStable is ERC20, AutomationCompatibleInterface {... */\n  mstore(0x40, 0x80)\n    /* \"TavsStable.sol\":1501:2078  constructor() ERC20(\"TAVS Stable\", \"TAVST\") {... */\n  callvalue\n  dup1\n  iszero\n  tag_1\n  jumpi\n  0x00\n  dup1\n  revert\ntag_1:\n  pop\n    /* \"@openzeppelin/contracts/token/ERC20/ERC20.sol\":1582:1695  constructor(string memory name_, string memory symbol_) {... */\n  mload(0x40)\n  dup1\n  0x40\n  add\n  0x40\n  mstore\n  dup1\n  0x0b\n  dup2\n  mstore\n  0x20\n  add\n  0x5441565320537461626c65000000000000000000000000000000000000000000\n  dup2\n  mstore\n  pop\n  mload(0x40)\n  dup1\n  0x40\n  add\n  0x40\n  mstore\n  dup1\n  0x05\n  dup2\n  mstore\n  0x20\n  add\n  0x5441565354000000000000000000000000000000000000000000000000000000\n  dup2\n  mstore\n  pop\n    /* \"@openzeppelin/contracts/token/ERC20/ERC20.sol\":1656:1661  name_ */\n  dup2\n    /* \"@openzeppelin/contracts/token/ERC20/ERC20.sol\":1648:1653  _name */\n  0x03\n    /* \"@openzeppelin/contracts/token/ERC20/ERC20.sol\":1648:1661  _name = name_ */\n  swap1\n  dup2\n  tag_5\n  swap2\n  swap1\n  tag_6\n  jump\t// in\ntag_5:\n  pop\n    /* \"@openzeppelin/contracts/token/ERC20/ERC20.sol\":1681:1688  symbol_ */\n  dup1\n    /* \"@openzeppelin/contracts/token/ERC20/ERC20.sol\":1671:1678  _symbol */\n  0x04\n    /* \"@openzeppelin/contracts/token/ERC20/ERC20.sol\":1671:1688  _symbol = symbol_ */\n  swap1\n  dup2\n  tag_7\n  swap2\n  swap1\n  tag_6\n  jump\t// in\ntag_7:\n  pop\n    /* \"@openzeppelin/contracts/token/ERC20/ERC20.sol\":1582:1695  constructor(string memory name_, string memory symbol_) {... */\n  pop\n  pop\n    /* \"TavsStable.sol\":1744:1769  address _priceFeedAddress */\n  0x00\n    /* \"TavsStable.sol\":1772:1814  0x694AA1769357215DE4FAC081bf1f309aDC325306 */\n  0x694aa1769357215de4fac081bf1f309adc325306\n    /* \"TavsStable.sol\":1744:1814  address _priceFeedAddress = 0x694AA1769357215DE4FAC081bf1f309aDC325306 */\n  swap1\n  pop\n    /* \"TavsStable.sol\":1859:1876  _priceFeedAddress */\n  dup1\n    /* \"TavsStable.sol\":1825:1834  priceFeed */\n  0x05\n  0x00\n    /* \"TavsStable.sol\":1825:1877  priceFeed = AggregatorV3Interface(_priceFeedAddress) */\n  0x0100\n  exp\n  dup2\n  sload\n  dup2\n  0xffffffffffffffffffffffffffffffffffffffff\n  mul\n  not\n  and\n  swap1\n  dup4\n  0xffffffffffffffffffffffffffffffffffffffff\n  and\n  mul\n  or\n  swap1\n  sstore\n  pop\n    /* \"TavsStable.sol\":1979:2006  address _liquidationAddress */\n  0x00\n    /* \"TavsStable.sol\":2009:2019  msg.sender */\n  caller\n    /* \"TavsStable.sol\":1979:2019  address _liquidationAddress = msg.sender */\n  swap1\n  pop\n    /* \"TavsStable.sol\":2051:2070  _liquidationAddress */\n  dup1\n    /* \"TavsStable.sol\":2030:2048  liquidationAddress */\n  0x06\n  0x00\n    /* \"TavsStable.sol\":2030:2070  liquidationAddress = _liquidationAddress */\n  0x0100\n  exp\n  dup2\n  sload\n  dup2\n  0xffffffffffffffffffffffffffffffffffffffff\n  mul\n  not\n  and\n  swap1\n  dup4\n  0xffffffffffffffffffffffffffffffffffffffff\n  and\n  mul\n  or\n  swap1\n  sstore\n  pop\n    /* \"TavsStable.sol\":1545:2078  {... */\n  pop\n  pop\n    /* \"TavsStable.sol\":313:7963  contract TAVSStable is ERC20, AutomationCompatibleInterface {... */\n  jump(tag_9)\n    /* \"#utility.yul\":7:106   */\ntag_10:\n    /* \"#utility.yul\":59:65   */\n  0x00\n    /* \"#utility.yul\":93:98   */\n  dup2\n    /* \"#utility.yul\":87:99   */\n  mload\n    /* \"#utility.yul\":77:99   */\n  swap1\n  pop\n    /* \"#utility.yul\":7:106   */\n  swap2\n  swap1\n  pop\n  jump\t// out\n    /* \"#utility.yul\":112:292   */\ntag_11:\n    /* \"#utility.yul\":160:237   */\n  0x4e487b7100000000000000000000000000000000000000000000000000000000\n    /* \"#utility.yul\":157:158   */\n  0x00\n    /* \"#utility.yul\":150:238   */\n  mstore\n    /* \"#utility.yul\":257:261   */\n  0x41\n    /* \"#utility.yul\":254:255   */\n  0x04\n    /* \"#utility.yul\":247:262   */\n  mstore\n    /* \"#utility.yul\":281:285   */\n  0x24\n    /* \"#utility.yul\":278:279   */\n  0x00\n    /* \"#utility.yul\":271:286   */\n  revert\n    /* \"#utility.yul\":298:478   */\ntag_12:\n    /* \"#utility.yul\":346:423   */\n  0x4e487b7100000000000000000000000000000000000000000000000000000000\n    /* \"#utility.yul\":343:344   */\n  0x00\n    /* \"#utility.yul\":336:424   */\n  mstore\n    /* \"#utility.yul\":443:447   */\n  0x22\n    /* \"#utility.yul\":440:441   */\n  0x04\n    /* \"#utility.yul\":433:448   */\n  mstore\n    /* \"#utility.yul\":467:471   */\n  0x24\n    /* \"#utility.yul\":464:465   */\n  0x00\n    /* \"#utility.yul\":457:472   */\n  revert\n    /* \"#utility.yul\":484:804   */\ntag_13:\n    /* \"#utility.yul\":528:534   */\n  0x00\n    /* \"#utility.yul\":565:566   */\n  0x02\n    /* \"#utility.yul\":559:563   */\n  dup3\n    /* \"#utility.yul\":555:567   */\n  div\n    /* \"#utility.yul\":545:567   */\n  swap1\n  pop\n    /* \"#utility.yul\":612:613   */\n  0x01\n    /* \"#utility.yul\":606:610   */\n  dup3\n    /* \"#utility.yul\":602:614   */\n  and\n    /* \"#utility.yul\":633:651   */\n  dup1\n    /* \"#utility.yul\":623:704   */\n  tag_35\n  jumpi\n    /* \"#utility.yul\":689:693   */\n  0x7f\n    /* \"#utility.yul\":681:687   */\n  dup3\n    /* \"#utility.yul\":677:694   */\n  and\n    /* \"#utility.yul\":667:694   */\n  swap2\n  pop\n    /* \"#utility.yul\":623:704   */\ntag_35:\n    /* \"#utility.yul\":751:753   */\n  0x20\n    /* \"#utility.yul\":743:749   */\n  dup3\n    /* \"#utility.yul\":740:754   */\n  lt\n    /* \"#utility.yul\":720:738   */\n  dup2\n    /* \"#utility.yul\":717:755   */\n  sub\n    /* \"#utility.yul\":714:798   */\n  tag_36\n  jumpi\n    /* \"#utility.yul\":770:788   */\n  tag_37\n  tag_12\n  jump\t// in\ntag_37:\n    /* \"#utility.yul\":714:798   */\ntag_36:\n    /* \"#utility.yul\":535:804   */\n  pop\n    /* \"#utility.yul\":484:804   */\n  swap2\n  swap1\n  pop\n  jump\t// out\n    /* \"#utility.yul\":810:951   */\ntag_14:\n    /* \"#utility.yul\":859:863   */\n  0x00\n    /* \"#utility.yul\":882:885   */\n  dup2\n    /* \"#utility.yul\":874:885   */\n  swap1\n  pop\n    /* \"#utility.yul\":905:908   */\n  dup2\n    /* \"#utility.yul\":902:903   */\n  0x00\n    /* \"#utility.yul\":895:909   */\n  mstore\n    /* \"#utility.yul\":939:943   */\n  0x20\n    /* \"#utility.yul\":936:937   */\n  0x00\n    /* \"#utility.yul\":926:944   */\n  keccak256\n    /* \"#utility.yul\":918:944   */\n  swap1\n  pop\n    /* \"#utility.yul\":810:951   */\n  swap2\n  swap1\n  pop\n  jump\t// out\n    /* \"#utility.yul\":957:1050   */\ntag_15:\n    /* \"#utility.yul\":994:1000   */\n  0x00\n    /* \"#utility.yul\":1041:1043   */\n  0x20\n    /* \"#utility.yul\":1036:1038   */\n  0x1f\n    /* \"#utility.yul\":1029:1034   */\n  dup4\n    /* \"#utility.yul\":1025:1039   */\n  add\n    /* \"#utility.yul\":1021:1044   */\n  div\n    /* \"#utility.yul\":1011:1044   */\n  swap1\n  pop\n    /* \"#utility.yul\":957:1050   */\n  swap2\n  swap1\n  pop\n  jump\t// out\n    /* \"#utility.yul\":1056:1163   */\ntag_16:\n    /* \"#utility.yul\":1100:1108   */\n  0x00\n    /* \"#utility.yul\":1150:1155   */\n  dup3\n    /* \"#utility.yul\":1144:1148   */\n  dup3\n    /* \"#utility.yul\":1140:1156   */\n  shl\n    /* \"#utility.yul\":1119:1156   */\n  swap1\n  pop\n    /* \"#utility.yul\":1056:1163   */\n  swap3\n  swap2\n  pop\n  pop\n  jump\t// out\n    /* \"#utility.yul\":1169:1562   */\ntag_17:\n    /* \"#utility.yul\":1238:1244   */\n  0x00\n    /* \"#utility.yul\":1288:1289   */\n  0x08\n    /* \"#utility.yul\":1276:1286   */\n  dup4\n    /* \"#utility.yul\":1272:1290   */\n  mul\n    /* \"#utility.yul\":1311:1408   */\n  tag_42\n    /* \"#utility.yul\":1341:1407   */\n  0xffffffffffffffffffffffffffffffffffffffffffffffffffffffffffffffff\n    /* \"#utility.yul\":1330:1339   */\n  dup3\n    /* \"#utility.yul\":1311:1408   */\n  tag_16\n  jump\t// in\ntag_42:\n    /* \"#utility.yul\":1429:1468   */\n  tag_43\n    /* \"#utility.yul\":1459:1467   */\n  dup7\n    /* \"#utility.yul\":1448:1457   */\n  dup4\n    /* \"#utility.yul\":1429:1468   */\n  tag_16\n  jump\t// in\ntag_43:\n    /* \"#utility.yul\":1417:1468   */\n  swap6\n  pop\n    /* \"#utility.yul\":1501:1505   */\n  dup1\n    /* \"#utility.yul\":1497:1506   */\n  not\n    /* \"#utility.yul\":1490:1495   */\n  dup5\n    /* \"#utility.yul\":1486:1507   */\n  and\n    /* \"#utility.yul\":1477:1507   */\n  swap4\n  pop\n    /* \"#utility.yul\":1550:1554   */\n  dup1\n    /* \"#utility.yul\":1540:1548   */\n  dup7\n    /* \"#utility.yul\":1536:1555   */\n  and\n    /* \"#utility.yul\":1529:1534   */\n  dup5\n    /* \"#utility.yul\":1526:1556   */\n  or\n    /* \"#utility.yul\":1516:1556   */\n  swap3\n  pop\n    /* \"#utility.yul\":1245:1562   */\n  pop\n  pop\n    /* \"#utility.yul\":1169:1562   */\n  swap4\n  swap3\n  pop\n  pop\n  pop\n  jump\t// out\n    /* \"#utility.yul\":1568:1645   */\ntag_18:\n    /* \"#utility.yul\":1605:1612   */\n  0x00\n    /* \"#utility.yul\":1634:1639   */\n  dup2\n    /* \"#utility.yul\":1623:1639   */\n  swap1\n  pop\n    /* \"#utility.yul\":1568:1645   */\n  swap2\n  swap1\n  pop\n  jump\t// out\n    /* \"#utility.yul\":1651:1711   */\ntag_19:\n    /* \"#utility.yul\":1679:1682   */\n  0x00\n    /* \"#utility.yul\":1700:1705   */\n  dup2\n    /* \"#utility.yul\":1693:1705   */\n  swap1\n  pop\n    /* \"#utility.yul\":1651:1711   */\n  swap2\n  swap1\n  pop\n  jump\t// out\n    /* \"#utility.yul\":1717:1859   */\ntag_20:\n    /* \"#utility.yul\":1767:1776   */\n  0x00\n    /* \"#utility.yul\":1800:1853   */\n  tag_47\n    /* \"#utility.yul\":1818:1852   */\n  tag_48\n    /* \"#utility.yul\":1827:1851   */\n  tag_49\n    /* \"#utility.yul\":1845:1850   */\n  dup5\n    /* \"#utility.yul\":1827:1851   */\n  tag_18\n  jump\t// in\ntag_49:\n    /* \"#utility.yul\":1818:1852   */\n  tag_19\n  jump\t// in\ntag_48:\n    /* \"#utility.yul\":1800:1853   */\n  tag_18\n  jump\t// in\ntag_47:\n    /* \"#utility.yul\":1787:1853   */\n  swap1\n  pop\n    /* \"#utility.yul\":1717:1859   */\n  swap2\n  swap1\n  pop\n  jump\t// out\n    /* \"#utility.yul\":1865:1940   */\ntag_21:\n    /* \"#utility.yul\":1908:1911   */\n  0x00\n    /* \"#utility.yul\":1929:1934   */\n  dup2\n    /* \"#utility.yul\":1922:1934   */\n  swap1\n  pop\n    /* \"#utility.yul\":1865:1940   */\n  swap2\n  swap1\n  pop\n  jump\t// out\n    /* \"#utility.yul\":1946:2215   */\ntag_22:\n    /* \"#utility.yul\":2056:2095   */\n  tag_52\n    /* \"#utility.yul\":2087:2094   */\n  dup4\n    /* \"#utility.yul\":2056:2095   */\n  tag_20\n  jump\t// in\ntag_52:\n    /* \"#utility.yul\":2117:2208   */\n  tag_53\n    /* \"#utility.yul\":2166:2207   */\n  tag_54\n    /* \"#utility.yul\":2190:2206   */\n  dup3\n    /* \"#utility.yul\":2166:2207   */\n  tag_21\n  jump\t// in\ntag_54:\n    /* \"#utility.yul\":2158:2164   */\n  dup5\n    /* \"#utility.yul\":2151:2155   */\n  dup5\n    /* \"#utility.yul\":2145:2156   */\n  sload\n    /* \"#utility.yul\":2117:2208   */\n  tag_17\n  jump\t// in\ntag_53:\n    /* \"#utility.yul\":2111:2115   */\n  dup3\n    /* \"#utility.yul\":2104:2209   */\n  sstore\n    /* \"#utility.yul\":2022:2215   */\n  pop\n    /* \"#utility.yul\":1946:2215   */\n  pop\n  pop\n  pop\n  jump\t// out\n    /* \"#utility.yul\":2221:2294   */\ntag_23:\n    /* \"#utility.yul\":2266:2269   */\n  0x00\n    /* \"#utility.yul\":2221:2294   */\n  swap1\n  jump\t// out\n    /* \"#utility.yul\":2300:2489   */\ntag_24:\n    /* \"#utility.yul\":2377:2409   */\n  tag_57\n  tag_23\n  jump\t// in\ntag_57:\n    /* \"#utility.yul\":2418:2483   */\n  tag_58\n    /* \"#utility.yul\":2476:2482   */\n  dup2\n    /* \"#utility.yul\":2468:2474   */\n  dup5\n    /* \"#utility.yul\":2462:2466   */\n  dup5\n    /* \"#utility.yul\":2418:2483   */\n  tag_22\n  jump\t// in\ntag_58:\n    /* \"#utility.yul\":2353:2489   */\n  pop\n    /* \"#utility.yul\":2300:2489   */\n  pop\n  pop\n  jump\t// out\n    /* \"#utility.yul\":2495:2681   */\ntag_25:\n    /* \"#utility.yul\":2555:2675   */\ntag_60:\n    /* \"#utility.yul\":2572:2575   */\n  dup2\n    /* \"#utility.yul\":2565:2570   */\n  dup2\n    /* \"#utility.yul\":2562:2576   */\n  lt\n    /* \"#utility.yul\":2555:2675   */\n  iszero\n  tag_62\n  jumpi\n    /* \"#utility.yul\":2626:2665   */\n  tag_63\n    /* \"#utility.yul\":2663:2664   */\n  0x00\n    /* \"#utility.yul\":2656:2661   */\n  dup3\n    /* \"#utility.yul\":2626:2665   */\n  tag_24\n  jump\t// in\ntag_63:\n    /* \"#utility.yul\":2599:2600   */\n  0x01\n    /* \"#utility.yul\":2592:2597   */\n  dup2\n    /* \"#utility.yul\":2588:2601   */\n  add\n    /* \"#utility.yul\":2579:2601   */\n  swap1\n  pop\n    /* \"#utility.yul\":2555:2675   */\n  jump(tag_60)\ntag_62:\n    /* \"#utility.yul\":2495:2681   */\n  pop\n  pop\n  jump\t// out\n    /* \"#utility.yul\":2687:3230   */\ntag_26:\n    /* \"#utility.yul\":2788:2790   */\n  0x1f\n    /* \"#utility.yul\":2783:2786   */\n  dup3\n    /* \"#utility.yul\":2780:2791   */\n  gt\n    /* \"#utility.yul\":2777:3223   */\n  iszero\n  tag_65\n  jumpi\n    /* \"#utility.yul\":2822:2860   */\n  tag_66\n    /* \"#utility.yul\":2854:2859   */\n  dup2\n    /* \"#utility.yul\":2822:2860   */\n  tag_14\n  jump\t// in\ntag_66:\n    /* \"#utility.yul\":2906:2935   */\n  tag_67\n    /* \"#utility.yul\":2924:2934   */\n  dup5\n    /* \"#utility.yul\":2906:2935   */\n  tag_15\n  jump\t// in\ntag_67:\n    /* \"#utility.yul\":2896:2904   */\n  dup2\n    /* \"#utility.yul\":2892:2936   */\n  add\n    /* \"#utility.yul\":3089:3091   */\n  0x20\n    /* \"#utility.yul\":3077:3087   */\n  dup6\n    /* \"#utility.yul\":3074:3092   */\n  lt\n    /* \"#utility.yul\":3071:3120   */\n  iszero\n  tag_68\n  jumpi\n    /* \"#utility.yul\":3110:3118   */\n  dup2\n    /* \"#utility.yul\":3095:3118   */\n  swap1\n  pop\n    /* \"#utility.yul\":3071:3120   */\ntag_68:\n    /* \"#utility.yul\":3133:3213   */\n  tag_69\n    /* \"#utility.yul\":3189:3211   */\n  tag_70\n    /* \"#utility.yul\":3207:3210   */\n  dup6\n    /* \"#utility.yul\":3189:3211   */\n  tag_15\n  jump\t// in\ntag_70:\n    /* \"#utility.yul\":3179:3187   */\n  dup4\n    /* \"#utility.yul\":3175:3212   */\n  add\n    /* \"#utility.yul\":3162:3173   */\n  dup3\n    /* \"#utility.yul\":3133:3213   */\n  tag_25\n  jump\t// in\ntag_69:\n    /* \"#utility.yul\":2792:3223   */\n  pop\n  pop\n    /* \"#utility.yul\":2777:3223   */\ntag_65:\n    /* \"#utility.yul\":2687:3230   */\n  pop\n  pop\n  pop\n  jump\t// out\n    /* \"#utility.yul\":3236:3353   */\ntag_27:\n    /* \"#utility.yul\":3290:3298   */\n  0x00\n    /* \"#utility.yul\":3340:3345   */\n  dup3\n    /* \"#utility.yul\":3334:3338   */\n  dup3\n    /* \"#utility.yul\":3330:3346   */\n  shr\n    /* \"#utility.yul\":3309:3346   */\n  swap1\n  pop\n    /* \"#utility.yul\":3236:3353   */\n  swap3\n  swap2\n  pop\n  pop\n  jump\t// out\n    /* \"#utility.yul\":3359:3528   */\ntag_28:\n    /* \"#utility.yul\":3403:3409   */\n  0x00\n    /* \"#utility.yul\":3436:3487   */\n  tag_73\n    /* \"#utility.yul\":3484:3485   */\n  0x00\n    /* \"#utility.yul\":3480:3486   */\n  not\n    /* \"#utility.yul\":3472:3477   */\n  dup5\n    /* \"#utility.yul\":3469:3470   */\n  0x08\n    /* \"#utility.yul\":3465:3478   */\n  mul\n    /* \"#utility.yul\":3436:3487   */\n  tag_27\n  jump\t// in\ntag_73:\n    /* \"#utility.yul\":3432:3488   */\n  not\n    /* \"#utility.yul\":3517:3521   */\n  dup1\n    /* \"#utility.yul\":3511:3515   */\n  dup4\n    /* \"#utility.yul\":3507:3522   */\n  and\n    /* \"#utility.yul\":3497:3522   */\n  swap2\n  pop\n    /* \"#utility.yul\":3410:3528   */\n  pop\n    /* \"#utility.yul\":3359:3528   */\n  swap3\n  swap2\n  pop\n  pop\n  jump\t// out\n    /* \"#utility.yul\":3533:3828   */\ntag_29:\n    /* \"#utility.yul\":3609:3613   */\n  0x00\n    /* \"#utility.yul\":3755:3784   */\n  tag_75\n    /* \"#utility.yul\":3780:3783   */\n  dup4\n    /* \"#utility.yul\":3774:3778   */\n  dup4\n    /* \"#utility.yul\":3755:3784   */\n  tag_28\n  jump\t// in\ntag_75:\n    /* \"#utility.yul\":3747:3784   */\n  swap2\n  pop\n    /* \"#utility.yul\":3817:3820   */\n  dup3\n    /* \"#utility.yul\":3814:3815   */\n  0x02\n    /* \"#utility.yul\":3810:3821   */\n  mul\n    /* \"#utility.yul\":3804:3808   */\n  dup3\n    /* \"#utility.yul\":3801:3822   */\n  or\n    /* \"#utility.yul\":3793:3822   */\n  swap1\n  pop\n    /* \"#utility.yul\":3533:3828   */\n  swap3\n  swap2\n  pop\n  pop\n  jump\t// out\n    /* \"#utility.yul\":3833:5228   */\ntag_6:\n    /* \"#utility.yul\":3950:3987   */\n  tag_77\n    /* \"#utility.yul\":3983:3986   */\n  dup3\n    /* \"#utility.yul\":3950:3987   */\n  tag_10\n  jump\t// in\ntag_77:\n    /* \"#utility.yul\":4052:4070   */\n  0xffffffffffffffff\n    /* \"#utility.yul\":4044:4050   */\n  dup2\n    /* \"#utility.yul\":4041:4071   */\n  gt\n    /* \"#utility.yul\":4038:4094   */\n  iszero\n  tag_78\n  jumpi\n    /* \"#utility.yul\":4074:4092   */\n  tag_79\n  tag_11\n  jump\t// in\ntag_79:\n    /* \"#utility.yul\":4038:4094   */\ntag_78:\n    /* \"#utility.yul\":4118:4156   */\n  tag_80\n    /* \"#utility.yul\":4150:4154   */\n  dup3\n    /* \"#utility.yul\":4144:4155   */\n  sload\n    /* \"#utility.yul\":4118:4156   */\n  tag_13\n  jump\t// in\ntag_80:\n    /* \"#utility.yul\":4203:4270   */\n  tag_81\n    /* \"#utility.yul\":4263:4269   */\n  dup3\n    /* \"#utility.yul\":4255:4261   */\n  dup3\n    /* \"#utility.yul\":4249:4253   */\n  dup6\n    /* \"#utility.yul\":4203:4270   */\n  tag_26\n  jump\t// in\ntag_81:\n    /* \"#utility.yul\":4297:4298   */\n  0x00\n    /* \"#utility.yul\":4321:4325   */\n  0x20\n    /* \"#utility.yul\":4308:4325   */\n  swap1\n  pop\n    /* \"#utility.yul\":4353:4355   */\n  0x1f\n    /* \"#utility.yul\":4345:4351   */\n  dup4\n    /* \"#utility.yul\":4342:4356   */\n  gt\n    /* \"#utility.yul\":4370:4371   */\n  0x01\n    /* \"#utility.yul\":4365:4983   */\n  dup2\n  eq\n  tag_83\n  jumpi\n    /* \"#utility.yul\":5027:5028   */\n  0x00\n    /* \"#utility.yul\":5044:5050   */\n  dup5\n    /* \"#utility.yul\":5041:5118   */\n  iszero\n  tag_84\n  jumpi\n    /* \"#utility.yul\":5093:5102   */\n  dup3\n    /* \"#utility.yul\":5088:5091   */\n  dup8\n    /* \"#utility.yul\":5084:5103   */\n  add\n    /* \"#utility.yul\":5078:5104   */\n  mload\n    /* \"#utility.yul\":5069:5104   */\n  swap1\n  pop\n    /* \"#utility.yul\":5041:5118   */\ntag_84:\n    /* \"#utility.yul\":5144:5211   */\n  tag_85\n    /* \"#utility.yul\":5204:5210   */\n  dup6\n    /* \"#utility.yul\":5197:5202   */\n  dup3\n    /* \"#utility.yul\":5144:5211   */\n  tag_29\n  jump\t// in\ntag_85:\n    /* \"#utility.yul\":5138:5142   */\n  dup7\n    /* \"#utility.yul\":5131:5212   */\n  sstore\n    /* \"#utility.yul\":5000:5222   */\n  pop\n    /* \"#utility.yul\":4335:5222   */\n  jump(tag_82)\n    /* \"#utility.yul\":4365:4983   */\ntag_83:\n    /* \"#utility.yul\":4417:4421   */\n  0x1f\n    /* \"#utility.yul\":4413:4422   */\n  not\n    /* \"#utility.yul\":4405:4411   */\n  dup5\n    /* \"#utility.yul\":4401:4423   */\n  and\n    /* \"#utility.yul\":4451:4488   */\n  tag_86\n    /* \"#utility.yul\":4483:4487   */\n  dup7\n    /* \"#utility.yul\":4451:4488   */\n  tag_14\n  jump\t// in\ntag_86:\n    /* \"#utility.yul\":4510:4511   */\n  0x00\n    /* \"#utility.yul\":4524:4732   */\ntag_87:\n    /* \"#utility.yul\":4538:4545   */\n  dup3\n    /* \"#utility.yul\":4535:4536   */\n  dup2\n    /* \"#utility.yul\":4532:4546   */\n  lt\n    /* \"#utility.yul\":4524:4732   */\n  iszero\n  tag_89\n  jumpi\n    /* \"#utility.yul\":4617:4626   */\n  dup5\n    /* \"#utility.yul\":4612:4615   */\n  dup10\n    /* \"#utility.yul\":4608:4627   */\n  add\n    /* \"#utility.yul\":4602:4628   */\n  mload\n    /* \"#utility.yul\":4594:4600   */\n  dup3\n    /* \"#utility.yul\":4587:4629   */\n  sstore\n    /* \"#utility.yul\":4668:4669   */\n  0x01\n    /* \"#utility.yul\":4660:4666   */\n  dup3\n    /* \"#utility.yul\":4656:4670   */\n  add\n    /* \"#utility.yul\":4646:4670   */\n  swap2\n  pop\n    /* \"#utility.yul\":4715:4717   */\n  0x20\n    /* \"#utility.yul\":4704:4713   */\n  dup6\n    /* \"#utility.yul\":4700:4718   */\n  add\n    /* \"#utility.yul\":4687:4718   */\n  swap5\n  pop\n    /* \"#utility.yul\":4561:4565   */\n  0x20\n    /* \"#utility.yul\":4558:4559   */\n  dup2\n    /* \"#utility.yul\":4554:4566   */\n  add\n    /* \"#utility.yul\":4549:4566   */\n  swap1\n  pop\n    /* \"#utility.yul\":4524:4732   */\n  jump(tag_87)\ntag_89:\n    /* \"#utility.yul\":4760:4766   */\n  dup7\n    /* \"#utility.yul\":4751:4758   */\n  dup4\n    /* \"#utility.yul\":4748:4767   */\n  lt\n    /* \"#utility.yul\":4745:4924   */\n  iszero\n  tag_90\n  jumpi\n    /* \"#utility.yul\":4818:4827   */\n  dup5\n    /* \"#utility.yul\":4813:4816   */\n  dup10\n    /* \"#utility.yul\":4809:4828   */\n  add\n    /* \"#utility.yul\":4803:4829   */\n  mload\n    /* \"#utility.yul\":4861:4909   */\n  tag_91\n    /* \"#utility.yul\":4903:4907   */\n  0x1f\n    /* \"#utility.yul\":4895:4901   */\n  dup10\n    /* \"#utility.yul\":4891:4908   */\n  and\n    /* \"#utility.yul\":4880:4889   */\n  dup3\n    /* \"#utility.yul\":4861:4909   */\n  tag_28\n  jump\t// in\ntag_91:\n    /* \"#utility.yul\":4853:4859   */\n  dup4\n    /* \"#utility.yul\":4846:4910   */\n  sstore\n    /* \"#utility.yul\":4768:4924   */\n  pop\n    /* \"#utility.yul\":4745:4924   */\ntag_90:\n    /* \"#utility.yul\":4970:4971   */\n  0x01\n    /* \"#utility.yul\":4966:4967   */\n  0x02\n    /* \"#utility.yul\":4958:4964   */\n  dup9\n    /* \"#utility.yul\":4954:4968   */\n  mul\n    /* \"#utility.yul\":4950:4972   */\n  add\n    /* \"#utility.yul\":4944:4948   */\n  dup9\n    /* \"#utility.yul\":4937:4973   */\n  sstore\n    /* \"#utility.yul\":4372:4983   */\n  pop\n  pop\n  pop\n    /* \"#utility.yul\":4335:5222   */\ntag_82:\n  pop\n    /* \"#utility.yul\":3925:5228   */\n  pop\n  pop\n  pop\n    /* \"#utility.yul\":3833:5228   */\n  pop\n  pop\n  jump\t// out\n    /* \"TavsStable.sol\":313:7963  contract TAVSStable is ERC20, AutomationCompatibleInterface {... */\ntag_9:\n  dataSize(sub_0)\n  dup1\n  dataOffset(sub_0)\n  0x00\n  codecopy\n  0x00\n  return\nstop\n\nsub_0: assembly {\n        /* \"TavsStable.sol\":313:7963  contract TAVSStable is ERC20, AutomationCompatibleInterface {... */\n      mstore(0x40, 0x80)\n      jumpi(tag_1, lt(calldatasize, 0x04))\n      shr(0xe0, calldataload(0x00))\n      dup1\n      0x70a08231\n      gt\n      tag_29\n      jumpi\n      dup1\n      0xa9059cbb\n      gt\n      tag_30\n      jumpi\n      dup1\n      0xd9e69a05\n      gt\n      tag_31\n      jumpi\n      dup1\n      0xd9e69a05\n      eq\n      tag_25\n      jumpi\n      dup1\n      0xdd62ed3e\n      eq\n      tag_26\n      jumpi\n      dup1\n      0xe36b72c6\n      eq\n      tag_27\n      jumpi\n      dup1\n      0xe5c338ee\n      eq\n      tag_28\n      jumpi\n      jump(tag_2)\n    tag_31:\n      dup1\n      0xa9059cbb\n      eq\n      tag_22\n      jumpi\n      dup1\n      0xb5fbc7a0\n      eq\n      tag_23\n      jumpi\n      dup1\n      0xb855fa5b\n      eq\n      tag_24\n      jumpi\n      jump(tag_2)\n    tag_30:\n      dup1\n      0x70a08231\n      eq\n      tag_16\n      jumpi\n      dup1\n      0x741bef1a\n      eq\n      tag_17\n      jumpi\n      dup1\n      0x75b1475d\n      eq\n      tag_18\n      jumpi\n      dup1\n      0x7c695cc1\n      eq\n      tag_19\n      jumpi\n      dup1\n      0x8e15f473\n      eq\n      tag_20\n      jumpi\n      dup1\n      0x95d89b41\n      eq\n      tag_21\n      jumpi\n      jump(tag_2)\n    tag_29:\n      dup1\n      0x313ce567\n      gt\n      tag_32\n      jumpi\n      dup1\n      0x55f57510\n      gt\n      tag_33\n      jumpi\n      dup1\n      0x55f57510\n      eq\n      tag_12\n      jumpi\n      dup1\n      0x663837db\n      eq\n      tag_13\n      jumpi\n      dup1\n      0x6c09395e\n      eq\n      tag_14\n      jumpi\n      dup1\n      0x6e04ff0d\n      eq\n      tag_15\n      jumpi\n      jump(tag_2)\n    tag_33:\n      dup1\n      0x313ce567\n      eq\n      tag_9\n      jumpi\n      dup1\n      0x365b98b2\n      eq\n      tag_10\n      jumpi\n      dup1\n      0x4585e33b\n      eq\n      tag_11\n      jumpi\n      jump(tag_2)\n    tag_32:\n      dup1\n      0xce8e3e\n      eq\n      tag_3\n      jumpi\n      dup1\n      0x06fdde03\n      eq\n      tag_4\n      jumpi\n      dup1\n      0x095ea7b3\n      eq\n      tag_5\n      jumpi\n      dup1\n      0x15a3ba43\n      eq\n      tag_6\n      jumpi\n      dup1\n      0x18160ddd\n      eq\n      tag_7\n      jumpi\n      dup1\n      0x23b872dd\n      eq\n      tag_8\n      jumpi\n      jump(tag_2)\n    tag_1:\n      jumpi(tag_2, calldatasize)\n      stop\n    tag_2:\n      0x00\n      dup1\n      revert\n        /* \"TavsStable.sol\":7718:7810  function getUsers() external view returns (address[] memory) {... */\n    tag_3:\n      callvalue\n      dup1\n      iszero\n      tag_36\n      jumpi\n      0x00\n      dup1\n      revert\n    tag_36:\n      pop\n      tag_37\n      tag_38\n      jump\t// in\n    tag_37:\n      mload(0x40)\n      tag_39\n      swap2\n      swap1\n      tag_40\n      jump\t// in\n    tag_39:\n      mload(0x40)\n      dup1\n      swap2\n      sub\n      swap1\n      return\n        /* \"@openzeppelin/contracts/token/ERC20/ERC20.sol\":1760:1849  function name() public view virtual returns (string memory) {... */\n    tag_4:\n      callvalue\n      dup1\n      iszero\n      tag_41\n      jumpi\n      0x00\n      dup1\n      revert\n    tag_41:\n      pop\n      tag_42\n      tag_43\n      jump\t// in\n    tag_42:\n      mload(0x40)\n      tag_44\n      swap2\n      swap1\n      tag_45\n      jump\t// in\n    tag_44:\n      mload(0x40)\n      dup1\n      swap2\n      sub\n      swap1\n      return\n        /* \"@openzeppelin/contracts/token/ERC20/ERC20.sol\":3902:4088  function approve(address spender, uint256 value) public virtual returns (bool) {... */\n    tag_5:\n      callvalue\n      dup1\n      iszero\n      tag_46\n      jumpi\n      0x00\n      dup1\n      revert\n    tag_46:\n      pop\n      tag_47\n      0x04\n      dup1\n      calldatasize\n      sub\n      dup2\n      add\n      swap1\n      tag_48\n      swap2\n      swap1\n      tag_49\n      jump\t// in\n    tag_48:\n      tag_50\n      jump\t// in\n    tag_47:\n      mload(0x40)\n      tag_51\n      swap2\n      swap1\n      tag_52\n      jump\t// in\n    tag_51:\n      mload(0x40)\n      dup1\n      swap2\n      sub\n      swap1\n      return\n        /* \"TavsStable.sol\":5615:6071  function getCollateralRatio(address user) public view returns (uint256) {... */\n    tag_6:\n      callvalue\n      dup1\n      iszero\n      tag_53\n      jumpi\n      0x00\n      dup1\n      revert\n    tag_53:\n      pop\n      tag_54\n      0x04\n      dup1\n      calldatasize\n      sub\n      dup2\n      add\n      swap1\n      tag_55\n      swap2\n      swap1\n      tag_56\n      jump\t// in\n    tag_55:\n      tag_57\n      jump\t// in\n    tag_54:\n      mload(0x40)\n      tag_58\n      swap2\n      swap1\n      tag_59\n      jump\t// in\n    tag_58:\n      mload(0x40)\n      dup1\n      swap2\n      sub\n      swap1\n      return\n        /* \"@openzeppelin/contracts/token/ERC20/ERC20.sol\":2803:2900  function totalSupply() public view virtual returns (uint256) {... */\n    tag_7:\n      callvalue\n      dup1\n      iszero\n      tag_60\n      jumpi\n      0x00\n      dup1\n      revert\n    tag_60:\n      pop\n      tag_61\n      tag_62\n      jump\t// in\n    tag_61:\n      mload(0x40)\n      tag_63\n      swap2\n      swap1\n      tag_59\n      jump\t// in\n    tag_63:\n      mload(0x40)\n      dup1\n      swap2\n      sub\n      swap1\n      return\n        /* \"@openzeppelin/contracts/token/ERC20/ERC20.sol\":4680:4924  function transferFrom(address from, address to, uint256 value) public virtual returns (bool) {... */\n    tag_8:\n      callvalue\n      dup1\n      iszero\n      tag_64\n      jumpi\n      0x00\n      dup1\n      revert\n    tag_64:\n      pop\n      tag_65\n      0x04\n      dup1\n      calldatasize\n      sub\n      dup2\n      add\n      swap1\n      tag_66\n      swap2\n      swap1\n      tag_67\n      jump\t// in\n    tag_66:\n      tag_68\n      jump\t// in\n    tag_65:\n      mload(0x40)\n      tag_69\n      swap2\n      swap1\n      tag_52\n      jump\t// in\n    tag_69:\n      mload(0x40)\n      dup1\n      swap2\n      sub\n      swap1\n      return\n        /* \"TavsStable.sol\":2086:2170  function decimals() public pure override returns (uint8) {... */\n    tag_9:\n      callvalue\n      dup1\n      iszero\n      tag_70\n      jumpi\n      0x00\n      dup1\n      revert\n    tag_70:\n      pop\n      tag_71\n      tag_72\n      jump\t// in\n    tag_71:\n      mload(0x40)\n      tag_73\n      swap2\n      swap1\n      tag_74\n      jump\t// in\n    tag_73:\n      mload(0x40)\n      dup1\n      swap2\n      sub\n      swap1\n      return\n        /* \"TavsStable.sol\":970:992  address[] public users */\n    tag_10:\n      callvalue\n      dup1\n      iszero\n      tag_75\n      jumpi\n      0x00\n      dup1\n      revert\n    tag_75:\n      pop\n      tag_76\n      0x04\n      dup1\n      calldatasize\n      sub\n      dup2\n      add\n      swap1\n      tag_77\n      swap2\n      swap1\n      tag_78\n      jump\t// in\n    tag_77:\n      tag_79\n      jump\t// in\n    tag_76:\n      mload(0x40)\n      tag_80\n      swap2\n      swap1\n      tag_81\n      jump\t// in\n    tag_80:\n      mload(0x40)\n      dup1\n      swap2\n      sub\n      swap1\n      return\n        /* \"TavsStable.sol\":6888:7650  function performUpkeep(bytes calldata performData) external override {... */\n    tag_11:\n      callvalue\n      dup1\n      iszero\n      tag_82\n      jumpi\n      0x00\n      dup1\n      revert\n    tag_82:\n      pop\n      tag_83\n      0x04\n      dup1\n      calldatasize\n      sub\n      dup2\n      add\n      swap1\n      tag_84\n      swap2\n      swap1\n      tag_85\n      jump\t// in\n    tag_84:\n      tag_86\n      jump\t// in\n    tag_83:\n      stop\n        /* \"TavsStable.sol\":918:963  mapping(address => Position) public positions */\n    tag_12:\n      callvalue\n      dup1\n      iszero\n      tag_87\n      jumpi\n      0x00\n      dup1\n      revert\n    tag_87:\n      pop\n      tag_88\n      0x04\n      dup1\n      calldatasize\n      sub\n      dup2\n      add\n      swap1\n      tag_89\n      swap2\n      swap1\n      tag_56\n      jump\t// in\n    tag_89:\n      tag_90\n      jump\t// in\n    tag_88:\n      mload(0x40)\n      tag_91\n      swap3\n      swap2\n      swap1\n      tag_92\n      jump\t// in\n    tag_91:\n      mload(0x40)\n      dup1\n      swap2\n      sub\n      swap1\n      return\n        /* \"TavsStable.sol\":2756:3454  function depositAndMint() external payable {... */\n    tag_13:\n      tag_93\n      tag_94\n      jump\t// in\n    tag_93:\n      stop\n        /* \"TavsStable.sol\":677:710  address public liquidationAddress */\n    tag_14:\n      callvalue\n      dup1\n      iszero\n      tag_95\n      jumpi\n      0x00\n      dup1\n      revert\n    tag_95:\n      pop\n      tag_96\n      tag_97\n      jump\t// in\n    tag_96:\n      mload(0x40)\n      tag_98\n      swap2\n      swap1\n      tag_81\n      jump\t// in\n    tag_98:\n      mload(0x40)\n      dup1\n      swap2\n      sub\n      swap1\n      return\n        /* \"TavsStable.sol\":6156:6826  function checkUpkeep (bytes calldata) external view override returns (bool upkeepNeeded, bytes memory performData) {... */\n    tag_15:\n      callvalue\n      dup1\n      iszero\n      tag_99\n      jumpi\n      0x00\n      dup1\n      revert\n    tag_99:\n      pop\n      tag_100\n      0x04\n      dup1\n      calldatasize\n      sub\n      dup2\n      add\n      swap1\n      tag_101\n      swap2\n      swap1\n      tag_85\n      jump\t// in\n    tag_101:\n      tag_102\n      jump\t// in\n    tag_100:\n      mload(0x40)\n      tag_103\n      swap3\n      swap2\n      swap1\n      tag_104\n      jump\t// in\n    tag_103:\n      mload(0x40)\n      dup1\n      swap2\n      sub\n      swap1\n      return\n        /* \"@openzeppelin/contracts/token/ERC20/ERC20.sol\":2933:3049  function balanceOf(address account) public view virtual returns (uint256) {... */\n    tag_16:\n      callvalue\n      dup1\n      iszero\n      tag_105\n      jumpi\n      0x00\n      dup1\n      revert\n    tag_105:\n      pop\n      tag_106\n      0x04\n      dup1\n      calldatasize\n      sub\n      dup2\n      add\n      swap1\n      tag_107\n      swap2\n      swap1\n      tag_56\n      jump\t// in\n    tag_107:\n      tag_108\n      jump\t// in\n    tag_106:\n      mload(0x40)\n      tag_109\n      swap2\n      swap1\n      tag_59\n      jump\t// in\n    tag_109:\n      mload(0x40)\n      dup1\n      swap2\n      sub\n      swap1\n      return\n        /* \"TavsStable.sol\":382:420  AggregatorV3Interface public priceFeed */\n    tag_17:\n      callvalue\n      dup1\n      iszero\n      tag_110\n      jumpi\n      0x00\n      dup1\n      revert\n    tag_110:\n      pop\n      tag_111\n      tag_112\n      jump\t// in\n    tag_111:\n      mload(0x40)\n      tag_113\n      swap2\n      swap1\n      tag_114\n      jump\t// in\n    tag_113:\n      mload(0x40)\n      dup1\n      swap2\n      sub\n      swap1\n      return\n        /* \"TavsStable.sol\":503:554  uint256 public constant DATAFEED_PRICE_DECIMALS = 8 */\n    tag_18:\n      callvalue\n      dup1\n      iszero\n      tag_115\n      jumpi\n      0x00\n      dup1\n      revert\n    tag_115:\n      pop\n      tag_116\n      tag_117\n      jump\t// in\n    tag_116:\n      mload(0x40)\n      tag_118\n      swap2\n      swap1\n      tag_59\n      jump\t// in\n    tag_118:\n      mload(0x40)\n      dup1\n      swap2\n      sub\n      swap1\n      return\n        /* \"TavsStable.sol\":4233:4893  function burnAndWithdraw(uint256 burnAmount) external {... */\n    tag_19:\n      callvalue\n      dup1\n      iszero\n      tag_119\n      jumpi\n      0x00\n      dup1\n      revert\n    tag_119:\n      pop\n      tag_120\n      0x04\n      dup1\n      calldatasize\n      sub\n      dup2\n      add\n      swap1\n      tag_121\n      swap2\n      swap1\n      tag_78\n      jump\t// in\n    tag_121:\n      tag_122\n      jump\t// in\n    tag_120:\n      stop\n        /* \"TavsStable.sol\":4929:5151  function getLatestPrice() public view returns (uint256) {... */\n    tag_20:\n      callvalue\n      dup1\n      iszero\n      tag_123\n      jumpi\n      0x00\n      dup1\n      revert\n    tag_123:\n      pop\n      tag_124\n      tag_125\n      jump\t// in\n    tag_124:\n      mload(0x40)\n      tag_126\n      swap2\n      swap1\n      tag_59\n      jump\t// in\n    tag_126:\n      mload(0x40)\n      dup1\n      swap2\n      sub\n      swap1\n      return\n        /* \"@openzeppelin/contracts/token/ERC20/ERC20.sol\":1962:2055  function symbol() public view virtual returns (string memory) {... */\n    tag_21:\n      callvalue\n      dup1\n      iszero\n      tag_127\n      jumpi\n      0x00\n      dup1\n      revert\n    tag_127:\n      pop\n      tag_128\n      tag_129\n      jump\t// in\n    tag_128:\n      mload(0x40)\n      tag_130\n      swap2\n      swap1\n      tag_45\n      jump\t// in\n    tag_130:\n      mload(0x40)\n      dup1\n      swap2\n      sub\n      swap1\n      return\n        /* \"@openzeppelin/contracts/token/ERC20/ERC20.sol\":3244:3422  function transfer(address to, uint256 value) public virtual returns (bool) {... */\n    tag_22:\n      callvalue\n      dup1\n      iszero\n      tag_131\n      jumpi\n      0x00\n      dup1\n      revert\n    tag_131:\n      pop\n      tag_132\n      0x04\n      dup1\n      calldatasize\n      sub\n      dup2\n      add\n      swap1\n      tag_133\n      swap2\n      swap1\n      tag_49\n      jump\t// in\n    tag_133:\n      tag_134\n      jump\t// in\n    tag_132:\n      mload(0x40)\n      tag_135\n      swap2\n      swap1\n      tag_52\n      jump\t// in\n    tag_135:\n      mload(0x40)\n      dup1\n      swap2\n      sub\n      swap1\n      return\n        /* \"TavsStable.sol\":2178:2712  function estimateMintAmount(uint256 ethAmount) public view returns (uint256) { // estima quantidade de stablecoin vai ser emitida com base na quantidade de ETH... */\n    tag_23:\n      callvalue\n      dup1\n      iszero\n      tag_136\n      jumpi\n      0x00\n      dup1\n      revert\n    tag_136:\n      pop\n      tag_137\n      0x04\n      dup1\n      calldatasize\n      sub\n      dup2\n      add\n      swap1\n      tag_138\n      swap2\n      swap1\n      tag_78\n      jump\t// in\n    tag_138:\n      tag_139\n      jump\t// in\n    tag_137:\n      mload(0x40)\n      tag_140\n      swap2\n      swap1\n      tag_59\n      jump\t// in\n    tag_140:\n      mload(0x40)\n      dup1\n      swap2\n      sub\n      swap1\n      return\n        /* \"TavsStable.sol\":3462:4174  function estimateWithdrawETH(uint256 burnAmount) public view returns (uint256) {... */\n    tag_24:\n      callvalue\n      dup1\n      iszero\n      tag_141\n      jumpi\n      0x00\n      dup1\n      revert\n    tag_141:\n      pop\n      tag_142\n      0x04\n      dup1\n      calldatasize\n      sub\n      dup2\n      add\n      swap1\n      tag_143\n      swap2\n      swap1\n      tag_78\n      jump\t// in\n    tag_143:\n      tag_144\n      jump\t// in\n    tag_142:\n      mload(0x40)\n      tag_145\n      swap2\n      swap1\n      tag_59\n      jump\t// in\n    tag_145:\n      mload(0x40)\n      dup1\n      swap2\n      sub\n      swap1\n      return\n        /* \"TavsStable.sol\":429:475  uint256 public constant COLLATERAL_RATIO = 150 */\n    tag_25:\n      callvalue\n      dup1\n      iszero\n      tag_146\n      jumpi\n      0x00\n      dup1\n      revert\n    tag_146:\n      pop\n      tag_147\n      tag_148\n      jump\t// in\n    tag_147:\n      mload(0x40)\n      tag_149\n      swap2\n      swap1\n      tag_59\n      jump\t// in\n    tag_149:\n      mload(0x40)\n      dup1\n      swap2\n      sub\n      swap1\n      return\n        /* \"@openzeppelin/contracts/token/ERC20/ERC20.sol\":3455:3595  function allowance(address owner, address spender) public view virtual returns (uint256) {... */\n    tag_26:\n      callvalue\n      dup1\n      iszero\n      tag_150\n      jumpi\n      0x00\n      dup1\n      revert\n    tag_150:\n      pop\n      tag_151\n      0x04\n      dup1\n      calldatasize\n      sub\n      dup2\n      add\n      swap1\n      tag_152\n      swap2\n      swap1\n      tag_153\n      jump\t// in\n    tag_152:\n      tag_154\n      jump\t// in\n    tag_151:\n      mload(0x40)\n      tag_155\n      swap2\n      swap1\n      tag_59\n      jump\t// in\n    tag_155:\n      mload(0x40)\n      dup1\n      swap2\n      sub\n      swap1\n      return\n        /* \"TavsStable.sol\":590:635  uint256 public constant DECIMALS_FACTOR = 100 */\n    tag_27:\n      callvalue\n      dup1\n      iszero\n      tag_156\n      jumpi\n      0x00\n      dup1\n      revert\n    tag_156:\n      pop\n      tag_157\n      tag_158\n      jump\t// in\n    tag_157:\n      mload(0x40)\n      tag_159\n      swap2\n      swap1\n      tag_59\n      jump\t// in\n    tag_159:\n      mload(0x40)\n      dup1\n      swap2\n      sub\n      swap1\n      return\n        /* \"TavsStable.sol\":5205:5558  function getUserCollateralUSD(address user) public view returns (uint256) {... */\n    tag_28:\n      callvalue\n      dup1\n      iszero\n      tag_160\n      jumpi\n      0x00\n      dup1\n      revert\n    tag_160:\n      pop\n      tag_161\n      0x04\n      dup1\n      calldatasize\n      sub\n      dup2\n      add\n      swap1\n      tag_162\n      swap2\n      swap1\n      tag_56\n      jump\t// in\n    tag_162:\n      tag_163\n      jump\t// in\n    tag_161:\n      mload(0x40)\n      tag_164\n      swap2\n      swap1\n      tag_59\n      jump\t// in\n    tag_164:\n      mload(0x40)\n      dup1\n      swap2\n      sub\n      swap1\n      return\n        /* \"TavsStable.sol\":7718:7810  function getUsers() external view returns (address[] memory) {... */\n    tag_38:\n        /* \"TavsStable.sol\":7761:7777  address[] memory */\n      0x60\n        /* \"TavsStable.sol\":7797:7802  users */\n      0x08\n        /* \"TavsStable.sol\":7790:7802  return users */\n      dup1\n      sload\n      dup1\n      0x20\n      mul\n      0x20\n      add\n      mload(0x40)\n      swap1\n      dup2\n      add\n      0x40\n      mstore\n      dup1\n      swap3\n      swap2\n      swap1\n      dup2\n      dup2\n      mstore\n      0x20\n      add\n      dup3\n      dup1\n      sload\n      dup1\n      iszero\n      tag_166\n      jumpi\n      0x20\n      mul\n      dup3\n      add\n      swap2\n      swap1\n      0x00\n      mstore\n      keccak256(0x00, 0x20)\n      swap1\n    tag_167:\n      dup2\n      0x00\n      swap1\n      sload\n      swap1\n      0x0100\n      exp\n      swap1\n      div\n      0xffffffffffffffffffffffffffffffffffffffff\n      and\n      0xffffffffffffffffffffffffffffffffffffffff\n      and\n      dup2\n      mstore\n      0x20\n      add\n      swap1\n      0x01\n      add\n      swap1\n      dup1\n      dup4\n      gt\n      tag_167\n      jumpi\n    tag_166:\n      pop\n      pop\n      pop\n      pop\n      pop\n      swap1\n      pop\n        /* \"TavsStable.sol\":7718:7810  function getUsers() external view returns (address[] memory) {... */\n      swap1\n      jump\t// out\n        /* \"@openzeppelin/contracts/token/ERC20/ERC20.sol\":1760:1849  function name() public view virtual returns (string memory) {... */\n    tag_43:\n        /* \"@openzeppelin/contracts/token/ERC20/ERC20.sol\":1805:1818  string memory */\n      0x60\n        /* \"@openzeppelin/contracts/token/ERC20/ERC20.sol\":1837:1842  _name */\n      0x03\n        /* \"@openzeppelin/contracts/token/ERC20/ERC20.sol\":1830:1842  return _name */\n      dup1\n      sload\n      tag_169\n      swap1\n      tag_170\n      jump\t// in\n    tag_169:\n      dup1\n      0x1f\n      add\n      0x20\n      dup1\n      swap2\n      div\n      mul\n      0x20\n      add\n      mload(0x40)\n      swap1\n      dup2\n      add\n      0x40\n      mstore\n      dup1\n      swap3\n      swap2\n      swap1\n      dup2\n      dup2\n      mstore\n      0x20\n      add\n      dup3\n      dup1\n      sload\n      tag_171\n      swap1\n      tag_170\n      jump\t// in\n    tag_171:\n      dup1\n      iszero\n      tag_172\n      jumpi\n      dup1\n      0x1f\n      lt\n      tag_173\n      jumpi\n      0x0100\n      dup1\n      dup4\n      sload\n      div\n      mul\n      dup4\n      mstore\n      swap2\n      0x20\n      add\n      swap2\n      jump(tag_172)\n    tag_173:\n      dup3\n      add\n      swap2\n      swap1\n      0x00\n      mstore\n      keccak256(0x00, 0x20)\n      swap1\n    tag_174:\n      dup2\n      sload\n      dup2\n      mstore\n      swap1\n      0x01\n      add\n      swap1\n      0x20\n      add\n      dup1\n      dup4\n      gt\n      tag_174\n      jumpi\n      dup3\n      swap1\n      sub\n      0x1f\n      and\n      dup3\n      add\n      swap2\n    tag_172:\n      pop\n      pop\n      pop\n      pop\n      pop\n      swap1\n      pop\n        /* \"@openzeppelin/contracts/token/ERC20/ERC20.sol\":1760:1849  function name() public view virtual returns (string memory) {... */\n      swap1\n      jump\t// out\n        /* \"@openzeppelin/contracts/token/ERC20/ERC20.sol\":3902:4088  function approve(address spender, uint256 value) public virtual returns (bool) {... */\n    tag_50:\n        /* \"@openzeppelin/contracts/token/ERC20/ERC20.sol\":3975:3979  bool */\n      0x00\n        /* \"@openzeppelin/contracts/token/ERC20/ERC20.sol\":3991:4004  address owner */\n      dup1\n        /* \"@openzeppelin/contracts/token/ERC20/ERC20.sol\":4007:4019  _msgSender() */\n      tag_176\n        /* \"@openzeppelin/contracts/token/ERC20/ERC20.sol\":4007:4017  _msgSender */\n      tag_177\n        /* \"@openzeppelin/contracts/token/ERC20/ERC20.sol\":4007:4019  _msgSender() */\n      jump\t// in\n    tag_176:\n        /* \"@openzeppelin/contracts/token/ERC20/ERC20.sol\":3991:4019  address owner = _msgSender() */\n      swap1\n      pop\n        /* \"@openzeppelin/contracts/token/ERC20/ERC20.sol\":4029:4060  _approve(owner, spender, value) */\n      tag_178\n        /* \"@openzeppelin/contracts/token/ERC20/ERC20.sol\":4038:4043  owner */\n      dup2\n        /* \"@openzeppelin/contracts/token/ERC20/ERC20.sol\":4045:4052  spender */\n      dup6\n        /* \"@openzeppelin/contracts/token/ERC20/ERC20.sol\":4054:4059  value */\n      dup6\n        /* \"@openzeppelin/contracts/token/ERC20/ERC20.sol\":4029:4037  _approve */\n      tag_179\n        /* \"@openzeppelin/contracts/token/ERC20/ERC20.sol\":4029:4060  _approve(owner, spender, value) */\n      jump\t// in\n    tag_178:\n        /* \"@openzeppelin/contracts/token/ERC20/ERC20.sol\":4077:4081  true */\n      0x01\n        /* \"@openzeppelin/contracts/token/ERC20/ERC20.sol\":4070:4081  return true */\n      swap2\n      pop\n      pop\n        /* \"@openzeppelin/contracts/token/ERC20/ERC20.sol\":3902:4088  function approve(address spender, uint256 value) public virtual returns (bool) {... */\n      swap3\n      swap2\n      pop\n      pop\n      jump\t// out\n        /* \"TavsStable.sol\":5615:6071  function getCollateralRatio(address user) public view returns (uint256) {... */\n    tag_57:\n        /* \"TavsStable.sol\":5678:5685  uint256 */\n      0x00\n        /* \"TavsStable.sol\":5698:5717  Position memory pos */\n      dup1\n        /* \"TavsStable.sol\":5720:5729  positions */\n      0x07\n        /* \"TavsStable.sol\":5720:5735  positions[user] */\n      0x00\n        /* \"TavsStable.sol\":5730:5734  user */\n      dup5\n        /* \"TavsStable.sol\":5720:5735  positions[user] */\n      0xffffffffffffffffffffffffffffffffffffffff\n      and\n      0xffffffffffffffffffffffffffffffffffffffff\n      and\n      dup2\n      mstore\n      0x20\n      add\n      swap1\n      dup2\n      mstore\n      0x20\n      add\n      0x00\n      keccak256\n        /* \"TavsStable.sol\":5698:5735  Position memory pos = positions[user] */\n      mload(0x40)\n      dup1\n      0x40\n      add\n      0x40\n      mstore\n      swap1\n      dup2\n      0x00\n      dup3\n      add\n      sload\n      dup2\n      mstore\n      0x20\n      add\n      0x01\n      dup3\n      add\n      sload\n      dup2\n      mstore\n      pop\n      pop\n      swap1\n      pop\n        /* \"TavsStable.sol\":5772:5773  0 */\n      0x00\n        /* \"TavsStable.sol\":5750:5753  pos */\n      dup2\n        /* \"TavsStable.sol\":5750:5768  pos.stablecoinDebt */\n      0x20\n      add\n      mload\n        /* \"TavsStable.sol\":5750:5773  pos.stablecoinDebt == 0 */\n      sub\n        /* \"TavsStable.sol\":5746:5799  if (pos.stablecoinDebt == 0) return type(uint256).max */\n      tag_181\n      jumpi\n        /* \"TavsStable.sol\":5782:5799  type(uint256).max */\n      0xffffffffffffffffffffffffffffffffffffffffffffffffffffffffffffffff\n        /* \"TavsStable.sol\":5775:5799  return type(uint256).max */\n      swap2\n      pop\n      pop\n      jump(tag_180)\n        /* \"TavsStable.sol\":5746:5799  if (pos.stablecoinDebt == 0) return type(uint256).max */\n    tag_181:\n        /* \"TavsStable.sol\":5812:5833  uint256 collateralUSD */\n      0x00\n        /* \"TavsStable.sol\":5836:5862  getUserCollateralUSD(user) */\n      tag_182\n        /* \"TavsStable.sol\":5857:5861  user */\n      dup5\n        /* \"TavsStable.sol\":5836:5856  getUserCollateralUSD */\n      tag_163\n        /* \"TavsStable.sol\":5836:5862  getUserCollateralUSD(user) */\n      jump\t// in\n    tag_182:\n        /* \"TavsStable.sol\":5812:5862  uint256 collateralUSD = getUserCollateralUSD(user) */\n      swap1\n      pop\n        /* \"TavsStable.sol\":6045:6048  pos */\n      dup2\n        /* \"TavsStable.sol\":6045:6063  pos.stablecoinDebt */\n      0x20\n      add\n      mload\n        /* \"TavsStable.sol\":6029:6042  collateralUSD */\n      dup2\n        /* \"TavsStable.sol\":6029:6063  collateralUSD / pos.stablecoinDebt */\n      tag_183\n      swap2\n      swap1\n      tag_184\n      jump\t// in\n    tag_183:\n        /* \"TavsStable.sol\":6022:6063  return collateralUSD / pos.stablecoinDebt */\n      swap3\n      pop\n      pop\n      pop\n        /* \"TavsStable.sol\":5615:6071  function getCollateralRatio(address user) public view returns (uint256) {... */\n    tag_180:\n      swap2\n      swap1\n      pop\n      jump\t// out\n        /* \"@openzeppelin/contracts/token/ERC20/ERC20.sol\":2803:2900  function totalSupply() public view virtual returns (uint256) {... */\n    tag_62:\n        /* \"@openzeppelin/contracts/token/ERC20/ERC20.sol\":2855:2862  uint256 */\n      0x00\n        /* \"@openzeppelin/contracts/token/ERC20/ERC20.sol\":2881:2893  _totalSupply */\n      sload(0x02)\n        /* \"@openzeppelin/contracts/token/ERC20/ERC20.sol\":2874:2893  return _totalSupply */\n      swap1\n      pop\n        /* \"@openzeppelin/contracts/token/ERC20/ERC20.sol\":2803:2900  function totalSupply() public view virtual returns (uint256) {... */\n      swap1\n      jump\t// out\n        /* \"@openzeppelin/contracts/token/ERC20/ERC20.sol\":4680:4924  function transferFrom(address from, address to, uint256 value) public virtual returns (bool) {... */\n    tag_68:\n        /* \"@openzeppelin/contracts/token/ERC20/ERC20.sol\":4767:4771  bool */\n      0x00\n        /* \"@openzeppelin/contracts/token/ERC20/ERC20.sol\":4783:4798  address spender */\n      dup1\n        /* \"@openzeppelin/contracts/token/ERC20/ERC20.sol\":4801:4813  _msgSender() */\n      tag_187\n        /* \"@openzeppelin/contracts/token/ERC20/ERC20.sol\":4801:4811  _msgSender */\n      tag_177\n        /* \"@openzeppelin/contracts/token/ERC20/ERC20.sol\":4801:4813  _msgSender() */\n      jump\t// in\n    tag_187:\n        /* \"@openzeppelin/contracts/token/ERC20/ERC20.sol\":4783:4813  address spender = _msgSender() */\n      swap1\n      pop\n        /* \"@openzeppelin/contracts/token/ERC20/ERC20.sol\":4823:4860  _spendAllowance(from, spender, value) */\n      tag_188\n        /* \"@openzeppelin/contracts/token/ERC20/ERC20.sol\":4839:4843  from */\n      dup6\n        /* \"@openzeppelin/contracts/token/ERC20/ERC20.sol\":4845:4852  spender */\n      dup3\n        /* \"@openzeppelin/contracts/token/ERC20/ERC20.sol\":4854:4859  value */\n      dup6\n        /* \"@openzeppelin/contracts/token/ERC20/ERC20.sol\":4823:4838  _spendAllowance */\n      tag_189\n        /* \"@openzeppelin/contracts/token/ERC20/ERC20.sol\":4823:4860  _spendAllowance(from, spender, value) */\n      jump\t// in\n    tag_188:\n        /* \"@openzeppelin/contracts/token/ERC20/ERC20.sol\":4870:4896  _transfer(from, to, value) */\n      tag_190\n        /* \"@openzeppelin/contracts/token/ERC20/ERC20.sol\":4880:4884  from */\n      dup6\n        /* \"@openzeppelin/contracts/token/ERC20/ERC20.sol\":4886:4888  to */\n      dup6\n        /* \"@openzeppelin/contracts/token/ERC20/ERC20.sol\":4890:4895  value */\n      dup6\n        /* \"@openzeppelin/contracts/token/ERC20/ERC20.sol\":4870:4879  _transfer */\n      tag_191\n        /* \"@openzeppelin/contracts/token/ERC20/ERC20.sol\":4870:4896  _transfer(from, to, value) */\n      jump\t// in\n    tag_190:\n        /* \"@openzeppelin/contracts/token/ERC20/ERC20.sol\":4913:4917  true */\n      0x01\n        /* \"@openzeppelin/contracts/token/ERC20/ERC20.sol\":4906:4917  return true */\n      swap2\n      pop\n      pop\n        /* \"@openzeppelin/contracts/token/ERC20/ERC20.sol\":4680:4924  function transferFrom(address from, address to, uint256 value) public virtual returns (bool) {... */\n      swap4\n      swap3\n      pop\n      pop\n      pop\n      jump\t// out\n        /* \"TavsStable.sol\":2086:2170  function decimals() public pure override returns (uint8) {... */\n    tag_72:\n        /* \"TavsStable.sol\":2136:2141  uint8 */\n      0x00\n        /* \"TavsStable.sol\":2161:2162  2 */\n      0x02\n        /* \"TavsStable.sol\":2154:2162  return 2 */\n      swap1\n      pop\n        /* \"TavsStable.sol\":2086:2170  function decimals() public pure override returns (uint8) {... */\n      swap1\n      jump\t// out\n        /* \"TavsStable.sol\":970:992  address[] public users */\n    tag_79:\n      0x08\n      dup2\n      dup2\n      sload\n      dup2\n      lt\n      tag_193\n      jumpi\n      0x00\n      dup1\n      revert\n    tag_193:\n      swap1\n      0x00\n      mstore\n      keccak256(0x00, 0x20)\n      add\n      0x00\n      swap2\n      pop\n      sload\n      swap1\n      0x0100\n      exp\n      swap1\n      div\n      0xffffffffffffffffffffffffffffffffffffffff\n      and\n      dup2\n      jump\t// out\n        /* \"TavsStable.sol\":6888:7650  function performUpkeep(bytes calldata performData) external override {... */\n    tag_86:\n        /* \"TavsStable.sol\":6968:6980  address user */\n      0x00\n        /* \"TavsStable.sol\":6994:7005  performData */\n      dup3\n      dup3\n        /* \"TavsStable.sol\":6983:7017  abi.decode(performData, (address)) */\n      dup2\n      add\n      swap1\n      tag_196\n      swap2\n      swap1\n      tag_197\n      jump\t// in\n    tag_196:\n        /* \"TavsStable.sol\":6968:7017  address user = abi.decode(performData, (address)) */\n      swap1\n      pop\n        /* \"TavsStable.sol\":472:475  150 */\n      0x96\n        /* \"TavsStable.sol\":7036:7060  getCollateralRatio(user) */\n      tag_198\n        /* \"TavsStable.sol\":7055:7059  user */\n      dup3\n        /* \"TavsStable.sol\":7036:7054  getCollateralRatio */\n      tag_57\n        /* \"TavsStable.sol\":7036:7060  getCollateralRatio(user) */\n      jump\t// in\n    tag_198:\n        /* \"TavsStable.sol\":7036:7079  getCollateralRatio(user) < COLLATERAL_RATIO */\n      lt\n        /* \"TavsStable.sol\":7028:7105  require(getCollateralRatio(user) < COLLATERAL_RATIO, \"User not liquidatable\") */\n      tag_199\n      jumpi\n      mload(0x40)\n      0x08c379a000000000000000000000000000000000000000000000000000000000\n      dup2\n      mstore\n      0x04\n      add\n      tag_200\n      swap1\n      tag_201\n      jump\t// in\n    tag_200:\n      mload(0x40)\n      dup1\n      swap2\n      sub\n      swap1\n      revert\n    tag_199:\n        /* \"TavsStable.sol\":7159:7187  Position memory positionUser */\n      0x00\n        /* \"TavsStable.sol\":7190:7199  positions */\n      0x07\n        /* \"TavsStable.sol\":7190:7205  positions[user] */\n      0x00\n        /* \"TavsStable.sol\":7200:7204  user */\n      dup4\n        /* \"TavsStable.sol\":7190:7205  positions[user] */\n      0xffffffffffffffffffffffffffffffffffffffff\n      and\n      0xffffffffffffffffffffffffffffffffffffffff\n      and\n      dup2\n      mstore\n      0x20\n      add\n      swap1\n      dup2\n      mstore\n      0x20\n      add\n      0x00\n      keccak256\n        /* \"TavsStable.sol\":7159:7205  Position memory positionUser = positions[user] */\n      mload(0x40)\n      dup1\n      0x40\n      add\n      0x40\n      mstore\n      swap1\n      dup2\n      0x00\n      dup3\n      add\n      sload\n      dup2\n      mstore\n      0x20\n      add\n      0x01\n      dup3\n      add\n      sload\n      dup2\n      mstore\n      pop\n      pop\n      swap1\n      pop\n        /* \"TavsStable.sol\":7242:7282  _burn(user, positionUser.stablecoinDebt) */\n      tag_202\n        /* \"TavsStable.sol\":7248:7252  user */\n      dup3\n        /* \"TavsStable.sol\":7254:7266  positionUser */\n      dup3\n        /* \"TavsStable.sol\":7254:7281  positionUser.stablecoinDebt */\n      0x20\n      add\n      mload\n        /* \"TavsStable.sol\":7242:7247  _burn */\n      tag_203\n        /* \"TavsStable.sol\":7242:7282  _burn(user, positionUser.stablecoinDebt) */\n      jump\t// in\n    tag_202:\n        /* \"TavsStable.sol\":7333:7354  uint256 collateralETH */\n      0x00\n        /* \"TavsStable.sol\":7357:7366  positions */\n      0x07\n        /* \"TavsStable.sol\":7357:7372  positions[user] */\n      0x00\n        /* \"TavsStable.sol\":7367:7371  user */\n      dup5\n        /* \"TavsStable.sol\":7357:7372  positions[user] */\n      0xffffffffffffffffffffffffffffffffffffffff\n      and\n      0xffffffffffffffffffffffffffffffffffffffff\n      and\n      dup2\n      mstore\n      0x20\n      add\n      swap1\n      dup2\n      mstore\n      0x20\n      add\n      0x00\n      keccak256\n        /* \"TavsStable.sol\":7357:7386  positions[user].collateralETH */\n      0x00\n      add\n      sload\n        /* \"TavsStable.sol\":7333:7386  uint256 collateralETH = positions[user].collateralETH */\n      swap1\n      pop\n        /* \"TavsStable.sol\":7486:7487  0 */\n      0x00\n        /* \"TavsStable.sol\":7454:7463  positions */\n      0x07\n        /* \"TavsStable.sol\":7454:7469  positions[user] */\n      0x00\n        /* \"TavsStable.sol\":7464:7468  user */\n      dup6\n        /* \"TavsStable.sol\":7454:7469  positions[user] */\n      0xffffffffffffffffffffffffffffffffffffffff\n      and\n      0xffffffffffffffffffffffffffffffffffffffff\n      and\n      dup2\n      mstore\n      0x20\n      add\n      swap1\n      dup2\n      mstore\n      0x20\n      add\n      0x00\n      keccak256\n        /* \"TavsStable.sol\":7454:7483  positions[user].collateralETH */\n      0x00\n      add\n        /* \"TavsStable.sol\":7454:7487  positions[user].collateralETH = 0 */\n      dup2\n      swap1\n      sstore\n      pop\n        /* \"TavsStable.sol\":7531:7532  0 */\n      0x00\n        /* \"TavsStable.sol\":7498:7507  positions */\n      0x07\n        /* \"TavsStable.sol\":7498:7513  positions[user] */\n      0x00\n        /* \"TavsStable.sol\":7508:7512  user */\n      dup6\n        /* \"TavsStable.sol\":7498:7513  positions[user] */\n      0xffffffffffffffffffffffffffffffffffffffff\n      and\n      0xffffffffffffffffffffffffffffffffffffffff\n      and\n      dup2\n      mstore\n      0x20\n      add\n      swap1\n      dup2\n      mstore\n      0x20\n      add\n      0x00\n      keccak256\n        /* \"TavsStable.sol\":7498:7528  positions[user].stablecoinDebt */\n      0x01\n      add\n        /* \"TavsStable.sol\":7498:7532  positions[user].stablecoinDebt = 0 */\n      dup2\n      swap1\n      sstore\n      pop\n        /* \"TavsStable.sol\":7551:7569  liquidationAddress */\n      0x06\n      0x00\n      swap1\n      sload\n      swap1\n      0x0100\n      exp\n      swap1\n      div\n      0xffffffffffffffffffffffffffffffffffffffff\n      and\n        /* \"TavsStable.sol\":7543:7579  payable(liquidationAddress).transfer */\n      0xffffffffffffffffffffffffffffffffffffffff\n      and\n        /* \"TavsStable.sol\":7543:7594  payable(liquidationAddress).transfer(collateralETH) */\n      0x08fc\n        /* \"TavsStable.sol\":7580:7593  collateralETH */\n      dup3\n        /* \"TavsStable.sol\":7543:7594  payable(liquidationAddress).transfer(collateralETH) */\n      swap1\n      dup2\n      iszero\n      mul\n      swap1\n      mload(0x40)\n      0x00\n      mload(0x40)\n      dup1\n      dup4\n      sub\n      dup2\n      dup6\n      dup9\n      dup9\n      call\n      swap4\n      pop\n      pop\n      pop\n      pop\n      iszero\n      dup1\n      iszero\n      tag_205\n      jumpi\n      returndatasize\n      0x00\n      dup1\n      returndatacopy\n      revert(0x00, returndatasize)\n    tag_205:\n      pop\n        /* \"TavsStable.sol\":7622:7626  user */\n      dup3\n        /* \"TavsStable.sol\":7611:7642  Liquidated(user, collateralETH) */\n      0xffffffffffffffffffffffffffffffffffffffff\n      and\n      0xa5ee7a2b0254fce91deed604506790ed7fa072d0b14cba4859c3bc8955b9caac\n        /* \"TavsStable.sol\":7628:7641  collateralETH */\n      dup3\n        /* \"TavsStable.sol\":7611:7642  Liquidated(user, collateralETH) */\n      mload(0x40)\n      tag_206\n      swap2\n      swap1\n      tag_59\n      jump\t// in\n    tag_206:\n      mload(0x40)\n      dup1\n      swap2\n      sub\n      swap1\n      log2\n        /* \"TavsStable.sol\":6957:7650  {... */\n      pop\n      pop\n      pop\n        /* \"TavsStable.sol\":6888:7650  function performUpkeep(bytes calldata performData) external override {... */\n      pop\n      pop\n      jump\t// out\n        /* \"TavsStable.sol\":918:963  mapping(address => Position) public positions */\n    tag_90:\n      mstore(0x20, 0x07)\n      dup1\n      0x00\n      mstore\n      keccak256(0x00, 0x40)\n      0x00\n      swap2\n      pop\n      swap1\n      pop\n      dup1\n      0x00\n      add\n      sload\n      swap1\n      dup1\n      0x01\n      add\n      sload\n      swap1\n      pop\n      dup3\n      jump\t// out\n        /* \"TavsStable.sol\":2756:3454  function depositAndMint() external payable {... */\n    tag_94:\n        /* \"TavsStable.sol\":2830:2831  0 */\n      0x00\n        /* \"TavsStable.sol\":2818:2827  msg.value */\n      callvalue\n        /* \"TavsStable.sol\":2818:2831  msg.value > 0 */\n      gt\n        /* \"TavsStable.sol\":2810:2852  require(msg.value > 0, \"Must deposit ETH\") */\n      tag_208\n      jumpi\n      mload(0x40)\n      0x08c379a000000000000000000000000000000000000000000000000000000000\n      dup2\n      mstore\n      0x04\n      add\n      tag_209\n      swap1\n      tag_210\n      jump\t// in\n    tag_209:\n      mload(0x40)\n      dup1\n      swap2\n      sub\n      swap1\n      revert\n    tag_208:\n        /* \"TavsStable.sol\":2873:2891  uint256 mintAmount */\n      0x00\n        /* \"TavsStable.sol\":2894:2923  estimateMintAmount(msg.value) */\n      tag_211\n        /* \"TavsStable.sol\":2913:2922  msg.value */\n      callvalue\n        /* \"TavsStable.sol\":2894:2912  estimateMintAmount */\n      tag_139\n        /* \"TavsStable.sol\":2894:2923  estimateMintAmount(msg.value) */\n      jump\t// in\n    tag_211:\n        /* \"TavsStable.sol\":2873:2923  uint256 mintAmount = estimateMintAmount(msg.value) */\n      swap1\n      pop\n        /* \"TavsStable.sol\":2935:2964  _mint(msg.sender, mintAmount) */\n      tag_212\n        /* \"TavsStable.sol\":2941:2951  msg.sender */\n      caller\n        /* \"TavsStable.sol\":2953:2963  mintAmount */\n      dup3\n        /* \"TavsStable.sol\":2935:2940  _mint */\n      tag_213\n        /* \"TavsStable.sol\":2935:2964  _mint(msg.sender, mintAmount) */\n      jump\t// in\n    tag_212:\n        /* \"TavsStable.sol\":3020:3021  0 */\n      0x00\n        /* \"TavsStable.sol\":2981:2990  positions */\n      0x07\n        /* \"TavsStable.sol\":2981:3002  positions[msg.sender] */\n      0x00\n        /* \"TavsStable.sol\":2991:3001  msg.sender */\n      caller\n        /* \"TavsStable.sol\":2981:3002  positions[msg.sender] */\n      0xffffffffffffffffffffffffffffffffffffffff\n      and\n      0xffffffffffffffffffffffffffffffffffffffff\n      and\n      dup2\n      mstore\n      0x20\n      add\n      swap1\n      dup2\n      mstore\n      0x20\n      add\n      0x00\n      keccak256\n        /* \"TavsStable.sol\":2981:3016  positions[msg.sender].collateralETH */\n      0x00\n      add\n      sload\n        /* \"TavsStable.sol\":2981:3021  positions[msg.sender].collateralETH == 0 */\n      sub\n        /* \"TavsStable.sol\":2977:3181  if (positions[msg.sender].collateralETH == 0){... */\n      tag_214\n      jumpi\n        /* \"TavsStable.sol\":3041:3051  userExists */\n      0x09\n        /* \"TavsStable.sol\":3041:3063  userExists[msg.sender] */\n      0x00\n        /* \"TavsStable.sol\":3052:3062  msg.sender */\n      caller\n        /* \"TavsStable.sol\":3041:3063  userExists[msg.sender] */\n      0xffffffffffffffffffffffffffffffffffffffff\n      and\n      0xffffffffffffffffffffffffffffffffffffffff\n      and\n      dup2\n      mstore\n      0x20\n      add\n      swap1\n      dup2\n      mstore\n      0x20\n      add\n      0x00\n      keccak256\n      0x00\n      swap1\n      sload\n      swap1\n      0x0100\n      exp\n      swap1\n      div\n      0xff\n      and\n        /* \"TavsStable.sol\":3037:3170  if(!userExists[msg.sender]) {... */\n      tag_215\n      jumpi\n        /* \"TavsStable.sol\":3084:3089  users */\n      0x08\n        /* \"TavsStable.sol\":3095:3105  msg.sender */\n      caller\n        /* \"TavsStable.sol\":3084:3106  users.push(msg.sender) */\n      swap1\n      dup1\n      0x01\n      dup2\n      sload\n      add\n      dup1\n      dup3\n      sstore\n      dup1\n      swap2\n      pop\n      pop\n      0x01\n      swap1\n      sub\n      swap1\n      0x00\n      mstore\n      keccak256(0x00, 0x20)\n      add\n      0x00\n      swap1\n      swap2\n      swap1\n      swap2\n      swap1\n      swap2\n      0x0100\n      exp\n      dup2\n      sload\n      dup2\n      0xffffffffffffffffffffffffffffffffffffffff\n      mul\n      not\n      and\n      swap1\n      dup4\n      0xffffffffffffffffffffffffffffffffffffffff\n      and\n      mul\n      or\n      swap1\n      sstore\n      pop\n        /* \"TavsStable.sol\":3150:3154  true */\n      0x01\n        /* \"TavsStable.sol\":3125:3135  userExists */\n      0x09\n        /* \"TavsStable.sol\":3125:3147  userExists[msg.sender] */\n      0x00\n        /* \"TavsStable.sol\":3136:3146  msg.sender */\n      caller\n        /* \"TavsStable.sol\":3125:3147  userExists[msg.sender] */\n      0xffffffffffffffffffffffffffffffffffffffff\n      and\n      0xffffffffffffffffffffffffffffffffffffffff\n      and\n      dup2\n      mstore\n      0x20\n      add\n      swap1\n      dup2\n      mstore\n      0x20\n      add\n      0x00\n      keccak256\n      0x00\n        /* \"TavsStable.sol\":3125:3154  userExists[msg.sender] = true */\n      0x0100\n      exp\n      dup2\n      sload\n      dup2\n      0xff\n      mul\n      not\n      and\n      swap1\n      dup4\n      iszero\n      iszero\n      mul\n      or\n      swap1\n      sstore\n      pop\n        /* \"TavsStable.sol\":3037:3170  if(!userExists[msg.sender]) {... */\n    tag_215:\n        /* \"TavsStable.sol\":2977:3181  if (positions[msg.sender].collateralETH == 0){... */\n    tag_214:\n        /* \"TavsStable.sol\":3232:3241  msg.value */\n      callvalue\n        /* \"TavsStable.sol\":3193:3202  positions */\n      0x07\n        /* \"TavsStable.sol\":3193:3214  positions[msg.sender] */\n      0x00\n        /* \"TavsStable.sol\":3203:3213  msg.sender */\n      caller\n        /* \"TavsStable.sol\":3193:3214  positions[msg.sender] */\n      0xffffffffffffffffffffffffffffffffffffffff\n      and\n      0xffffffffffffffffffffffffffffffffffffffff\n      and\n      dup2\n      mstore\n      0x20\n      add\n      swap1\n      dup2\n      mstore\n      0x20\n      add\n      0x00\n      keccak256\n        /* \"TavsStable.sol\":3193:3228  positions[msg.sender].collateralETH */\n      0x00\n      add\n      0x00\n        /* \"TavsStable.sol\":3193:3241  positions[msg.sender].collateralETH += msg.value */\n      dup3\n      dup3\n      sload\n      tag_217\n      swap2\n      swap1\n      tag_218\n      jump\t// in\n    tag_217:\n      swap3\n      pop\n      pop\n      dup2\n      swap1\n      sstore\n      pop\n        /* \"TavsStable.sol\":3326:3336  mintAmount */\n      dup1\n        /* \"TavsStable.sol\":3286:3295  positions */\n      0x07\n        /* \"TavsStable.sol\":3286:3307  positions[msg.sender] */\n      0x00\n        /* \"TavsStable.sol\":3296:3306  msg.sender */\n      caller\n        /* \"TavsStable.sol\":3286:3307  positions[msg.sender] */\n      0xffffffffffffffffffffffffffffffffffffffff\n      and\n      0xffffffffffffffffffffffffffffffffffffffff\n      and\n      dup2\n      mstore\n      0x20\n      add\n      swap1\n      dup2\n      mstore\n      0x20\n      add\n      0x00\n      keccak256\n        /* \"TavsStable.sol\":3286:3322  positions[msg.sender].stablecoinDebt */\n      0x01\n      add\n      0x00\n        /* \"TavsStable.sol\":3286:3336  positions[msg.sender].stablecoinDebt += mintAmount */\n      dup3\n      dup3\n      sload\n      tag_219\n      swap2\n      swap1\n      tag_218\n      jump\t// in\n    tag_219:\n      swap3\n      pop\n      pop\n      dup2\n      swap1\n      sstore\n      pop\n        /* \"TavsStable.sol\":3391:3401  msg.sender */\n      caller\n        /* \"TavsStable.sol\":3383:3425  Deposit(msg.sender, msg.value, mintAmount) */\n      0xffffffffffffffffffffffffffffffffffffffff\n      and\n      0x90890809c654f11d6e72a28fa60149770a0d11ec6c92319d6ceb2bb0a4ea1a15\n        /* \"TavsStable.sol\":3403:3412  msg.value */\n      callvalue\n        /* \"TavsStable.sol\":3414:3424  mintAmount */\n      dup4\n        /* \"TavsStable.sol\":3383:3425  Deposit(msg.sender, msg.value, mintAmount) */\n      mload(0x40)\n      tag_220\n      swap3\n      swap2\n      swap1\n      tag_92\n      jump\t// in\n    tag_220:\n      mload(0x40)\n      dup1\n      swap2\n      sub\n      swap1\n      log2\n        /* \"TavsStable.sol\":2799:3454  {... */\n      pop\n        /* \"TavsStable.sol\":2756:3454  function depositAndMint() external payable {... */\n      jump\t// out\n        /* \"TavsStable.sol\":677:710  address public liquidationAddress */\n    tag_97:\n      0x06\n      0x00\n      swap1\n      sload\n      swap1\n      0x0100\n      exp\n      swap1\n      div\n      0xffffffffffffffffffffffffffffffffffffffff\n      and\n      dup2\n      jump\t// out\n        /* \"TavsStable.sol\":6156:6826  function checkUpkeep (bytes calldata) external view override returns (bool upkeepNeeded, bytes memory performData) {... */\n    tag_102:\n        /* \"TavsStable.sol\":6226:6243  bool upkeepNeeded */\n      0x00\n        /* \"TavsStable.sol\":6245:6269  bytes memory performData */\n      0x60\n        /* \"TavsStable.sol\":6287:6296  uint256 i */\n      0x00\n        /* \"TavsStable.sol\":6282:6716  for (uint256 i = 0; i < users.length; i++) {... */\n    tag_222:\n        /* \"TavsStable.sol\":6306:6311  users */\n      0x08\n        /* \"TavsStable.sol\":6306:6318  users.length */\n      dup1\n      sload\n      swap1\n      pop\n        /* \"TavsStable.sol\":6302:6303  i */\n      dup2\n        /* \"TavsStable.sol\":6302:6318  i < users.length */\n      lt\n        /* \"TavsStable.sol\":6282:6716  for (uint256 i = 0; i < users.length; i++) {... */\n      iszero\n      tag_223\n      jumpi\n        /* \"TavsStable.sol\":6340:6352  address user */\n      0x00\n        /* \"TavsStable.sol\":6355:6360  users */\n      0x08\n        /* \"TavsStable.sol\":6361:6362  i */\n      dup3\n        /* \"TavsStable.sol\":6355:6363  users[i] */\n      dup2\n      sload\n      dup2\n      lt\n      tag_225\n      jumpi\n      tag_226\n      tag_227\n      jump\t// in\n    tag_226:\n    tag_225:\n      swap1\n      0x00\n      mstore\n      keccak256(0x00, 0x20)\n      add\n      0x00\n      swap1\n      sload\n      swap1\n      0x0100\n      exp\n      swap1\n      div\n      0xffffffffffffffffffffffffffffffffffffffff\n      and\n        /* \"TavsStable.sol\":6340:6363  address user = users[i] */\n      swap1\n      pop\n        /* \"TavsStable.sol\":472:475  150 */\n      0x96\n        /* \"TavsStable.sol\":6382:6406  getCollateralRatio(user) */\n      tag_229\n        /* \"TavsStable.sol\":6401:6405  user */\n      dup3\n        /* \"TavsStable.sol\":6382:6400  getCollateralRatio */\n      tag_57\n        /* \"TavsStable.sol\":6382:6406  getCollateralRatio(user) */\n      jump\t// in\n    tag_229:\n        /* \"TavsStable.sol\":6382:6425  getCollateralRatio(user) < COLLATERAL_RATIO */\n      lt\n        /* \"TavsStable.sol\":6378:6705  if (getCollateralRatio(user) < COLLATERAL_RATIO) { // se a quantidade de colateral for menor do que 150%... */\n      iszero\n      tag_230\n      jumpi\n        /* \"TavsStable.sol\":6515:6519  true */\n      0x01\n        /* \"TavsStable.sol\":6500:6519  upkeepNeeded = true */\n      swap4\n      pop\n        /* \"TavsStable.sol\":6588:6592  user */\n      dup1\n        /* \"TavsStable.sol\":6577:6593  abi.encode(user) */\n      add(0x20, mload(0x40))\n      tag_231\n      swap2\n      swap1\n      tag_81\n      jump\t// in\n    tag_231:\n      mload(0x40)\n      0x20\n      dup2\n      dup4\n      sub\n      sub\n      dup2\n      mstore\n      swap1\n      0x40\n      mstore\n        /* \"TavsStable.sol\":6563:6593  performData = abi.encode(user) */\n      swap3\n      pop\n        /* \"TavsStable.sol\":6670:6674  true */\n      0x01\n        /* \"TavsStable.sol\":6662:6688  return (true, performData) */\n      swap4\n      pop\n      pop\n      pop\n      jump(tag_221)\n        /* \"TavsStable.sol\":6378:6705  if (getCollateralRatio(user) < COLLATERAL_RATIO) { // se a quantidade de colateral for menor do que 150%... */\n    tag_230:\n        /* \"TavsStable.sol\":6325:6716  {... */\n      pop\n        /* \"TavsStable.sol\":6320:6323  i++ */\n      dup1\n      dup1\n      0x01\n      add\n      swap2\n      pop\n      pop\n        /* \"TavsStable.sol\":6282:6716  for (uint256 i = 0; i < users.length; i++) {... */\n      jump(tag_222)\n    tag_223:\n      pop\n        /* \"TavsStable.sol\":6801:6806  false */\n      0x00\n        /* \"TavsStable.sol\":6808:6817  bytes(\"\") */\n      mload(0x40)\n      dup1\n      0x20\n      add\n      0x40\n      mstore\n      dup1\n      0x00\n      dup2\n      mstore\n      pop\n        /* \"TavsStable.sol\":6793:6818  return (false, bytes(\"\")) */\n      swap2\n      pop\n      swap2\n      pop\n        /* \"TavsStable.sol\":6156:6826  function checkUpkeep (bytes calldata) external view override returns (bool upkeepNeeded, bytes memory performData) {... */\n    tag_221:\n      swap3\n      pop\n      swap3\n      swap1\n      pop\n      jump\t// out\n        /* \"@openzeppelin/contracts/token/ERC20/ERC20.sol\":2933:3049  function balanceOf(address account) public view virtual returns (uint256) {... */\n    tag_108:\n        /* \"@openzeppelin/contracts/token/ERC20/ERC20.sol\":2998:3005  uint256 */\n      0x00\n        /* \"@openzeppelin/contracts/token/ERC20/ERC20.sol\":3024:3033  _balances */\n      dup1\n        /* \"@openzeppelin/contracts/token/ERC20/ERC20.sol\":3024:3042  _balances[account] */\n      0x00\n        /* \"@openzeppelin/contracts/token/ERC20/ERC20.sol\":3034:3041  account */\n      dup4\n        /* \"@openzeppelin/contracts/token/ERC20/ERC20.sol\":3024:3042  _balances[account] */\n      0xffffffffffffffffffffffffffffffffffffffff\n      and\n      0xffffffffffffffffffffffffffffffffffffffff\n      and\n      dup2\n      mstore\n      0x20\n      add\n      swap1\n      dup2\n      mstore\n      0x20\n      add\n      0x00\n      keccak256\n      sload\n        /* \"@openzeppelin/contracts/token/ERC20/ERC20.sol\":3017:3042  return _balances[account] */\n      swap1\n      pop\n        /* \"@openzeppelin/contracts/token/ERC20/ERC20.sol\":2933:3049  function balanceOf(address account) public view virtual returns (uint256) {... */\n      swap2\n      swap1\n      pop\n      jump\t// out\n        /* \"TavsStable.sol\":382:420  AggregatorV3Interface public priceFeed */\n    tag_112:\n      0x05\n      0x00\n      swap1\n      sload\n      swap1\n      0x0100\n      exp\n      swap1\n      div\n      0xffffffffffffffffffffffffffffffffffffffff\n      and\n      dup2\n      jump\t// out\n        /* \"TavsStable.sol\":503:554  uint256 public constant DATAFEED_PRICE_DECIMALS = 8 */\n    tag_117:\n        /* \"TavsStable.sol\":553:554  8 */\n      0x08\n        /* \"TavsStable.sol\":503:554  uint256 public constant DATAFEED_PRICE_DECIMALS = 8 */\n      dup2\n      jump\t// out\n        /* \"TavsStable.sol\":4233:4893  function burnAndWithdraw(uint256 burnAmount) external {... */\n    tag_122:\n        /* \"TavsStable.sol\":4331:4341  burnAmount */\n      dup1\n        /* \"TavsStable.sol\":4306:4327  balanceOf(msg.sender) */\n      tag_234\n        /* \"TavsStable.sol\":4316:4326  msg.sender */\n      caller\n        /* \"TavsStable.sol\":4306:4315  balanceOf */\n      tag_108\n        /* \"TavsStable.sol\":4306:4327  balanceOf(msg.sender) */\n      jump\t// in\n    tag_234:\n        /* \"TavsStable.sol\":4306:4341  balanceOf(msg.sender) >= burnAmount */\n      lt\n      iszero\n        /* \"TavsStable.sol\":4298:4364  require(balanceOf(msg.sender) >= burnAmount, \"Insufficient TAVST\") */\n      tag_235\n      jumpi\n      mload(0x40)\n      0x08c379a000000000000000000000000000000000000000000000000000000000\n      dup2\n      mstore\n      0x04\n      add\n      tag_236\n      swap1\n      tag_237\n      jump\t// in\n    tag_236:\n      mload(0x40)\n      dup1\n      swap2\n      sub\n      swap1\n      revert\n    tag_235:\n        /* \"TavsStable.sol\":4377:4396  uint256 ethToReturn */\n      0x00\n        /* \"TavsStable.sol\":4399:4430  estimateWithdrawETH(burnAmount) */\n      tag_238\n        /* \"TavsStable.sol\":4419:4429  burnAmount */\n      dup3\n        /* \"TavsStable.sol\":4399:4418  estimateWithdrawETH */\n      tag_144\n        /* \"TavsStable.sol\":4399:4430  estimateWithdrawETH(burnAmount) */\n      jump\t// in\n    tag_238:\n        /* \"TavsStable.sol\":4377:4430  uint256 ethToReturn = estimateWithdrawETH(burnAmount) */\n      swap1\n      pop\n        /* \"TavsStable.sol\":4572:4583  ethToReturn */\n      dup1\n        /* \"TavsStable.sol\":4533:4542  positions */\n      0x07\n        /* \"TavsStable.sol\":4533:4554  positions[msg.sender] */\n      0x00\n        /* \"TavsStable.sol\":4543:4553  msg.sender */\n      caller\n        /* \"TavsStable.sol\":4533:4554  positions[msg.sender] */\n      0xffffffffffffffffffffffffffffffffffffffff\n      and\n      0xffffffffffffffffffffffffffffffffffffffff\n      and\n      dup2\n      mstore\n      0x20\n      add\n      swap1\n      dup2\n      mstore\n      0x20\n      add\n      0x00\n      keccak256\n        /* \"TavsStable.sol\":4533:4568  positions[msg.sender].collateralETH */\n      0x00\n      add\n      sload\n        /* \"TavsStable.sol\":4533:4583  positions[msg.sender].collateralETH >= ethToReturn */\n      lt\n      iszero\n        /* \"TavsStable.sol\":4525:4609  require(positions[msg.sender].collateralETH >= ethToReturn, \"Not enough collateral\") */\n      tag_239\n      jumpi\n      mload(0x40)\n      0x08c379a000000000000000000000000000000000000000000000000000000000\n      dup2\n      mstore\n      0x04\n      add\n      tag_240\n      swap1\n      tag_241\n      jump\t// in\n    tag_240:\n      mload(0x40)\n      dup1\n      swap2\n      sub\n      swap1\n      revert\n    tag_239:\n        /* \"TavsStable.sol\":4661:4672  ethToReturn */\n      dup1\n        /* \"TavsStable.sol\":4622:4631  positions */\n      0x07\n        /* \"TavsStable.sol\":4622:4643  positions[msg.sender] */\n      0x00\n        /* \"TavsStable.sol\":4632:4642  msg.sender */\n      caller\n        /* \"TavsStable.sol\":4622:4643  positions[msg.sender] */\n      0xffffffffffffffffffffffffffffffffffffffff\n      and\n      0xffffffffffffffffffffffffffffffffffffffff\n      and\n      dup2\n      mstore\n      0x20\n      add\n      swap1\n      dup2\n      mstore\n      0x20\n      add\n      0x00\n      keccak256\n        /* \"TavsStable.sol\":4622:4657  positions[msg.sender].collateralETH */\n      0x00\n      add\n      0x00\n        /* \"TavsStable.sol\":4622:4672  positions[msg.sender].collateralETH -= ethToReturn */\n      dup3\n      dup3\n      sload\n      tag_242\n      swap2\n      swap1\n      tag_243\n      jump\t// in\n    tag_242:\n      swap3\n      pop\n      pop\n      dup2\n      swap1\n      sstore\n      pop\n        /* \"TavsStable.sol\":4723:4733  burnAmount */\n      dup2\n        /* \"TavsStable.sol\":4683:4692  positions */\n      0x07\n        /* \"TavsStable.sol\":4683:4704  positions[msg.sender] */\n      0x00\n        /* \"TavsStable.sol\":4693:4703  msg.sender */\n      caller\n        /* \"TavsStable.sol\":4683:4704  positions[msg.sender] */\n      0xffffffffffffffffffffffffffffffffffffffff\n      and\n      0xffffffffffffffffffffffffffffffffffffffff\n      and\n      dup2\n      mstore\n      0x20\n      add\n      swap1\n      dup2\n      mstore\n      0x20\n      add\n      0x00\n      keccak256\n        /* \"TavsStable.sol\":4683:4719  positions[msg.sender].stablecoinDebt */\n      0x01\n      add\n      0x00\n        /* \"TavsStable.sol\":4683:4733  positions[msg.sender].stablecoinDebt -= burnAmount */\n      dup3\n      dup3\n      sload\n      tag_244\n      swap2\n      swap1\n      tag_243\n      jump\t// in\n    tag_244:\n      swap3\n      pop\n      pop\n      dup2\n      swap1\n      sstore\n      pop\n        /* \"TavsStable.sol\":4744:4773  _burn(msg.sender, burnAmount) */\n      tag_245\n        /* \"TavsStable.sol\":4750:4760  msg.sender */\n      caller\n        /* \"TavsStable.sol\":4762:4772  burnAmount */\n      dup4\n        /* \"TavsStable.sol\":4744:4749  _burn */\n      tag_203\n        /* \"TavsStable.sol\":4744:4773  _burn(msg.sender, burnAmount) */\n      jump\t// in\n    tag_245:\n        /* \"TavsStable.sol\":4794:4804  msg.sender */\n      caller\n        /* \"TavsStable.sol\":4786:4814  payable(msg.sender).transfer */\n      0xffffffffffffffffffffffffffffffffffffffff\n      and\n        /* \"TavsStable.sol\":4786:4827  payable(msg.sender).transfer(ethToReturn) */\n      0x08fc\n        /* \"TavsStable.sol\":4815:4826  ethToReturn */\n      dup3\n        /* \"TavsStable.sol\":4786:4827  payable(msg.sender).transfer(ethToReturn) */\n      swap1\n      dup2\n      iszero\n      mul\n      swap1\n      mload(0x40)\n      0x00\n      mload(0x40)\n      dup1\n      dup4\n      sub\n      dup2\n      dup6\n      dup9\n      dup9\n      call\n      swap4\n      pop\n      pop\n      pop\n      pop\n      iszero\n      dup1\n      iszero\n      tag_247\n      jumpi\n      returndatasize\n      0x00\n      dup1\n      returndatacopy\n      revert(0x00, returndatasize)\n    tag_247:\n      pop\n        /* \"TavsStable.sol\":4848:4858  msg.sender */\n      caller\n        /* \"TavsStable.sol\":4843:4884  Burn(msg.sender, burnAmount, ethToReturn) */\n      0xffffffffffffffffffffffffffffffffffffffff\n      and\n      0x49995e5dd6158cf69ad3e9777c46755a1a826a446c6416992167462dad033b2a\n        /* \"TavsStable.sol\":4860:4870  burnAmount */\n      dup4\n        /* \"TavsStable.sol\":4872:4883  ethToReturn */\n      dup4\n        /* \"TavsStable.sol\":4843:4884  Burn(msg.sender, burnAmount, ethToReturn) */\n      mload(0x40)\n      tag_248\n      swap3\n      swap2\n      swap1\n      tag_92\n      jump\t// in\n    tag_248:\n      mload(0x40)\n      dup1\n      swap2\n      sub\n      swap1\n      log2\n        /* \"TavsStable.sol\":4287:4893  {... */\n      pop\n        /* \"TavsStable.sol\":4233:4893  function burnAndWithdraw(uint256 burnAmount) external {... */\n      pop\n      jump\t// out\n        /* \"TavsStable.sol\":4929:5151  function getLatestPrice() public view returns (uint256) {... */\n    tag_125:\n        /* \"TavsStable.sol\":4976:4983  uint256 */\n      0x00\n        /* \"TavsStable.sol\":4999:5008  int price */\n      dup1\n        /* \"TavsStable.sol\":5015:5024  priceFeed */\n      0x05\n      0x00\n      swap1\n      sload\n      swap1\n      0x0100\n      exp\n      swap1\n      div\n      0xffffffffffffffffffffffffffffffffffffffff\n      and\n        /* \"TavsStable.sol\":5015:5040  priceFeed.latestRoundData */\n      0xffffffffffffffffffffffffffffffffffffffff\n      and\n      0xfeaf968c\n        /* \"TavsStable.sol\":5015:5042  priceFeed.latestRoundData() */\n      mload(0x40)\n      dup2\n      0xffffffff\n      and\n      0xe0\n      shl\n      dup2\n      mstore\n      0x04\n      add\n      0xa0\n      mload(0x40)\n      dup1\n      dup4\n      sub\n      dup2\n      dup7\n      gas\n      staticcall\n      iszero\n      dup1\n      iszero\n      tag_251\n      jumpi\n      returndatasize\n      0x00\n      dup1\n      returndatacopy\n      revert(0x00, returndatasize)\n    tag_251:\n      pop\n      pop\n      pop\n      pop\n      mload(0x40)\n      returndatasize\n      not(0x1f)\n      0x1f\n      dup3\n      add\n      and\n      dup3\n      add\n      dup1\n      0x40\n      mstore\n      pop\n      dup2\n      add\n      swap1\n      tag_252\n      swap2\n      swap1\n      tag_253\n      jump\t// in\n    tag_252:\n        /* \"TavsStable.sol\":4996:5042  (, int price,,,) = priceFeed.latestRoundData() */\n      pop\n      pop\n      pop\n      swap2\n      pop\n      pop\n        /* \"TavsStable.sol\":5069:5070  0 */\n      0x00\n        /* \"TavsStable.sol\":5061:5066  price */\n      dup2\n        /* \"TavsStable.sol\":5061:5070  price > 0 */\n      sgt\n        /* \"TavsStable.sol\":5053:5088  require(price > 0, \"Invalid price\") */\n      tag_254\n      jumpi\n      mload(0x40)\n      0x08c379a000000000000000000000000000000000000000000000000000000000\n      dup2\n      mstore\n      0x04\n      add\n      tag_255\n      swap1\n      tag_256\n      jump\t// in\n    tag_255:\n      mload(0x40)\n      dup1\n      swap2\n      sub\n      swap1\n      revert\n    tag_254:\n        /* \"TavsStable.sol\":5114:5119  price */\n      dup1\n        /* \"TavsStable.sol\":5099:5120  return uint256(price) */\n      swap2\n      pop\n      pop\n        /* \"TavsStable.sol\":4929:5151  function getLatestPrice() public view returns (uint256) {... */\n      swap1\n      jump\t// out\n        /* \"@openzeppelin/contracts/token/ERC20/ERC20.sol\":1962:2055  function symbol() public view virtual returns (string memory) {... */\n    tag_129:\n        /* \"@openzeppelin/contracts/token/ERC20/ERC20.sol\":2009:2022  string memory */\n      0x60\n        /* \"@openzeppelin/contracts/token/ERC20/ERC20.sol\":2041:2048  _symbol */\n      0x04\n        /* \"@openzeppelin/contracts/token/ERC20/ERC20.sol\":2034:2048  return _symbol */\n      dup1\n      sload\n      tag_258\n      swap1\n      tag_170\n      jump\t// in\n    tag_258:\n      dup1\n      0x1f\n      add\n      0x20\n      dup1\n      swap2\n      div\n      mul\n      0x20\n      add\n      mload(0x40)\n      swap1\n      dup2\n      add\n      0x40\n      mstore\n      dup1\n      swap3\n      swap2\n      swap1\n      dup2\n      dup2\n      mstore\n      0x20\n      add\n      dup3\n      dup1\n      sload\n      tag_259\n      swap1\n      tag_170\n      jump\t// in\n    tag_259:\n      dup1\n      iszero\n      tag_260\n      jumpi\n      dup1\n      0x1f\n      lt\n      tag_261\n      jumpi\n      0x0100\n      dup1\n      dup4\n      sload\n      div\n      mul\n      dup4\n      mstore\n      swap2\n      0x20\n      add\n      swap2\n      jump(tag_260)\n    tag_261:\n      dup3\n      add\n      swap2\n      swap1\n      0x00\n      mstore\n      keccak256(0x00, 0x20)\n      swap1\n    tag_262:\n      dup2\n      sload\n      dup2\n      mstore\n      swap1\n      0x01\n      add\n      swap1\n      0x20\n      add\n      dup1\n      dup4\n      gt\n      tag_262\n      jumpi\n      dup3\n      swap1\n      sub\n      0x1f\n      and\n      dup3\n      add\n      swap2\n    tag_260:\n      pop\n      pop\n      pop\n      pop\n      pop\n      swap1\n      pop\n        /* \"@openzeppelin/contracts/token/ERC20/ERC20.sol\":1962:2055  function symbol() public view virtual returns (string memory) {... */\n      swap1\n      jump\t// out\n        /* \"@openzeppelin/contracts/token/ERC20/ERC20.sol\":3244:3422  function transfer(address to, uint256 value) public virtual returns (bool) {... */\n    tag_134:\n        /* \"@openzeppelin/contracts/token/ERC20/ERC20.sol\":3313:3317  bool */\n      0x00\n        /* \"@openzeppelin/contracts/token/ERC20/ERC20.sol\":3329:3342  address owner */\n      dup1\n        /* \"@openzeppelin/contracts/token/ERC20/ERC20.sol\":3345:3357  _msgSender() */\n      tag_264\n        /* \"@openzeppelin/contracts/token/ERC20/ERC20.sol\":3345:3355  _msgSender */\n      tag_177\n        /* \"@openzeppelin/contracts/token/ERC20/ERC20.sol\":3345:3357  _msgSender() */\n      jump\t// in\n    tag_264:\n        /* \"@openzeppelin/contracts/token/ERC20/ERC20.sol\":3329:3357  address owner = _msgSender() */\n      swap1\n      pop\n        /* \"@openzeppelin/contracts/token/ERC20/ERC20.sol\":3367:3394  _transfer(owner, to, value) */\n      tag_265\n        /* \"@openzeppelin/contracts/token/ERC20/ERC20.sol\":3377:3382  owner */\n      dup2\n        /* \"@openzeppelin/contracts/token/ERC20/ERC20.sol\":3384:3386  to */\n      dup6\n        /* \"@openzeppelin/contracts/token/ERC20/ERC20.sol\":3388:3393  value */\n      dup6\n        /* \"@openzeppelin/contracts/token/ERC20/ERC20.sol\":3367:3376  _transfer */\n      tag_191\n        /* \"@openzeppelin/contracts/token/ERC20/ERC20.sol\":3367:3394  _transfer(owner, to, value) */\n      jump\t// in\n    tag_265:\n        /* \"@openzeppelin/contracts/token/ERC20/ERC20.sol\":3411:3415  true */\n      0x01\n        /* \"@openzeppelin/contracts/token/ERC20/ERC20.sol\":3404:3415  return true */\n      swap2\n      pop\n      pop\n        /* \"@openzeppelin/contracts/token/ERC20/ERC20.sol\":3244:3422  function transfer(address to, uint256 value) public virtual returns (bool) {... */\n      swap3\n      swap2\n      pop\n      pop\n      jump\t// out\n        /* \"TavsStable.sol\":2178:2712  function estimateMintAmount(uint256 ethAmount) public view returns (uint256) { // estima quantidade de stablecoin vai ser emitida com base na quantidade de ETH... */\n    tag_139:\n        /* \"TavsStable.sol\":2246:2253  uint256 */\n      0x00\n        /* \"TavsStable.sol\":2347:2363  uint256 ethPrice */\n      dup1\n        /* \"TavsStable.sol\":2366:2382  getLatestPrice() */\n      tag_267\n        /* \"TavsStable.sol\":2366:2380  getLatestPrice */\n      tag_125\n        /* \"TavsStable.sol\":2366:2382  getLatestPrice() */\n      jump\t// in\n    tag_267:\n        /* \"TavsStable.sol\":2347:2382  uint256 ethPrice = getLatestPrice() */\n      swap1\n      pop\n        /* \"TavsStable.sol\":2428:2444  uint256 DECIMALS */\n      0x00\n        /* \"TavsStable.sol\":2461:2471  decimals() */\n      tag_268\n        /* \"TavsStable.sol\":2461:2469  decimals */\n      tag_72\n        /* \"TavsStable.sol\":2461:2471  decimals() */\n      jump\t// in\n    tag_268:\n        /* \"TavsStable.sol\":2453:2472  uint256(decimals()) */\n      0xff\n      and\n        /* \"TavsStable.sol\":2447:2449  10 */\n      0x0a\n        /* \"TavsStable.sol\":2447:2472  10 ** uint256(decimals()) */\n      tag_269\n      swap2\n      swap1\n      tag_270\n      jump\t// in\n    tag_269:\n        /* \"TavsStable.sol\":2428:2472  uint256 DECIMALS = 10 ** uint256(decimals()) */\n      swap1\n      pop\n        /* \"TavsStable.sol\":2483:2504  uint256 ethValueInUSD */\n      0x00\n        /* \"TavsStable.sol\":2549:2553  1e18 */\n      0x0de0b6b3a7640000\n        /* \"TavsStable.sol\":2543:2546  1e8 */\n      0x05f5e100\n        /* \"TavsStable.sol\":2531:2539  DECIMALS */\n      dup4\n        /* \"TavsStable.sol\":2520:2528  ethPrice */\n      dup6\n        /* \"TavsStable.sol\":2508:2517  ethAmount */\n      dup9\n        /* \"TavsStable.sol\":2508:2528  ethAmount * ethPrice */\n      tag_271\n      swap2\n      swap1\n      tag_272\n      jump\t// in\n    tag_271:\n        /* \"TavsStable.sol\":2508:2539  ethAmount * ethPrice * DECIMALS */\n      tag_273\n      swap2\n      swap1\n      tag_272\n      jump\t// in\n    tag_273:\n        /* \"TavsStable.sol\":2507:2546  (ethAmount * ethPrice * DECIMALS) / 1e8 */\n      tag_274\n      swap2\n      swap1\n      tag_184\n      jump\t// in\n    tag_274:\n        /* \"TavsStable.sol\":2507:2553  (ethAmount * ethPrice * DECIMALS) / 1e8 / 1e18 */\n      tag_275\n      swap2\n      swap1\n      tag_184\n      jump\t// in\n    tag_275:\n        /* \"TavsStable.sol\":2483:2553  uint256 ethValueInUSD = (ethAmount * ethPrice * DECIMALS) / 1e8 / 1e18 */\n      swap1\n      pop\n        /* \"TavsStable.sol\":472:475  150 */\n      0x96\n        /* \"TavsStable.sol\":2626:2629  100 */\n      0x64\n        /* \"TavsStable.sol\":2610:2623  ethValueInUSD */\n      dup3\n        /* \"TavsStable.sol\":2610:2629  ethValueInUSD * 100 */\n      tag_276\n      swap2\n      swap1\n      tag_272\n      jump\t// in\n    tag_276:\n        /* \"TavsStable.sol\":2610:2648  ethValueInUSD * 100 / COLLATERAL_RATIO */\n      tag_277\n      swap2\n      swap1\n      tag_184\n      jump\t// in\n    tag_277:\n        /* \"TavsStable.sol\":2603:2648  return ethValueInUSD * 100 / COLLATERAL_RATIO */\n      swap4\n      pop\n      pop\n      pop\n      pop\n        /* \"TavsStable.sol\":2178:2712  function estimateMintAmount(uint256 ethAmount) public view returns (uint256) { // estima quantidade de stablecoin vai ser emitida com base na quantidade de ETH... */\n      swap2\n      swap1\n      pop\n      jump\t// out\n        /* \"TavsStable.sol\":3462:4174  function estimateWithdrawETH(uint256 burnAmount) public view returns (uint256) {... */\n    tag_144:\n        /* \"TavsStable.sol\":3532:3539  uint256 */\n      0x00\n        /* \"TavsStable.sol\":3573:3574  0 */\n      dup1\n        /* \"TavsStable.sol\":3560:3570  burnAmount */\n      dup3\n        /* \"TavsStable.sol\":3560:3574  burnAmount > 0 */\n      gt\n        /* \"TavsStable.sol\":3552:3608  require(burnAmount > 0, \"Amount must be greater than 0\") */\n      tag_279\n      jumpi\n      mload(0x40)\n      0x08c379a000000000000000000000000000000000000000000000000000000000\n      dup2\n      mstore\n      0x04\n      add\n      tag_280\n      swap1\n      tag_281\n      jump\t// in\n    tag_280:\n      mload(0x40)\n      dup1\n      swap2\n      sub\n      swap1\n      revert\n    tag_279:\n        /* \"TavsStable.sol\":3619:3635  uint256 ethPrice */\n      0x00\n        /* \"TavsStable.sol\":3638:3654  getLatestPrice() */\n      tag_282\n        /* \"TavsStable.sol\":3638:3652  getLatestPrice */\n      tag_125\n        /* \"TavsStable.sol\":3638:3654  getLatestPrice() */\n      jump\t// in\n    tag_282:\n        /* \"TavsStable.sol\":3619:3654  uint256 ethPrice = getLatestPrice() */\n      swap1\n      pop\n        /* \"TavsStable.sol\":3742:3757  uint256 burnUSD */\n      0x00\n        /* \"TavsStable.sol\":632:635  100 */\n      0x64\n        /* \"TavsStable.sol\":3774:3778  1e18 */\n      0x0de0b6b3a7640000\n        /* \"TavsStable.sol\":3761:3771  burnAmount */\n      dup6\n        /* \"TavsStable.sol\":3761:3778  burnAmount * 1e18 */\n      tag_283\n      swap2\n      swap1\n      tag_272\n      jump\t// in\n    tag_283:\n        /* \"TavsStable.sol\":3760:3797  (burnAmount * 1e18) / DECIMALS_FACTOR */\n      tag_284\n      swap2\n      swap1\n      tag_184\n      jump\t// in\n    tag_284:\n        /* \"TavsStable.sol\":3742:3797  uint256 burnUSD = (burnAmount * 1e18) / DECIMALS_FACTOR */\n      swap1\n      pop\n        /* \"TavsStable.sol\":3924:3945  uint256 collateralUSD */\n      0x00\n        /* \"TavsStable.sol\":3979:3982  100 */\n      0x64\n        /* \"TavsStable.sol\":472:475  150 */\n      0x96\n        /* \"TavsStable.sol\":3949:3956  burnUSD */\n      dup4\n        /* \"TavsStable.sol\":3949:3975  burnUSD * COLLATERAL_RATIO */\n      tag_285\n      swap2\n      swap1\n      tag_272\n      jump\t// in\n    tag_285:\n        /* \"TavsStable.sol\":3948:3982  (burnUSD * COLLATERAL_RATIO) / 100 */\n      tag_286\n      swap2\n      swap1\n      tag_184\n      jump\t// in\n    tag_286:\n        /* \"TavsStable.sol\":3924:3982  uint256 collateralUSD = (burnUSD * COLLATERAL_RATIO) / 100 */\n      swap1\n      pop\n        /* \"TavsStable.sol\":4083:4102  uint256 ethToReturn */\n      0x00\n        /* \"TavsStable.sol\":4129:4137  ethPrice */\n      dup4\n        /* \"TavsStable.sol\":4122:4125  1e8 */\n      0x05f5e100\n        /* \"TavsStable.sol\":4106:4119  collateralUSD */\n      dup4\n        /* \"TavsStable.sol\":4106:4125  collateralUSD * 1e8 */\n      tag_287\n      swap2\n      swap1\n      tag_272\n      jump\t// in\n    tag_287:\n        /* \"TavsStable.sol\":4105:4137  (collateralUSD * 1e8) / ethPrice */\n      tag_288\n      swap2\n      swap1\n      tag_184\n      jump\t// in\n    tag_288:\n        /* \"TavsStable.sol\":4083:4137  uint256 ethToReturn = (collateralUSD * 1e8) / ethPrice */\n      swap1\n      pop\n        /* \"TavsStable.sol\":4155:4166  ethToReturn */\n      dup1\n        /* \"TavsStable.sol\":4148:4166  return ethToReturn */\n      swap5\n      pop\n      pop\n      pop\n      pop\n      pop\n        /* \"TavsStable.sol\":3462:4174  function estimateWithdrawETH(uint256 burnAmount) public view returns (uint256) {... */\n      swap2\n      swap1\n      pop\n      jump\t// out\n        /* \"TavsStable.sol\":429:475  uint256 public constant COLLATERAL_RATIO = 150 */\n    tag_148:\n        /* \"TavsStable.sol\":472:475  150 */\n      0x96\n        /* \"TavsStable.sol\":429:475  uint256 public constant COLLATERAL_RATIO = 150 */\n      dup2\n      jump\t// out\n        /* \"@openzeppelin/contracts/token/ERC20/ERC20.sol\":3455:3595  function allowance(address owner, address spender) public view virtual returns (uint256) {... */\n    tag_154:\n        /* \"@openzeppelin/contracts/token/ERC20/ERC20.sol\":3535:3542  uint256 */\n      0x00\n        /* \"@openzeppelin/contracts/token/ERC20/ERC20.sol\":3561:3572  _allowances */\n      0x01\n        /* \"@openzeppelin/contracts/token/ERC20/ERC20.sol\":3561:3579  _allowances[owner] */\n      0x00\n        /* \"@openzeppelin/contracts/token/ERC20/ERC20.sol\":3573:3578  owner */\n      dup5\n        /* \"@openzeppelin/contracts/token/ERC20/ERC20.sol\":3561:3579  _allowances[owner] */\n      0xffffffffffffffffffffffffffffffffffffffff\n      and\n      0xffffffffffffffffffffffffffffffffffffffff\n      and\n      dup2\n      mstore\n      0x20\n      add\n      swap1\n      dup2\n      mstore\n      0x20\n      add\n      0x00\n      keccak256\n        /* \"@openzeppelin/contracts/token/ERC20/ERC20.sol\":3561:3588  _allowances[owner][spender] */\n      0x00\n        /* \"@openzeppelin/contracts/token/ERC20/ERC20.sol\":3580:3587  spender */\n      dup4\n        /* \"@openzeppelin/contracts/token/ERC20/ERC20.sol\":3561:3588  _allowances[owner][spender] */\n      0xffffffffffffffffffffffffffffffffffffffff\n      and\n      0xffffffffffffffffffffffffffffffffffffffff\n      and\n      dup2\n      mstore\n      0x20\n      add\n      swap1\n      dup2\n      mstore\n      0x20\n      add\n      0x00\n      keccak256\n      sload\n        /* \"@openzeppelin/contracts/token/ERC20/ERC20.sol\":3554:3588  return _allowances[owner][spender] */\n      swap1\n      pop\n        /* \"@openzeppelin/contracts/token/ERC20/ERC20.sol\":3455:3595  function allowance(address owner, address spender) public view virtual returns (uint256) {... */\n      swap3\n      swap2\n      pop\n      pop\n      jump\t// out\n        /* \"TavsStable.sol\":590:635  uint256 public constant DECIMALS_FACTOR = 100 */\n    tag_158:\n        /* \"TavsStable.sol\":632:635  100 */\n      0x64\n        /* \"TavsStable.sol\":590:635  uint256 public constant DECIMALS_FACTOR = 100 */\n      dup2\n      jump\t// out\n        /* \"TavsStable.sol\":5205:5558  function getUserCollateralUSD(address user) public view returns (uint256) {... */\n    tag_163:\n        /* \"TavsStable.sol\":5270:5277  uint256 */\n      0x00\n        /* \"TavsStable.sol\":5290:5306  uint256 ethPrice */\n      dup1\n        /* \"TavsStable.sol\":5309:5325  getLatestPrice() */\n      tag_291\n        /* \"TavsStable.sol\":5309:5323  getLatestPrice */\n      tag_125\n        /* \"TavsStable.sol\":5309:5325  getLatestPrice() */\n      jump\t// in\n    tag_291:\n        /* \"TavsStable.sol\":5290:5325  uint256 ethPrice = getLatestPrice() */\n      swap1\n      pop\n        /* \"TavsStable.sol\":5336:5355  Position memory pos */\n      0x00\n        /* \"TavsStable.sol\":5358:5367  positions */\n      0x07\n        /* \"TavsStable.sol\":5358:5373  positions[user] */\n      0x00\n        /* \"TavsStable.sol\":5368:5372  user */\n      dup6\n        /* \"TavsStable.sol\":5358:5373  positions[user] */\n      0xffffffffffffffffffffffffffffffffffffffff\n      and\n      0xffffffffffffffffffffffffffffffffffffffff\n      and\n      dup2\n      mstore\n      0x20\n      add\n      swap1\n      dup2\n      mstore\n      0x20\n      add\n      0x00\n      keccak256\n        /* \"TavsStable.sol\":5336:5373  Position memory pos = positions[user] */\n      mload(0x40)\n      dup1\n      0x40\n      add\n      0x40\n      mstore\n      swap1\n      dup2\n      0x00\n      dup3\n      add\n      sload\n      dup2\n      mstore\n      0x20\n      add\n      0x01\n      dup3\n      add\n      sload\n      dup2\n      mstore\n      pop\n      pop\n      swap1\n      pop\n        /* \"TavsStable.sol\":5386:5402  uint256 DECIMALS */\n      0x00\n        /* \"TavsStable.sol\":5419:5429  decimals() */\n      tag_292\n        /* \"TavsStable.sol\":5419:5427  decimals */\n      tag_72\n        /* \"TavsStable.sol\":5419:5429  decimals() */\n      jump\t// in\n    tag_292:\n        /* \"TavsStable.sol\":5411:5430  uint256(decimals()) */\n      0xff\n      and\n        /* \"TavsStable.sol\":5405:5407  10 */\n      0x0a\n        /* \"TavsStable.sol\":5405:5430  10 ** uint256(decimals()) */\n      tag_293\n      swap2\n      swap1\n      tag_270\n      jump\t// in\n    tag_293:\n        /* \"TavsStable.sol\":5386:5430  uint256 DECIMALS = 10 ** uint256(decimals()) */\n      swap1\n      pop\n        /* \"TavsStable.sol\":5441:5462  uint256 collateralUSD */\n      0x00\n        /* \"TavsStable.sol\":5515:5519  1e18 */\n      0x0de0b6b3a7640000\n        /* \"TavsStable.sol\":5509:5512  1e8 */\n      0x05f5e100\n        /* \"TavsStable.sol\":5497:5505  DECIMALS */\n      dup4\n        /* \"TavsStable.sol\":5486:5494  ethPrice */\n      dup7\n        /* \"TavsStable.sol\":5466:5469  pos */\n      dup7\n        /* \"TavsStable.sol\":5466:5483  pos.collateralETH */\n      0x00\n      add\n      mload\n        /* \"TavsStable.sol\":5466:5494  pos.collateralETH * ethPrice */\n      tag_294\n      swap2\n      swap1\n      tag_272\n      jump\t// in\n    tag_294:\n        /* \"TavsStable.sol\":5466:5505  pos.collateralETH * ethPrice * DECIMALS */\n      tag_295\n      swap2\n      swap1\n      tag_272\n      jump\t// in\n    tag_295:\n        /* \"TavsStable.sol\":5465:5512  (pos.collateralETH * ethPrice * DECIMALS) / 1e8 */\n      tag_296\n      swap2\n      swap1\n      tag_184\n      jump\t// in\n    tag_296:\n        /* \"TavsStable.sol\":5465:5519  (pos.collateralETH * ethPrice * DECIMALS) / 1e8 / 1e18 */\n      tag_297\n      swap2\n      swap1\n      tag_184\n      jump\t// in\n    tag_297:\n        /* \"TavsStable.sol\":5441:5519  uint256 collateralUSD = (pos.collateralETH * ethPrice * DECIMALS) / 1e8 / 1e18 */\n      swap1\n      pop\n        /* \"TavsStable.sol\":5537:5550  collateralUSD */\n      dup1\n        /* \"TavsStable.sol\":5530:5550  return collateralUSD */\n      swap5\n      pop\n      pop\n      pop\n      pop\n      pop\n        /* \"TavsStable.sol\":5205:5558  function getUserCollateralUSD(address user) public view returns (uint256) {... */\n      swap2\n      swap1\n      pop\n      jump\t// out\n        /* \"@openzeppelin/contracts/utils/Context.sol\":656:752  function _msgSender() internal view virtual returns (address) {... */\n    tag_177:\n        /* \"@openzeppelin/contracts/utils/Context.sol\":709:716  address */\n      0x00\n        /* \"@openzeppelin/contracts/utils/Context.sol\":735:745  msg.sender */\n      caller\n        /* \"@openzeppelin/contracts/utils/Context.sol\":728:745  return msg.sender */\n      swap1\n      pop\n        /* \"@openzeppelin/contracts/utils/Context.sol\":656:752  function _msgSender() internal view virtual returns (address) {... */\n      swap1\n      jump\t// out\n        /* \"@openzeppelin/contracts/token/ERC20/ERC20.sol\":8630:8758  function _approve(address owner, address spender, uint256 value) internal {... */\n    tag_179:\n        /* \"@openzeppelin/contracts/token/ERC20/ERC20.sol\":8714:8751  _approve(owner, spender, value, true) */\n      tag_300\n        /* \"@openzeppelin/contracts/token/ERC20/ERC20.sol\":8723:8728  owner */\n      dup4\n        /* \"@openzeppelin/contracts/token/ERC20/ERC20.sol\":8730:8737  spender */\n      dup4\n        /* \"@openzeppelin/contracts/token/ERC20/ERC20.sol\":8739:8744  value */\n      dup4\n        /* \"@openzeppelin/contracts/token/ERC20/ERC20.sol\":8746:8750  true */\n      0x01\n        /* \"@openzeppelin/contracts/token/ERC20/ERC20.sol\":8714:8722  _approve */\n      tag_301\n        /* \"@openzeppelin/contracts/token/ERC20/ERC20.sol\":8714:8751  _approve(owner, spender, value, true) */\n      jump\t// in\n    tag_300:\n        /* \"@openzeppelin/contracts/token/ERC20/ERC20.sol\":8630:8758  function _approve(address owner, address spender, uint256 value) internal {... */\n      pop\n      pop\n      pop\n      jump\t// out\n        /* \"@openzeppelin/contracts/token/ERC20/ERC20.sol\":10319:10795  function _spendAllowance(address owner, address spender, uint256 value) internal virtual {... */\n    tag_189:\n        /* \"@openzeppelin/contracts/token/ERC20/ERC20.sol\":10418:10442  uint256 currentAllowance */\n      0x00\n        /* \"@openzeppelin/contracts/token/ERC20/ERC20.sol\":10445:10470  allowance(owner, spender) */\n      tag_303\n        /* \"@openzeppelin/contracts/token/ERC20/ERC20.sol\":10455:10460  owner */\n      dup5\n        /* \"@openzeppelin/contracts/token/ERC20/ERC20.sol\":10462:10469  spender */\n      dup5\n        /* \"@openzeppelin/contracts/token/ERC20/ERC20.sol\":10445:10454  allowance */\n      tag_154\n        /* \"@openzeppelin/contracts/token/ERC20/ERC20.sol\":10445:10470  allowance(owner, spender) */\n      jump\t// in\n    tag_303:\n        /* \"@openzeppelin/contracts/token/ERC20/ERC20.sol\":10418:10470  uint256 currentAllowance = allowance(owner, spender) */\n      swap1\n      pop\n        /* \"@openzeppelin/contracts/token/ERC20/ERC20.sol\":10503:10520  type(uint256).max */\n      0xffffffffffffffffffffffffffffffffffffffffffffffffffffffffffffffff\n        /* \"@openzeppelin/contracts/token/ERC20/ERC20.sol\":10484:10500  currentAllowance */\n      dup2\n        /* \"@openzeppelin/contracts/token/ERC20/ERC20.sol\":10484:10520  currentAllowance < type(uint256).max */\n      lt\n        /* \"@openzeppelin/contracts/token/ERC20/ERC20.sol\":10480:10789  if (currentAllowance < type(uint256).max) {... */\n      iszero\n      tag_304\n      jumpi\n        /* \"@openzeppelin/contracts/token/ERC20/ERC20.sol\":10559:10564  value */\n      dup2\n        /* \"@openzeppelin/contracts/token/ERC20/ERC20.sol\":10540:10556  currentAllowance */\n      dup2\n        /* \"@openzeppelin/contracts/token/ERC20/ERC20.sol\":10540:10564  currentAllowance < value */\n      lt\n        /* \"@openzeppelin/contracts/token/ERC20/ERC20.sol\":10536:10666  if (currentAllowance < value) {... */\n      iszero\n      tag_305\n      jumpi\n        /* \"@openzeppelin/contracts/token/ERC20/ERC20.sol\":10618:10625  spender */\n      dup3\n        /* \"@openzeppelin/contracts/token/ERC20/ERC20.sol\":10627:10643  currentAllowance */\n      dup2\n        /* \"@openzeppelin/contracts/token/ERC20/ERC20.sol\":10645:10650  value */\n      dup4\n        /* \"@openzeppelin/contracts/token/ERC20/ERC20.sol\":10591:10651  ERC20InsufficientAllowance(spender, currentAllowance, value) */\n      mload(0x40)\n      0xfb8f41b200000000000000000000000000000000000000000000000000000000\n      dup2\n      mstore\n      0x04\n      add\n      tag_306\n      swap4\n      swap3\n      swap2\n      swap1\n      tag_307\n      jump\t// in\n    tag_306:\n      mload(0x40)\n      dup1\n      swap2\n      sub\n      swap1\n      revert\n        /* \"@openzeppelin/contracts/token/ERC20/ERC20.sol\":10536:10666  if (currentAllowance < value) {... */\n    tag_305:\n        /* \"@openzeppelin/contracts/token/ERC20/ERC20.sol\":10707:10764  _approve(owner, spender, currentAllowance - value, false) */\n      tag_308\n        /* \"@openzeppelin/contracts/token/ERC20/ERC20.sol\":10716:10721  owner */\n      dup5\n        /* \"@openzeppelin/contracts/token/ERC20/ERC20.sol\":10723:10730  spender */\n      dup5\n        /* \"@openzeppelin/contracts/token/ERC20/ERC20.sol\":10751:10756  value */\n      dup5\n        /* \"@openzeppelin/contracts/token/ERC20/ERC20.sol\":10732:10748  currentAllowance */\n      dup5\n        /* \"@openzeppelin/contracts/token/ERC20/ERC20.sol\":10732:10756  currentAllowance - value */\n      sub\n        /* \"@openzeppelin/contracts/token/ERC20/ERC20.sol\":10758:10763  false */\n      0x00\n        /* \"@openzeppelin/contracts/token/ERC20/ERC20.sol\":10707:10715  _approve */\n      tag_301\n        /* \"@openzeppelin/contracts/token/ERC20/ERC20.sol\":10707:10764  _approve(owner, spender, currentAllowance - value, false) */\n      jump\t// in\n    tag_308:\n        /* \"@openzeppelin/contracts/token/ERC20/ERC20.sol\":10480:10789  if (currentAllowance < type(uint256).max) {... */\n    tag_304:\n        /* \"@openzeppelin/contracts/token/ERC20/ERC20.sol\":10408:10795  {... */\n      pop\n        /* \"@openzeppelin/contracts/token/ERC20/ERC20.sol\":10319:10795  function _spendAllowance(address owner, address spender, uint256 value) internal virtual {... */\n      pop\n      pop\n      pop\n      jump\t// out\n        /* \"@openzeppelin/contracts/token/ERC20/ERC20.sol\":5297:5597  function _transfer(address from, address to, uint256 value) internal {... */\n    tag_191:\n        /* \"@openzeppelin/contracts/token/ERC20/ERC20.sol\":5396:5397  0 */\n      0x00\n        /* \"@openzeppelin/contracts/token/ERC20/ERC20.sol\":5380:5398  from == address(0) */\n      0xffffffffffffffffffffffffffffffffffffffff\n      and\n        /* \"@openzeppelin/contracts/token/ERC20/ERC20.sol\":5380:5384  from */\n      dup4\n        /* \"@openzeppelin/contracts/token/ERC20/ERC20.sol\":5380:5398  from == address(0) */\n      0xffffffffffffffffffffffffffffffffffffffff\n      and\n      sub\n        /* \"@openzeppelin/contracts/token/ERC20/ERC20.sol\":5376:5462  if (from == address(0)) {... */\n      tag_310\n      jumpi\n        /* \"@openzeppelin/contracts/token/ERC20/ERC20.sol\":5448:5449  0 */\n      0x00\n        /* \"@openzeppelin/contracts/token/ERC20/ERC20.sol\":5421:5451  ERC20InvalidSender(address(0)) */\n      mload(0x40)\n      0x96c6fd1e00000000000000000000000000000000000000000000000000000000\n      dup2\n      mstore\n      0x04\n      add\n      tag_311\n      swap2\n      swap1\n      tag_81\n      jump\t// in\n    tag_311:\n      mload(0x40)\n      dup1\n      swap2\n      sub\n      swap1\n      revert\n        /* \"@openzeppelin/contracts/token/ERC20/ERC20.sol\":5376:5462  if (from == address(0)) {... */\n    tag_310:\n        /* \"@openzeppelin/contracts/token/ERC20/ERC20.sol\":5489:5490  0 */\n      0x00\n        /* \"@openzeppelin/contracts/token/ERC20/ERC20.sol\":5475:5491  to == address(0) */\n      0xffffffffffffffffffffffffffffffffffffffff\n      and\n        /* \"@openzeppelin/contracts/token/ERC20/ERC20.sol\":5475:5477  to */\n      dup3\n        /* \"@openzeppelin/contracts/token/ERC20/ERC20.sol\":5475:5491  to == address(0) */\n      0xffffffffffffffffffffffffffffffffffffffff\n      and\n      sub\n        /* \"@openzeppelin/contracts/token/ERC20/ERC20.sol\":5471:5557  if (to == address(0)) {... */\n      tag_312\n      jumpi\n        /* \"@openzeppelin/contracts/token/ERC20/ERC20.sol\":5543:5544  0 */\n      0x00\n        /* \"@openzeppelin/contracts/token/ERC20/ERC20.sol\":5514:5546  ERC20InvalidReceiver(address(0)) */\n      mload(0x40)\n      0xec442f0500000000000000000000000000000000000000000000000000000000\n      dup2\n      mstore\n      0x04\n      add\n      tag_313\n      swap2\n      swap1\n      tag_81\n      jump\t// in\n    tag_313:\n      mload(0x40)\n      dup1\n      swap2\n      sub\n      swap1\n      revert\n        /* \"@openzeppelin/contracts/token/ERC20/ERC20.sol\":5471:5557  if (to == address(0)) {... */\n    tag_312:\n        /* \"@openzeppelin/contracts/token/ERC20/ERC20.sol\":5566:5590  _update(from, to, value) */\n      tag_314\n        /* \"@openzeppelin/contracts/token/ERC20/ERC20.sol\":5574:5578  from */\n      dup4\n        /* \"@openzeppelin/contracts/token/ERC20/ERC20.sol\":5580:5582  to */\n      dup4\n        /* \"@openzeppelin/contracts/token/ERC20/ERC20.sol\":5584:5589  value */\n      dup4\n        /* \"@openzeppelin/contracts/token/ERC20/ERC20.sol\":5566:5573  _update */\n      tag_315\n        /* \"@openzeppelin/contracts/token/ERC20/ERC20.sol\":5566:5590  _update(from, to, value) */\n      jump\t// in\n    tag_314:\n        /* \"@openzeppelin/contracts/token/ERC20/ERC20.sol\":5297:5597  function _transfer(address from, address to, uint256 value) internal {... */\n      pop\n      pop\n      pop\n      jump\t// out\n        /* \"@openzeppelin/contracts/token/ERC20/ERC20.sol\":7888:8094  function _burn(address account, uint256 value) internal {... */\n    tag_203:\n        /* \"@openzeppelin/contracts/token/ERC20/ERC20.sol\":7977:7978  0 */\n      0x00\n        /* \"@openzeppelin/contracts/token/ERC20/ERC20.sol\":7958:7979  account == address(0) */\n      0xffffffffffffffffffffffffffffffffffffffff\n      and\n        /* \"@openzeppelin/contracts/token/ERC20/ERC20.sol\":7958:7965  account */\n      dup3\n        /* \"@openzeppelin/contracts/token/ERC20/ERC20.sol\":7958:7979  account == address(0) */\n      0xffffffffffffffffffffffffffffffffffffffff\n      and\n      sub\n        /* \"@openzeppelin/contracts/token/ERC20/ERC20.sol\":7954:8043  if (account == address(0)) {... */\n      tag_317\n      jumpi\n        /* \"@openzeppelin/contracts/token/ERC20/ERC20.sol\":8029:8030  0 */\n      0x00\n        /* \"@openzeppelin/contracts/token/ERC20/ERC20.sol\":8002:8032  ERC20InvalidSender(address(0)) */\n      mload(0x40)\n      0x96c6fd1e00000000000000000000000000000000000000000000000000000000\n      dup2\n      mstore\n      0x04\n      add\n      tag_318\n      swap2\n      swap1\n      tag_81\n      jump\t// in\n    tag_318:\n      mload(0x40)\n      dup1\n      swap2\n      sub\n      swap1\n      revert\n        /* \"@openzeppelin/contracts/token/ERC20/ERC20.sol\":7954:8043  if (account == address(0)) {... */\n    tag_317:\n        /* \"@openzeppelin/contracts/token/ERC20/ERC20.sol\":8052:8087  _update(account, address(0), value) */\n      tag_319\n        /* \"@openzeppelin/contracts/token/ERC20/ERC20.sol\":8060:8067  account */\n      dup3\n        /* \"@openzeppelin/contracts/token/ERC20/ERC20.sol\":8077:8078  0 */\n      0x00\n        /* \"@openzeppelin/contracts/token/ERC20/ERC20.sol\":8081:8086  value */\n      dup4\n        /* \"@openzeppelin/contracts/token/ERC20/ERC20.sol\":8052:8059  _update */\n      tag_315\n        /* \"@openzeppelin/contracts/token/ERC20/ERC20.sol\":8052:8087  _update(account, address(0), value) */\n      jump\t// in\n    tag_319:\n        /* \"@openzeppelin/contracts/token/ERC20/ERC20.sol\":7888:8094  function _burn(address account, uint256 value) internal {... */\n      pop\n      pop\n      jump\t// out\n        /* \"@openzeppelin/contracts/token/ERC20/ERC20.sol\":7362:7570  function _mint(address account, uint256 value) internal {... */\n    tag_213:\n        /* \"@openzeppelin/contracts/token/ERC20/ERC20.sol\":7451:7452  0 */\n      0x00\n        /* \"@openzeppelin/contracts/token/ERC20/ERC20.sol\":7432:7453  account == address(0) */\n      0xffffffffffffffffffffffffffffffffffffffff\n      and\n        /* \"@openzeppelin/contracts/token/ERC20/ERC20.sol\":7432:7439  account */\n      dup3\n        /* \"@openzeppelin/contracts/token/ERC20/ERC20.sol\":7432:7453  account == address(0) */\n      0xffffffffffffffffffffffffffffffffffffffff\n      and\n      sub\n        /* \"@openzeppelin/contracts/token/ERC20/ERC20.sol\":7428:7519  if (account == address(0)) {... */\n      tag_321\n      jumpi\n        /* \"@openzeppelin/contracts/token/ERC20/ERC20.sol\":7505:7506  0 */\n      0x00\n        /* \"@openzeppelin/contracts/token/ERC20/ERC20.sol\":7476:7508  ERC20InvalidReceiver(address(0)) */\n      mload(0x40)\n      0xec442f0500000000000000000000000000000000000000000000000000000000\n      dup2\n      mstore\n      0x04\n      add\n      tag_322\n      swap2\n      swap1\n      tag_81\n      jump\t// in\n    tag_322:\n      mload(0x40)\n      dup1\n      swap2\n      sub\n      swap1\n      revert\n        /* \"@openzeppelin/contracts/token/ERC20/ERC20.sol\":7428:7519  if (account == address(0)) {... */\n    tag_321:\n        /* \"@openzeppelin/contracts/token/ERC20/ERC20.sol\":7528:7563  _update(address(0), account, value) */\n      tag_323\n        /* \"@openzeppelin/contracts/token/ERC20/ERC20.sol\":7544:7545  0 */\n      0x00\n        /* \"@openzeppelin/contracts/token/ERC20/ERC20.sol\":7548:7555  account */\n      dup4\n        /* \"@openzeppelin/contracts/token/ERC20/ERC20.sol\":7557:7562  value */\n      dup4\n        /* \"@openzeppelin/contracts/token/ERC20/ERC20.sol\":7528:7535  _update */\n      tag_315\n        /* \"@openzeppelin/contracts/token/ERC20/ERC20.sol\":7528:7563  _update(address(0), account, value) */\n      jump\t// in\n    tag_323:\n        /* \"@openzeppelin/contracts/token/ERC20/ERC20.sol\":7362:7570  function _mint(address account, uint256 value) internal {... */\n      pop\n      pop\n      jump\t// out\n        /* \"@openzeppelin/contracts/token/ERC20/ERC20.sol\":9605:10037  function _approve(address owner, address spender, uint256 value, bool emitEvent) internal virtual {... */\n    tag_301:\n        /* \"@openzeppelin/contracts/token/ERC20/ERC20.sol\":9734:9735  0 */\n      0x00\n        /* \"@openzeppelin/contracts/token/ERC20/ERC20.sol\":9717:9736  owner == address(0) */\n      0xffffffffffffffffffffffffffffffffffffffff\n      and\n        /* \"@openzeppelin/contracts/token/ERC20/ERC20.sol\":9717:9722  owner */\n      dup5\n        /* \"@openzeppelin/contracts/token/ERC20/ERC20.sol\":9717:9736  owner == address(0) */\n      0xffffffffffffffffffffffffffffffffffffffff\n      and\n      sub\n        /* \"@openzeppelin/contracts/token/ERC20/ERC20.sol\":9713:9802  if (owner == address(0)) {... */\n      tag_325\n      jumpi\n        /* \"@openzeppelin/contracts/token/ERC20/ERC20.sol\":9788:9789  0 */\n      0x00\n        /* \"@openzeppelin/contracts/token/ERC20/ERC20.sol\":9759:9791  ERC20InvalidApprover(address(0)) */\n      mload(0x40)\n      0xe602df0500000000000000000000000000000000000000000000000000000000\n      dup2\n      mstore\n      0x04\n      add\n      tag_326\n      swap2\n      swap1\n      tag_81\n      jump\t// in\n    tag_326:\n      mload(0x40)\n      dup1\n      swap2\n      sub\n      swap1\n      revert\n        /* \"@openzeppelin/contracts/token/ERC20/ERC20.sol\":9713:9802  if (owner == address(0)) {... */\n    tag_325:\n        /* \"@openzeppelin/contracts/token/ERC20/ERC20.sol\":9834:9835  0 */\n      0x00\n        /* \"@openzeppelin/contracts/token/ERC20/ERC20.sol\":9815:9836  spender == address(0) */\n      0xffffffffffffffffffffffffffffffffffffffff\n      and\n        /* \"@openzeppelin/contracts/token/ERC20/ERC20.sol\":9815:9822  spender */\n      dup4\n        /* \"@openzeppelin/contracts/token/ERC20/ERC20.sol\":9815:9836  spender == address(0) */\n      0xffffffffffffffffffffffffffffffffffffffff\n      and\n      sub\n        /* \"@openzeppelin/contracts/token/ERC20/ERC20.sol\":9811:9901  if (spender == address(0)) {... */\n      tag_327\n      jumpi\n        /* \"@openzeppelin/contracts/token/ERC20/ERC20.sol\":9887:9888  0 */\n      0x00\n        /* \"@openzeppelin/contracts/token/ERC20/ERC20.sol\":9859:9890  ERC20InvalidSpender(address(0)) */\n      mload(0x40)\n      0x94280d6200000000000000000000000000000000000000000000000000000000\n      dup2\n      mstore\n      0x04\n      add\n      tag_328\n      swap2\n      swap1\n      tag_81\n      jump\t// in\n    tag_328:\n      mload(0x40)\n      dup1\n      swap2\n      sub\n      swap1\n      revert\n        /* \"@openzeppelin/contracts/token/ERC20/ERC20.sol\":9811:9901  if (spender == address(0)) {... */\n    tag_327:\n        /* \"@openzeppelin/contracts/token/ERC20/ERC20.sol\":9940:9945  value */\n      dup2\n        /* \"@openzeppelin/contracts/token/ERC20/ERC20.sol\":9910:9921  _allowances */\n      0x01\n        /* \"@openzeppelin/contracts/token/ERC20/ERC20.sol\":9910:9928  _allowances[owner] */\n      0x00\n        /* \"@openzeppelin/contracts/token/ERC20/ERC20.sol\":9922:9927  owner */\n      dup7\n        /* \"@openzeppelin/contracts/token/ERC20/ERC20.sol\":9910:9928  _allowances[owner] */\n      0xffffffffffffffffffffffffffffffffffffffff\n      and\n      0xffffffffffffffffffffffffffffffffffffffff\n      and\n      dup2\n      mstore\n      0x20\n      add\n      swap1\n      dup2\n      mstore\n      0x20\n      add\n      0x00\n      keccak256\n        /* \"@openzeppelin/contracts/token/ERC20/ERC20.sol\":9910:9937  _allowances[owner][spender] */\n      0x00\n        /* \"@openzeppelin/contracts/token/ERC20/ERC20.sol\":9929:9936  spender */\n      dup6\n        /* \"@openzeppelin/contracts/token/ERC20/ERC20.sol\":9910:9937  _allowances[owner][spender] */\n      0xffffffffffffffffffffffffffffffffffffffff\n      and\n      0xffffffffffffffffffffffffffffffffffffffff\n      and\n      dup2\n      mstore\n      0x20\n      add\n      swap1\n      dup2\n      mstore\n      0x20\n      add\n      0x00\n      keccak256\n        /* \"@openzeppelin/contracts/token/ERC20/ERC20.sol\":9910:9945  _allowances[owner][spender] = value */\n      dup2\n      swap1\n      sstore\n      pop\n        /* \"@openzeppelin/contracts/token/ERC20/ERC20.sol\":9959:9968  emitEvent */\n      dup1\n        /* \"@openzeppelin/contracts/token/ERC20/ERC20.sol\":9955:10031  if (emitEvent) {... */\n      iszero\n      tag_329\n      jumpi\n        /* \"@openzeppelin/contracts/token/ERC20/ERC20.sol\":10005:10012  spender */\n      dup3\n        /* \"@openzeppelin/contracts/token/ERC20/ERC20.sol\":9989:10020  Approval(owner, spender, value) */\n      0xffffffffffffffffffffffffffffffffffffffff\n      and\n        /* \"@openzeppelin/contracts/token/ERC20/ERC20.sol\":9998:10003  owner */\n      dup5\n        /* \"@openzeppelin/contracts/token/ERC20/ERC20.sol\":9989:10020  Approval(owner, spender, value) */\n      0xffffffffffffffffffffffffffffffffffffffff\n      and\n      0x8c5be1e5ebec7d5bd14f71427d1e84f3dd0314c0f7b2291e5b200ac8c7c3b925\n        /* \"@openzeppelin/contracts/token/ERC20/ERC20.sol\":10014:10019  value */\n      dup5\n        /* \"@openzeppelin/contracts/token/ERC20/ERC20.sol\":9989:10020  Approval(owner, spender, value) */\n      mload(0x40)\n      tag_330\n      swap2\n      swap1\n      tag_59\n      jump\t// in\n    tag_330:\n      mload(0x40)\n      dup1\n      swap2\n      sub\n      swap1\n      log3\n        /* \"@openzeppelin/contracts/token/ERC20/ERC20.sol\":9955:10031  if (emitEvent) {... */\n    tag_329:\n        /* \"@openzeppelin/contracts/token/ERC20/ERC20.sol\":9605:10037  function _approve(address owner, address spender, uint256 value, bool emitEvent) internal virtual {... */\n      pop\n      pop\n      pop\n      pop\n      jump\t// out\n        /* \"@openzeppelin/contracts/token/ERC20/ERC20.sol\":5912:7019  function _update(address from, address to, uint256 value) internal virtual {... */\n    tag_315:\n        /* \"@openzeppelin/contracts/token/ERC20/ERC20.sol\":6017:6018  0 */\n      0x00\n        /* \"@openzeppelin/contracts/token/ERC20/ERC20.sol\":6001:6019  from == address(0) */\n      0xffffffffffffffffffffffffffffffffffffffff\n      and\n        /* \"@openzeppelin/contracts/token/ERC20/ERC20.sol\":6001:6005  from */\n      dup4\n        /* \"@openzeppelin/contracts/token/ERC20/ERC20.sol\":6001:6019  from == address(0) */\n      0xffffffffffffffffffffffffffffffffffffffff\n      and\n      sub\n        /* \"@openzeppelin/contracts/token/ERC20/ERC20.sol\":5997:6537  if (from == address(0)) {... */\n      tag_332\n      jumpi\n        /* \"@openzeppelin/contracts/token/ERC20/ERC20.sol\":6153:6158  value */\n      dup1\n        /* \"@openzeppelin/contracts/token/ERC20/ERC20.sol\":6137:6149  _totalSupply */\n      0x02\n      0x00\n        /* \"@openzeppelin/contracts/token/ERC20/ERC20.sol\":6137:6158  _totalSupply += value */\n      dup3\n      dup3\n      sload\n      tag_333\n      swap2\n      swap1\n      tag_218\n      jump\t// in\n    tag_333:\n      swap3\n      pop\n      pop\n      dup2\n      swap1\n      sstore\n      pop\n        /* \"@openzeppelin/contracts/token/ERC20/ERC20.sol\":5997:6537  if (from == address(0)) {... */\n      jump(tag_334)\n    tag_332:\n        /* \"@openzeppelin/contracts/token/ERC20/ERC20.sol\":6189:6208  uint256 fromBalance */\n      0x00\n        /* \"@openzeppelin/contracts/token/ERC20/ERC20.sol\":6211:6220  _balances */\n      dup1\n        /* \"@openzeppelin/contracts/token/ERC20/ERC20.sol\":6211:6226  _balances[from] */\n      0x00\n        /* \"@openzeppelin/contracts/token/ERC20/ERC20.sol\":6221:6225  from */\n      dup6\n        /* \"@openzeppelin/contracts/token/ERC20/ERC20.sol\":6211:6226  _balances[from] */\n      0xffffffffffffffffffffffffffffffffffffffff\n      and\n      0xffffffffffffffffffffffffffffffffffffffff\n      and\n      dup2\n      mstore\n      0x20\n      add\n      swap1\n      dup2\n      mstore\n      0x20\n      add\n      0x00\n      keccak256\n      sload\n        /* \"@openzeppelin/contracts/token/ERC20/ERC20.sol\":6189:6226  uint256 fromBalance = _balances[from] */\n      swap1\n      pop\n        /* \"@openzeppelin/contracts/token/ERC20/ERC20.sol\":6258:6263  value */\n      dup2\n        /* \"@openzeppelin/contracts/token/ERC20/ERC20.sol\":6244:6255  fromBalance */\n      dup2\n        /* \"@openzeppelin/contracts/token/ERC20/ERC20.sol\":6244:6263  fromBalance < value */\n      lt\n        /* \"@openzeppelin/contracts/token/ERC20/ERC20.sol\":6240:6355  if (fromBalance < value) {... */\n      iszero\n      tag_335\n      jumpi\n        /* \"@openzeppelin/contracts/token/ERC20/ERC20.sol\":6315:6319  from */\n      dup4\n        /* \"@openzeppelin/contracts/token/ERC20/ERC20.sol\":6321:6332  fromBalance */\n      dup2\n        /* \"@openzeppelin/contracts/token/ERC20/ERC20.sol\":6334:6339  value */\n      dup4\n        /* \"@openzeppelin/contracts/token/ERC20/ERC20.sol\":6290:6340  ERC20InsufficientBalance(from, fromBalance, value) */\n      mload(0x40)\n      0xe450d38c00000000000000000000000000000000000000000000000000000000\n      dup2\n      mstore\n      0x04\n      add\n      tag_336\n      swap4\n      swap3\n      swap2\n      swap1\n      tag_307\n      jump\t// in\n    tag_336:\n      mload(0x40)\n      dup1\n      swap2\n      sub\n      swap1\n      revert\n        /* \"@openzeppelin/contracts/token/ERC20/ERC20.sol\":6240:6355  if (fromBalance < value) {... */\n    tag_335:\n        /* \"@openzeppelin/contracts/token/ERC20/ERC20.sol\":6507:6512  value */\n      dup2\n        /* \"@openzeppelin/contracts/token/ERC20/ERC20.sol\":6493:6504  fromBalance */\n      dup2\n        /* \"@openzeppelin/contracts/token/ERC20/ERC20.sol\":6493:6512  fromBalance - value */\n      sub\n        /* \"@openzeppelin/contracts/token/ERC20/ERC20.sol\":6475:6484  _balances */\n      0x00\n        /* \"@openzeppelin/contracts/token/ERC20/ERC20.sol\":6475:6490  _balances[from] */\n      dup1\n        /* \"@openzeppelin/contracts/token/ERC20/ERC20.sol\":6485:6489  from */\n      dup7\n        /* \"@openzeppelin/contracts/token/ERC20/ERC20.sol\":6475:6490  _balances[from] */\n      0xffffffffffffffffffffffffffffffffffffffff\n      and\n      0xffffffffffffffffffffffffffffffffffffffff\n      and\n      dup2\n      mstore\n      0x20\n      add\n      swap1\n      dup2\n      mstore\n      0x20\n      add\n      0x00\n      keccak256\n        /* \"@openzeppelin/contracts/token/ERC20/ERC20.sol\":6475:6512  _balances[from] = fromBalance - value */\n      dup2\n      swap1\n      sstore\n      pop\n        /* \"@openzeppelin/contracts/token/ERC20/ERC20.sol\":6175:6537  {... */\n      pop\n        /* \"@openzeppelin/contracts/token/ERC20/ERC20.sol\":5997:6537  if (from == address(0)) {... */\n    tag_334:\n        /* \"@openzeppelin/contracts/token/ERC20/ERC20.sol\":6565:6566  0 */\n      0x00\n        /* \"@openzeppelin/contracts/token/ERC20/ERC20.sol\":6551:6567  to == address(0) */\n      0xffffffffffffffffffffffffffffffffffffffff\n      and\n        /* \"@openzeppelin/contracts/token/ERC20/ERC20.sol\":6551:6553  to */\n      dup3\n        /* \"@openzeppelin/contracts/token/ERC20/ERC20.sol\":6551:6567  to == address(0) */\n      0xffffffffffffffffffffffffffffffffffffffff\n      and\n      sub\n        /* \"@openzeppelin/contracts/token/ERC20/ERC20.sol\":6547:6972  if (to == address(0)) {... */\n      tag_337\n      jumpi\n        /* \"@openzeppelin/contracts/token/ERC20/ERC20.sol\":6730:6735  value */\n      dup1\n        /* \"@openzeppelin/contracts/token/ERC20/ERC20.sol\":6714:6726  _totalSupply */\n      0x02\n      0x00\n        /* \"@openzeppelin/contracts/token/ERC20/ERC20.sol\":6714:6735  _totalSupply -= value */\n      dup3\n      dup3\n      sload\n      sub\n      swap3\n      pop\n      pop\n      dup2\n      swap1\n      sstore\n      pop\n        /* \"@openzeppelin/contracts/token/ERC20/ERC20.sol\":6547:6972  if (to == address(0)) {... */\n      jump(tag_338)\n    tag_337:\n        /* \"@openzeppelin/contracts/token/ERC20/ERC20.sol\":6942:6947  value */\n      dup1\n        /* \"@openzeppelin/contracts/token/ERC20/ERC20.sol\":6925:6934  _balances */\n      0x00\n        /* \"@openzeppelin/contracts/token/ERC20/ERC20.sol\":6925:6938  _balances[to] */\n      dup1\n        /* \"@openzeppelin/contracts/token/ERC20/ERC20.sol\":6935:6937  to */\n      dup5\n        /* \"@openzeppelin/contracts/token/ERC20/ERC20.sol\":6925:6938  _balances[to] */\n      0xffffffffffffffffffffffffffffffffffffffff\n      and\n      0xffffffffffffffffffffffffffffffffffffffff\n      and\n      dup2\n      mstore\n      0x20\n      add\n      swap1\n      dup2\n      mstore\n      0x20\n      add\n      0x00\n      keccak256\n      0x00\n        /* \"@openzeppelin/contracts/token/ERC20/ERC20.sol\":6925:6947  _balances[to] += value */\n      dup3\n      dup3\n      sload\n      add\n      swap3\n      pop\n      pop\n      dup2\n      swap1\n      sstore\n      pop\n        /* \"@openzeppelin/contracts/token/ERC20/ERC20.sol\":6547:6972  if (to == address(0)) {... */\n    tag_338:\n        /* \"@openzeppelin/contracts/token/ERC20/ERC20.sol\":7002:7004  to */\n      dup2\n        /* \"@openzeppelin/contracts/token/ERC20/ERC20.sol\":6987:7012  Transfer(from, to, value) */\n      0xffffffffffffffffffffffffffffffffffffffff\n      and\n        /* \"@openzeppelin/contracts/token/ERC20/ERC20.sol\":6996:7000  from */\n      dup4\n        /* \"@openzeppelin/contracts/token/ERC20/ERC20.sol\":6987:7012  Transfer(from, to, value) */\n      0xffffffffffffffffffffffffffffffffffffffff\n      and\n      0xddf252ad1be2c89b69c2b068fc378daa952ba7f163c4a11628f55a4df523b3ef\n        /* \"@openzeppelin/contracts/token/ERC20/ERC20.sol\":7006:7011  value */\n      dup4\n        /* \"@openzeppelin/contracts/token/ERC20/ERC20.sol\":6987:7012  Transfer(from, to, value) */\n      mload(0x40)\n      tag_339\n      swap2\n      swap1\n      tag_59\n      jump\t// in\n    tag_339:\n      mload(0x40)\n      dup1\n      swap2\n      sub\n      swap1\n      log3\n        /* \"@openzeppelin/contracts/token/ERC20/ERC20.sol\":5912:7019  function _update(address from, address to, uint256 value) internal virtual {... */\n      pop\n      pop\n      pop\n      jump\t// out\n        /* \"#utility.yul\":7:121   */\n    tag_340:\n        /* \"#utility.yul\":74:80   */\n      0x00\n        /* \"#utility.yul\":108:113   */\n      dup2\n        /* \"#utility.yul\":102:114   */\n      mload\n        /* \"#utility.yul\":92:114   */\n      swap1\n      pop\n        /* \"#utility.yul\":7:121   */\n      swap2\n      swap1\n      pop\n      jump\t// out\n        /* \"#utility.yul\":127:311   */\n    tag_341:\n        /* \"#utility.yul\":226:237   */\n      0x00\n        /* \"#utility.yul\":260:266   */\n      dup3\n        /* \"#utility.yul\":255:258   */\n      dup3\n        /* \"#utility.yul\":248:267   */\n      mstore\n        /* \"#utility.yul\":300:304   */\n      0x20\n        /* \"#utility.yul\":295:298   */\n      dup3\n        /* \"#utility.yul\":291:305   */\n      add\n        /* \"#utility.yul\":276:305   */\n      swap1\n      pop\n        /* \"#utility.yul\":127:311   */\n      swap3\n      swap2\n      pop\n      pop\n      jump\t// out\n        /* \"#utility.yul\":317:449   */\n    tag_342:\n        /* \"#utility.yul\":384:388   */\n      0x00\n        /* \"#utility.yul\":407:410   */\n      dup2\n        /* \"#utility.yul\":399:410   */\n      swap1\n      pop\n        /* \"#utility.yul\":437:441   */\n      0x20\n        /* \"#utility.yul\":432:435   */\n      dup3\n        /* \"#utility.yul\":428:442   */\n      add\n        /* \"#utility.yul\":420:442   */\n      swap1\n      pop\n        /* \"#utility.yul\":317:449   */\n      swap2\n      swap1\n      pop\n      jump\t// out\n        /* \"#utility.yul\":455:581   */\n    tag_343:\n        /* \"#utility.yul\":492:499   */\n      0x00\n        /* \"#utility.yul\":532:574   */\n      0xffffffffffffffffffffffffffffffffffffffff\n        /* \"#utility.yul\":525:530   */\n      dup3\n        /* \"#utility.yul\":521:575   */\n      and\n        /* \"#utility.yul\":510:575   */\n      swap1\n      pop\n        /* \"#utility.yul\":455:581   */\n      swap2\n      swap1\n      pop\n      jump\t// out\n        /* \"#utility.yul\":587:683   */\n    tag_344:\n        /* \"#utility.yul\":624:631   */\n      0x00\n        /* \"#utility.yul\":653:677   */\n      tag_414\n        /* \"#utility.yul\":671:676   */\n      dup3\n        /* \"#utility.yul\":653:677   */\n      tag_343\n      jump\t// in\n    tag_414:\n        /* \"#utility.yul\":642:677   */\n      swap1\n      pop\n        /* \"#utility.yul\":587:683   */\n      swap2\n      swap1\n      pop\n      jump\t// out\n        /* \"#utility.yul\":689:797   */\n    tag_345:\n        /* \"#utility.yul\":766:790   */\n      tag_416\n        /* \"#utility.yul\":784:789   */\n      dup2\n        /* \"#utility.yul\":766:790   */\n      tag_344\n      jump\t// in\n    tag_416:\n        /* \"#utility.yul\":761:764   */\n      dup3\n        /* \"#utility.yul\":754:791   */\n      mstore\n        /* \"#utility.yul\":689:797   */\n      pop\n      pop\n      jump\t// out\n        /* \"#utility.yul\":803:982   */\n    tag_346:\n        /* \"#utility.yul\":872:882   */\n      0x00\n        /* \"#utility.yul\":893:939   */\n      tag_418\n        /* \"#utility.yul\":935:938   */\n      dup4\n        /* \"#utility.yul\":927:933   */\n      dup4\n        /* \"#utility.yul\":893:939   */\n      tag_345\n      jump\t// in\n    tag_418:\n        /* \"#utility.yul\":971:975   */\n      0x20\n        /* \"#utility.yul\":966:969   */\n      dup4\n        /* \"#utility.yul\":962:976   */\n      add\n        /* \"#utility.yul\":948:976   */\n      swap1\n      pop\n        /* \"#utility.yul\":803:982   */\n      swap3\n      swap2\n      pop\n      pop\n      jump\t// out\n        /* \"#utility.yul\":988:1101   */\n    tag_347:\n        /* \"#utility.yul\":1058:1062   */\n      0x00\n        /* \"#utility.yul\":1090:1094   */\n      0x20\n        /* \"#utility.yul\":1085:1088   */\n      dup3\n        /* \"#utility.yul\":1081:1095   */\n      add\n        /* \"#utility.yul\":1073:1095   */\n      swap1\n      pop\n        /* \"#utility.yul\":988:1101   */\n      swap2\n      swap1\n      pop\n      jump\t// out\n        /* \"#utility.yul\":1137:1869   */\n    tag_348:\n        /* \"#utility.yul\":1256:1259   */\n      0x00\n        /* \"#utility.yul\":1285:1339   */\n      tag_421\n        /* \"#utility.yul\":1333:1338   */\n      dup3\n        /* \"#utility.yul\":1285:1339   */\n      tag_340\n      jump\t// in\n    tag_421:\n        /* \"#utility.yul\":1355:1441   */\n      tag_422\n        /* \"#utility.yul\":1434:1440   */\n      dup2\n        /* \"#utility.yul\":1429:1432   */\n      dup6\n        /* \"#utility.yul\":1355:1441   */\n      tag_341\n      jump\t// in\n    tag_422:\n        /* \"#utility.yul\":1348:1441   */\n      swap4\n      pop\n        /* \"#utility.yul\":1465:1521   */\n      tag_423\n        /* \"#utility.yul\":1515:1520   */\n      dup4\n        /* \"#utility.yul\":1465:1521   */\n      tag_342\n      jump\t// in\n    tag_423:\n        /* \"#utility.yul\":1544:1551   */\n      dup1\n        /* \"#utility.yul\":1575:1576   */\n      0x00\n        /* \"#utility.yul\":1560:1844   */\n    tag_424:\n        /* \"#utility.yul\":1585:1591   */\n      dup4\n        /* \"#utility.yul\":1582:1583   */\n      dup2\n        /* \"#utility.yul\":1579:1592   */\n      lt\n        /* \"#utility.yul\":1560:1844   */\n      iszero\n      tag_426\n      jumpi\n        /* \"#utility.yul\":1661:1667   */\n      dup2\n        /* \"#utility.yul\":1655:1668   */\n      mload\n        /* \"#utility.yul\":1688:1751   */\n      tag_427\n        /* \"#utility.yul\":1747:1750   */\n      dup9\n        /* \"#utility.yul\":1732:1745   */\n      dup3\n        /* \"#utility.yul\":1688:1751   */\n      tag_346\n      jump\t// in\n    tag_427:\n        /* \"#utility.yul\":1681:1751   */\n      swap8\n      pop\n        /* \"#utility.yul\":1774:1834   */\n      tag_428\n        /* \"#utility.yul\":1827:1833   */\n      dup4\n        /* \"#utility.yul\":1774:1834   */\n      tag_347\n      jump\t// in\n    tag_428:\n        /* \"#utility.yul\":1764:1834   */\n      swap3\n      pop\n        /* \"#utility.yul\":1620:1844   */\n      pop\n        /* \"#utility.yul\":1607:1608   */\n      0x01\n        /* \"#utility.yul\":1604:1605   */\n      dup2\n        /* \"#utility.yul\":1600:1609   */\n      add\n        /* \"#utility.yul\":1595:1609   */\n      swap1\n      pop\n        /* \"#utility.yul\":1560:1844   */\n      jump(tag_424)\n    tag_426:\n        /* \"#utility.yul\":1564:1578   */\n      pop\n        /* \"#utility.yul\":1860:1863   */\n      dup6\n        /* \"#utility.yul\":1853:1863   */\n      swap4\n      pop\n        /* \"#utility.yul\":1261:1869   */\n      pop\n      pop\n      pop\n        /* \"#utility.yul\":1137:1869   */\n      swap3\n      swap2\n      pop\n      pop\n      jump\t// out\n        /* \"#utility.yul\":1875:2248   */\n    tag_40:\n        /* \"#utility.yul\":2018:2022   */\n      0x00\n        /* \"#utility.yul\":2056:2058   */\n      0x20\n        /* \"#utility.yul\":2045:2054   */\n      dup3\n        /* \"#utility.yul\":2041:2059   */\n      add\n        /* \"#utility.yul\":2033:2059   */\n      swap1\n      pop\n        /* \"#utility.yul\":2105:2114   */\n      dup2\n        /* \"#utility.yul\":2099:2103   */\n      dup2\n        /* \"#utility.yul\":2095:2115   */\n      sub\n        /* \"#utility.yul\":2091:2092   */\n      0x00\n        /* \"#utility.yul\":2080:2089   */\n      dup4\n        /* \"#utility.yul\":2076:2093   */\n      add\n        /* \"#utility.yul\":2069:2116   */\n      mstore\n        /* \"#utility.yul\":2133:2241   */\n      tag_430\n        /* \"#utility.yul\":2236:2240   */\n      dup2\n        /* \"#utility.yul\":2227:2233   */\n      dup5\n        /* \"#utility.yul\":2133:2241   */\n      tag_348\n      jump\t// in\n    tag_430:\n        /* \"#utility.yul\":2125:2241   */\n      swap1\n      pop\n        /* \"#utility.yul\":1875:2248   */\n      swap3\n      swap2\n      pop\n      pop\n      jump\t// out\n        /* \"#utility.yul\":2254:2353   */\n    tag_349:\n        /* \"#utility.yul\":2306:2312   */\n      0x00\n        /* \"#utility.yul\":2340:2345   */\n      dup2\n        /* \"#utility.yul\":2334:2346   */\n      mload\n        /* \"#utility.yul\":2324:2346   */\n      swap1\n      pop\n        /* \"#utility.yul\":2254:2353   */\n      swap2\n      swap1\n      pop\n      jump\t// out\n        /* \"#utility.yul\":2359:2528   */\n    tag_350:\n        /* \"#utility.yul\":2443:2454   */\n      0x00\n        /* \"#utility.yul\":2477:2483   */\n      dup3\n        /* \"#utility.yul\":2472:2475   */\n      dup3\n        /* \"#utility.yul\":2465:2484   */\n      mstore\n        /* \"#utility.yul\":2517:2521   */\n      0x20\n        /* \"#utility.yul\":2512:2515   */\n      dup3\n        /* \"#utility.yul\":2508:2522   */\n      add\n        /* \"#utility.yul\":2493:2522   */\n      swap1\n      pop\n        /* \"#utility.yul\":2359:2528   */\n      swap3\n      swap2\n      pop\n      pop\n      jump\t// out\n        /* \"#utility.yul\":2534:2780   */\n    tag_351:\n        /* \"#utility.yul\":2615:2616   */\n      0x00\n        /* \"#utility.yul\":2625:2738   */\n    tag_434:\n        /* \"#utility.yul\":2639:2645   */\n      dup4\n        /* \"#utility.yul\":2636:2637   */\n      dup2\n        /* \"#utility.yul\":2633:2646   */\n      lt\n        /* \"#utility.yul\":2625:2738   */\n      iszero\n      tag_436\n      jumpi\n        /* \"#utility.yul\":2724:2725   */\n      dup1\n        /* \"#utility.yul\":2719:2722   */\n      dup3\n        /* \"#utility.yul\":2715:2726   */\n      add\n        /* \"#utility.yul\":2709:2727   */\n      mload\n        /* \"#utility.yul\":2705:2706   */\n      dup2\n        /* \"#utility.yul\":2700:2703   */\n      dup5\n        /* \"#utility.yul\":2696:2707   */\n      add\n        /* \"#utility.yul\":2689:2728   */\n      mstore\n        /* \"#utility.yul\":2661:2663   */\n      0x20\n        /* \"#utility.yul\":2658:2659   */\n      dup2\n        /* \"#utility.yul\":2654:2664   */\n      add\n        /* \"#utility.yul\":2649:2664   */\n      swap1\n      pop\n        /* \"#utility.yul\":2625:2738   */\n      jump(tag_434)\n    tag_436:\n        /* \"#utility.yul\":2772:2773   */\n      0x00\n        /* \"#utility.yul\":2763:2769   */\n      dup5\n        /* \"#utility.yul\":2758:2761   */\n      dup5\n        /* \"#utility.yul\":2754:2770   */\n      add\n        /* \"#utility.yul\":2747:2774   */\n      mstore\n        /* \"#utility.yul\":2596:2780   */\n      pop\n        /* \"#utility.yul\":2534:2780   */\n      pop\n      pop\n      pop\n      jump\t// out\n        /* \"#utility.yul\":2786:2888   */\n    tag_352:\n        /* \"#utility.yul\":2827:2833   */\n      0x00\n        /* \"#utility.yul\":2878:2880   */\n      0x1f\n        /* \"#utility.yul\":2874:2881   */\n      not\n        /* \"#utility.yul\":2869:2871   */\n      0x1f\n        /* \"#utility.yul\":2862:2867   */\n      dup4\n        /* \"#utility.yul\":2858:2872   */\n      add\n        /* \"#utility.yul\":2854:2882   */\n      and\n        /* \"#utility.yul\":2844:2882   */\n      swap1\n      pop\n        /* \"#utility.yul\":2786:2888   */\n      swap2\n      swap1\n      pop\n      jump\t// out\n        /* \"#utility.yul\":2894:3271   */\n    tag_353:\n        /* \"#utility.yul\":2982:2985   */\n      0x00\n        /* \"#utility.yul\":3010:3049   */\n      tag_439\n        /* \"#utility.yul\":3043:3048   */\n      dup3\n        /* \"#utility.yul\":3010:3049   */\n      tag_349\n      jump\t// in\n    tag_439:\n        /* \"#utility.yul\":3065:3136   */\n      tag_440\n        /* \"#utility.yul\":3129:3135   */\n      dup2\n        /* \"#utility.yul\":3124:3127   */\n      dup6\n        /* \"#utility.yul\":3065:3136   */\n      tag_350\n      jump\t// in\n    tag_440:\n        /* \"#utility.yul\":3058:3136   */\n      swap4\n      pop\n        /* \"#utility.yul\":3145:3210   */\n      tag_441\n        /* \"#utility.yul\":3203:3209   */\n      dup2\n        /* \"#utility.yul\":3198:3201   */\n      dup6\n        /* \"#utility.yul\":3191:3195   */\n      0x20\n        /* \"#utility.yul\":3184:3189   */\n      dup7\n        /* \"#utility.yul\":3180:3196   */\n      add\n        /* \"#utility.yul\":3145:3210   */\n      tag_351\n      jump\t// in\n    tag_441:\n        /* \"#utility.yul\":3235:3264   */\n      tag_442\n        /* \"#utility.yul\":3257:3263   */\n      dup2\n        /* \"#utility.yul\":3235:3264   */\n      tag_352\n      jump\t// in\n    tag_442:\n        /* \"#utility.yul\":3230:3233   */\n      dup5\n        /* \"#utility.yul\":3226:3265   */\n      add\n        /* \"#utility.yul\":3219:3265   */\n      swap2\n      pop\n        /* \"#utility.yul\":2986:3271   */\n      pop\n        /* \"#utility.yul\":2894:3271   */\n      swap3\n      swap2\n      pop\n      pop\n      jump\t// out\n        /* \"#utility.yul\":3277:3590   */\n    tag_45:\n        /* \"#utility.yul\":3390:3394   */\n      0x00\n        /* \"#utility.yul\":3428:3430   */\n      0x20\n        /* \"#utility.yul\":3417:3426   */\n      dup3\n        /* \"#utility.yul\":3413:3431   */\n      add\n        /* \"#utility.yul\":3405:3431   */\n      swap1\n      pop\n        /* \"#utility.yul\":3477:3486   */\n      dup2\n        /* \"#utility.yul\":3471:3475   */\n      dup2\n        /* \"#utility.yul\":3467:3487   */\n      sub\n        /* \"#utility.yul\":3463:3464   */\n      0x00\n        /* \"#utility.yul\":3452:3461   */\n      dup4\n        /* \"#utility.yul\":3448:3465   */\n      add\n        /* \"#utility.yul\":3441:3488   */\n      mstore\n        /* \"#utility.yul\":3505:3583   */\n      tag_444\n        /* \"#utility.yul\":3578:3582   */\n      dup2\n        /* \"#utility.yul\":3569:3575   */\n      dup5\n        /* \"#utility.yul\":3505:3583   */\n      tag_353\n      jump\t// in\n    tag_444:\n        /* \"#utility.yul\":3497:3583   */\n      swap1\n      pop\n        /* \"#utility.yul\":3277:3590   */\n      swap3\n      swap2\n      pop\n      pop\n      jump\t// out\n        /* \"#utility.yul\":3677:3794   */\n    tag_355:\n        /* \"#utility.yul\":3786:3787   */\n      0x00\n        /* \"#utility.yul\":3783:3784   */\n      dup1\n        /* \"#utility.yul\":3776:3788   */\n      revert\n        /* \"#utility.yul\":3800:3917   */\n    tag_356:\n        /* \"#utility.yul\":3909:3910   */\n      0x00\n        /* \"#utility.yul\":3906:3907   */\n      dup1\n        /* \"#utility.yul\":3899:3911   */\n      revert\n        /* \"#utility.yul\":3923:4045   */\n    tag_357:\n        /* \"#utility.yul\":3996:4020   */\n      tag_449\n        /* \"#utility.yul\":4014:4019   */\n      dup2\n        /* \"#utility.yul\":3996:4020   */\n      tag_344\n      jump\t// in\n    tag_449:\n        /* \"#utility.yul\":3989:3994   */\n      dup2\n        /* \"#utility.yul\":3986:4021   */\n      eq\n        /* \"#utility.yul\":3976:4039   */\n      tag_450\n      jumpi\n        /* \"#utility.yul\":4035:4036   */\n      0x00\n        /* \"#utility.yul\":4032:4033   */\n      dup1\n        /* \"#utility.yul\":4025:4037   */\n      revert\n        /* \"#utility.yul\":3976:4039   */\n    tag_450:\n        /* \"#utility.yul\":3923:4045   */\n      pop\n      jump\t// out\n        /* \"#utility.yul\":4051:4190   */\n    tag_358:\n        /* \"#utility.yul\":4097:4102   */\n      0x00\n        /* \"#utility.yul\":4135:4141   */\n      dup2\n        /* \"#utility.yul\":4122:4142   */\n      calldataload\n        /* \"#utility.yul\":4113:4142   */\n      swap1\n      pop\n        /* \"#utility.yul\":4151:4184   */\n      tag_452\n        /* \"#utility.yul\":4178:4183   */\n      dup2\n        /* \"#utility.yul\":4151:4184   */\n      tag_357\n      jump\t// in\n    tag_452:\n        /* \"#utility.yul\":4051:4190   */\n      swap3\n      swap2\n      pop\n      pop\n      jump\t// out\n        /* \"#utility.yul\":4196:4273   */\n    tag_359:\n        /* \"#utility.yul\":4233:4240   */\n      0x00\n        /* \"#utility.yul\":4262:4267   */\n      dup2\n        /* \"#utility.yul\":4251:4267   */\n      swap1\n      pop\n        /* \"#utility.yul\":4196:4273   */\n      swap2\n      swap1\n      pop\n      jump\t// out\n        /* \"#utility.yul\":4279:4401   */\n    tag_360:\n        /* \"#utility.yul\":4352:4376   */\n      tag_455\n        /* \"#utility.yul\":4370:4375   */\n      dup2\n        /* \"#utility.yul\":4352:4376   */\n      tag_359\n      jump\t// in\n    tag_455:\n        /* \"#utility.yul\":4345:4350   */\n      dup2\n        /* \"#utility.yul\":4342:4377   */\n      eq\n        /* \"#utility.yul\":4332:4395   */\n      tag_456\n      jumpi\n        /* \"#utility.yul\":4391:4392   */\n      0x00\n        /* \"#utility.yul\":4388:4389   */\n      dup1\n        /* \"#utility.yul\":4381:4393   */\n      revert\n        /* \"#utility.yul\":4332:4395   */\n    tag_456:\n        /* \"#utility.yul\":4279:4401   */\n      pop\n      jump\t// out\n        /* \"#utility.yul\":4407:4546   */\n    tag_361:\n        /* \"#utility.yul\":4453:4458   */\n      0x00\n        /* \"#utility.yul\":4491:4497   */\n      dup2\n        /* \"#utility.yul\":4478:4498   */\n      calldataload\n        /* \"#utility.yul\":4469:4498   */\n      swap1\n      pop\n        /* \"#utility.yul\":4507:4540   */\n      tag_458\n        /* \"#utility.yul\":4534:4539   */\n      dup2\n        /* \"#utility.yul\":4507:4540   */\n      tag_360\n      jump\t// in\n    tag_458:\n        /* \"#utility.yul\":4407:4546   */\n      swap3\n      swap2\n      pop\n      pop\n      jump\t// out\n        /* \"#utility.yul\":4552:5026   */\n    tag_49:\n        /* \"#utility.yul\":4620:4626   */\n      0x00\n        /* \"#utility.yul\":4628:4634   */\n      dup1\n        /* \"#utility.yul\":4677:4679   */\n      0x40\n        /* \"#utility.yul\":4665:4674   */\n      dup4\n        /* \"#utility.yul\":4656:4663   */\n      dup6\n        /* \"#utility.yul\":4652:4675   */\n      sub\n        /* \"#utility.yul\":4648:4680   */\n      slt\n        /* \"#utility.yul\":4645:4764   */\n      iszero\n      tag_460\n      jumpi\n        /* \"#utility.yul\":4683:4762   */\n      tag_461\n      tag_355\n      jump\t// in\n    tag_461:\n        /* \"#utility.yul\":4645:4764   */\n    tag_460:\n        /* \"#utility.yul\":4803:4804   */\n      0x00\n        /* \"#utility.yul\":4828:4881   */\n      tag_462\n        /* \"#utility.yul\":4873:4880   */\n      dup6\n        /* \"#utility.yul\":4864:4870   */\n      dup3\n        /* \"#utility.yul\":4853:4862   */\n      dup7\n        /* \"#utility.yul\":4849:4871   */\n      add\n        /* \"#utility.yul\":4828:4881   */\n      tag_358\n      jump\t// in\n    tag_462:\n        /* \"#utility.yul\":4818:4881   */\n      swap3\n      pop\n        /* \"#utility.yul\":4774:4891   */\n      pop\n        /* \"#utility.yul\":4930:4932   */\n      0x20\n        /* \"#utility.yul\":4956:5009   */\n      tag_463\n        /* \"#utility.yul\":5001:5008   */\n      dup6\n        /* \"#utility.yul\":4992:4998   */\n      dup3\n        /* \"#utility.yul\":4981:4990   */\n      dup7\n        /* \"#utility.yul\":4977:4999   */\n      add\n        /* \"#utility.yul\":4956:5009   */\n      tag_361\n      jump\t// in\n    tag_463:\n        /* \"#utility.yul\":4946:5009   */\n      swap2\n      pop\n        /* \"#utility.yul\":4901:5019   */\n      pop\n        /* \"#utility.yul\":4552:5026   */\n      swap3\n      pop\n      swap3\n      swap1\n      pop\n      jump\t// out\n        /* \"#utility.yul\":5032:5122   */\n    tag_362:\n        /* \"#utility.yul\":5066:5073   */\n      0x00\n        /* \"#utility.yul\":5109:5114   */\n      dup2\n        /* \"#utility.yul\":5102:5115   */\n      iszero\n        /* \"#utility.yul\":5095:5116   */\n      iszero\n        /* \"#utility.yul\":5084:5116   */\n      swap1\n      pop\n        /* \"#utility.yul\":5032:5122   */\n      swap2\n      swap1\n      pop\n      jump\t// out\n        /* \"#utility.yul\":5128:5237   */\n    tag_363:\n        /* \"#utility.yul\":5209:5230   */\n      tag_466\n        /* \"#utility.yul\":5224:5229   */\n      dup2\n        /* \"#utility.yul\":5209:5230   */\n      tag_362\n      jump\t// in\n    tag_466:\n        /* \"#utility.yul\":5204:5207   */\n      dup3\n        /* \"#utility.yul\":5197:5231   */\n      mstore\n        /* \"#utility.yul\":5128:5237   */\n      pop\n      pop\n      jump\t// out\n        /* \"#utility.yul\":5243:5453   */\n    tag_52:\n        /* \"#utility.yul\":5330:5334   */\n      0x00\n        /* \"#utility.yul\":5368:5370   */\n      0x20\n        /* \"#utility.yul\":5357:5366   */\n      dup3\n        /* \"#utility.yul\":5353:5371   */\n      add\n        /* \"#utility.yul\":5345:5371   */\n      swap1\n      pop\n        /* \"#utility.yul\":5381:5446   */\n      tag_468\n        /* \"#utility.yul\":5443:5444   */\n      0x00\n        /* \"#utility.yul\":5432:5441   */\n      dup4\n        /* \"#utility.yul\":5428:5445   */\n      add\n        /* \"#utility.yul\":5419:5425   */\n      dup5\n        /* \"#utility.yul\":5381:5446   */\n      tag_363\n      jump\t// in\n    tag_468:\n        /* \"#utility.yul\":5243:5453   */\n      swap3\n      swap2\n      pop\n      pop\n      jump\t// out\n        /* \"#utility.yul\":5459:5788   */\n    tag_56:\n        /* \"#utility.yul\":5518:5524   */\n      0x00\n        /* \"#utility.yul\":5567:5569   */\n      0x20\n        /* \"#utility.yul\":5555:5564   */\n      dup3\n        /* \"#utility.yul\":5546:5553   */\n      dup5\n        /* \"#utility.yul\":5542:5565   */\n      sub\n        /* \"#utility.yul\":5538:5570   */\n      slt\n        /* \"#utility.yul\":5535:5654   */\n      iszero\n      tag_470\n      jumpi\n        /* \"#utility.yul\":5573:5652   */\n      tag_471\n      tag_355\n      jump\t// in\n    tag_471:\n        /* \"#utility.yul\":5535:5654   */\n    tag_470:\n        /* \"#utility.yul\":5693:5694   */\n      0x00\n        /* \"#utility.yul\":5718:5771   */\n      tag_472\n        /* \"#utility.yul\":5763:5770   */\n      dup5\n        /* \"#utility.yul\":5754:5760   */\n      dup3\n        /* \"#utility.yul\":5743:5752   */\n      dup6\n        /* \"#utility.yul\":5739:5761   */\n      add\n        /* \"#utility.yul\":5718:5771   */\n      tag_358\n      jump\t// in\n    tag_472:\n        /* \"#utility.yul\":5708:5771   */\n      swap2\n      pop\n        /* \"#utility.yul\":5664:5781   */\n      pop\n        /* \"#utility.yul\":5459:5788   */\n      swap3\n      swap2\n      pop\n      pop\n      jump\t// out\n        /* \"#utility.yul\":5794:5912   */\n    tag_364:\n        /* \"#utility.yul\":5881:5905   */\n      tag_474\n        /* \"#utility.yul\":5899:5904   */\n      dup2\n        /* \"#utility.yul\":5881:5905   */\n      tag_359\n      jump\t// in\n    tag_474:\n        /* \"#utility.yul\":5876:5879   */\n      dup3\n        /* \"#utility.yul\":5869:5906   */\n      mstore\n        /* \"#utility.yul\":5794:5912   */\n      pop\n      pop\n      jump\t// out\n        /* \"#utility.yul\":5918:6140   */\n    tag_59:\n        /* \"#utility.yul\":6011:6015   */\n      0x00\n        /* \"#utility.yul\":6049:6051   */\n      0x20\n        /* \"#utility.yul\":6038:6047   */\n      dup3\n        /* \"#utility.yul\":6034:6052   */\n      add\n        /* \"#utility.yul\":6026:6052   */\n      swap1\n      pop\n        /* \"#utility.yul\":6062:6133   */\n      tag_476\n        /* \"#utility.yul\":6130:6131   */\n      0x00\n        /* \"#utility.yul\":6119:6128   */\n      dup4\n        /* \"#utility.yul\":6115:6132   */\n      add\n        /* \"#utility.yul\":6106:6112   */\n      dup5\n        /* \"#utility.yul\":6062:6133   */\n      tag_364\n      jump\t// in\n    tag_476:\n        /* \"#utility.yul\":5918:6140   */\n      swap3\n      swap2\n      pop\n      pop\n      jump\t// out\n        /* \"#utility.yul\":6146:6765   */\n    tag_67:\n        /* \"#utility.yul\":6223:6229   */\n      0x00\n        /* \"#utility.yul\":6231:6237   */\n      dup1\n        /* \"#utility.yul\":6239:6245   */\n      0x00\n        /* \"#utility.yul\":6288:6290   */\n      0x60\n        /* \"#utility.yul\":6276:6285   */\n      dup5\n        /* \"#utility.yul\":6267:6274   */\n      dup7\n        /* \"#utility.yul\":6263:6286   */\n      sub\n        /* \"#utility.yul\":6259:6291   */\n      slt\n        /* \"#utility.yul\":6256:6375   */\n      iszero\n      tag_478\n      jumpi\n        /* \"#utility.yul\":6294:6373   */\n      tag_479\n      tag_355\n      jump\t// in\n    tag_479:\n        /* \"#utility.yul\":6256:6375   */\n    tag_478:\n        /* \"#utility.yul\":6414:6415   */\n      0x00\n        /* \"#utility.yul\":6439:6492   */\n      tag_480\n        /* \"#utility.yul\":6484:6491   */\n      dup7\n        /* \"#utility.yul\":6475:6481   */\n      dup3\n        /* \"#utility.yul\":6464:6473   */\n      dup8\n        /* \"#utility.yul\":6460:6482   */\n      add\n        /* \"#utility.yul\":6439:6492   */\n      tag_358\n      jump\t// in\n    tag_480:\n        /* \"#utility.yul\":6429:6492   */\n      swap4\n      pop\n        /* \"#utility.yul\":6385:6502   */\n      pop\n        /* \"#utility.yul\":6541:6543   */\n      0x20\n        /* \"#utility.yul\":6567:6620   */\n      tag_481\n        /* \"#utility.yul\":6612:6619   */\n      dup7\n        /* \"#utility.yul\":6603:6609   */\n      dup3\n        /* \"#utility.yul\":6592:6601   */\n      dup8\n        /* \"#utility.yul\":6588:6610   */\n      add\n        /* \"#utility.yul\":6567:6620   */\n      tag_358\n      jump\t// in\n    tag_481:\n        /* \"#utility.yul\":6557:6620   */\n      swap3\n      pop\n        /* \"#utility.yul\":6512:6630   */\n      pop\n        /* \"#utility.yul\":6669:6671   */\n      0x40\n        /* \"#utility.yul\":6695:6748   */\n      tag_482\n        /* \"#utility.yul\":6740:6747   */\n      dup7\n        /* \"#utility.yul\":6731:6737   */\n      dup3\n        /* \"#utility.yul\":6720:6729   */\n      dup8\n        /* \"#utility.yul\":6716:6738   */\n      add\n        /* \"#utility.yul\":6695:6748   */\n      tag_361\n      jump\t// in\n    tag_482:\n        /* \"#utility.yul\":6685:6748   */\n      swap2\n      pop\n        /* \"#utility.yul\":6640:6758   */\n      pop\n        /* \"#utility.yul\":6146:6765   */\n      swap3\n      pop\n      swap3\n      pop\n      swap3\n      jump\t// out\n        /* \"#utility.yul\":6771:6857   */\n    tag_365:\n        /* \"#utility.yul\":6806:6813   */\n      0x00\n        /* \"#utility.yul\":6846:6850   */\n      0xff\n        /* \"#utility.yul\":6839:6844   */\n      dup3\n        /* \"#utility.yul\":6835:6851   */\n      and\n        /* \"#utility.yul\":6824:6851   */\n      swap1\n      pop\n        /* \"#utility.yul\":6771:6857   */\n      swap2\n      swap1\n      pop\n      jump\t// out\n        /* \"#utility.yul\":6863:6975   */\n    tag_366:\n        /* \"#utility.yul\":6946:6968   */\n      tag_485\n        /* \"#utility.yul\":6962:6967   */\n      dup2\n        /* \"#utility.yul\":6946:6968   */\n      tag_365\n      jump\t// in\n    tag_485:\n        /* \"#utility.yul\":6941:6944   */\n      dup3\n        /* \"#utility.yul\":6934:6969   */\n      mstore\n        /* \"#utility.yul\":6863:6975   */\n      pop\n      pop\n      jump\t// out\n        /* \"#utility.yul\":6981:7195   */\n    tag_74:\n        /* \"#utility.yul\":7070:7074   */\n      0x00\n        /* \"#utility.yul\":7108:7110   */\n      0x20\n        /* \"#utility.yul\":7097:7106   */\n      dup3\n        /* \"#utility.yul\":7093:7111   */\n      add\n        /* \"#utility.yul\":7085:7111   */\n      swap1\n      pop\n        /* \"#utility.yul\":7121:7188   */\n      tag_487\n        /* \"#utility.yul\":7185:7186   */\n      0x00\n        /* \"#utility.yul\":7174:7183   */\n      dup4\n        /* \"#utility.yul\":7170:7187   */\n      add\n        /* \"#utility.yul\":7161:7167   */\n      dup5\n        /* \"#utility.yul\":7121:7188   */\n      tag_366\n      jump\t// in\n    tag_487:\n        /* \"#utility.yul\":6981:7195   */\n      swap3\n      swap2\n      pop\n      pop\n      jump\t// out\n        /* \"#utility.yul\":7201:7530   */\n    tag_78:\n        /* \"#utility.yul\":7260:7266   */\n      0x00\n        /* \"#utility.yul\":7309:7311   */\n      0x20\n        /* \"#utility.yul\":7297:7306   */\n      dup3\n        /* \"#utility.yul\":7288:7295   */\n      dup5\n        /* \"#utility.yul\":7284:7307   */\n      sub\n        /* \"#utility.yul\":7280:7312   */\n      slt\n        /* \"#utility.yul\":7277:7396   */\n      iszero\n      tag_489\n      jumpi\n        /* \"#utility.yul\":7315:7394   */\n      tag_490\n      tag_355\n      jump\t// in\n    tag_490:\n        /* \"#utility.yul\":7277:7396   */\n    tag_489:\n        /* \"#utility.yul\":7435:7436   */\n      0x00\n        /* \"#utility.yul\":7460:7513   */\n      tag_491\n        /* \"#utility.yul\":7505:7512   */\n      dup5\n        /* \"#utility.yul\":7496:7502   */\n      dup3\n        /* \"#utility.yul\":7485:7494   */\n      dup6\n        /* \"#utility.yul\":7481:7503   */\n      add\n        /* \"#utility.yul\":7460:7513   */\n      tag_361\n      jump\t// in\n    tag_491:\n        /* \"#utility.yul\":7450:7513   */\n      swap2\n      pop\n        /* \"#utility.yul\":7406:7523   */\n      pop\n        /* \"#utility.yul\":7201:7530   */\n      swap3\n      swap2\n      pop\n      pop\n      jump\t// out\n        /* \"#utility.yul\":7536:7654   */\n    tag_367:\n        /* \"#utility.yul\":7623:7647   */\n      tag_493\n        /* \"#utility.yul\":7641:7646   */\n      dup2\n        /* \"#utility.yul\":7623:7647   */\n      tag_344\n      jump\t// in\n    tag_493:\n        /* \"#utility.yul\":7618:7621   */\n      dup3\n        /* \"#utility.yul\":7611:7648   */\n      mstore\n        /* \"#utility.yul\":7536:7654   */\n      pop\n      pop\n      jump\t// out\n        /* \"#utility.yul\":7660:7882   */\n    tag_81:\n        /* \"#utility.yul\":7753:7757   */\n      0x00\n        /* \"#utility.yul\":7791:7793   */\n      0x20\n        /* \"#utility.yul\":7780:7789   */\n      dup3\n        /* \"#utility.yul\":7776:7794   */\n      add\n        /* \"#utility.yul\":7768:7794   */\n      swap1\n      pop\n        /* \"#utility.yul\":7804:7875   */\n      tag_495\n        /* \"#utility.yul\":7872:7873   */\n      0x00\n        /* \"#utility.yul\":7861:7870   */\n      dup4\n        /* \"#utility.yul\":7857:7874   */\n      add\n        /* \"#utility.yul\":7848:7854   */\n      dup5\n        /* \"#utility.yul\":7804:7875   */\n      tag_367\n      jump\t// in\n    tag_495:\n        /* \"#utility.yul\":7660:7882   */\n      swap3\n      swap2\n      pop\n      pop\n      jump\t// out\n        /* \"#utility.yul\":7888:8005   */\n    tag_368:\n        /* \"#utility.yul\":7997:7998   */\n      0x00\n        /* \"#utility.yul\":7994:7995   */\n      dup1\n        /* \"#utility.yul\":7987:7999   */\n      revert\n        /* \"#utility.yul\":8011:8128   */\n    tag_369:\n        /* \"#utility.yul\":8120:8121   */\n      0x00\n        /* \"#utility.yul\":8117:8118   */\n      dup1\n        /* \"#utility.yul\":8110:8122   */\n      revert\n        /* \"#utility.yul\":8134:8251   */\n    tag_370:\n        /* \"#utility.yul\":8243:8244   */\n      0x00\n        /* \"#utility.yul\":8240:8241   */\n      dup1\n        /* \"#utility.yul\":8233:8245   */\n      revert\n        /* \"#utility.yul\":8270:8822   */\n    tag_371:\n        /* \"#utility.yul\":8327:8335   */\n      0x00\n        /* \"#utility.yul\":8337:8343   */\n      dup1\n        /* \"#utility.yul\":8387:8390   */\n      dup4\n        /* \"#utility.yul\":8380:8384   */\n      0x1f\n        /* \"#utility.yul\":8372:8378   */\n      dup5\n        /* \"#utility.yul\":8368:8385   */\n      add\n        /* \"#utility.yul\":8364:8391   */\n      slt\n        /* \"#utility.yul\":8354:8476   */\n      tag_500\n      jumpi\n        /* \"#utility.yul\":8395:8474   */\n      tag_501\n      tag_368\n      jump\t// in\n    tag_501:\n        /* \"#utility.yul\":8354:8476   */\n    tag_500:\n        /* \"#utility.yul\":8508:8514   */\n      dup3\n        /* \"#utility.yul\":8495:8515   */\n      calldataload\n        /* \"#utility.yul\":8485:8515   */\n      swap1\n      pop\n        /* \"#utility.yul\":8538:8556   */\n      0xffffffffffffffff\n        /* \"#utility.yul\":8530:8536   */\n      dup2\n        /* \"#utility.yul\":8527:8557   */\n      gt\n        /* \"#utility.yul\":8524:8641   */\n      iszero\n      tag_502\n      jumpi\n        /* \"#utility.yul\":8560:8639   */\n      tag_503\n      tag_369\n      jump\t// in\n    tag_503:\n        /* \"#utility.yul\":8524:8641   */\n    tag_502:\n        /* \"#utility.yul\":8674:8678   */\n      0x20\n        /* \"#utility.yul\":8666:8672   */\n      dup4\n        /* \"#utility.yul\":8662:8679   */\n      add\n        /* \"#utility.yul\":8650:8679   */\n      swap2\n      pop\n        /* \"#utility.yul\":8728:8731   */\n      dup4\n        /* \"#utility.yul\":8720:8724   */\n      0x01\n        /* \"#utility.yul\":8712:8718   */\n      dup3\n        /* \"#utility.yul\":8708:8725   */\n      mul\n        /* \"#utility.yul\":8698:8706   */\n      dup4\n        /* \"#utility.yul\":8694:8726   */\n      add\n        /* \"#utility.yul\":8691:8732   */\n      gt\n        /* \"#utility.yul\":8688:8816   */\n      iszero\n      tag_504\n      jumpi\n        /* \"#utility.yul\":8735:8814   */\n      tag_505\n      tag_370\n      jump\t// in\n    tag_505:\n        /* \"#utility.yul\":8688:8816   */\n    tag_504:\n        /* \"#utility.yul\":8270:8822   */\n      swap3\n      pop\n      swap3\n      swap1\n      pop\n      jump\t// out\n        /* \"#utility.yul\":8828:9355   */\n    tag_85:\n        /* \"#utility.yul\":8898:8904   */\n      0x00\n        /* \"#utility.yul\":8906:8912   */\n      dup1\n        /* \"#utility.yul\":8955:8957   */\n      0x20\n        /* \"#utility.yul\":8943:8952   */\n      dup4\n        /* \"#utility.yul\":8934:8941   */\n      dup6\n        /* \"#utility.yul\":8930:8953   */\n      sub\n        /* \"#utility.yul\":8926:8958   */\n      slt\n        /* \"#utility.yul\":8923:9042   */\n      iszero\n      tag_507\n      jumpi\n        /* \"#utility.yul\":8961:9040   */\n      tag_508\n      tag_355\n      jump\t// in\n    tag_508:\n        /* \"#utility.yul\":8923:9042   */\n    tag_507:\n        /* \"#utility.yul\":9109:9110   */\n      0x00\n        /* \"#utility.yul\":9098:9107   */\n      dup4\n        /* \"#utility.yul\":9094:9111   */\n      add\n        /* \"#utility.yul\":9081:9112   */\n      calldataload\n        /* \"#utility.yul\":9139:9157   */\n      0xffffffffffffffff\n        /* \"#utility.yul\":9131:9137   */\n      dup2\n        /* \"#utility.yul\":9128:9158   */\n      gt\n        /* \"#utility.yul\":9125:9242   */\n      iszero\n      tag_509\n      jumpi\n        /* \"#utility.yul\":9161:9240   */\n      tag_510\n      tag_356\n      jump\t// in\n    tag_510:\n        /* \"#utility.yul\":9125:9242   */\n    tag_509:\n        /* \"#utility.yul\":9274:9338   */\n      tag_511\n        /* \"#utility.yul\":9330:9337   */\n      dup6\n        /* \"#utility.yul\":9321:9327   */\n      dup3\n        /* \"#utility.yul\":9310:9319   */\n      dup7\n        /* \"#utility.yul\":9306:9328   */\n      add\n        /* \"#utility.yul\":9274:9338   */\n      tag_371\n      jump\t// in\n    tag_511:\n        /* \"#utility.yul\":9256:9338   */\n      swap3\n      pop\n      swap3\n      pop\n        /* \"#utility.yul\":9052:9348   */\n      pop\n        /* \"#utility.yul\":8828:9355   */\n      swap3\n      pop\n      swap3\n      swap1\n      pop\n      jump\t// out\n        /* \"#utility.yul\":9361:9693   */\n    tag_92:\n        /* \"#utility.yul\":9482:9486   */\n      0x00\n        /* \"#utility.yul\":9520:9522   */\n      0x40\n        /* \"#utility.yul\":9509:9518   */\n      dup3\n        /* \"#utility.yul\":9505:9523   */\n      add\n        /* \"#utility.yul\":9497:9523   */\n      swap1\n      pop\n        /* \"#utility.yul\":9533:9604   */\n      tag_513\n        /* \"#utility.yul\":9601:9602   */\n      0x00\n        /* \"#utility.yul\":9590:9599   */\n      dup4\n        /* \"#utility.yul\":9586:9603   */\n      add\n        /* \"#utility.yul\":9577:9583   */\n      dup6\n        /* \"#utility.yul\":9533:9604   */\n      tag_364\n      jump\t// in\n    tag_513:\n        /* \"#utility.yul\":9614:9686   */\n      tag_514\n        /* \"#utility.yul\":9682:9684   */\n      0x20\n        /* \"#utility.yul\":9671:9680   */\n      dup4\n        /* \"#utility.yul\":9667:9685   */\n      add\n        /* \"#utility.yul\":9658:9664   */\n      dup5\n        /* \"#utility.yul\":9614:9686   */\n      tag_364\n      jump\t// in\n    tag_514:\n        /* \"#utility.yul\":9361:9693   */\n      swap4\n      swap3\n      pop\n      pop\n      pop\n      jump\t// out\n        /* \"#utility.yul\":9699:9797   */\n    tag_372:\n        /* \"#utility.yul\":9750:9756   */\n      0x00\n        /* \"#utility.yul\":9784:9789   */\n      dup2\n        /* \"#utility.yul\":9778:9790   */\n      mload\n        /* \"#utility.yul\":9768:9790   */\n      swap1\n      pop\n        /* \"#utility.yul\":9699:9797   */\n      swap2\n      swap1\n      pop\n      jump\t// out\n        /* \"#utility.yul\":9803:9971   */\n    tag_373:\n        /* \"#utility.yul\":9886:9897   */\n      0x00\n        /* \"#utility.yul\":9920:9926   */\n      dup3\n        /* \"#utility.yul\":9915:9918   */\n      dup3\n        /* \"#utility.yul\":9908:9927   */\n      mstore\n        /* \"#utility.yul\":9960:9964   */\n      0x20\n        /* \"#utility.yul\":9955:9958   */\n      dup3\n        /* \"#utility.yul\":9951:9965   */\n      add\n        /* \"#utility.yul\":9936:9965   */\n      swap1\n      pop\n        /* \"#utility.yul\":9803:9971   */\n      swap3\n      swap2\n      pop\n      pop\n      jump\t// out\n        /* \"#utility.yul\":9977:10350   */\n    tag_374:\n        /* \"#utility.yul\":10063:10066   */\n      0x00\n        /* \"#utility.yul\":10091:10129   */\n      tag_518\n        /* \"#utility.yul\":10123:10128   */\n      dup3\n        /* \"#utility.yul\":10091:10129   */\n      tag_372\n      jump\t// in\n    tag_518:\n        /* \"#utility.yul\":10145:10215   */\n      tag_519\n        /* \"#utility.yul\":10208:10214   */\n      dup2\n        /* \"#utility.yul\":10203:10206   */\n      dup6\n        /* \"#utility.yul\":10145:10215   */\n      tag_373\n      jump\t// in\n    tag_519:\n        /* \"#utility.yul\":10138:10215   */\n      swap4\n      pop\n        /* \"#utility.yul\":10224:10289   */\n      tag_520\n        /* \"#utility.yul\":10282:10288   */\n      dup2\n        /* \"#utility.yul\":10277:10280   */\n      dup6\n        /* \"#utility.yul\":10270:10274   */\n      0x20\n        /* \"#utility.yul\":10263:10268   */\n      dup7\n        /* \"#utility.yul\":10259:10275   */\n      add\n        /* \"#utility.yul\":10224:10289   */\n      tag_351\n      jump\t// in\n    tag_520:\n        /* \"#utility.yul\":10314:10343   */\n      tag_521\n        /* \"#utility.yul\":10336:10342   */\n      dup2\n        /* \"#utility.yul\":10314:10343   */\n      tag_352\n      jump\t// in\n    tag_521:\n        /* \"#utility.yul\":10309:10312   */\n      dup5\n        /* \"#utility.yul\":10305:10344   */\n      add\n        /* \"#utility.yul\":10298:10344   */\n      swap2\n      pop\n        /* \"#utility.yul\":10067:10350   */\n      pop\n        /* \"#utility.yul\":9977:10350   */\n      swap3\n      swap2\n      pop\n      pop\n      jump\t// out\n        /* \"#utility.yul\":10356:10763   */\n    tag_104:\n        /* \"#utility.yul\":10489:10493   */\n      0x00\n        /* \"#utility.yul\":10527:10529   */\n      0x40\n        /* \"#utility.yul\":10516:10525   */\n      dup3\n        /* \"#utility.yul\":10512:10530   */\n      add\n        /* \"#utility.yul\":10504:10530   */\n      swap1\n      pop\n        /* \"#utility.yul\":10540:10605   */\n      tag_523\n        /* \"#utility.yul\":10602:10603   */\n      0x00\n        /* \"#utility.yul\":10591:10600   */\n      dup4\n        /* \"#utility.yul\":10587:10604   */\n      add\n        /* \"#utility.yul\":10578:10584   */\n      dup6\n        /* \"#utility.yul\":10540:10605   */\n      tag_363\n      jump\t// in\n    tag_523:\n        /* \"#utility.yul\":10652:10661   */\n      dup2\n        /* \"#utility.yul\":10646:10650   */\n      dup2\n        /* \"#utility.yul\":10642:10662   */\n      sub\n        /* \"#utility.yul\":10637:10639   */\n      0x20\n        /* \"#utility.yul\":10626:10635   */\n      dup4\n        /* \"#utility.yul\":10622:10640   */\n      add\n        /* \"#utility.yul\":10615:10663   */\n      mstore\n        /* \"#utility.yul\":10680:10756   */\n      tag_524\n        /* \"#utility.yul\":10751:10755   */\n      dup2\n        /* \"#utility.yul\":10742:10748   */\n      dup5\n        /* \"#utility.yul\":10680:10756   */\n      tag_374\n      jump\t// in\n    tag_524:\n        /* \"#utility.yul\":10672:10756   */\n      swap1\n      pop\n        /* \"#utility.yul\":10356:10763   */\n      swap4\n      swap3\n      pop\n      pop\n      pop\n      jump\t// out\n        /* \"#utility.yul\":10769:10829   */\n    tag_375:\n        /* \"#utility.yul\":10797:10800   */\n      0x00\n        /* \"#utility.yul\":10818:10823   */\n      dup2\n        /* \"#utility.yul\":10811:10823   */\n      swap1\n      pop\n        /* \"#utility.yul\":10769:10829   */\n      swap2\n      swap1\n      pop\n      jump\t// out\n        /* \"#utility.yul\":10835:10977   */\n    tag_376:\n        /* \"#utility.yul\":10885:10894   */\n      0x00\n        /* \"#utility.yul\":10918:10971   */\n      tag_527\n        /* \"#utility.yul\":10936:10970   */\n      tag_528\n        /* \"#utility.yul\":10945:10969   */\n      tag_529\n        /* \"#utility.yul\":10963:10968   */\n      dup5\n        /* \"#utility.yul\":10945:10969   */\n      tag_343\n      jump\t// in\n    tag_529:\n        /* \"#utility.yul\":10936:10970   */\n      tag_375\n      jump\t// in\n    tag_528:\n        /* \"#utility.yul\":10918:10971   */\n      tag_343\n      jump\t// in\n    tag_527:\n        /* \"#utility.yul\":10905:10971   */\n      swap1\n      pop\n        /* \"#utility.yul\":10835:10977   */\n      swap2\n      swap1\n      pop\n      jump\t// out\n        /* \"#utility.yul\":10983:11109   */\n    tag_377:\n        /* \"#utility.yul\":11033:11042   */\n      0x00\n        /* \"#utility.yul\":11066:11103   */\n      tag_531\n        /* \"#utility.yul\":11097:11102   */\n      dup3\n        /* \"#utility.yul\":11066:11103   */\n      tag_376\n      jump\t// in\n    tag_531:\n        /* \"#utility.yul\":11053:11103   */\n      swap1\n      pop\n        /* \"#utility.yul\":10983:11109   */\n      swap2\n      swap1\n      pop\n      jump\t// out\n        /* \"#utility.yul\":11115:11270   */\n    tag_378:\n        /* \"#utility.yul\":11194:11203   */\n      0x00\n        /* \"#utility.yul\":11227:11264   */\n      tag_533\n        /* \"#utility.yul\":11258:11263   */\n      dup3\n        /* \"#utility.yul\":11227:11264   */\n      tag_377\n      jump\t// in\n    tag_533:\n        /* \"#utility.yul\":11214:11264   */\n      swap1\n      pop\n        /* \"#utility.yul\":11115:11270   */\n      swap2\n      swap1\n      pop\n      jump\t// out\n        /* \"#utility.yul\":11276:11465   */\n    tag_379:\n        /* \"#utility.yul\":11392:11458   */\n      tag_535\n        /* \"#utility.yul\":11452:11457   */\n      dup2\n        /* \"#utility.yul\":11392:11458   */\n      tag_378\n      jump\t// in\n    tag_535:\n        /* \"#utility.yul\":11387:11390   */\n      dup3\n        /* \"#utility.yul\":11380:11459   */\n      mstore\n        /* \"#utility.yul\":11276:11465   */\n      pop\n      pop\n      jump\t// out\n        /* \"#utility.yul\":11471:11751   */\n    tag_114:\n        /* \"#utility.yul\":11593:11597   */\n      0x00\n        /* \"#utility.yul\":11631:11633   */\n      0x20\n        /* \"#utility.yul\":11620:11629   */\n      dup3\n        /* \"#utility.yul\":11616:11634   */\n      add\n        /* \"#utility.yul\":11608:11634   */\n      swap1\n      pop\n        /* \"#utility.yul\":11644:11744   */\n      tag_537\n        /* \"#utility.yul\":11741:11742   */\n      0x00\n        /* \"#utility.yul\":11730:11739   */\n      dup4\n        /* \"#utility.yul\":11726:11743   */\n      add\n        /* \"#utility.yul\":11717:11723   */\n      dup5\n        /* \"#utility.yul\":11644:11744   */\n      tag_379\n      jump\t// in\n    tag_537:\n        /* \"#utility.yul\":11471:11751   */\n      swap3\n      swap2\n      pop\n      pop\n      jump\t// out\n        /* \"#utility.yul\":11757:12231   */\n    tag_153:\n        /* \"#utility.yul\":11825:11831   */\n      0x00\n        /* \"#utility.yul\":11833:11839   */\n      dup1\n        /* \"#utility.yul\":11882:11884   */\n      0x40\n        /* \"#utility.yul\":11870:11879   */\n      dup4\n        /* \"#utility.yul\":11861:11868   */\n      dup6\n        /* \"#utility.yul\":11857:11880   */\n      sub\n        /* \"#utility.yul\":11853:11885   */\n      slt\n        /* \"#utility.yul\":11850:11969   */\n      iszero\n      tag_539\n      jumpi\n        /* \"#utility.yul\":11888:11967   */\n      tag_540\n      tag_355\n      jump\t// in\n    tag_540:\n        /* \"#utility.yul\":11850:11969   */\n    tag_539:\n        /* \"#utility.yul\":12008:12009   */\n      0x00\n        /* \"#utility.yul\":12033:12086   */\n      tag_541\n        /* \"#utility.yul\":12078:12085   */\n      dup6\n        /* \"#utility.yul\":12069:12075   */\n      dup3\n        /* \"#utility.yul\":12058:12067   */\n      dup7\n        /* \"#utility.yul\":12054:12076   */\n      add\n        /* \"#utility.yul\":12033:12086   */\n      tag_358\n      jump\t// in\n    tag_541:\n        /* \"#utility.yul\":12023:12086   */\n      swap3\n      pop\n        /* \"#utility.yul\":11979:12096   */\n      pop\n        /* \"#utility.yul\":12135:12137   */\n      0x20\n        /* \"#utility.yul\":12161:12214   */\n      tag_542\n        /* \"#utility.yul\":12206:12213   */\n      dup6\n        /* \"#utility.yul\":12197:12203   */\n      dup3\n        /* \"#utility.yul\":12186:12195   */\n      dup7\n        /* \"#utility.yul\":12182:12204   */\n      add\n        /* \"#utility.yul\":12161:12214   */\n      tag_358\n      jump\t// in\n    tag_542:\n        /* \"#utility.yul\":12151:12214   */\n      swap2\n      pop\n        /* \"#utility.yul\":12106:12224   */\n      pop\n        /* \"#utility.yul\":11757:12231   */\n      swap3\n      pop\n      swap3\n      swap1\n      pop\n      jump\t// out\n        /* \"#utility.yul\":12237:12417   */\n    tag_380:\n        /* \"#utility.yul\":12285:12362   */\n      0x4e487b7100000000000000000000000000000000000000000000000000000000\n        /* \"#utility.yul\":12282:12283   */\n      0x00\n        /* \"#utility.yul\":12275:12363   */\n      mstore\n        /* \"#utility.yul\":12382:12386   */\n      0x22\n        /* \"#utility.yul\":12379:12380   */\n      0x04\n        /* \"#utility.yul\":12372:12387   */\n      mstore\n        /* \"#utility.yul\":12406:12410   */\n      0x24\n        /* \"#utility.yul\":12403:12404   */\n      0x00\n        /* \"#utility.yul\":12396:12411   */\n      revert\n        /* \"#utility.yul\":12423:12743   */\n    tag_170:\n        /* \"#utility.yul\":12467:12473   */\n      0x00\n        /* \"#utility.yul\":12504:12505   */\n      0x02\n        /* \"#utility.yul\":12498:12502   */\n      dup3\n        /* \"#utility.yul\":12494:12506   */\n      div\n        /* \"#utility.yul\":12484:12506   */\n      swap1\n      pop\n        /* \"#utility.yul\":12551:12552   */\n      0x01\n        /* \"#utility.yul\":12545:12549   */\n      dup3\n        /* \"#utility.yul\":12541:12553   */\n      and\n        /* \"#utility.yul\":12572:12590   */\n      dup1\n        /* \"#utility.yul\":12562:12643   */\n      tag_545\n      jumpi\n        /* \"#utility.yul\":12628:12632   */\n      0x7f\n        /* \"#utility.yul\":12620:12626   */\n      dup3\n        /* \"#utility.yul\":12616:12633   */\n      and\n        /* \"#utility.yul\":12606:12633   */\n      swap2\n      pop\n        /* \"#utility.yul\":12562:12643   */\n    tag_545:\n        /* \"#utility.yul\":12690:12692   */\n      0x20\n        /* \"#utility.yul\":12682:12688   */\n      dup3\n        /* \"#utility.yul\":12679:12693   */\n      lt\n        /* \"#utility.yul\":12659:12677   */\n      dup2\n        /* \"#utility.yul\":12656:12694   */\n      sub\n        /* \"#utility.yul\":12653:12737   */\n      tag_546\n      jumpi\n        /* \"#utility.yul\":12709:12727   */\n      tag_547\n      tag_380\n      jump\t// in\n    tag_547:\n        /* \"#utility.yul\":12653:12737   */\n    tag_546:\n        /* \"#utility.yul\":12474:12743   */\n      pop\n        /* \"#utility.yul\":12423:12743   */\n      swap2\n      swap1\n      pop\n      jump\t// out\n        /* \"#utility.yul\":12749:12929   */\n    tag_381:\n        /* \"#utility.yul\":12797:12874   */\n      0x4e487b7100000000000000000000000000000000000000000000000000000000\n        /* \"#utility.yul\":12794:12795   */\n      0x00\n        /* \"#utility.yul\":12787:12875   */\n      mstore\n        /* \"#utility.yul\":12894:12898   */\n      0x12\n        /* \"#utility.yul\":12891:12892   */\n      0x04\n        /* \"#utility.yul\":12884:12899   */\n      mstore\n        /* \"#utility.yul\":12918:12922   */\n      0x24\n        /* \"#utility.yul\":12915:12916   */\n      0x00\n        /* \"#utility.yul\":12908:12923   */\n      revert\n        /* \"#utility.yul\":12935:13115   */\n    tag_382:\n        /* \"#utility.yul\":12983:13060   */\n      0x4e487b7100000000000000000000000000000000000000000000000000000000\n        /* \"#utility.yul\":12980:12981   */\n      0x00\n        /* \"#utility.yul\":12973:13061   */\n      mstore\n        /* \"#utility.yul\":13080:13084   */\n      0x11\n        /* \"#utility.yul\":13077:13078   */\n      0x04\n        /* \"#utility.yul\":13070:13085   */\n      mstore\n        /* \"#utility.yul\":13104:13108   */\n      0x24\n        /* \"#utility.yul\":13101:13102   */\n      0x00\n        /* \"#utility.yul\":13094:13109   */\n      revert\n        /* \"#utility.yul\":13121:13306   */\n    tag_184:\n        /* \"#utility.yul\":13161:13162   */\n      0x00\n        /* \"#utility.yul\":13178:13198   */\n      tag_551\n        /* \"#utility.yul\":13196:13197   */\n      dup3\n        /* \"#utility.yul\":13178:13198   */\n      tag_359\n      jump\t// in\n    tag_551:\n        /* \"#utility.yul\":13173:13198   */\n      swap2\n      pop\n        /* \"#utility.yul\":13212:13232   */\n      tag_552\n        /* \"#utility.yul\":13230:13231   */\n      dup4\n        /* \"#utility.yul\":13212:13232   */\n      tag_359\n      jump\t// in\n    tag_552:\n        /* \"#utility.yul\":13207:13232   */\n      swap3\n      pop\n        /* \"#utility.yul\":13251:13252   */\n      dup3\n        /* \"#utility.yul\":13241:13276   */\n      tag_553\n      jumpi\n        /* \"#utility.yul\":13256:13274   */\n      tag_554\n      tag_381\n      jump\t// in\n    tag_554:\n        /* \"#utility.yul\":13241:13276   */\n    tag_553:\n        /* \"#utility.yul\":13298:13299   */\n      dup3\n        /* \"#utility.yul\":13295:13296   */\n      dup3\n        /* \"#utility.yul\":13291:13300   */\n      div\n        /* \"#utility.yul\":13286:13300   */\n      swap1\n      pop\n        /* \"#utility.yul\":13121:13306   */\n      swap3\n      swap2\n      pop\n      pop\n      jump\t// out\n        /* \"#utility.yul\":13312:13416   */\n    tag_383:\n        /* \"#utility.yul\":13357:13364   */\n      0x00\n        /* \"#utility.yul\":13386:13410   */\n      tag_556\n        /* \"#utility.yul\":13404:13409   */\n      dup3\n        /* \"#utility.yul\":13386:13410   */\n      tag_343\n      jump\t// in\n    tag_556:\n        /* \"#utility.yul\":13375:13410   */\n      swap1\n      pop\n        /* \"#utility.yul\":13312:13416   */\n      swap2\n      swap1\n      pop\n      jump\t// out\n        /* \"#utility.yul\":13422:13560   */\n    tag_384:\n        /* \"#utility.yul\":13503:13535   */\n      tag_558\n        /* \"#utility.yul\":13529:13534   */\n      dup2\n        /* \"#utility.yul\":13503:13535   */\n      tag_383\n      jump\t// in\n    tag_558:\n        /* \"#utility.yul\":13496:13501   */\n      dup2\n        /* \"#utility.yul\":13493:13536   */\n      eq\n        /* \"#utility.yul\":13483:13554   */\n      tag_559\n      jumpi\n        /* \"#utility.yul\":13550:13551   */\n      0x00\n        /* \"#utility.yul\":13547:13548   */\n      dup1\n        /* \"#utility.yul\":13540:13552   */\n      revert\n        /* \"#utility.yul\":13483:13554   */\n    tag_559:\n        /* \"#utility.yul\":13422:13560   */\n      pop\n      jump\t// out\n        /* \"#utility.yul\":13566:13721   */\n    tag_385:\n        /* \"#utility.yul\":13620:13625   */\n      0x00\n        /* \"#utility.yul\":13658:13664   */\n      dup2\n        /* \"#utility.yul\":13645:13665   */\n      calldataload\n        /* \"#utility.yul\":13636:13665   */\n      swap1\n      pop\n        /* \"#utility.yul\":13674:13715   */\n      tag_561\n        /* \"#utility.yul\":13709:13714   */\n      dup2\n        /* \"#utility.yul\":13674:13715   */\n      tag_384\n      jump\t// in\n    tag_561:\n        /* \"#utility.yul\":13566:13721   */\n      swap3\n      swap2\n      pop\n      pop\n      jump\t// out\n        /* \"#utility.yul\":13727:14072   */\n    tag_197:\n        /* \"#utility.yul\":13794:13800   */\n      0x00\n        /* \"#utility.yul\":13843:13845   */\n      0x20\n        /* \"#utility.yul\":13831:13840   */\n      dup3\n        /* \"#utility.yul\":13822:13829   */\n      dup5\n        /* \"#utility.yul\":13818:13841   */\n      sub\n        /* \"#utility.yul\":13814:13846   */\n      slt\n        /* \"#utility.yul\":13811:13930   */\n      iszero\n      tag_563\n      jumpi\n        /* \"#utility.yul\":13849:13928   */\n      tag_564\n      tag_355\n      jump\t// in\n    tag_564:\n        /* \"#utility.yul\":13811:13930   */\n    tag_563:\n        /* \"#utility.yul\":13969:13970   */\n      0x00\n        /* \"#utility.yul\":13994:14055   */\n      tag_565\n        /* \"#utility.yul\":14047:14054   */\n      dup5\n        /* \"#utility.yul\":14038:14044   */\n      dup3\n        /* \"#utility.yul\":14027:14036   */\n      dup6\n        /* \"#utility.yul\":14023:14045   */\n      add\n        /* \"#utility.yul\":13994:14055   */\n      tag_385\n      jump\t// in\n    tag_565:\n        /* \"#utility.yul\":13984:14055   */\n      swap2\n      pop\n        /* \"#utility.yul\":13940:14065   */\n      pop\n        /* \"#utility.yul\":13727:14072   */\n      swap3\n      swap2\n      pop\n      pop\n      jump\t// out\n        /* \"#utility.yul\":14078:14249   */\n    tag_386:\n        /* \"#utility.yul\":14218:14241   */\n      0x55736572206e6f74206c6971756964617461626c650000000000000000000000\n        /* \"#utility.yul\":14214:14215   */\n      0x00\n        /* \"#utility.yul\":14206:14212   */\n      dup3\n        /* \"#utility.yul\":14202:14216   */\n      add\n        /* \"#utility.yul\":14195:14242   */\n      mstore\n        /* \"#utility.yul\":14078:14249   */\n      pop\n      jump\t// out\n        /* \"#utility.yul\":14255:14621   */\n    tag_387:\n        /* \"#utility.yul\":14397:14400   */\n      0x00\n        /* \"#utility.yul\":14418:14485   */\n      tag_568\n        /* \"#utility.yul\":14482:14484   */\n      0x15\n        /* \"#utility.yul\":14477:14480   */\n      dup4\n        /* \"#utility.yul\":14418:14485   */\n      tag_350\n      jump\t// in\n    tag_568:\n        /* \"#utility.yul\":14411:14485   */\n      swap2\n      pop\n        /* \"#utility.yul\":14494:14587   */\n      tag_569\n        /* \"#utility.yul\":14583:14586   */\n      dup3\n        /* \"#utility.yul\":14494:14587   */\n      tag_386\n      jump\t// in\n    tag_569:\n        /* \"#utility.yul\":14612:14614   */\n      0x20\n        /* \"#utility.yul\":14607:14610   */\n      dup3\n        /* \"#utility.yul\":14603:14615   */\n      add\n        /* \"#utility.yul\":14596:14615   */\n      swap1\n      pop\n        /* \"#utility.yul\":14255:14621   */\n      swap2\n      swap1\n      pop\n      jump\t// out\n        /* \"#utility.yul\":14627:15046   */\n    tag_201:\n        /* \"#utility.yul\":14793:14797   */\n      0x00\n        /* \"#utility.yul\":14831:14833   */\n      0x20\n        /* \"#utility.yul\":14820:14829   */\n      dup3\n        /* \"#utility.yul\":14816:14834   */\n      add\n        /* \"#utility.yul\":14808:14834   */\n      swap1\n      pop\n        /* \"#utility.yul\":14880:14889   */\n      dup2\n        /* \"#utility.yul\":14874:14878   */\n      dup2\n        /* \"#utility.yul\":14870:14890   */\n      sub\n        /* \"#utility.yul\":14866:14867   */\n      0x00\n        /* \"#utility.yul\":14855:14864   */\n      dup4\n        /* \"#utility.yul\":14851:14868   */\n      add\n        /* \"#utility.yul\":14844:14891   */\n      mstore\n        /* \"#utility.yul\":14908:15039   */\n      tag_571\n        /* \"#utility.yul\":15034:15038   */\n      dup2\n        /* \"#utility.yul\":14908:15039   */\n      tag_387\n      jump\t// in\n    tag_571:\n        /* \"#utility.yul\":14900:15039   */\n      swap1\n      pop\n        /* \"#utility.yul\":14627:15046   */\n      swap2\n      swap1\n      pop\n      jump\t// out\n        /* \"#utility.yul\":15052:15218   */\n    tag_388:\n        /* \"#utility.yul\":15192:15210   */\n      0x4d757374206465706f7369742045544800000000000000000000000000000000\n        /* \"#utility.yul\":15188:15189   */\n      0x00\n        /* \"#utility.yul\":15180:15186   */\n      dup3\n        /* \"#utility.yul\":15176:15190   */\n      add\n        /* \"#utility.yul\":15169:15211   */\n      mstore\n        /* \"#utility.yul\":15052:15218   */\n      pop\n      jump\t// out\n        /* \"#utility.yul\":15224:15590   */\n    tag_389:\n        /* \"#utility.yul\":15366:15369   */\n      0x00\n        /* \"#utility.yul\":15387:15454   */\n      tag_574\n        /* \"#utility.yul\":15451:15453   */\n      0x10\n        /* \"#utility.yul\":15446:15449   */\n      dup4\n        /* \"#utility.yul\":15387:15454   */\n      tag_350\n      jump\t// in\n    tag_574:\n        /* \"#utility.yul\":15380:15454   */\n      swap2\n      pop\n        /* \"#utility.yul\":15463:15556   */\n      tag_575\n        /* \"#utility.yul\":15552:15555   */\n      dup3\n        /* \"#utility.yul\":15463:15556   */\n      tag_388\n      jump\t// in\n    tag_575:\n        /* \"#utility.yul\":15581:15583   */\n      0x20\n        /* \"#utility.yul\":15576:15579   */\n      dup3\n        /* \"#utility.yul\":15572:15584   */\n      add\n        /* \"#utility.yul\":15565:15584   */\n      swap1\n      pop\n        /* \"#utility.yul\":15224:15590   */\n      swap2\n      swap1\n      pop\n      jump\t// out\n        /* \"#utility.yul\":15596:16015   */\n    tag_210:\n        /* \"#utility.yul\":15762:15766   */\n      0x00\n        /* \"#utility.yul\":15800:15802   */\n      0x20\n        /* \"#utility.yul\":15789:15798   */\n      dup3\n        /* \"#utility.yul\":15785:15803   */\n      add\n        /* \"#utility.yul\":15777:15803   */\n      swap1\n      pop\n        /* \"#utility.yul\":15849:15858   */\n      dup2\n        /* \"#utility.yul\":15843:15847   */\n      dup2\n        /* \"#utility.yul\":15839:15859   */\n      sub\n        /* \"#utility.yul\":15835:15836   */\n      0x00\n        /* \"#utility.yul\":15824:15833   */\n      dup4\n        /* \"#utility.yul\":15820:15837   */\n      add\n        /* \"#utility.yul\":15813:15860   */\n      mstore\n        /* \"#utility.yul\":15877:16008   */\n      tag_577\n        /* \"#utility.yul\":16003:16007   */\n      dup2\n        /* \"#utility.yul\":15877:16008   */\n      tag_389\n      jump\t// in\n    tag_577:\n        /* \"#utility.yul\":15869:16008   */\n      swap1\n      pop\n        /* \"#utility.yul\":15596:16015   */\n      swap2\n      swap1\n      pop\n      jump\t// out\n        /* \"#utility.yul\":16021:16212   */\n    tag_218:\n        /* \"#utility.yul\":16061:16064   */\n      0x00\n        /* \"#utility.yul\":16080:16100   */\n      tag_579\n        /* \"#utility.yul\":16098:16099   */\n      dup3\n        /* \"#utility.yul\":16080:16100   */\n      tag_359\n      jump\t// in\n    tag_579:\n        /* \"#utility.yul\":16075:16100   */\n      swap2\n      pop\n        /* \"#utility.yul\":16114:16134   */\n      tag_580\n        /* \"#utility.yul\":16132:16133   */\n      dup4\n        /* \"#utility.yul\":16114:16134   */\n      tag_359\n      jump\t// in\n    tag_580:\n        /* \"#utility.yul\":16109:16134   */\n      swap3\n      pop\n        /* \"#utility.yul\":16157:16158   */\n      dup3\n        /* \"#utility.yul\":16154:16155   */\n      dup3\n        /* \"#utility.yul\":16150:16159   */\n      add\n        /* \"#utility.yul\":16143:16159   */\n      swap1\n      pop\n        /* \"#utility.yul\":16178:16181   */\n      dup1\n        /* \"#utility.yul\":16175:16176   */\n      dup3\n        /* \"#utility.yul\":16172:16182   */\n      gt\n        /* \"#utility.yul\":16169:16205   */\n      iszero\n      tag_581\n      jumpi\n        /* \"#utility.yul\":16185:16203   */\n      tag_582\n      tag_382\n      jump\t// in\n    tag_582:\n        /* \"#utility.yul\":16169:16205   */\n    tag_581:\n        /* \"#utility.yul\":16021:16212   */\n      swap3\n      swap2\n      pop\n      pop\n      jump\t// out\n        /* \"#utility.yul\":16218:16398   */\n    tag_227:\n        /* \"#utility.yul\":16266:16343   */\n      0x4e487b7100000000000000000000000000000000000000000000000000000000\n        /* \"#utility.yul\":16263:16264   */\n      0x00\n        /* \"#utility.yul\":16256:16344   */\n      mstore\n        /* \"#utility.yul\":16363:16367   */\n      0x32\n        /* \"#utility.yul\":16360:16361   */\n      0x04\n        /* \"#utility.yul\":16353:16368   */\n      mstore\n        /* \"#utility.yul\":16387:16391   */\n      0x24\n        /* \"#utility.yul\":16384:16385   */\n      0x00\n        /* \"#utility.yul\":16377:16392   */\n      revert\n        /* \"#utility.yul\":16404:16572   */\n    tag_390:\n        /* \"#utility.yul\":16544:16564   */\n      0x496e73756666696369656e742054415653540000000000000000000000000000\n        /* \"#utility.yul\":16540:16541   */\n      0x00\n        /* \"#utility.yul\":16532:16538   */\n      dup3\n        /* \"#utility.yul\":16528:16542   */\n      add\n        /* \"#utility.yul\":16521:16565   */\n      mstore\n        /* \"#utility.yul\":16404:16572   */\n      pop\n      jump\t// out\n        /* \"#utility.yul\":16578:16944   */\n    tag_391:\n        /* \"#utility.yul\":16720:16723   */\n      0x00\n        /* \"#utility.yul\":16741:16808   */\n      tag_586\n        /* \"#utility.yul\":16805:16807   */\n      0x12\n        /* \"#utility.yul\":16800:16803   */\n      dup4\n        /* \"#utility.yul\":16741:16808   */\n      tag_350\n      jump\t// in\n    tag_586:\n        /* \"#utility.yul\":16734:16808   */\n      swap2\n      pop\n        /* \"#utility.yul\":16817:16910   */\n      tag_587\n        /* \"#utility.yul\":16906:16909   */\n      dup3\n        /* \"#utility.yul\":16817:16910   */\n      tag_390\n      jump\t// in\n    tag_587:\n        /* \"#utility.yul\":16935:16937   */\n      0x20\n        /* \"#utility.yul\":16930:16933   */\n      dup3\n        /* \"#utility.yul\":16926:16938   */\n      add\n        /* \"#utility.yul\":16919:16938   */\n      swap1\n      pop\n        /* \"#utility.yul\":16578:16944   */\n      swap2\n      swap1\n      pop\n      jump\t// out\n        /* \"#utility.yul\":16950:17369   */\n    tag_237:\n        /* \"#utility.yul\":17116:17120   */\n      0x00\n        /* \"#utility.yul\":17154:17156   */\n      0x20\n        /* \"#utility.yul\":17143:17152   */\n      dup3\n        /* \"#utility.yul\":17139:17157   */\n      add\n        /* \"#utility.yul\":17131:17157   */\n      swap1\n      pop\n        /* \"#utility.yul\":17203:17212   */\n      dup2\n        /* \"#utility.yul\":17197:17201   */\n      dup2\n        /* \"#utility.yul\":17193:17213   */\n      sub\n        /* \"#utility.yul\":17189:17190   */\n      0x00\n        /* \"#utility.yul\":17178:17187   */\n      dup4\n        /* \"#utility.yul\":17174:17191   */\n      add\n        /* \"#utility.yul\":17167:17214   */\n      mstore\n        /* \"#utility.yul\":17231:17362   */\n      tag_589\n        /* \"#utility.yul\":17357:17361   */\n      dup2\n        /* \"#utility.yul\":17231:17362   */\n      tag_391\n      jump\t// in\n    tag_589:\n        /* \"#utility.yul\":17223:17362   */\n      swap1\n      pop\n        /* \"#utility.yul\":16950:17369   */\n      swap2\n      swap1\n      pop\n      jump\t// out\n        /* \"#utility.yul\":17375:17546   */\n    tag_392:\n        /* \"#utility.yul\":17515:17538   */\n      0x4e6f7420656e6f75676820636f6c6c61746572616c0000000000000000000000\n        /* \"#utility.yul\":17511:17512   */\n      0x00\n        /* \"#utility.yul\":17503:17509   */\n      dup3\n        /* \"#utility.yul\":17499:17513   */\n      add\n        /* \"#utility.yul\":17492:17539   */\n      mstore\n        /* \"#utility.yul\":17375:17546   */\n      pop\n      jump\t// out\n        /* \"#utility.yul\":17552:17918   */\n    tag_393:\n        /* \"#utility.yul\":17694:17697   */\n      0x00\n        /* \"#utility.yul\":17715:17782   */\n      tag_592\n        /* \"#utility.yul\":17779:17781   */\n      0x15\n        /* \"#utility.yul\":17774:17777   */\n      dup4\n        /* \"#utility.yul\":17715:17782   */\n      tag_350\n      jump\t// in\n    tag_592:\n        /* \"#utility.yul\":17708:17782   */\n      swap2\n      pop\n        /* \"#utility.yul\":17791:17884   */\n      tag_593\n        /* \"#utility.yul\":17880:17883   */\n      dup3\n        /* \"#utility.yul\":17791:17884   */\n      tag_392\n      jump\t// in\n    tag_593:\n        /* \"#utility.yul\":17909:17911   */\n      0x20\n        /* \"#utility.yul\":17904:17907   */\n      dup3\n        /* \"#utility.yul\":17900:17912   */\n      add\n        /* \"#utility.yul\":17893:17912   */\n      swap1\n      pop\n        /* \"#utility.yul\":17552:17918   */\n      swap2\n      swap1\n      pop\n      jump\t// out\n        /* \"#utility.yul\":17924:18343   */\n    tag_241:\n        /* \"#utility.yul\":18090:18094   */\n      0x00\n        /* \"#utility.yul\":18128:18130   */\n      0x20\n        /* \"#utility.yul\":18117:18126   */\n      dup3\n        /* \"#utility.yul\":18113:18131   */\n      add\n        /* \"#utility.yul\":18105:18131   */\n      swap1\n      pop\n        /* \"#utility.yul\":18177:18186   */\n      dup2\n        /* \"#utility.yul\":18171:18175   */\n      dup2\n        /* \"#utility.yul\":18167:18187   */\n      sub\n        /* \"#utility.yul\":18163:18164   */\n      0x00\n        /* \"#utility.yul\":18152:18161   */\n      dup4\n        /* \"#utility.yul\":18148:18165   */\n      add\n        /* \"#utility.yul\":18141:18188   */\n      mstore\n        /* \"#utility.yul\":18205:18336   */\n      tag_595\n        /* \"#utility.yul\":18331:18335   */\n      dup2\n        /* \"#utility.yul\":18205:18336   */\n      tag_393\n      jump\t// in\n    tag_595:\n        /* \"#utility.yul\":18197:18336   */\n      swap1\n      pop\n        /* \"#utility.yul\":17924:18343   */\n      swap2\n      swap1\n      pop\n      jump\t// out\n        /* \"#utility.yul\":18349:18543   */\n    tag_243:\n        /* \"#utility.yul\":18389:18393   */\n      0x00\n        /* \"#utility.yul\":18409:18429   */\n      tag_597\n        /* \"#utility.yul\":18427:18428   */\n      dup3\n        /* \"#utility.yul\":18409:18429   */\n      tag_359\n      jump\t// in\n    tag_597:\n        /* \"#utility.yul\":18404:18429   */\n      swap2\n      pop\n        /* \"#utility.yul\":18443:18463   */\n      tag_598\n        /* \"#utility.yul\":18461:18462   */\n      dup4\n        /* \"#utility.yul\":18443:18463   */\n      tag_359\n      jump\t// in\n    tag_598:\n        /* \"#utility.yul\":18438:18463   */\n      swap3\n      pop\n        /* \"#utility.yul\":18487:18488   */\n      dup3\n        /* \"#utility.yul\":18484:18485   */\n      dup3\n        /* \"#utility.yul\":18480:18489   */\n      sub\n        /* \"#utility.yul\":18472:18489   */\n      swap1\n      pop\n        /* \"#utility.yul\":18511:18512   */\n      dup2\n        /* \"#utility.yul\":18505:18509   */\n      dup2\n        /* \"#utility.yul\":18502:18513   */\n      gt\n        /* \"#utility.yul\":18499:18536   */\n      iszero\n      tag_599\n      jumpi\n        /* \"#utility.yul\":18516:18534   */\n      tag_600\n      tag_382\n      jump\t// in\n    tag_600:\n        /* \"#utility.yul\":18499:18536   */\n    tag_599:\n        /* \"#utility.yul\":18349:18543   */\n      swap3\n      swap2\n      pop\n      pop\n      jump\t// out\n        /* \"#utility.yul\":18549:18654   */\n    tag_394:\n        /* \"#utility.yul\":18585:18592   */\n      0x00\n        /* \"#utility.yul\":18625:18647   */\n      0xffffffffffffffffffff\n        /* \"#utility.yul\":18618:18623   */\n      dup3\n        /* \"#utility.yul\":18614:18648   */\n      and\n        /* \"#utility.yul\":18603:18648   */\n      swap1\n      pop\n        /* \"#utility.yul\":18549:18654   */\n      swap2\n      swap1\n      pop\n      jump\t// out\n        /* \"#utility.yul\":18660:18780   */\n    tag_395:\n        /* \"#utility.yul\":18732:18755   */\n      tag_603\n        /* \"#utility.yul\":18749:18754   */\n      dup2\n        /* \"#utility.yul\":18732:18755   */\n      tag_394\n      jump\t// in\n    tag_603:\n        /* \"#utility.yul\":18725:18730   */\n      dup2\n        /* \"#utility.yul\":18722:18756   */\n      eq\n        /* \"#utility.yul\":18712:18774   */\n      tag_604\n      jumpi\n        /* \"#utility.yul\":18770:18771   */\n      0x00\n        /* \"#utility.yul\":18767:18768   */\n      dup1\n        /* \"#utility.yul\":18760:18772   */\n      revert\n        /* \"#utility.yul\":18712:18774   */\n    tag_604:\n        /* \"#utility.yul\":18660:18780   */\n      pop\n      jump\t// out\n        /* \"#utility.yul\":18786:18927   */\n    tag_396:\n        /* \"#utility.yul\":18842:18847   */\n      0x00\n        /* \"#utility.yul\":18873:18879   */\n      dup2\n        /* \"#utility.yul\":18867:18880   */\n      mload\n        /* \"#utility.yul\":18858:18880   */\n      swap1\n      pop\n        /* \"#utility.yul\":18889:18921   */\n      tag_606\n        /* \"#utility.yul\":18915:18920   */\n      dup2\n        /* \"#utility.yul\":18889:18921   */\n      tag_395\n      jump\t// in\n    tag_606:\n        /* \"#utility.yul\":18786:18927   */\n      swap3\n      swap2\n      pop\n      pop\n      jump\t// out\n        /* \"#utility.yul\":18933:19009   */\n    tag_397:\n        /* \"#utility.yul\":18969:18976   */\n      0x00\n        /* \"#utility.yul\":18998:19003   */\n      dup2\n        /* \"#utility.yul\":18987:19003   */\n      swap1\n      pop\n        /* \"#utility.yul\":18933:19009   */\n      swap2\n      swap1\n      pop\n      jump\t// out\n        /* \"#utility.yul\":19015:19135   */\n    tag_398:\n        /* \"#utility.yul\":19087:19110   */\n      tag_609\n        /* \"#utility.yul\":19104:19109   */\n      dup2\n        /* \"#utility.yul\":19087:19110   */\n      tag_397\n      jump\t// in\n    tag_609:\n        /* \"#utility.yul\":19080:19085   */\n      dup2\n        /* \"#utility.yul\":19077:19111   */\n      eq\n        /* \"#utility.yul\":19067:19129   */\n      tag_610\n      jumpi\n        /* \"#utility.yul\":19125:19126   */\n      0x00\n        /* \"#utility.yul\":19122:19123   */\n      dup1\n        /* \"#utility.yul\":19115:19127   */\n      revert\n        /* \"#utility.yul\":19067:19129   */\n    tag_610:\n        /* \"#utility.yul\":19015:19135   */\n      pop\n      jump\t// out\n        /* \"#utility.yul\":19141:19282   */\n    tag_399:\n        /* \"#utility.yul\":19197:19202   */\n      0x00\n        /* \"#utility.yul\":19228:19234   */\n      dup2\n        /* \"#utility.yul\":19222:19235   */\n      mload\n        /* \"#utility.yul\":19213:19235   */\n      swap1\n      pop\n        /* \"#utility.yul\":19244:19276   */\n      tag_612\n        /* \"#utility.yul\":19270:19275   */\n      dup2\n        /* \"#utility.yul\":19244:19276   */\n      tag_398\n      jump\t// in\n    tag_612:\n        /* \"#utility.yul\":19141:19282   */\n      swap3\n      swap2\n      pop\n      pop\n      jump\t// out\n        /* \"#utility.yul\":19288:19431   */\n    tag_400:\n        /* \"#utility.yul\":19345:19350   */\n      0x00\n        /* \"#utility.yul\":19376:19382   */\n      dup2\n        /* \"#utility.yul\":19370:19383   */\n      mload\n        /* \"#utility.yul\":19361:19383   */\n      swap1\n      pop\n        /* \"#utility.yul\":19392:19425   */\n      tag_614\n        /* \"#utility.yul\":19419:19424   */\n      dup2\n        /* \"#utility.yul\":19392:19425   */\n      tag_360\n      jump\t// in\n    tag_614:\n        /* \"#utility.yul\":19288:19431   */\n      swap3\n      swap2\n      pop\n      pop\n      jump\t// out\n        /* \"#utility.yul\":19437:20408   */\n    tag_253:\n        /* \"#utility.yul\":19540:19546   */\n      0x00\n        /* \"#utility.yul\":19548:19554   */\n      dup1\n        /* \"#utility.yul\":19556:19562   */\n      0x00\n        /* \"#utility.yul\":19564:19570   */\n      dup1\n        /* \"#utility.yul\":19572:19578   */\n      0x00\n        /* \"#utility.yul\":19621:19624   */\n      0xa0\n        /* \"#utility.yul\":19609:19618   */\n      dup7\n        /* \"#utility.yul\":19600:19607   */\n      dup9\n        /* \"#utility.yul\":19596:19619   */\n      sub\n        /* \"#utility.yul\":19592:19625   */\n      slt\n        /* \"#utility.yul\":19589:19709   */\n      iszero\n      tag_616\n      jumpi\n        /* \"#utility.yul\":19628:19707   */\n      tag_617\n      tag_355\n      jump\t// in\n    tag_617:\n        /* \"#utility.yul\":19589:19709   */\n    tag_616:\n        /* \"#utility.yul\":19748:19749   */\n      0x00\n        /* \"#utility.yul\":19773:19836   */\n      tag_618\n        /* \"#utility.yul\":19828:19835   */\n      dup9\n        /* \"#utility.yul\":19819:19825   */\n      dup3\n        /* \"#utility.yul\":19808:19817   */\n      dup10\n        /* \"#utility.yul\":19804:19826   */\n      add\n        /* \"#utility.yul\":19773:19836   */\n      tag_396\n      jump\t// in\n    tag_618:\n        /* \"#utility.yul\":19763:19836   */\n      swap6\n      pop\n        /* \"#utility.yul\":19719:19846   */\n      pop\n        /* \"#utility.yul\":19885:19887   */\n      0x20\n        /* \"#utility.yul\":19911:19974   */\n      tag_619\n        /* \"#utility.yul\":19966:19973   */\n      dup9\n        /* \"#utility.yul\":19957:19963   */\n      dup3\n        /* \"#utility.yul\":19946:19955   */\n      dup10\n        /* \"#utility.yul\":19942:19964   */\n      add\n        /* \"#utility.yul\":19911:19974   */\n      tag_399\n      jump\t// in\n    tag_619:\n        /* \"#utility.yul\":19901:19974   */\n      swap5\n      pop\n        /* \"#utility.yul\":19856:19984   */\n      pop\n        /* \"#utility.yul\":20023:20025   */\n      0x40\n        /* \"#utility.yul\":20049:20113   */\n      tag_620\n        /* \"#utility.yul\":20105:20112   */\n      dup9\n        /* \"#utility.yul\":20096:20102   */\n      dup3\n        /* \"#utility.yul\":20085:20094   */\n      dup10\n        /* \"#utility.yul\":20081:20103   */\n      add\n        /* \"#utility.yul\":20049:20113   */\n      tag_400\n      jump\t// in\n    tag_620:\n        /* \"#utility.yul\":20039:20113   */\n      swap4\n      pop\n        /* \"#utility.yul\":19994:20123   */\n      pop\n        /* \"#utility.yul\":20162:20164   */\n      0x60\n        /* \"#utility.yul\":20188:20252   */\n      tag_621\n        /* \"#utility.yul\":20244:20251   */\n      dup9\n        /* \"#utility.yul\":20235:20241   */\n      dup3\n        /* \"#utility.yul\":20224:20233   */\n      dup10\n        /* \"#utility.yul\":20220:20242   */\n      add\n        /* \"#utility.yul\":20188:20252   */\n      tag_400\n      jump\t// in\n    tag_621:\n        /* \"#utility.yul\":20178:20252   */\n      swap3\n      pop\n        /* \"#utility.yul\":20133:20262   */\n      pop\n        /* \"#utility.yul\":20301:20304   */\n      0x80\n        /* \"#utility.yul\":20328:20391   */\n      tag_622\n        /* \"#utility.yul\":20383:20390   */\n      dup9\n        /* \"#utility.yul\":20374:20380   */\n      dup3\n        /* \"#utility.yul\":20363:20372   */\n      dup10\n        /* \"#utility.yul\":20359:20381   */\n      add\n        /* \"#utility.yul\":20328:20391   */\n      tag_396\n      jump\t// in\n    tag_622:\n        /* \"#utility.yul\":20318:20391   */\n      swap2\n      pop\n        /* \"#utility.yul\":20272:20401   */\n      pop\n        /* \"#utility.yul\":19437:20408   */\n      swap3\n      swap6\n      pop\n      swap3\n      swap6\n      swap1\n      swap4\n      pop\n      jump\t// out\n        /* \"#utility.yul\":20414:20577   */\n    tag_401:\n        /* \"#utility.yul\":20554:20569   */\n      0x496e76616c696420707269636500000000000000000000000000000000000000\n        /* \"#utility.yul\":20550:20551   */\n      0x00\n        /* \"#utility.yul\":20542:20548   */\n      dup3\n        /* \"#utility.yul\":20538:20552   */\n      add\n        /* \"#utility.yul\":20531:20570   */\n      mstore\n        /* \"#utility.yul\":20414:20577   */\n      pop\n      jump\t// out\n        /* \"#utility.yul\":20583:20949   */\n    tag_402:\n        /* \"#utility.yul\":20725:20728   */\n      0x00\n        /* \"#utility.yul\":20746:20813   */\n      tag_625\n        /* \"#utility.yul\":20810:20812   */\n      0x0d\n        /* \"#utility.yul\":20805:20808   */\n      dup4\n        /* \"#utility.yul\":20746:20813   */\n      tag_350\n      jump\t// in\n    tag_625:\n        /* \"#utility.yul\":20739:20813   */\n      swap2\n      pop\n        /* \"#utility.yul\":20822:20915   */\n      tag_626\n        /* \"#utility.yul\":20911:20914   */\n      dup3\n        /* \"#utility.yul\":20822:20915   */\n      tag_401\n      jump\t// in\n    tag_626:\n        /* \"#utility.yul\":20940:20942   */\n      0x20\n        /* \"#utility.yul\":20935:20938   */\n      dup3\n        /* \"#utility.yul\":20931:20943   */\n      add\n        /* \"#utility.yul\":20924:20943   */\n      swap1\n      pop\n        /* \"#utility.yul\":20583:20949   */\n      swap2\n      swap1\n      pop\n      jump\t// out\n        /* \"#utility.yul\":20955:21374   */\n    tag_256:\n        /* \"#utility.yul\":21121:21125   */\n      0x00\n        /* \"#utility.yul\":21159:21161   */\n      0x20\n        /* \"#utility.yul\":21148:21157   */\n      dup3\n        /* \"#utility.yul\":21144:21162   */\n      add\n        /* \"#utility.yul\":21136:21162   */\n      swap1\n      pop\n        /* \"#utility.yul\":21208:21217   */\n      dup2\n        /* \"#utility.yul\":21202:21206   */\n      dup2\n        /* \"#utility.yul\":21198:21218   */\n      sub\n        /* \"#utility.yul\":21194:21195   */\n      0x00\n        /* \"#utility.yul\":21183:21192   */\n      dup4\n        /* \"#utility.yul\":21179:21196   */\n      add\n        /* \"#utility.yul\":21172:21219   */\n      mstore\n        /* \"#utility.yul\":21236:21367   */\n      tag_628\n        /* \"#utility.yul\":21362:21366   */\n      dup2\n        /* \"#utility.yul\":21236:21367   */\n      tag_402\n      jump\t// in\n    tag_628:\n        /* \"#utility.yul\":21228:21367   */\n      swap1\n      pop\n        /* \"#utility.yul\":20955:21374   */\n      swap2\n      swap1\n      pop\n      jump\t// out\n        /* \"#utility.yul\":21380:21482   */\n    tag_403:\n        /* \"#utility.yul\":21422:21430   */\n      0x00\n        /* \"#utility.yul\":21469:21474   */\n      dup2\n        /* \"#utility.yul\":21466:21467   */\n      0x01\n        /* \"#utility.yul\":21462:21475   */\n      shr\n        /* \"#utility.yul\":21441:21475   */\n      swap1\n      pop\n        /* \"#utility.yul\":21380:21482   */\n      swap2\n      swap1\n      pop\n      jump\t// out\n        /* \"#utility.yul\":21488:22336   */\n    tag_404:\n        /* \"#utility.yul\":21549:21554   */\n      0x00\n        /* \"#utility.yul\":21556:21560   */\n      dup1\n        /* \"#utility.yul\":21580:21586   */\n      dup3\n        /* \"#utility.yul\":21571:21586   */\n      swap2\n      pop\n        /* \"#utility.yul\":21604:21609   */\n      dup4\n        /* \"#utility.yul\":21595:21609   */\n      swap1\n      pop\n        /* \"#utility.yul\":21618:22330   */\n    tag_631:\n        /* \"#utility.yul\":21639:21640   */\n      0x01\n        /* \"#utility.yul\":21629:21637   */\n      dup6\n        /* \"#utility.yul\":21626:21641   */\n      gt\n        /* \"#utility.yul\":21618:22330   */\n      iszero\n      tag_633\n      jumpi\n        /* \"#utility.yul\":21734:21738   */\n      dup1\n        /* \"#utility.yul\":21729:21732   */\n      dup7\n        /* \"#utility.yul\":21725:21739   */\n      div\n        /* \"#utility.yul\":21719:21723   */\n      dup2\n        /* \"#utility.yul\":21716:21740   */\n      gt\n        /* \"#utility.yul\":21713:21763   */\n      iszero\n      tag_634\n      jumpi\n        /* \"#utility.yul\":21743:21761   */\n      tag_635\n      tag_382\n      jump\t// in\n    tag_635:\n        /* \"#utility.yul\":21713:21763   */\n    tag_634:\n        /* \"#utility.yul\":21793:21794   */\n      0x01\n        /* \"#utility.yul\":21783:21791   */\n      dup6\n        /* \"#utility.yul\":21779:21795   */\n      and\n        /* \"#utility.yul\":21776:22227   */\n      iszero\n      tag_636\n      jumpi\n        /* \"#utility.yul\":22208:22212   */\n      dup1\n        /* \"#utility.yul\":22201:22206   */\n      dup3\n        /* \"#utility.yul\":22197:22213   */\n      mul\n        /* \"#utility.yul\":22188:22213   */\n      swap2\n      pop\n        /* \"#utility.yul\":21776:22227   */\n    tag_636:\n        /* \"#utility.yul\":22258:22262   */\n      dup1\n        /* \"#utility.yul\":22252:22256   */\n      dup2\n        /* \"#utility.yul\":22248:22263   */\n      mul\n        /* \"#utility.yul\":22240:22263   */\n      swap1\n      pop\n        /* \"#utility.yul\":22288:22320   */\n      tag_637\n        /* \"#utility.yul\":22311:22319   */\n      dup6\n        /* \"#utility.yul\":22288:22320   */\n      tag_403\n      jump\t// in\n    tag_637:\n        /* \"#utility.yul\":22276:22320   */\n      swap5\n      pop\n        /* \"#utility.yul\":21618:22330   */\n      jump(tag_631)\n    tag_633:\n        /* \"#utility.yul\":21488:22336   */\n      swap5\n      pop\n      swap5\n      swap3\n      pop\n      pop\n      pop\n      jump\t// out\n        /* \"#utility.yul\":22342:23415   */\n    tag_405:\n        /* \"#utility.yul\":22396:22401   */\n      0x00\n        /* \"#utility.yul\":22587:22595   */\n      dup3\n        /* \"#utility.yul\":22577:22617   */\n      tag_639\n      jumpi\n        /* \"#utility.yul\":22608:22609   */\n      0x01\n        /* \"#utility.yul\":22599:22609   */\n      swap1\n      pop\n        /* \"#utility.yul\":22610:22615   */\n      jump(tag_638)\n        /* \"#utility.yul\":22577:22617   */\n    tag_639:\n        /* \"#utility.yul\":22636:22640   */\n      dup2\n        /* \"#utility.yul\":22626:22662   */\n      tag_640\n      jumpi\n        /* \"#utility.yul\":22653:22654   */\n      0x00\n        /* \"#utility.yul\":22644:22654   */\n      swap1\n      pop\n        /* \"#utility.yul\":22655:22660   */\n      jump(tag_638)\n        /* \"#utility.yul\":22626:22662   */\n    tag_640:\n        /* \"#utility.yul\":22722:22726   */\n      dup2\n        /* \"#utility.yul\":22770:22771   */\n      0x01\n        /* \"#utility.yul\":22765:22792   */\n      dup2\n      eq\n      tag_642\n      jumpi\n        /* \"#utility.yul\":22806:22807   */\n      0x02\n        /* \"#utility.yul\":22801:22992   */\n      dup2\n      eq\n      tag_643\n      jumpi\n        /* \"#utility.yul\":22715:22992   */\n      jump(tag_641)\n        /* \"#utility.yul\":22765:22792   */\n    tag_642:\n        /* \"#utility.yul\":22783:22784   */\n      0x01\n        /* \"#utility.yul\":22774:22784   */\n      swap2\n      pop\n        /* \"#utility.yul\":22785:22790   */\n      pop\n      jump(tag_638)\n        /* \"#utility.yul\":22801:22992   */\n    tag_643:\n        /* \"#utility.yul\":22846:22849   */\n      0xff\n        /* \"#utility.yul\":22836:22844   */\n      dup5\n        /* \"#utility.yul\":22833:22850   */\n      gt\n        /* \"#utility.yul\":22830:22873   */\n      iszero\n      tag_644\n      jumpi\n        /* \"#utility.yul\":22853:22871   */\n      tag_645\n      tag_382\n      jump\t// in\n    tag_645:\n        /* \"#utility.yul\":22830:22873   */\n    tag_644:\n        /* \"#utility.yul\":22902:22910   */\n      dup4\n        /* \"#utility.yul\":22899:22900   */\n      0x02\n        /* \"#utility.yul\":22895:22911   */\n      exp\n        /* \"#utility.yul\":22886:22911   */\n      swap2\n      pop\n        /* \"#utility.yul\":22937:22940   */\n      dup5\n        /* \"#utility.yul\":22930:22935   */\n      dup3\n        /* \"#utility.yul\":22927:22941   */\n      gt\n        /* \"#utility.yul\":22924:22964   */\n      iszero\n      tag_646\n      jumpi\n        /* \"#utility.yul\":22944:22962   */\n      tag_647\n      tag_382\n      jump\t// in\n    tag_647:\n        /* \"#utility.yul\":22924:22964   */\n    tag_646:\n        /* \"#utility.yul\":22977:22982   */\n      pop\n      jump(tag_638)\n        /* \"#utility.yul\":22715:22992   */\n    tag_641:\n      pop\n        /* \"#utility.yul\":23101:23103   */\n      0x20\n        /* \"#utility.yul\":23091:23099   */\n      dup4\n        /* \"#utility.yul\":23088:23104   */\n      lt\n        /* \"#utility.yul\":23082:23085   */\n      0x0133\n        /* \"#utility.yul\":23076:23080   */\n      dup4\n        /* \"#utility.yul\":23073:23086   */\n      lt\n        /* \"#utility.yul\":23069:23105   */\n      and\n        /* \"#utility.yul\":23051:23053   */\n      0x4e\n        /* \"#utility.yul\":23041:23049   */\n      dup5\n        /* \"#utility.yul\":23038:23054   */\n      lt\n        /* \"#utility.yul\":23033:23035   */\n      0x0b\n        /* \"#utility.yul\":23027:23031   */\n      dup5\n        /* \"#utility.yul\":23024:23036   */\n      lt\n        /* \"#utility.yul\":23020:23055   */\n      and\n        /* \"#utility.yul\":23004:23115   */\n      or\n        /* \"#utility.yul\":23001:23247   */\n      iszero\n      tag_648\n      jumpi\n        /* \"#utility.yul\":23157:23165   */\n      dup3\n        /* \"#utility.yul\":23151:23155   */\n      dup3\n        /* \"#utility.yul\":23147:23166   */\n      exp\n        /* \"#utility.yul\":23138:23166   */\n      swap1\n      pop\n        /* \"#utility.yul\":23192:23195   */\n      dup4\n        /* \"#utility.yul\":23185:23190   */\n      dup2\n        /* \"#utility.yul\":23182:23196   */\n      gt\n        /* \"#utility.yul\":23179:23219   */\n      iszero\n      tag_649\n      jumpi\n        /* \"#utility.yul\":23199:23217   */\n      tag_650\n      tag_382\n      jump\t// in\n    tag_650:\n        /* \"#utility.yul\":23179:23219   */\n    tag_649:\n        /* \"#utility.yul\":23232:23237   */\n      jump(tag_638)\n        /* \"#utility.yul\":23001:23247   */\n    tag_648:\n        /* \"#utility.yul\":23272:23314   */\n      tag_651\n        /* \"#utility.yul\":23310:23313   */\n      dup5\n        /* \"#utility.yul\":23300:23308   */\n      dup5\n        /* \"#utility.yul\":23294:23298   */\n      dup5\n        /* \"#utility.yul\":23291:23292   */\n      0x01\n        /* \"#utility.yul\":23272:23314   */\n      tag_404\n      jump\t// in\n    tag_651:\n        /* \"#utility.yul\":23257:23314   */\n      swap3\n      pop\n      swap1\n      pop\n        /* \"#utility.yul\":23346:23350   */\n      dup2\n        /* \"#utility.yul\":23341:23344   */\n      dup5\n        /* \"#utility.yul\":23337:23351   */\n      div\n        /* \"#utility.yul\":23330:23335   */\n      dup2\n        /* \"#utility.yul\":23327:23352   */\n      gt\n        /* \"#utility.yul\":23324:23375   */\n      iszero\n      tag_652\n      jumpi\n        /* \"#utility.yul\":23355:23373   */\n      tag_653\n      tag_382\n      jump\t// in\n    tag_653:\n        /* \"#utility.yul\":23324:23375   */\n    tag_652:\n        /* \"#utility.yul\":23404:23408   */\n      dup2\n        /* \"#utility.yul\":23397:23402   */\n      dup2\n        /* \"#utility.yul\":23393:23409   */\n      mul\n        /* \"#utility.yul\":23384:23409   */\n      swap1\n      pop\n        /* \"#utility.yul\":22342:23415   */\n    tag_638:\n      swap4\n      swap3\n      pop\n      pop\n      pop\n      jump\t// out\n        /* \"#utility.yul\":23421:23706   */\n    tag_270:\n        /* \"#utility.yul\":23481:23486   */\n      0x00\n        /* \"#utility.yul\":23505:23528   */\n      tag_655\n        /* \"#utility.yul\":23523:23527   */\n      dup3\n        /* \"#utility.yul\":23505:23528   */\n      tag_359\n      jump\t// in\n    tag_655:\n        /* \"#utility.yul\":23497:23528   */\n      swap2\n      pop\n        /* \"#utility.yul\":23549:23576   */\n      tag_656\n        /* \"#utility.yul\":23567:23575   */\n      dup4\n        /* \"#utility.yul\":23549:23576   */\n      tag_359\n      jump\t// in\n    tag_656:\n        /* \"#utility.yul\":23537:23576   */\n      swap3\n      pop\n        /* \"#utility.yul\":23595:23699   */\n      tag_657\n        /* \"#utility.yul\":23632:23698   */\n      0xffffffffffffffffffffffffffffffffffffffffffffffffffffffffffffffff\n        /* \"#utility.yul\":23622:23630   */\n      dup5\n        /* \"#utility.yul\":23616:23620   */\n      dup5\n        /* \"#utility.yul\":23595:23699   */\n      tag_405\n      jump\t// in\n    tag_657:\n        /* \"#utility.yul\":23586:23699   */\n      swap1\n      pop\n        /* \"#utility.yul\":23421:23706   */\n      swap3\n      swap2\n      pop\n      pop\n      jump\t// out\n        /* \"#utility.yul\":23712:24122   */\n    tag_272:\n        /* \"#utility.yul\":23752:23759   */\n      0x00\n        /* \"#utility.yul\":23775:23795   */\n      tag_659\n        /* \"#utility.yul\":23793:23794   */\n      dup3\n        /* \"#utility.yul\":23775:23795   */\n      tag_359\n      jump\t// in\n    tag_659:\n        /* \"#utility.yul\":23770:23795   */\n      swap2\n      pop\n        /* \"#utility.yul\":23809:23829   */\n      tag_660\n        /* \"#utility.yul\":23827:23828   */\n      dup4\n        /* \"#utility.yul\":23809:23829   */\n      tag_359\n      jump\t// in\n    tag_660:\n        /* \"#utility.yul\":23804:23829   */\n      swap3\n      pop\n        /* \"#utility.yul\":23864:23865   */\n      dup3\n        /* \"#utility.yul\":23861:23862   */\n      dup3\n        /* \"#utility.yul\":23857:23866   */\n      mul\n        /* \"#utility.yul\":23886:23916   */\n      tag_661\n        /* \"#utility.yul\":23904:23915   */\n      dup2\n        /* \"#utility.yul\":23886:23916   */\n      tag_359\n      jump\t// in\n    tag_661:\n        /* \"#utility.yul\":23875:23916   */\n      swap2\n      pop\n        /* \"#utility.yul\":24065:24066   */\n      dup3\n        /* \"#utility.yul\":24056:24063   */\n      dup3\n        /* \"#utility.yul\":24052:24067   */\n      div\n        /* \"#utility.yul\":24049:24050   */\n      dup5\n        /* \"#utility.yul\":24046:24068   */\n      eq\n        /* \"#utility.yul\":24026:24027   */\n      dup4\n        /* \"#utility.yul\":24019:24028   */\n      iszero\n        /* \"#utility.yul\":23999:24082   */\n      or\n        /* \"#utility.yul\":23976:24115   */\n      tag_662\n      jumpi\n        /* \"#utility.yul\":24095:24113   */\n      tag_663\n      tag_382\n      jump\t// in\n    tag_663:\n        /* \"#utility.yul\":23976:24115   */\n    tag_662:\n        /* \"#utility.yul\":23760:24122   */\n      pop\n        /* \"#utility.yul\":23712:24122   */\n      swap3\n      swap2\n      pop\n      pop\n      jump\t// out\n        /* \"#utility.yul\":24128:24307   */\n    tag_406:\n        /* \"#utility.yul\":24268:24299   */\n      0x416d6f756e74206d7573742062652067726561746572207468616e2030000000\n        /* \"#utility.yul\":24264:24265   */\n      0x00\n        /* \"#utility.yul\":24256:24262   */\n      dup3\n        /* \"#utility.yul\":24252:24266   */\n      add\n        /* \"#utility.yul\":24245:24300   */\n      mstore\n        /* \"#utility.yul\":24128:24307   */\n      pop\n      jump\t// out\n        /* \"#utility.yul\":24313:24679   */\n    tag_407:\n        /* \"#utility.yul\":24455:24458   */\n      0x00\n        /* \"#utility.yul\":24476:24543   */\n      tag_666\n        /* \"#utility.yul\":24540:24542   */\n      0x1d\n        /* \"#utility.yul\":24535:24538   */\n      dup4\n        /* \"#utility.yul\":24476:24543   */\n      tag_350\n      jump\t// in\n    tag_666:\n        /* \"#utility.yul\":24469:24543   */\n      swap2\n      pop\n        /* \"#utility.yul\":24552:24645   */\n      tag_667\n        /* \"#utility.yul\":24641:24644   */\n      dup3\n        /* \"#utility.yul\":24552:24645   */\n      tag_406\n      jump\t// in\n    tag_667:\n        /* \"#utility.yul\":24670:24672   */\n      0x20\n        /* \"#utility.yul\":24665:24668   */\n      dup3\n        /* \"#utility.yul\":24661:24673   */\n      add\n        /* \"#utility.yul\":24654:24673   */\n      swap1\n      pop\n        /* \"#utility.yul\":24313:24679   */\n      swap2\n      swap1\n      pop\n      jump\t// out\n        /* \"#utility.yul\":24685:25104   */\n    tag_281:\n        /* \"#utility.yul\":24851:24855   */\n      0x00\n        /* \"#utility.yul\":24889:24891   */\n      0x20\n        /* \"#utility.yul\":24878:24887   */\n      dup3\n        /* \"#utility.yul\":24874:24892   */\n      add\n        /* \"#utility.yul\":24866:24892   */\n      swap1\n      pop\n        /* \"#utility.yul\":24938:24947   */\n      dup2\n        /* \"#utility.yul\":24932:24936   */\n      dup2\n        /* \"#utility.yul\":24928:24948   */\n      sub\n        /* \"#utility.yul\":24924:24925   */\n      0x00\n        /* \"#utility.yul\":24913:24922   */\n      dup4\n        /* \"#utility.yul\":24909:24926   */\n      add\n        /* \"#utility.yul\":24902:24949   */\n      mstore\n        /* \"#utility.yul\":24966:25097   */\n      tag_669\n        /* \"#utility.yul\":25092:25096   */\n      dup2\n        /* \"#utility.yul\":24966:25097   */\n      tag_407\n      jump\t// in\n    tag_669:\n        /* \"#utility.yul\":24958:25097   */\n      swap1\n      pop\n        /* \"#utility.yul\":24685:25104   */\n      swap2\n      swap1\n      pop\n      jump\t// out\n        /* \"#utility.yul\":25110:25552   */\n    tag_307:\n        /* \"#utility.yul\":25259:25263   */\n      0x00\n        /* \"#utility.yul\":25297:25299   */\n      0x60\n        /* \"#utility.yul\":25286:25295   */\n      dup3\n        /* \"#utility.yul\":25282:25300   */\n      add\n        /* \"#utility.yul\":25274:25300   */\n      swap1\n      pop\n        /* \"#utility.yul\":25310:25381   */\n      tag_671\n        /* \"#utility.yul\":25378:25379   */\n      0x00\n        /* \"#utility.yul\":25367:25376   */\n      dup4\n        /* \"#utility.yul\":25363:25380   */\n      add\n        /* \"#utility.yul\":25354:25360   */\n      dup7\n        /* \"#utility.yul\":25310:25381   */\n      tag_367\n      jump\t// in\n    tag_671:\n        /* \"#utility.yul\":25391:25463   */\n      tag_672\n        /* \"#utility.yul\":25459:25461   */\n      0x20\n        /* \"#utility.yul\":25448:25457   */\n      dup4\n        /* \"#utility.yul\":25444:25462   */\n      add\n        /* \"#utility.yul\":25435:25441   */\n      dup6\n        /* \"#utility.yul\":25391:25463   */\n      tag_364\n      jump\t// in\n    tag_672:\n        /* \"#utility.yul\":25473:25545   */\n      tag_673\n        /* \"#utility.yul\":25541:25543   */\n      0x40\n        /* \"#utility.yul\":25530:25539   */\n      dup4\n        /* \"#utility.yul\":25526:25544   */\n      add\n        /* \"#utility.yul\":25517:25523   */\n      dup5\n        /* \"#utility.yul\":25473:25545   */\n      tag_364\n      jump\t// in\n    tag_673:\n        /* \"#utility.yul\":25110:25552   */\n      swap5\n      swap4\n      pop\n      pop\n      pop\n      pop\n      jump\t// out\n\n    auxdata: 0xa264697066735822122061fffbf708ef46195a5ed7bae219ff1b3bff2ac8edcabaca14119d6aa0017b4564736f6c63430008180033\n}\n",
				"bytecode": {
					"linkReferences": {},
					"object": "608060405234801562000010575f80fd5b506040518060400160405280600b81526020017f5441565320537461626c650000000000000000000000000000000000000000008152506040518060400160405280600581526020017f544156535400000000000000000000000000000000000000000000000000000081525081600390816200008e9190620003ab565b508060049081620000a09190620003ab565b5050505f73694aa1769357215de4fac081bf1f309adc32530690508060055f6101000a81548173ffffffffffffffffffffffffffffffffffffffff021916908373ffffffffffffffffffffffffffffffffffffffff1602179055505f3390508060065f6101000a81548173ffffffffffffffffffffffffffffffffffffffff021916908373ffffffffffffffffffffffffffffffffffffffff16021790555050506200048f565b5f81519050919050565b7f4e487b71000000000000000000000000000000000000000000000000000000005f52604160045260245ffd5b7f4e487b71000000000000000000000000000000000000000000000000000000005f52602260045260245ffd5b5f6002820490506001821680620001c357607f821691505b602082108103620001d957620001d86200017e565b5b50919050565b5f819050815f5260205f209050919050565b5f6020601f8301049050919050565b5f82821b905092915050565b5f600883026200023d7fffffffffffffffffffffffffffffffffffffffffffffffffffffffffffffffff8262000200565b62000249868362000200565b95508019841693508086168417925050509392505050565b5f819050919050565b5f819050919050565b5f620002936200028d620002878462000261565b6200026a565b62000261565b9050919050565b5f819050919050565b620002ae8362000273565b620002c6620002bd826200029a565b8484546200020c565b825550505050565b5f90565b620002dc620002ce565b620002e9818484620002a3565b505050565b5b818110156200031057620003045f82620002d2565b600181019050620002ef565b5050565b601f8211156200035f576200032981620001df565b6200033484620001f1565b8101602085101562000344578190505b6200035c6200035385620001f1565b830182620002ee565b50505b505050565b5f82821c905092915050565b5f620003815f198460080262000364565b1980831691505092915050565b5f6200039b838362000370565b9150826002028217905092915050565b620003b68262000147565b67ffffffffffffffff811115620003d257620003d162000151565b5b620003de8254620001ab565b620003eb82828562000314565b5f60209050601f83116001811462000421575f84156200040c578287015190505b6200041885826200038e565b86555062000487565b601f1984166200043186620001df565b5f5b828110156200045a5784890151825560018201915060208501945060208101905062000433565b868310156200047a578489015162000476601f89168262000370565b8355505b6001600288020188555050505b505050505050565b612952806200049d5f395ff3fe608060405260043610610183575f3560e01c806370a08231116100d0578063a9059cbb11610089578063d9e69a0511610063578063d9e69a05146105bc578063dd62ed3e146105e6578063e36b72c614610622578063e5c338ee1461064c5761018a565b8063a9059cbb14610508578063b5fbc7a014610544578063b855fa5b146105805761018a565b806370a08231146103fc578063741bef1a1461043857806375b1475d146104625780637c695cc11461048c5780638e15f473146104b457806395d89b41146104de5761018a565b8063313ce5671161013d57806355f575101161011757806355f575101461034e578063663837db1461038b5780636c09395e146103955780636e04ff0d146103bf5761018a565b8063313ce567146102c0578063365b98b2146102ea5780634585e33b146103265761018a565b8062ce8e3e1461018e57806306fdde03146101b8578063095ea7b3146101e257806315a3ba431461021e57806318160ddd1461025a57806323b872dd146102845761018a565b3661018a57005b5f80fd5b348015610199575f80fd5b506101a2610688565b6040516101af9190611d11565b60405180910390f35b3480156101c3575f80fd5b506101cc610713565b6040516101d99190611dbb565b60405180910390f35b3480156101ed575f80fd5b5061020860048036038101906102039190611e40565b6107a3565b6040516102159190611e98565b60405180910390f35b348015610229575f80fd5b50610244600480360381019061023f9190611eb1565b6107c5565b6040516102519190611eeb565b60405180910390f35b348015610265575f80fd5b5061026e61087e565b60405161027b9190611eeb565b60405180910390f35b34801561028f575f80fd5b506102aa60048036038101906102a59190611f04565b610887565b6040516102b79190611e98565b60405180910390f35b3480156102cb575f80fd5b506102d46108b5565b6040516102e19190611f6f565b60405180910390f35b3480156102f5575f80fd5b50610310600480360381019061030b9190611f88565b6108bd565b60405161031d9190611fc2565b60405180910390f35b348015610331575f80fd5b5061034c6004803603810190610347919061203c565b6108f8565b005b348015610359575f80fd5b50610374600480360381019061036f9190611eb1565b610b47565b604051610382929190612087565b60405180910390f35b610393610b67565b005b3480156103a0575f80fd5b506103a9610e08565b6040516103b69190611fc2565b60405180910390f35b3480156103ca575f80fd5b506103e560048036038101906103e0919061203c565b610e2d565b6040516103f3929190612100565b60405180910390f35b348015610407575f80fd5b50610422600480360381019061041d9190611eb1565b610eeb565b60405161042f9190611eeb565b60405180910390f35b348015610443575f80fd5b5061044c610f30565b6040516104599190612189565b60405180910390f35b34801561046d575f80fd5b50610476610f55565b6040516104839190611eeb565b60405180910390f35b348015610497575f80fd5b506104b260048036038101906104ad9190611f88565b610f5a565b005b3480156104bf575f80fd5b506104c8611180565b6040516104d59190611eeb565b60405180910390f35b3480156104e9575f80fd5b506104f261125f565b6040516104ff9190611dbb565b60405180910390f35b348015610513575f80fd5b5061052e60048036038101906105299190611e40565b6112ef565b60405161053b9190611e98565b60405180910390f35b34801561054f575f80fd5b5061056a60048036038101906105659190611f88565b611311565b6040516105779190611eeb565b60405180910390f35b34801561058b575f80fd5b506105a660048036038101906105a19190611f88565b611396565b6040516105b39190611eeb565b60405180910390f35b3480156105c7575f80fd5b506105d061144d565b6040516105dd9190611eeb565b60405180910390f35b3480156105f1575f80fd5b5061060c600480360381019061060791906121a2565b611452565b6040516106199190611eeb565b60405180910390f35b34801561062d575f80fd5b506106366114d4565b6040516106439190611eeb565b60405180910390f35b348015610657575f80fd5b50610672600480360381019061066d9190611eb1565b6114d9565b60405161067f9190611eeb565b60405180910390f35b6060600880548060200260200160405190810160405280929190818152602001828054801561070957602002820191905f5260205f20905b815f9054906101000a900473ffffffffffffffffffffffffffffffffffffffff1673ffffffffffffffffffffffffffffffffffffffff16815260200190600101908083116106c0575b5050505050905090565b6060600380546107229061220d565b80601f016020809104026020016040519081016040528092919081815260200182805461074e9061220d565b80156107995780601f1061077057610100808354040283529160200191610799565b820191905f5260205f20905b81548152906001019060200180831161077c57829003601f168201915b5050505050905090565b5f806107ad6115a8565b90506107ba8185856115af565b600191505092915050565b5f8060075f8473ffffffffffffffffffffffffffffffffffffffff1673ffffffffffffffffffffffffffffffffffffffff1681526020019081526020015f206040518060400160405290815f820154815260200160018201548152505090505f816020015103610858577fffffffffffffffffffffffffffffffffffffffffffffffffffffffffffffffff915050610879565b5f610862846114d9565b90508160200151816108749190612297565b925050505b919050565b5f600254905090565b5f806108916115a8565b905061089e8582856115c1565b6108a9858585611654565b60019150509392505050565b5f6002905090565b600881815481106108cc575f80fd5b905f5260205f20015f915054906101000a900473ffffffffffffffffffffffffffffffffffffffff1681565b5f82828101906109089190612302565b90506096610915826107c5565b10610955576040517f08c379a000000000000000000000000000000000000000000000000000000000815260040161094c90612377565b60405180910390fd5b5f60075f8373ffffffffffffffffffffffffffffffffffffffff1673ffffffffffffffffffffffffffffffffffffffff1681526020019081526020015f206040518060400160405290815f820154815260200160018201548152505090506109c1828260200151611744565b5f60075f8473ffffffffffffffffffffffffffffffffffffffff1673ffffffffffffffffffffffffffffffffffffffff1681526020019081526020015f205f015490505f60075f8573ffffffffffffffffffffffffffffffffffffffff1673ffffffffffffffffffffffffffffffffffffffff1681526020019081526020015f205f01819055505f60075f8573ffffffffffffffffffffffffffffffffffffffff1673ffffffffffffffffffffffffffffffffffffffff1681526020019081526020015f206001018190555060065f9054906101000a900473ffffffffffffffffffffffffffffffffffffffff1673ffffffffffffffffffffffffffffffffffffffff166108fc8290811502906040515f60405180830381858888f19350505050158015610af1573d5f803e3d5ffd5b508273ffffffffffffffffffffffffffffffffffffffff167fa5ee7a2b0254fce91deed604506790ed7fa072d0b14cba4859c3bc8955b9caac82604051610b389190611eeb565b60405180910390a25050505050565b6007602052805f5260405f205f91509050805f0154908060010154905082565b5f3411610ba9576040517f08c379a0000000000000000000000000000000000000000000000000000000008152600401610ba0906123df565b60405180910390fd5b5f610bb334611311565b9050610bbf33826117c3565b5f60075f3373ffffffffffffffffffffffffffffffffffffffff1673ffffffffffffffffffffffffffffffffffffffff1681526020019081526020015f205f015403610d0a5760095f3373ffffffffffffffffffffffffffffffffffffffff1673ffffffffffffffffffffffffffffffffffffffff1681526020019081526020015f205f9054906101000a900460ff16610d0957600833908060018154018082558091505060019003905f5260205f20015f9091909190916101000a81548173ffffffffffffffffffffffffffffffffffffffff021916908373ffffffffffffffffffffffffffffffffffffffff160217905550600160095f3373ffffffffffffffffffffffffffffffffffffffff1673ffffffffffffffffffffffffffffffffffffffff1681526020019081526020015f205f6101000a81548160ff0219169083151502179055505b5b3460075f3373ffffffffffffffffffffffffffffffffffffffff1673ffffffffffffffffffffffffffffffffffffffff1681526020019081526020015f205f015f828254610d5891906123fd565b925050819055508060075f3373ffffffffffffffffffffffffffffffffffffffff1673ffffffffffffffffffffffffffffffffffffffff1681526020019081526020015f206001015f828254610dae91906123fd565b925050819055503373ffffffffffffffffffffffffffffffffffffffff167f90890809c654f11d6e72a28fa60149770a0d11ec6c92319d6ceb2bb0a4ea1a153483604051610dfd929190612087565b60405180910390a250565b60065f9054906101000a900473ffffffffffffffffffffffffffffffffffffffff1681565b5f60605f5b600880549050811015610ece575f60088281548110610e5457610e53612430565b5b905f5260205f20015f9054906101000a900473ffffffffffffffffffffffffffffffffffffffff1690506096610e89826107c5565b1015610ec0576001935080604051602001610ea49190611fc2565b6040516020818303038152906040529250600193505050610ee4565b508080600101915050610e32565b505f60405180602001604052805f815250915091505b9250929050565b5f805f8373ffffffffffffffffffffffffffffffffffffffff1673ffffffffffffffffffffffffffffffffffffffff1681526020019081526020015f20549050919050565b60055f9054906101000a900473ffffffffffffffffffffffffffffffffffffffff1681565b600881565b80610f6433610eeb565b1015610fa5576040517f08c379a0000000000000000000000000000000000000000000000000000000008152600401610f9c906124a7565b60405180910390fd5b5f610faf82611396565b90508060075f3373ffffffffffffffffffffffffffffffffffffffff1673ffffffffffffffffffffffffffffffffffffffff1681526020019081526020015f205f01541015611033576040517f08c379a000000000000000000000000000000000000000000000000000000000815260040161102a9061250f565b60405180910390fd5b8060075f3373ffffffffffffffffffffffffffffffffffffffff1673ffffffffffffffffffffffffffffffffffffffff1681526020019081526020015f205f015f828254611081919061252d565b925050819055508160075f3373ffffffffffffffffffffffffffffffffffffffff1673ffffffffffffffffffffffffffffffffffffffff1681526020019081526020015f206001015f8282546110d7919061252d565b925050819055506110e83383611744565b3373ffffffffffffffffffffffffffffffffffffffff166108fc8290811502906040515f60405180830381858888f1935050505015801561112b573d5f803e3d5ffd5b503373ffffffffffffffffffffffffffffffffffffffff167f49995e5dd6158cf69ad3e9777c46755a1a826a446c6416992167462dad033b2a8383604051611174929190612087565b60405180910390a25050565b5f8060055f9054906101000a900473ffffffffffffffffffffffffffffffffffffffff1673ffffffffffffffffffffffffffffffffffffffff1663feaf968c6040518163ffffffff1660e01b815260040160a060405180830381865afa1580156111ec573d5f803e3d5ffd5b505050506040513d601f19601f8201168201806040525081019061121091906125e6565b5050509150505f8113611258576040517f08c379a000000000000000000000000000000000000000000000000000000000815260040161124f906126a7565b60405180910390fd5b8091505090565b60606004805461126e9061220d565b80601f016020809104026020016040519081016040528092919081815260200182805461129a9061220d565b80156112e55780601f106112bc576101008083540402835291602001916112e5565b820191905f5260205f20905b8154815290600101906020018083116112c857829003601f168201915b5050505050905090565b5f806112f96115a8565b9050611306818585611654565b600191505092915050565b5f8061131b611180565b90505f6113266108b5565b60ff16600a61133591906127f4565b90505f670de0b6b3a76400006305f5e100838588611353919061283e565b61135d919061283e565b6113679190612297565b6113719190612297565b90506096606482611382919061283e565b61138c9190612297565b9350505050919050565b5f8082116113d9576040517f08c379a00000000000000000000000000000000000000000000000000000000081526004016113d0906128c9565b60405180910390fd5b5f6113e2611180565b90505f6064670de0b6b3a7640000856113fb919061283e565b6114059190612297565b90505f6064609683611417919061283e565b6114219190612297565b90505f836305f5e10083611435919061283e565b61143f9190612297565b905080945050505050919050565b609681565b5f60015f8473ffffffffffffffffffffffffffffffffffffffff1673ffffffffffffffffffffffffffffffffffffffff1681526020019081526020015f205f8373ffffffffffffffffffffffffffffffffffffffff1673ffffffffffffffffffffffffffffffffffffffff1681526020019081526020015f2054905092915050565b606481565b5f806114e3611180565b90505f60075f8573ffffffffffffffffffffffffffffffffffffffff1673ffffffffffffffffffffffffffffffffffffffff1681526020019081526020015f206040518060400160405290815f820154815260200160018201548152505090505f61154c6108b5565b60ff16600a61155b91906127f4565b90505f670de0b6b3a76400006305f5e1008386865f015161157c919061283e565b611586919061283e565b6115909190612297565b61159a9190612297565b905080945050505050919050565b5f33905090565b6115bc8383836001611842565b505050565b5f6115cc8484611452565b90507fffffffffffffffffffffffffffffffffffffffffffffffffffffffffffffffff81101561164e578181101561163f578281836040517ffb8f41b2000000000000000000000000000000000000000000000000000000008152600401611636939291906128e7565b60405180910390fd5b61164d84848484035f611842565b5b50505050565b5f73ffffffffffffffffffffffffffffffffffffffff168373ffffffffffffffffffffffffffffffffffffffff16036116c4575f6040517f96c6fd1e0000000000000000000000000000000000000000000000000000000081526004016116bb9190611fc2565b60405180910390fd5b5f73ffffffffffffffffffffffffffffffffffffffff168273ffffffffffffffffffffffffffffffffffffffff1603611734575f6040517fec442f0500000000000000000000000000000000000000000000000000000000815260040161172b9190611fc2565b60405180910390fd5b61173f838383611a11565b505050565b5f73ffffffffffffffffffffffffffffffffffffffff168273ffffffffffffffffffffffffffffffffffffffff16036117b4575f6040517f96c6fd1e0000000000000000000000000000000000000000000000000000000081526004016117ab9190611fc2565b60405180910390fd5b6117bf825f83611a11565b5050565b5f73ffffffffffffffffffffffffffffffffffffffff168273ffffffffffffffffffffffffffffffffffffffff1603611833575f6040517fec442f0500000000000000000000000000000000000000000000000000000000815260040161182a9190611fc2565b60405180910390fd5b61183e5f8383611a11565b5050565b5f73ffffffffffffffffffffffffffffffffffffffff168473ffffffffffffffffffffffffffffffffffffffff16036118b2575f6040517fe602df050000000000000000000000000000000000000000000000000000000081526004016118a99190611fc2565b60405180910390fd5b5f73ffffffffffffffffffffffffffffffffffffffff168373ffffffffffffffffffffffffffffffffffffffff1603611922575f6040517f94280d620000000000000000000000000000000000000000000000000000000081526004016119199190611fc2565b60405180910390fd5b8160015f8673ffffffffffffffffffffffffffffffffffffffff1673ffffffffffffffffffffffffffffffffffffffff1681526020019081526020015f205f8573ffffffffffffffffffffffffffffffffffffffff1673ffffffffffffffffffffffffffffffffffffffff1681526020019081526020015f20819055508015611a0b578273ffffffffffffffffffffffffffffffffffffffff168473ffffffffffffffffffffffffffffffffffffffff167f8c5be1e5ebec7d5bd14f71427d1e84f3dd0314c0f7b2291e5b200ac8c7c3b92584604051611a029190611eeb565b60405180910390a35b50505050565b5f73ffffffffffffffffffffffffffffffffffffffff168373ffffffffffffffffffffffffffffffffffffffff1603611a61578060025f828254611a5591906123fd565b92505081905550611b2f565b5f805f8573ffffffffffffffffffffffffffffffffffffffff1673ffffffffffffffffffffffffffffffffffffffff1681526020019081526020015f2054905081811015611aea578381836040517fe450d38c000000000000000000000000000000000000000000000000000000008152600401611ae1939291906128e7565b60405180910390fd5b8181035f808673ffffffffffffffffffffffffffffffffffffffff1673ffffffffffffffffffffffffffffffffffffffff1681526020019081526020015f2081905550505b5f73ffffffffffffffffffffffffffffffffffffffff168273ffffffffffffffffffffffffffffffffffffffff1603611b76578060025f8282540392505081905550611bc0565b805f808473ffffffffffffffffffffffffffffffffffffffff1673ffffffffffffffffffffffffffffffffffffffff1681526020019081526020015f205f82825401925050819055505b8173ffffffffffffffffffffffffffffffffffffffff168373ffffffffffffffffffffffffffffffffffffffff167fddf252ad1be2c89b69c2b068fc378daa952ba7f163c4a11628f55a4df523b3ef83604051611c1d9190611eeb565b60405180910390a3505050565b5f81519050919050565b5f82825260208201905092915050565b5f819050602082019050919050565b5f73ffffffffffffffffffffffffffffffffffffffff82169050919050565b5f611c7c82611c53565b9050919050565b611c8c81611c72565b82525050565b5f611c9d8383611c83565b60208301905092915050565b5f602082019050919050565b5f611cbf82611c2a565b611cc98185611c34565b9350611cd483611c44565b805f5b83811015611d04578151611ceb8882611c92565b9750611cf683611ca9565b925050600181019050611cd7565b5085935050505092915050565b5f6020820190508181035f830152611d298184611cb5565b905092915050565b5f81519050919050565b5f82825260208201905092915050565b5f5b83811015611d68578082015181840152602081019050611d4d565b5f8484015250505050565b5f601f19601f8301169050919050565b5f611d8d82611d31565b611d978185611d3b565b9350611da7818560208601611d4b565b611db081611d73565b840191505092915050565b5f6020820190508181035f830152611dd38184611d83565b905092915050565b5f80fd5b5f80fd5b611dec81611c72565b8114611df6575f80fd5b50565b5f81359050611e0781611de3565b92915050565b5f819050919050565b611e1f81611e0d565b8114611e29575f80fd5b50565b5f81359050611e3a81611e16565b92915050565b5f8060408385031215611e5657611e55611ddb565b5b5f611e6385828601611df9565b9250506020611e7485828601611e2c565b9150509250929050565b5f8115159050919050565b611e9281611e7e565b82525050565b5f602082019050611eab5f830184611e89565b92915050565b5f60208284031215611ec657611ec5611ddb565b5b5f611ed384828501611df9565b91505092915050565b611ee581611e0d565b82525050565b5f602082019050611efe5f830184611edc565b92915050565b5f805f60608486031215611f1b57611f1a611ddb565b5b5f611f2886828701611df9565b9350506020611f3986828701611df9565b9250506040611f4a86828701611e2c565b9150509250925092565b5f60ff82169050919050565b611f6981611f54565b82525050565b5f602082019050611f825f830184611f60565b92915050565b5f60208284031215611f9d57611f9c611ddb565b5b5f611faa84828501611e2c565b91505092915050565b611fbc81611c72565b82525050565b5f602082019050611fd55f830184611fb3565b92915050565b5f80fd5b5f80fd5b5f80fd5b5f8083601f840112611ffc57611ffb611fdb565b5b8235905067ffffffffffffffff81111561201957612018611fdf565b5b60208301915083600182028301111561203557612034611fe3565b5b9250929050565b5f806020838503121561205257612051611ddb565b5b5f83013567ffffffffffffffff81111561206f5761206e611ddf565b5b61207b85828601611fe7565b92509250509250929050565b5f60408201905061209a5f830185611edc565b6120a76020830184611edc565b9392505050565b5f81519050919050565b5f82825260208201905092915050565b5f6120d2826120ae565b6120dc81856120b8565b93506120ec818560208601611d4b565b6120f581611d73565b840191505092915050565b5f6040820190506121135f830185611e89565b818103602083015261212581846120c8565b90509392505050565b5f819050919050565b5f61215161214c61214784611c53565b61212e565b611c53565b9050919050565b5f61216282612137565b9050919050565b5f61217382612158565b9050919050565b61218381612169565b82525050565b5f60208201905061219c5f83018461217a565b92915050565b5f80604083850312156121b8576121b7611ddb565b5b5f6121c585828601611df9565b92505060206121d685828601611df9565b9150509250929050565b7f4e487b71000000000000000000000000000000000000000000000000000000005f52602260045260245ffd5b5f600282049050600182168061222457607f821691505b602082108103612237576122366121e0565b5b50919050565b7f4e487b71000000000000000000000000000000000000000000000000000000005f52601260045260245ffd5b7f4e487b71000000000000000000000000000000000000000000000000000000005f52601160045260245ffd5b5f6122a182611e0d565b91506122ac83611e0d565b9250826122bc576122bb61223d565b5b828204905092915050565b5f6122d182611c53565b9050919050565b6122e1816122c7565b81146122eb575f80fd5b50565b5f813590506122fc816122d8565b92915050565b5f6020828403121561231757612316611ddb565b5b5f612324848285016122ee565b91505092915050565b7f55736572206e6f74206c6971756964617461626c6500000000000000000000005f82015250565b5f612361601583611d3b565b915061236c8261232d565b602082019050919050565b5f6020820190508181035f83015261238e81612355565b9050919050565b7f4d757374206465706f73697420455448000000000000000000000000000000005f82015250565b5f6123c9601083611d3b565b91506123d482612395565b602082019050919050565b5f6020820190508181035f8301526123f6816123bd565b9050919050565b5f61240782611e0d565b915061241283611e0d565b925082820190508082111561242a5761242961226a565b5b92915050565b7f4e487b71000000000000000000000000000000000000000000000000000000005f52603260045260245ffd5b7f496e73756666696369656e7420544156535400000000000000000000000000005f82015250565b5f612491601283611d3b565b915061249c8261245d565b602082019050919050565b5f6020820190508181035f8301526124be81612485565b9050919050565b7f4e6f7420656e6f75676820636f6c6c61746572616c00000000000000000000005f82015250565b5f6124f9601583611d3b565b9150612504826124c5565b602082019050919050565b5f6020820190508181035f830152612526816124ed565b9050919050565b5f61253782611e0d565b915061254283611e0d565b925082820390508181111561255a5761255961226a565b5b92915050565b5f69ffffffffffffffffffff82169050919050565b61257e81612560565b8114612588575f80fd5b50565b5f8151905061259981612575565b92915050565b5f819050919050565b6125b18161259f565b81146125bb575f80fd5b50565b5f815190506125cc816125a8565b92915050565b5f815190506125e081611e16565b92915050565b5f805f805f60a086880312156125ff576125fe611ddb565b5b5f61260c8882890161258b565b955050602061261d888289016125be565b945050604061262e888289016125d2565b935050606061263f888289016125d2565b92505060806126508882890161258b565b9150509295509295909350565b7f496e76616c6964207072696365000000000000000000000000000000000000005f82015250565b5f612691600d83611d3b565b915061269c8261265d565b602082019050919050565b5f6020820190508181035f8301526126be81612685565b9050919050565b5f8160011c9050919050565b5f808291508390505b600185111561271a578086048111156126f6576126f561226a565b5b60018516156127055780820291505b8081029050612713856126c5565b94506126da565b94509492505050565b5f8261273257600190506127ed565b8161273f575f90506127ed565b8160018114612755576002811461275f5761278e565b60019150506127ed565b60ff8411156127715761277061226a565b5b8360020a9150848211156127885761278761226a565b5b506127ed565b5060208310610133831016604e8410600b84101617156127c35782820a9050838111156127be576127bd61226a565b5b6127ed565b6127d084848460016126d1565b925090508184048111156127e7576127e661226a565b5b81810290505b9392505050565b5f6127fe82611e0d565b915061280983611e0d565b92506128367fffffffffffffffffffffffffffffffffffffffffffffffffffffffffffffffff8484612723565b905092915050565b5f61284882611e0d565b915061285383611e0d565b925082820261286181611e0d565b915082820484148315176128785761287761226a565b5b5092915050565b7f416d6f756e74206d7573742062652067726561746572207468616e20300000005f82015250565b5f6128b3601d83611d3b565b91506128be8261287f565b602082019050919050565b5f6020820190508181035f8301526128e0816128a7565b9050919050565b5f6060820190506128fa5f830186611fb3565b6129076020830185611edc565b6129146040830184611edc565b94935050505056fea264697066735822122061fffbf708ef46195a5ed7bae219ff1b3bff2ac8edcabaca14119d6aa0017b4564736f6c63430008180033",
					"opcodes": "PUSH1 0x80 PUSH1 0x40 MSTORE CALLVALUE DUP1 ISZERO PUSH3 0x10 JUMPI PUSH0 DUP1 REVERT JUMPDEST POP PUSH1 0x40 MLOAD DUP1 PUSH1 0x40 ADD PUSH1 0x40 MSTORE DUP1 PUSH1 0xB DUP2 MSTORE PUSH1 0x20 ADD PUSH32 0x5441565320537461626C65000000000000000000000000000000000000000000 DUP2 MSTORE POP PUSH1 0x40 MLOAD DUP1 PUSH1 0x40 ADD PUSH1 0x40 MSTORE DUP1 PUSH1 0x5 DUP2 MSTORE PUSH1 0x20 ADD PUSH32 0x5441565354000000000000000000000000000000000000000000000000000000 DUP2 MSTORE POP DUP2 PUSH1 0x3 SWAP1 DUP2 PUSH3 0x8E SWAP2 SWAP1 PUSH3 0x3AB JUMP JUMPDEST POP DUP1 PUSH1 0x4 SWAP1 DUP2 PUSH3 0xA0 SWAP2 SWAP1 PUSH3 0x3AB JUMP JUMPDEST POP POP POP PUSH0 PUSH20 0x694AA1769357215DE4FAC081BF1F309ADC325306 SWAP1 POP DUP1 PUSH1 0x5 PUSH0 PUSH2 0x100 EXP DUP2 SLOAD DUP2 PUSH20 0xFFFFFFFFFFFFFFFFFFFFFFFFFFFFFFFFFFFFFFFF MUL NOT AND SWAP1 DUP4 PUSH20 0xFFFFFFFFFFFFFFFFFFFFFFFFFFFFFFFFFFFFFFFF AND MUL OR SWAP1 SSTORE POP PUSH0 CALLER SWAP1 POP DUP1 PUSH1 0x6 PUSH0 PUSH2 0x100 EXP DUP2 SLOAD DUP2 PUSH20 0xFFFFFFFFFFFFFFFFFFFFFFFFFFFFFFFFFFFFFFFF MUL NOT AND SWAP1 DUP4 PUSH20 0xFFFFFFFFFFFFFFFFFFFFFFFFFFFFFFFFFFFFFFFF AND MUL OR SWAP1 SSTORE POP POP POP PUSH3 0x48F JUMP JUMPDEST PUSH0 DUP2 MLOAD SWAP1 POP SWAP2 SWAP1 POP JUMP JUMPDEST PUSH32 0x4E487B7100000000000000000000000000000000000000000000000000000000 PUSH0 MSTORE PUSH1 0x41 PUSH1 0x4 MSTORE PUSH1 0x24 PUSH0 REVERT JUMPDEST PUSH32 0x4E487B7100000000000000000000000000000000000000000000000000000000 PUSH0 MSTORE PUSH1 0x22 PUSH1 0x4 MSTORE PUSH1 0x24 PUSH0 REVERT JUMPDEST PUSH0 PUSH1 0x2 DUP3 DIV SWAP1 POP PUSH1 0x1 DUP3 AND DUP1 PUSH3 0x1C3 JUMPI PUSH1 0x7F DUP3 AND SWAP2 POP JUMPDEST PUSH1 0x20 DUP3 LT DUP2 SUB PUSH3 0x1D9 JUMPI PUSH3 0x1D8 PUSH3 0x17E JUMP JUMPDEST JUMPDEST POP SWAP2 SWAP1 POP JUMP JUMPDEST PUSH0 DUP2 SWAP1 POP DUP2 PUSH0 MSTORE PUSH1 0x20 PUSH0 KECCAK256 SWAP1 POP SWAP2 SWAP1 POP JUMP JUMPDEST PUSH0 PUSH1 0x20 PUSH1 0x1F DUP4 ADD DIV SWAP1 POP SWAP2 SWAP1 POP JUMP JUMPDEST PUSH0 DUP3 DUP3 SHL SWAP1 POP SWAP3 SWAP2 POP POP JUMP JUMPDEST PUSH0 PUSH1 0x8 DUP4 MUL PUSH3 0x23D PUSH32 0xFFFFFFFFFFFFFFFFFFFFFFFFFFFFFFFFFFFFFFFFFFFFFFFFFFFFFFFFFFFFFFFF DUP3 PUSH3 0x200 JUMP JUMPDEST PUSH3 0x249 DUP7 DUP4 PUSH3 0x200 JUMP JUMPDEST SWAP6 POP DUP1 NOT DUP5 AND SWAP4 POP DUP1 DUP7 AND DUP5 OR SWAP3 POP POP POP SWAP4 SWAP3 POP POP POP JUMP JUMPDEST PUSH0 DUP2 SWAP1 POP SWAP2 SWAP1 POP JUMP JUMPDEST PUSH0 DUP2 SWAP1 POP SWAP2 SWAP1 POP JUMP JUMPDEST PUSH0 PUSH3 0x293 PUSH3 0x28D PUSH3 0x287 DUP5 PUSH3 0x261 JUMP JUMPDEST PUSH3 0x26A JUMP JUMPDEST PUSH3 0x261 JUMP JUMPDEST SWAP1 POP SWAP2 SWAP1 POP JUMP JUMPDEST PUSH0 DUP2 SWAP1 POP SWAP2 SWAP1 POP JUMP JUMPDEST PUSH3 0x2AE DUP4 PUSH3 0x273 JUMP JUMPDEST PUSH3 0x2C6 PUSH3 0x2BD DUP3 PUSH3 0x29A JUMP JUMPDEST DUP5 DUP5 SLOAD PUSH3 0x20C JUMP JUMPDEST DUP3 SSTORE POP POP POP POP JUMP JUMPDEST PUSH0 SWAP1 JUMP JUMPDEST PUSH3 0x2DC PUSH3 0x2CE JUMP JUMPDEST PUSH3 0x2E9 DUP2 DUP5 DUP5 PUSH3 0x2A3 JUMP JUMPDEST POP POP POP JUMP JUMPDEST JUMPDEST DUP2 DUP2 LT ISZERO PUSH3 0x310 JUMPI PUSH3 0x304 PUSH0 DUP3 PUSH3 0x2D2 JUMP JUMPDEST PUSH1 0x1 DUP2 ADD SWAP1 POP PUSH3 0x2EF JUMP JUMPDEST POP POP JUMP JUMPDEST PUSH1 0x1F DUP3 GT ISZERO PUSH3 0x35F JUMPI PUSH3 0x329 DUP2 PUSH3 0x1DF JUMP JUMPDEST PUSH3 0x334 DUP5 PUSH3 0x1F1 JUMP JUMPDEST DUP2 ADD PUSH1 0x20 DUP6 LT ISZERO PUSH3 0x344 JUMPI DUP2 SWAP1 POP JUMPDEST PUSH3 0x35C PUSH3 0x353 DUP6 PUSH3 0x1F1 JUMP JUMPDEST DUP4 ADD DUP3 PUSH3 0x2EE JUMP JUMPDEST POP POP JUMPDEST POP POP POP JUMP JUMPDEST PUSH0 DUP3 DUP3 SHR SWAP1 POP SWAP3 SWAP2 POP POP JUMP JUMPDEST PUSH0 PUSH3 0x381 PUSH0 NOT DUP5 PUSH1 0x8 MUL PUSH3 0x364 JUMP JUMPDEST NOT DUP1 DUP4 AND SWAP2 POP POP SWAP3 SWAP2 POP POP JUMP JUMPDEST PUSH0 PUSH3 0x39B DUP4 DUP4 PUSH3 0x370 JUMP JUMPDEST SWAP2 POP DUP3 PUSH1 0x2 MUL DUP3 OR SWAP1 POP SWAP3 SWAP2 POP POP JUMP JUMPDEST PUSH3 0x3B6 DUP3 PUSH3 0x147 JUMP JUMPDEST PUSH8 0xFFFFFFFFFFFFFFFF DUP2 GT ISZERO PUSH3 0x3D2 JUMPI PUSH3 0x3D1 PUSH3 0x151 JUMP JUMPDEST JUMPDEST PUSH3 0x3DE DUP3 SLOAD PUSH3 0x1AB JUMP JUMPDEST PUSH3 0x3EB DUP3 DUP3 DUP6 PUSH3 0x314 JUMP JUMPDEST PUSH0 PUSH1 0x20 SWAP1 POP PUSH1 0x1F DUP4 GT PUSH1 0x1 DUP2 EQ PUSH3 0x421 JUMPI PUSH0 DUP5 ISZERO PUSH3 0x40C JUMPI DUP3 DUP8 ADD MLOAD SWAP1 POP JUMPDEST PUSH3 0x418 DUP6 DUP3 PUSH3 0x38E JUMP JUMPDEST DUP7 SSTORE POP PUSH3 0x487 JUMP JUMPDEST PUSH1 0x1F NOT DUP5 AND PUSH3 0x431 DUP7 PUSH3 0x1DF JUMP JUMPDEST PUSH0 JUMPDEST DUP3 DUP2 LT ISZERO PUSH3 0x45A JUMPI DUP5 DUP10 ADD MLOAD DUP3 SSTORE PUSH1 0x1 DUP3 ADD SWAP2 POP PUSH1 0x20 DUP6 ADD SWAP5 POP PUSH1 0x20 DUP2 ADD SWAP1 POP PUSH3 0x433 JUMP JUMPDEST DUP7 DUP4 LT ISZERO PUSH3 0x47A JUMPI DUP5 DUP10 ADD MLOAD PUSH3 0x476 PUSH1 0x1F DUP10 AND DUP3 PUSH3 0x370 JUMP JUMPDEST DUP4 SSTORE POP JUMPDEST PUSH1 0x1 PUSH1 0x2 DUP9 MUL ADD DUP9 SSTORE POP POP POP JUMPDEST POP POP POP POP POP POP JUMP JUMPDEST PUSH2 0x2952 DUP1 PUSH3 0x49D PUSH0 CODECOPY PUSH0 RETURN INVALID PUSH1 0x80 PUSH1 0x40 MSTORE PUSH1 0x4 CALLDATASIZE LT PUSH2 0x183 JUMPI PUSH0 CALLDATALOAD PUSH1 0xE0 SHR DUP1 PUSH4 0x70A08231 GT PUSH2 0xD0 JUMPI DUP1 PUSH4 0xA9059CBB GT PUSH2 0x89 JUMPI DUP1 PUSH4 0xD9E69A05 GT PUSH2 0x63 JUMPI DUP1 PUSH4 0xD9E69A05 EQ PUSH2 0x5BC JUMPI DUP1 PUSH4 0xDD62ED3E EQ PUSH2 0x5E6 JUMPI DUP1 PUSH4 0xE36B72C6 EQ PUSH2 0x622 JUMPI DUP1 PUSH4 0xE5C338EE EQ PUSH2 0x64C JUMPI PUSH2 0x18A JUMP JUMPDEST DUP1 PUSH4 0xA9059CBB EQ PUSH2 0x508 JUMPI DUP1 PUSH4 0xB5FBC7A0 EQ PUSH2 0x544 JUMPI DUP1 PUSH4 0xB855FA5B EQ PUSH2 0x580 JUMPI PUSH2 0x18A JUMP JUMPDEST DUP1 PUSH4 0x70A08231 EQ PUSH2 0x3FC JUMPI DUP1 PUSH4 0x741BEF1A EQ PUSH2 0x438 JUMPI DUP1 PUSH4 0x75B1475D EQ PUSH2 0x462 JUMPI DUP1 PUSH4 0x7C695CC1 EQ PUSH2 0x48C JUMPI DUP1 PUSH4 0x8E15F473 EQ PUSH2 0x4B4 JUMPI DUP1 PUSH4 0x95D89B41 EQ PUSH2 0x4DE JUMPI PUSH2 0x18A JUMP JUMPDEST DUP1 PUSH4 0x313CE567 GT PUSH2 0x13D JUMPI DUP1 PUSH4 0x55F57510 GT PUSH2 0x117 JUMPI DUP1 PUSH4 0x55F57510 EQ PUSH2 0x34E JUMPI DUP1 PUSH4 0x663837DB EQ PUSH2 0x38B JUMPI DUP1 PUSH4 0x6C09395E EQ PUSH2 0x395 JUMPI DUP1 PUSH4 0x6E04FF0D EQ PUSH2 0x3BF JUMPI PUSH2 0x18A JUMP JUMPDEST DUP1 PUSH4 0x313CE567 EQ PUSH2 0x2C0 JUMPI DUP1 PUSH4 0x365B98B2 EQ PUSH2 0x2EA JUMPI DUP1 PUSH4 0x4585E33B EQ PUSH2 0x326 JUMPI PUSH2 0x18A JUMP JUMPDEST DUP1 PUSH3 0xCE8E3E EQ PUSH2 0x18E JUMPI DUP1 PUSH4 0x6FDDE03 EQ PUSH2 0x1B8 JUMPI DUP1 PUSH4 0x95EA7B3 EQ PUSH2 0x1E2 JUMPI DUP1 PUSH4 0x15A3BA43 EQ PUSH2 0x21E JUMPI DUP1 PUSH4 0x18160DDD EQ PUSH2 0x25A JUMPI DUP1 PUSH4 0x23B872DD EQ PUSH2 0x284 JUMPI PUSH2 0x18A JUMP JUMPDEST CALLDATASIZE PUSH2 0x18A JUMPI STOP JUMPDEST PUSH0 DUP1 REVERT JUMPDEST CALLVALUE DUP1 ISZERO PUSH2 0x199 JUMPI PUSH0 DUP1 REVERT JUMPDEST POP PUSH2 0x1A2 PUSH2 0x688 JUMP JUMPDEST PUSH1 0x40 MLOAD PUSH2 0x1AF SWAP2 SWAP1 PUSH2 0x1D11 JUMP JUMPDEST PUSH1 0x40 MLOAD DUP1 SWAP2 SUB SWAP1 RETURN JUMPDEST CALLVALUE DUP1 ISZERO PUSH2 0x1C3 JUMPI PUSH0 DUP1 REVERT JUMPDEST POP PUSH2 0x1CC PUSH2 0x713 JUMP JUMPDEST PUSH1 0x40 MLOAD PUSH2 0x1D9 SWAP2 SWAP1 PUSH2 0x1DBB JUMP JUMPDEST PUSH1 0x40 MLOAD DUP1 SWAP2 SUB SWAP1 RETURN JUMPDEST CALLVALUE DUP1 ISZERO PUSH2 0x1ED JUMPI PUSH0 DUP1 REVERT JUMPDEST POP PUSH2 0x208 PUSH1 0x4 DUP1 CALLDATASIZE SUB DUP2 ADD SWAP1 PUSH2 0x203 SWAP2 SWAP1 PUSH2 0x1E40 JUMP JUMPDEST PUSH2 0x7A3 JUMP JUMPDEST PUSH1 0x40 MLOAD PUSH2 0x215 SWAP2 SWAP1 PUSH2 0x1E98 JUMP JUMPDEST PUSH1 0x40 MLOAD DUP1 SWAP2 SUB SWAP1 RETURN JUMPDEST CALLVALUE DUP1 ISZERO PUSH2 0x229 JUMPI PUSH0 DUP1 REVERT JUMPDEST POP PUSH2 0x244 PUSH1 0x4 DUP1 CALLDATASIZE SUB DUP2 ADD SWAP1 PUSH2 0x23F SWAP2 SWAP1 PUSH2 0x1EB1 JUMP JUMPDEST PUSH2 0x7C5 JUMP JUMPDEST PUSH1 0x40 MLOAD PUSH2 0x251 SWAP2 SWAP1 PUSH2 0x1EEB JUMP JUMPDEST PUSH1 0x40 MLOAD DUP1 SWAP2 SUB SWAP1 RETURN JUMPDEST CALLVALUE DUP1 ISZERO PUSH2 0x265 JUMPI PUSH0 DUP1 REVERT JUMPDEST POP PUSH2 0x26E PUSH2 0x87E JUMP JUMPDEST PUSH1 0x40 MLOAD PUSH2 0x27B SWAP2 SWAP1 PUSH2 0x1EEB JUMP JUMPDEST PUSH1 0x40 MLOAD DUP1 SWAP2 SUB SWAP1 RETURN JUMPDEST CALLVALUE DUP1 ISZERO PUSH2 0x28F JUMPI PUSH0 DUP1 REVERT JUMPDEST POP PUSH2 0x2AA PUSH1 0x4 DUP1 CALLDATASIZE SUB DUP2 ADD SWAP1 PUSH2 0x2A5 SWAP2 SWAP1 PUSH2 0x1F04 JUMP JUMPDEST PUSH2 0x887 JUMP JUMPDEST PUSH1 0x40 MLOAD PUSH2 0x2B7 SWAP2 SWAP1 PUSH2 0x1E98 JUMP JUMPDEST PUSH1 0x40 MLOAD DUP1 SWAP2 SUB SWAP1 RETURN JUMPDEST CALLVALUE DUP1 ISZERO PUSH2 0x2CB JUMPI PUSH0 DUP1 REVERT JUMPDEST POP PUSH2 0x2D4 PUSH2 0x8B5 JUMP JUMPDEST PUSH1 0x40 MLOAD PUSH2 0x2E1 SWAP2 SWAP1 PUSH2 0x1F6F JUMP JUMPDEST PUSH1 0x40 MLOAD DUP1 SWAP2 SUB SWAP1 RETURN JUMPDEST CALLVALUE DUP1 ISZERO PUSH2 0x2F5 JUMPI PUSH0 DUP1 REVERT JUMPDEST POP PUSH2 0x310 PUSH1 0x4 DUP1 CALLDATASIZE SUB DUP2 ADD SWAP1 PUSH2 0x30B SWAP2 SWAP1 PUSH2 0x1F88 JUMP JUMPDEST PUSH2 0x8BD JUMP JUMPDEST PUSH1 0x40 MLOAD PUSH2 0x31D SWAP2 SWAP1 PUSH2 0x1FC2 JUMP JUMPDEST PUSH1 0x40 MLOAD DUP1 SWAP2 SUB SWAP1 RETURN JUMPDEST CALLVALUE DUP1 ISZERO PUSH2 0x331 JUMPI PUSH0 DUP1 REVERT JUMPDEST POP PUSH2 0x34C PUSH1 0x4 DUP1 CALLDATASIZE SUB DUP2 ADD SWAP1 PUSH2 0x347 SWAP2 SWAP1 PUSH2 0x203C JUMP JUMPDEST PUSH2 0x8F8 JUMP JUMPDEST STOP JUMPDEST CALLVALUE DUP1 ISZERO PUSH2 0x359 JUMPI PUSH0 DUP1 REVERT JUMPDEST POP PUSH2 0x374 PUSH1 0x4 DUP1 CALLDATASIZE SUB DUP2 ADD SWAP1 PUSH2 0x36F SWAP2 SWAP1 PUSH2 0x1EB1 JUMP JUMPDEST PUSH2 0xB47 JUMP JUMPDEST PUSH1 0x40 MLOAD PUSH2 0x382 SWAP3 SWAP2 SWAP1 PUSH2 0x2087 JUMP JUMPDEST PUSH1 0x40 MLOAD DUP1 SWAP2 SUB SWAP1 RETURN JUMPDEST PUSH2 0x393 PUSH2 0xB67 JUMP JUMPDEST STOP JUMPDEST CALLVALUE DUP1 ISZERO PUSH2 0x3A0 JUMPI PUSH0 DUP1 REVERT JUMPDEST POP PUSH2 0x3A9 PUSH2 0xE08 JUMP JUMPDEST PUSH1 0x40 MLOAD PUSH2 0x3B6 SWAP2 SWAP1 PUSH2 0x1FC2 JUMP JUMPDEST PUSH1 0x40 MLOAD DUP1 SWAP2 SUB SWAP1 RETURN JUMPDEST CALLVALUE DUP1 ISZERO PUSH2 0x3CA JUMPI PUSH0 DUP1 REVERT JUMPDEST POP PUSH2 0x3E5 PUSH1 0x4 DUP1 CALLDATASIZE SUB DUP2 ADD SWAP1 PUSH2 0x3E0 SWAP2 SWAP1 PUSH2 0x203C JUMP JUMPDEST PUSH2 0xE2D JUMP JUMPDEST PUSH1 0x40 MLOAD PUSH2 0x3F3 SWAP3 SWAP2 SWAP1 PUSH2 0x2100 JUMP JUMPDEST PUSH1 0x40 MLOAD DUP1 SWAP2 SUB SWAP1 RETURN JUMPDEST CALLVALUE DUP1 ISZERO PUSH2 0x407 JUMPI PUSH0 DUP1 REVERT JUMPDEST POP PUSH2 0x422 PUSH1 0x4 DUP1 CALLDATASIZE SUB DUP2 ADD SWAP1 PUSH2 0x41D SWAP2 SWAP1 PUSH2 0x1EB1 JUMP JUMPDEST PUSH2 0xEEB JUMP JUMPDEST PUSH1 0x40 MLOAD PUSH2 0x42F SWAP2 SWAP1 PUSH2 0x1EEB JUMP JUMPDEST PUSH1 0x40 MLOAD DUP1 SWAP2 SUB SWAP1 RETURN JUMPDEST CALLVALUE DUP1 ISZERO PUSH2 0x443 JUMPI PUSH0 DUP1 REVERT JUMPDEST POP PUSH2 0x44C PUSH2 0xF30 JUMP JUMPDEST PUSH1 0x40 MLOAD PUSH2 0x459 SWAP2 SWAP1 PUSH2 0x2189 JUMP JUMPDEST PUSH1 0x40 MLOAD DUP1 SWAP2 SUB SWAP1 RETURN JUMPDEST CALLVALUE DUP1 ISZERO PUSH2 0x46D JUMPI PUSH0 DUP1 REVERT JUMPDEST POP PUSH2 0x476 PUSH2 0xF55 JUMP JUMPDEST PUSH1 0x40 MLOAD PUSH2 0x483 SWAP2 SWAP1 PUSH2 0x1EEB JUMP JUMPDEST PUSH1 0x40 MLOAD DUP1 SWAP2 SUB SWAP1 RETURN JUMPDEST CALLVALUE DUP1 ISZERO PUSH2 0x497 JUMPI PUSH0 DUP1 REVERT JUMPDEST POP PUSH2 0x4B2 PUSH1 0x4 DUP1 CALLDATASIZE SUB DUP2 ADD SWAP1 PUSH2 0x4AD SWAP2 SWAP1 PUSH2 0x1F88 JUMP JUMPDEST PUSH2 0xF5A JUMP JUMPDEST STOP JUMPDEST CALLVALUE DUP1 ISZERO PUSH2 0x4BF JUMPI PUSH0 DUP1 REVERT JUMPDEST POP PUSH2 0x4C8 PUSH2 0x1180 JUMP JUMPDEST PUSH1 0x40 MLOAD PUSH2 0x4D5 SWAP2 SWAP1 PUSH2 0x1EEB JUMP JUMPDEST PUSH1 0x40 MLOAD DUP1 SWAP2 SUB SWAP1 RETURN JUMPDEST CALLVALUE DUP1 ISZERO PUSH2 0x4E9 JUMPI PUSH0 DUP1 REVERT JUMPDEST POP PUSH2 0x4F2 PUSH2 0x125F JUMP JUMPDEST PUSH1 0x40 MLOAD PUSH2 0x4FF SWAP2 SWAP1 PUSH2 0x1DBB JUMP JUMPDEST PUSH1 0x40 MLOAD DUP1 SWAP2 SUB SWAP1 RETURN JUMPDEST CALLVALUE DUP1 ISZERO PUSH2 0x513 JUMPI PUSH0 DUP1 REVERT JUMPDEST POP PUSH2 0x52E PUSH1 0x4 DUP1 CALLDATASIZE SUB DUP2 ADD SWAP1 PUSH2 0x529 SWAP2 SWAP1 PUSH2 0x1E40 JUMP JUMPDEST PUSH2 0x12EF JUMP JUMPDEST PUSH1 0x40 MLOAD PUSH2 0x53B SWAP2 SWAP1 PUSH2 0x1E98 JUMP JUMPDEST PUSH1 0x40 MLOAD DUP1 SWAP2 SUB SWAP1 RETURN JUMPDEST CALLVALUE DUP1 ISZERO PUSH2 0x54F JUMPI PUSH0 DUP1 REVERT JUMPDEST POP PUSH2 0x56A PUSH1 0x4 DUP1 CALLDATASIZE SUB DUP2 ADD SWAP1 PUSH2 0x565 SWAP2 SWAP1 PUSH2 0x1F88 JUMP JUMPDEST PUSH2 0x1311 JUMP JUMPDEST PUSH1 0x40 MLOAD PUSH2 0x577 SWAP2 SWAP1 PUSH2 0x1EEB JUMP JUMPDEST PUSH1 0x40 MLOAD DUP1 SWAP2 SUB SWAP1 RETURN JUMPDEST CALLVALUE DUP1 ISZERO PUSH2 0x58B JUMPI PUSH0 DUP1 REVERT JUMPDEST POP PUSH2 0x5A6 PUSH1 0x4 DUP1 CALLDATASIZE SUB DUP2 ADD SWAP1 PUSH2 0x5A1 SWAP2 SWAP1 PUSH2 0x1F88 JUMP JUMPDEST PUSH2 0x1396 JUMP JUMPDEST PUSH1 0x40 MLOAD PUSH2 0x5B3 SWAP2 SWAP1 PUSH2 0x1EEB JUMP JUMPDEST PUSH1 0x40 MLOAD DUP1 SWAP2 SUB SWAP1 RETURN JUMPDEST CALLVALUE DUP1 ISZERO PUSH2 0x5C7 JUMPI PUSH0 DUP1 REVERT JUMPDEST POP PUSH2 0x5D0 PUSH2 0x144D JUMP JUMPDEST PUSH1 0x40 MLOAD PUSH2 0x5DD SWAP2 SWAP1 PUSH2 0x1EEB JUMP JUMPDEST PUSH1 0x40 MLOAD DUP1 SWAP2 SUB SWAP1 RETURN JUMPDEST CALLVALUE DUP1 ISZERO PUSH2 0x5F1 JUMPI PUSH0 DUP1 REVERT JUMPDEST POP PUSH2 0x60C PUSH1 0x4 DUP1 CALLDATASIZE SUB DUP2 ADD SWAP1 PUSH2 0x607 SWAP2 SWAP1 PUSH2 0x21A2 JUMP JUMPDEST PUSH2 0x1452 JUMP JUMPDEST PUSH1 0x40 MLOAD PUSH2 0x619 SWAP2 SWAP1 PUSH2 0x1EEB JUMP JUMPDEST PUSH1 0x40 MLOAD DUP1 SWAP2 SUB SWAP1 RETURN JUMPDEST CALLVALUE DUP1 ISZERO PUSH2 0x62D JUMPI PUSH0 DUP1 REVERT JUMPDEST POP PUSH2 0x636 PUSH2 0x14D4 JUMP JUMPDEST PUSH1 0x40 MLOAD PUSH2 0x643 SWAP2 SWAP1 PUSH2 0x1EEB JUMP JUMPDEST PUSH1 0x40 MLOAD DUP1 SWAP2 SUB SWAP1 RETURN JUMPDEST CALLVALUE DUP1 ISZERO PUSH2 0x657 JUMPI PUSH0 DUP1 REVERT JUMPDEST POP PUSH2 0x672 PUSH1 0x4 DUP1 CALLDATASIZE SUB DUP2 ADD SWAP1 PUSH2 0x66D SWAP2 SWAP1 PUSH2 0x1EB1 JUMP JUMPDEST PUSH2 0x14D9 JUMP JUMPDEST PUSH1 0x40 MLOAD PUSH2 0x67F SWAP2 SWAP1 PUSH2 0x1EEB JUMP JUMPDEST PUSH1 0x40 MLOAD DUP1 SWAP2 SUB SWAP1 RETURN JUMPDEST PUSH1 0x60 PUSH1 0x8 DUP1 SLOAD DUP1 PUSH1 0x20 MUL PUSH1 0x20 ADD PUSH1 0x40 MLOAD SWAP1 DUP2 ADD PUSH1 0x40 MSTORE DUP1 SWAP3 SWAP2 SWAP1 DUP2 DUP2 MSTORE PUSH1 0x20 ADD DUP3 DUP1 SLOAD DUP1 ISZERO PUSH2 0x709 JUMPI PUSH1 0x20 MUL DUP3 ADD SWAP2 SWAP1 PUSH0 MSTORE PUSH1 0x20 PUSH0 KECCAK256 SWAP1 JUMPDEST DUP2 PUSH0 SWAP1 SLOAD SWAP1 PUSH2 0x100 EXP SWAP1 DIV PUSH20 0xFFFFFFFFFFFFFFFFFFFFFFFFFFFFFFFFFFFFFFFF AND PUSH20 0xFFFFFFFFFFFFFFFFFFFFFFFFFFFFFFFFFFFFFFFF AND DUP2 MSTORE PUSH1 0x20 ADD SWAP1 PUSH1 0x1 ADD SWAP1 DUP1 DUP4 GT PUSH2 0x6C0 JUMPI JUMPDEST POP POP POP POP POP SWAP1 POP SWAP1 JUMP JUMPDEST PUSH1 0x60 PUSH1 0x3 DUP1 SLOAD PUSH2 0x722 SWAP1 PUSH2 0x220D JUMP JUMPDEST DUP1 PUSH1 0x1F ADD PUSH1 0x20 DUP1 SWAP2 DIV MUL PUSH1 0x20 ADD PUSH1 0x40 MLOAD SWAP1 DUP2 ADD PUSH1 0x40 MSTORE DUP1 SWAP3 SWAP2 SWAP1 DUP2 DUP2 MSTORE PUSH1 0x20 ADD DUP3 DUP1 SLOAD PUSH2 0x74E SWAP1 PUSH2 0x220D JUMP JUMPDEST DUP1 ISZERO PUSH2 0x799 JUMPI DUP1 PUSH1 0x1F LT PUSH2 0x770 JUMPI PUSH2 0x100 DUP1 DUP4 SLOAD DIV MUL DUP4 MSTORE SWAP2 PUSH1 0x20 ADD SWAP2 PUSH2 0x799 JUMP JUMPDEST DUP3 ADD SWAP2 SWAP1 PUSH0 MSTORE PUSH1 0x20 PUSH0 KECCAK256 SWAP1 JUMPDEST DUP2 SLOAD DUP2 MSTORE SWAP1 PUSH1 0x1 ADD SWAP1 PUSH1 0x20 ADD DUP1 DUP4 GT PUSH2 0x77C JUMPI DUP3 SWAP1 SUB PUSH1 0x1F AND DUP3 ADD SWAP2 JUMPDEST POP POP POP POP POP SWAP1 POP SWAP1 JUMP JUMPDEST PUSH0 DUP1 PUSH2 0x7AD PUSH2 0x15A8 JUMP JUMPDEST SWAP1 POP PUSH2 0x7BA DUP2 DUP6 DUP6 PUSH2 0x15AF JUMP JUMPDEST PUSH1 0x1 SWAP2 POP POP SWAP3 SWAP2 POP POP JUMP JUMPDEST PUSH0 DUP1 PUSH1 0x7 PUSH0 DUP5 PUSH20 0xFFFFFFFFFFFFFFFFFFFFFFFFFFFFFFFFFFFFFFFF AND PUSH20 0xFFFFFFFFFFFFFFFFFFFFFFFFFFFFFFFFFFFFFFFF AND DUP2 MSTORE PUSH1 0x20 ADD SWAP1 DUP2 MSTORE PUSH1 0x20 ADD PUSH0 KECCAK256 PUSH1 0x40 MLOAD DUP1 PUSH1 0x40 ADD PUSH1 0x40 MSTORE SWAP1 DUP2 PUSH0 DUP3 ADD SLOAD DUP2 MSTORE PUSH1 0x20 ADD PUSH1 0x1 DUP3 ADD SLOAD DUP2 MSTORE POP POP SWAP1 POP PUSH0 DUP2 PUSH1 0x20 ADD MLOAD SUB PUSH2 0x858 JUMPI PUSH32 0xFFFFFFFFFFFFFFFFFFFFFFFFFFFFFFFFFFFFFFFFFFFFFFFFFFFFFFFFFFFFFFFF SWAP2 POP POP PUSH2 0x879 JUMP JUMPDEST PUSH0 PUSH2 0x862 DUP5 PUSH2 0x14D9 JUMP JUMPDEST SWAP1 POP DUP2 PUSH1 0x20 ADD MLOAD DUP2 PUSH2 0x874 SWAP2 SWAP1 PUSH2 0x2297 JUMP JUMPDEST SWAP3 POP POP POP JUMPDEST SWAP2 SWAP1 POP JUMP JUMPDEST PUSH0 PUSH1 0x2 SLOAD SWAP1 POP SWAP1 JUMP JUMPDEST PUSH0 DUP1 PUSH2 0x891 PUSH2 0x15A8 JUMP JUMPDEST SWAP1 POP PUSH2 0x89E DUP6 DUP3 DUP6 PUSH2 0x15C1 JUMP JUMPDEST PUSH2 0x8A9 DUP6 DUP6 DUP6 PUSH2 0x1654 JUMP JUMPDEST PUSH1 0x1 SWAP2 POP POP SWAP4 SWAP3 POP POP POP JUMP JUMPDEST PUSH0 PUSH1 0x2 SWAP1 POP SWAP1 JUMP JUMPDEST PUSH1 0x8 DUP2 DUP2 SLOAD DUP2 LT PUSH2 0x8CC JUMPI PUSH0 DUP1 REVERT JUMPDEST SWAP1 PUSH0 MSTORE PUSH1 0x20 PUSH0 KECCAK256 ADD PUSH0 SWAP2 POP SLOAD SWAP1 PUSH2 0x100 EXP SWAP1 DIV PUSH20 0xFFFFFFFFFFFFFFFFFFFFFFFFFFFFFFFFFFFFFFFF AND DUP2 JUMP JUMPDEST PUSH0 DUP3 DUP3 DUP2 ADD SWAP1 PUSH2 0x908 SWAP2 SWAP1 PUSH2 0x2302 JUMP JUMPDEST SWAP1 POP PUSH1 0x96 PUSH2 0x915 DUP3 PUSH2 0x7C5 JUMP JUMPDEST LT PUSH2 0x955 JUMPI PUSH1 0x40 MLOAD PUSH32 0x8C379A000000000000000000000000000000000000000000000000000000000 DUP2 MSTORE PUSH1 0x4 ADD PUSH2 0x94C SWAP1 PUSH2 0x2377 JUMP JUMPDEST PUSH1 0x40 MLOAD DUP1 SWAP2 SUB SWAP1 REVERT JUMPDEST PUSH0 PUSH1 0x7 PUSH0 DUP4 PUSH20 0xFFFFFFFFFFFFFFFFFFFFFFFFFFFFFFFFFFFFFFFF AND PUSH20 0xFFFFFFFFFFFFFFFFFFFFFFFFFFFFFFFFFFFFFFFF AND DUP2 MSTORE PUSH1 0x20 ADD SWAP1 DUP2 MSTORE PUSH1 0x20 ADD PUSH0 KECCAK256 PUSH1 0x40 MLOAD DUP1 PUSH1 0x40 ADD PUSH1 0x40 MSTORE SWAP1 DUP2 PUSH0 DUP3 ADD SLOAD DUP2 MSTORE PUSH1 0x20 ADD PUSH1 0x1 DUP3 ADD SLOAD DUP2 MSTORE POP POP SWAP1 POP PUSH2 0x9C1 DUP3 DUP3 PUSH1 0x20 ADD MLOAD PUSH2 0x1744 JUMP JUMPDEST PUSH0 PUSH1 0x7 PUSH0 DUP5 PUSH20 0xFFFFFFFFFFFFFFFFFFFFFFFFFFFFFFFFFFFFFFFF AND PUSH20 0xFFFFFFFFFFFFFFFFFFFFFFFFFFFFFFFFFFFFFFFF AND DUP2 MSTORE PUSH1 0x20 ADD SWAP1 DUP2 MSTORE PUSH1 0x20 ADD PUSH0 KECCAK256 PUSH0 ADD SLOAD SWAP1 POP PUSH0 PUSH1 0x7 PUSH0 DUP6 PUSH20 0xFFFFFFFFFFFFFFFFFFFFFFFFFFFFFFFFFFFFFFFF AND PUSH20 0xFFFFFFFFFFFFFFFFFFFFFFFFFFFFFFFFFFFFFFFF AND DUP2 MSTORE PUSH1 0x20 ADD SWAP1 DUP2 MSTORE PUSH1 0x20 ADD PUSH0 KECCAK256 PUSH0 ADD DUP2 SWAP1 SSTORE POP PUSH0 PUSH1 0x7 PUSH0 DUP6 PUSH20 0xFFFFFFFFFFFFFFFFFFFFFFFFFFFFFFFFFFFFFFFF AND PUSH20 0xFFFFFFFFFFFFFFFFFFFFFFFFFFFFFFFFFFFFFFFF AND DUP2 MSTORE PUSH1 0x20 ADD SWAP1 DUP2 MSTORE PUSH1 0x20 ADD PUSH0 KECCAK256 PUSH1 0x1 ADD DUP2 SWAP1 SSTORE POP PUSH1 0x6 PUSH0 SWAP1 SLOAD SWAP1 PUSH2 0x100 EXP SWAP1 DIV PUSH20 0xFFFFFFFFFFFFFFFFFFFFFFFFFFFFFFFFFFFFFFFF AND PUSH20 0xFFFFFFFFFFFFFFFFFFFFFFFFFFFFFFFFFFFFFFFF AND PUSH2 0x8FC DUP3 SWAP1 DUP2 ISZERO MUL SWAP1 PUSH1 0x40 MLOAD PUSH0 PUSH1 0x40 MLOAD DUP1 DUP4 SUB DUP2 DUP6 DUP9 DUP9 CALL SWAP4 POP POP POP POP ISZERO DUP1 ISZERO PUSH2 0xAF1 JUMPI RETURNDATASIZE PUSH0 DUP1 RETURNDATACOPY RETURNDATASIZE PUSH0 REVERT JUMPDEST POP DUP3 PUSH20 0xFFFFFFFFFFFFFFFFFFFFFFFFFFFFFFFFFFFFFFFF AND PUSH32 0xA5EE7A2B0254FCE91DEED604506790ED7FA072D0B14CBA4859C3BC8955B9CAAC DUP3 PUSH1 0x40 MLOAD PUSH2 0xB38 SWAP2 SWAP1 PUSH2 0x1EEB JUMP JUMPDEST PUSH1 0x40 MLOAD DUP1 SWAP2 SUB SWAP1 LOG2 POP POP POP POP POP JUMP JUMPDEST PUSH1 0x7 PUSH1 0x20 MSTORE DUP1 PUSH0 MSTORE PUSH1 0x40 PUSH0 KECCAK256 PUSH0 SWAP2 POP SWAP1 POP DUP1 PUSH0 ADD SLOAD SWAP1 DUP1 PUSH1 0x1 ADD SLOAD SWAP1 POP DUP3 JUMP JUMPDEST PUSH0 CALLVALUE GT PUSH2 0xBA9 JUMPI PUSH1 0x40 MLOAD PUSH32 0x8C379A000000000000000000000000000000000000000000000000000000000 DUP2 MSTORE PUSH1 0x4 ADD PUSH2 0xBA0 SWAP1 PUSH2 0x23DF JUMP JUMPDEST PUSH1 0x40 MLOAD DUP1 SWAP2 SUB SWAP1 REVERT JUMPDEST PUSH0 PUSH2 0xBB3 CALLVALUE PUSH2 0x1311 JUMP JUMPDEST SWAP1 POP PUSH2 0xBBF CALLER DUP3 PUSH2 0x17C3 JUMP JUMPDEST PUSH0 PUSH1 0x7 PUSH0 CALLER PUSH20 0xFFFFFFFFFFFFFFFFFFFFFFFFFFFFFFFFFFFFFFFF AND PUSH20 0xFFFFFFFFFFFFFFFFFFFFFFFFFFFFFFFFFFFFFFFF AND DUP2 MSTORE PUSH1 0x20 ADD SWAP1 DUP2 MSTORE PUSH1 0x20 ADD PUSH0 KECCAK256 PUSH0 ADD SLOAD SUB PUSH2 0xD0A JUMPI PUSH1 0x9 PUSH0 CALLER PUSH20 0xFFFFFFFFFFFFFFFFFFFFFFFFFFFFFFFFFFFFFFFF AND PUSH20 0xFFFFFFFFFFFFFFFFFFFFFFFFFFFFFFFFFFFFFFFF AND DUP2 MSTORE PUSH1 0x20 ADD SWAP1 DUP2 MSTORE PUSH1 0x20 ADD PUSH0 KECCAK256 PUSH0 SWAP1 SLOAD SWAP1 PUSH2 0x100 EXP SWAP1 DIV PUSH1 0xFF AND PUSH2 0xD09 JUMPI PUSH1 0x8 CALLER SWAP1 DUP1 PUSH1 0x1 DUP2 SLOAD ADD DUP1 DUP3 SSTORE DUP1 SWAP2 POP POP PUSH1 0x1 SWAP1 SUB SWAP1 PUSH0 MSTORE PUSH1 0x20 PUSH0 KECCAK256 ADD PUSH0 SWAP1 SWAP2 SWAP1 SWAP2 SWAP1 SWAP2 PUSH2 0x100 EXP DUP2 SLOAD DUP2 PUSH20 0xFFFFFFFFFFFFFFFFFFFFFFFFFFFFFFFFFFFFFFFF MUL NOT AND SWAP1 DUP4 PUSH20 0xFFFFFFFFFFFFFFFFFFFFFFFFFFFFFFFFFFFFFFFF AND MUL OR SWAP1 SSTORE POP PUSH1 0x1 PUSH1 0x9 PUSH0 CALLER PUSH20 0xFFFFFFFFFFFFFFFFFFFFFFFFFFFFFFFFFFFFFFFF AND PUSH20 0xFFFFFFFFFFFFFFFFFFFFFFFFFFFFFFFFFFFFFFFF AND DUP2 MSTORE PUSH1 0x20 ADD SWAP1 DUP2 MSTORE PUSH1 0x20 ADD PUSH0 KECCAK256 PUSH0 PUSH2 0x100 EXP DUP2 SLOAD DUP2 PUSH1 0xFF MUL NOT AND SWAP1 DUP4 ISZERO ISZERO MUL OR SWAP1 SSTORE POP JUMPDEST JUMPDEST CALLVALUE PUSH1 0x7 PUSH0 CALLER PUSH20 0xFFFFFFFFFFFFFFFFFFFFFFFFFFFFFFFFFFFFFFFF AND PUSH20 0xFFFFFFFFFFFFFFFFFFFFFFFFFFFFFFFFFFFFFFFF AND DUP2 MSTORE PUSH1 0x20 ADD SWAP1 DUP2 MSTORE PUSH1 0x20 ADD PUSH0 KECCAK256 PUSH0 ADD PUSH0 DUP3 DUP3 SLOAD PUSH2 0xD58 SWAP2 SWAP1 PUSH2 0x23FD JUMP JUMPDEST SWAP3 POP POP DUP2 SWAP1 SSTORE POP DUP1 PUSH1 0x7 PUSH0 CALLER PUSH20 0xFFFFFFFFFFFFFFFFFFFFFFFFFFFFFFFFFFFFFFFF AND PUSH20 0xFFFFFFFFFFFFFFFFFFFFFFFFFFFFFFFFFFFFFFFF AND DUP2 MSTORE PUSH1 0x20 ADD SWAP1 DUP2 MSTORE PUSH1 0x20 ADD PUSH0 KECCAK256 PUSH1 0x1 ADD PUSH0 DUP3 DUP3 SLOAD PUSH2 0xDAE SWAP2 SWAP1 PUSH2 0x23FD JUMP JUMPDEST SWAP3 POP POP DUP2 SWAP1 SSTORE POP CALLER PUSH20 0xFFFFFFFFFFFFFFFFFFFFFFFFFFFFFFFFFFFFFFFF AND PUSH32 0x90890809C654F11D6E72A28FA60149770A0D11EC6C92319D6CEB2BB0A4EA1A15 CALLVALUE DUP4 PUSH1 0x40 MLOAD PUSH2 0xDFD SWAP3 SWAP2 SWAP1 PUSH2 0x2087 JUMP JUMPDEST PUSH1 0x40 MLOAD DUP1 SWAP2 SUB SWAP1 LOG2 POP JUMP JUMPDEST PUSH1 0x6 PUSH0 SWAP1 SLOAD SWAP1 PUSH2 0x100 EXP SWAP1 DIV PUSH20 0xFFFFFFFFFFFFFFFFFFFFFFFFFFFFFFFFFFFFFFFF AND DUP2 JUMP JUMPDEST PUSH0 PUSH1 0x60 PUSH0 JUMPDEST PUSH1 0x8 DUP1 SLOAD SWAP1 POP DUP2 LT ISZERO PUSH2 0xECE JUMPI PUSH0 PUSH1 0x8 DUP3 DUP2 SLOAD DUP2 LT PUSH2 0xE54 JUMPI PUSH2 0xE53 PUSH2 0x2430 JUMP JUMPDEST JUMPDEST SWAP1 PUSH0 MSTORE PUSH1 0x20 PUSH0 KECCAK256 ADD PUSH0 SWAP1 SLOAD SWAP1 PUSH2 0x100 EXP SWAP1 DIV PUSH20 0xFFFFFFFFFFFFFFFFFFFFFFFFFFFFFFFFFFFFFFFF AND SWAP1 POP PUSH1 0x96 PUSH2 0xE89 DUP3 PUSH2 0x7C5 JUMP JUMPDEST LT ISZERO PUSH2 0xEC0 JUMPI PUSH1 0x1 SWAP4 POP DUP1 PUSH1 0x40 MLOAD PUSH1 0x20 ADD PUSH2 0xEA4 SWAP2 SWAP1 PUSH2 0x1FC2 JUMP JUMPDEST PUSH1 0x40 MLOAD PUSH1 0x20 DUP2 DUP4 SUB SUB DUP2 MSTORE SWAP1 PUSH1 0x40 MSTORE SWAP3 POP PUSH1 0x1 SWAP4 POP POP POP PUSH2 0xEE4 JUMP JUMPDEST POP DUP1 DUP1 PUSH1 0x1 ADD SWAP2 POP POP PUSH2 0xE32 JUMP JUMPDEST POP PUSH0 PUSH1 0x40 MLOAD DUP1 PUSH1 0x20 ADD PUSH1 0x40 MSTORE DUP1 PUSH0 DUP2 MSTORE POP SWAP2 POP SWAP2 POP JUMPDEST SWAP3 POP SWAP3 SWAP1 POP JUMP JUMPDEST PUSH0 DUP1 PUSH0 DUP4 PUSH20 0xFFFFFFFFFFFFFFFFFFFFFFFFFFFFFFFFFFFFFFFF AND PUSH20 0xFFFFFFFFFFFFFFFFFFFFFFFFFFFFFFFFFFFFFFFF AND DUP2 MSTORE PUSH1 0x20 ADD SWAP1 DUP2 MSTORE PUSH1 0x20 ADD PUSH0 KECCAK256 SLOAD SWAP1 POP SWAP2 SWAP1 POP JUMP JUMPDEST PUSH1 0x5 PUSH0 SWAP1 SLOAD SWAP1 PUSH2 0x100 EXP SWAP1 DIV PUSH20 0xFFFFFFFFFFFFFFFFFFFFFFFFFFFFFFFFFFFFFFFF AND DUP2 JUMP JUMPDEST PUSH1 0x8 DUP2 JUMP JUMPDEST DUP1 PUSH2 0xF64 CALLER PUSH2 0xEEB JUMP JUMPDEST LT ISZERO PUSH2 0xFA5 JUMPI PUSH1 0x40 MLOAD PUSH32 0x8C379A000000000000000000000000000000000000000000000000000000000 DUP2 MSTORE PUSH1 0x4 ADD PUSH2 0xF9C SWAP1 PUSH2 0x24A7 JUMP JUMPDEST PUSH1 0x40 MLOAD DUP1 SWAP2 SUB SWAP1 REVERT JUMPDEST PUSH0 PUSH2 0xFAF DUP3 PUSH2 0x1396 JUMP JUMPDEST SWAP1 POP DUP1 PUSH1 0x7 PUSH0 CALLER PUSH20 0xFFFFFFFFFFFFFFFFFFFFFFFFFFFFFFFFFFFFFFFF AND PUSH20 0xFFFFFFFFFFFFFFFFFFFFFFFFFFFFFFFFFFFFFFFF AND DUP2 MSTORE PUSH1 0x20 ADD SWAP1 DUP2 MSTORE PUSH1 0x20 ADD PUSH0 KECCAK256 PUSH0 ADD SLOAD LT ISZERO PUSH2 0x1033 JUMPI PUSH1 0x40 MLOAD PUSH32 0x8C379A000000000000000000000000000000000000000000000000000000000 DUP2 MSTORE PUSH1 0x4 ADD PUSH2 0x102A SWAP1 PUSH2 0x250F JUMP JUMPDEST PUSH1 0x40 MLOAD DUP1 SWAP2 SUB SWAP1 REVERT JUMPDEST DUP1 PUSH1 0x7 PUSH0 CALLER PUSH20 0xFFFFFFFFFFFFFFFFFFFFFFFFFFFFFFFFFFFFFFFF AND PUSH20 0xFFFFFFFFFFFFFFFFFFFFFFFFFFFFFFFFFFFFFFFF AND DUP2 MSTORE PUSH1 0x20 ADD SWAP1 DUP2 MSTORE PUSH1 0x20 ADD PUSH0 KECCAK256 PUSH0 ADD PUSH0 DUP3 DUP3 SLOAD PUSH2 0x1081 SWAP2 SWAP1 PUSH2 0x252D JUMP JUMPDEST SWAP3 POP POP DUP2 SWAP1 SSTORE POP DUP2 PUSH1 0x7 PUSH0 CALLER PUSH20 0xFFFFFFFFFFFFFFFFFFFFFFFFFFFFFFFFFFFFFFFF AND PUSH20 0xFFFFFFFFFFFFFFFFFFFFFFFFFFFFFFFFFFFFFFFF AND DUP2 MSTORE PUSH1 0x20 ADD SWAP1 DUP2 MSTORE PUSH1 0x20 ADD PUSH0 KECCAK256 PUSH1 0x1 ADD PUSH0 DUP3 DUP3 SLOAD PUSH2 0x10D7 SWAP2 SWAP1 PUSH2 0x252D JUMP JUMPDEST SWAP3 POP POP DUP2 SWAP1 SSTORE POP PUSH2 0x10E8 CALLER DUP4 PUSH2 0x1744 JUMP JUMPDEST CALLER PUSH20 0xFFFFFFFFFFFFFFFFFFFFFFFFFFFFFFFFFFFFFFFF AND PUSH2 0x8FC DUP3 SWAP1 DUP2 ISZERO MUL SWAP1 PUSH1 0x40 MLOAD PUSH0 PUSH1 0x40 MLOAD DUP1 DUP4 SUB DUP2 DUP6 DUP9 DUP9 CALL SWAP4 POP POP POP POP ISZERO DUP1 ISZERO PUSH2 0x112B JUMPI RETURNDATASIZE PUSH0 DUP1 RETURNDATACOPY RETURNDATASIZE PUSH0 REVERT JUMPDEST POP CALLER PUSH20 0xFFFFFFFFFFFFFFFFFFFFFFFFFFFFFFFFFFFFFFFF AND PUSH32 0x49995E5DD6158CF69AD3E9777C46755A1A826A446C6416992167462DAD033B2A DUP4 DUP4 PUSH1 0x40 MLOAD PUSH2 0x1174 SWAP3 SWAP2 SWAP1 PUSH2 0x2087 JUMP JUMPDEST PUSH1 0x40 MLOAD DUP1 SWAP2 SUB SWAP1 LOG2 POP POP JUMP JUMPDEST PUSH0 DUP1 PUSH1 0x5 PUSH0 SWAP1 SLOAD SWAP1 PUSH2 0x100 EXP SWAP1 DIV PUSH20 0xFFFFFFFFFFFFFFFFFFFFFFFFFFFFFFFFFFFFFFFF AND PUSH20 0xFFFFFFFFFFFFFFFFFFFFFFFFFFFFFFFFFFFFFFFF AND PUSH4 0xFEAF968C PUSH1 0x40 MLOAD DUP2 PUSH4 0xFFFFFFFF AND PUSH1 0xE0 SHL DUP2 MSTORE PUSH1 0x4 ADD PUSH1 0xA0 PUSH1 0x40 MLOAD DUP1 DUP4 SUB DUP2 DUP7 GAS STATICCALL ISZERO DUP1 ISZERO PUSH2 0x11EC JUMPI RETURNDATASIZE PUSH0 DUP1 RETURNDATACOPY RETURNDATASIZE PUSH0 REVERT JUMPDEST POP POP POP POP PUSH1 0x40 MLOAD RETURNDATASIZE PUSH1 0x1F NOT PUSH1 0x1F DUP3 ADD AND DUP3 ADD DUP1 PUSH1 0x40 MSTORE POP DUP2 ADD SWAP1 PUSH2 0x1210 SWAP2 SWAP1 PUSH2 0x25E6 JUMP JUMPDEST POP POP POP SWAP2 POP POP PUSH0 DUP2 SGT PUSH2 0x1258 JUMPI PUSH1 0x40 MLOAD PUSH32 0x8C379A000000000000000000000000000000000000000000000000000000000 DUP2 MSTORE PUSH1 0x4 ADD PUSH2 0x124F SWAP1 PUSH2 0x26A7 JUMP JUMPDEST PUSH1 0x40 MLOAD DUP1 SWAP2 SUB SWAP1 REVERT JUMPDEST DUP1 SWAP2 POP POP SWAP1 JUMP JUMPDEST PUSH1 0x60 PUSH1 0x4 DUP1 SLOAD PUSH2 0x126E SWAP1 PUSH2 0x220D JUMP JUMPDEST DUP1 PUSH1 0x1F ADD PUSH1 0x20 DUP1 SWAP2 DIV MUL PUSH1 0x20 ADD PUSH1 0x40 MLOAD SWAP1 DUP2 ADD PUSH1 0x40 MSTORE DUP1 SWAP3 SWAP2 SWAP1 DUP2 DUP2 MSTORE PUSH1 0x20 ADD DUP3 DUP1 SLOAD PUSH2 0x129A SWAP1 PUSH2 0x220D JUMP JUMPDEST DUP1 ISZERO PUSH2 0x12E5 JUMPI DUP1 PUSH1 0x1F LT PUSH2 0x12BC JUMPI PUSH2 0x100 DUP1 DUP4 SLOAD DIV MUL DUP4 MSTORE SWAP2 PUSH1 0x20 ADD SWAP2 PUSH2 0x12E5 JUMP JUMPDEST DUP3 ADD SWAP2 SWAP1 PUSH0 MSTORE PUSH1 0x20 PUSH0 KECCAK256 SWAP1 JUMPDEST DUP2 SLOAD DUP2 MSTORE SWAP1 PUSH1 0x1 ADD SWAP1 PUSH1 0x20 ADD DUP1 DUP4 GT PUSH2 0x12C8 JUMPI DUP3 SWAP1 SUB PUSH1 0x1F AND DUP3 ADD SWAP2 JUMPDEST POP POP POP POP POP SWAP1 POP SWAP1 JUMP JUMPDEST PUSH0 DUP1 PUSH2 0x12F9 PUSH2 0x15A8 JUMP JUMPDEST SWAP1 POP PUSH2 0x1306 DUP2 DUP6 DUP6 PUSH2 0x1654 JUMP JUMPDEST PUSH1 0x1 SWAP2 POP POP SWAP3 SWAP2 POP POP JUMP JUMPDEST PUSH0 DUP1 PUSH2 0x131B PUSH2 0x1180 JUMP JUMPDEST SWAP1 POP PUSH0 PUSH2 0x1326 PUSH2 0x8B5 JUMP JUMPDEST PUSH1 0xFF AND PUSH1 0xA PUSH2 0x1335 SWAP2 SWAP1 PUSH2 0x27F4 JUMP JUMPDEST SWAP1 POP PUSH0 PUSH8 0xDE0B6B3A7640000 PUSH4 0x5F5E100 DUP4 DUP6 DUP9 PUSH2 0x1353 SWAP2 SWAP1 PUSH2 0x283E JUMP JUMPDEST PUSH2 0x135D SWAP2 SWAP1 PUSH2 0x283E JUMP JUMPDEST PUSH2 0x1367 SWAP2 SWAP1 PUSH2 0x2297 JUMP JUMPDEST PUSH2 0x1371 SWAP2 SWAP1 PUSH2 0x2297 JUMP JUMPDEST SWAP1 POP PUSH1 0x96 PUSH1 0x64 DUP3 PUSH2 0x1382 SWAP2 SWAP1 PUSH2 0x283E JUMP JUMPDEST PUSH2 0x138C SWAP2 SWAP1 PUSH2 0x2297 JUMP JUMPDEST SWAP4 POP POP POP POP SWAP2 SWAP1 POP JUMP JUMPDEST PUSH0 DUP1 DUP3 GT PUSH2 0x13D9 JUMPI PUSH1 0x40 MLOAD PUSH32 0x8C379A000000000000000000000000000000000000000000000000000000000 DUP2 MSTORE PUSH1 0x4 ADD PUSH2 0x13D0 SWAP1 PUSH2 0x28C9 JUMP JUMPDEST PUSH1 0x40 MLOAD DUP1 SWAP2 SUB SWAP1 REVERT JUMPDEST PUSH0 PUSH2 0x13E2 PUSH2 0x1180 JUMP JUMPDEST SWAP1 POP PUSH0 PUSH1 0x64 PUSH8 0xDE0B6B3A7640000 DUP6 PUSH2 0x13FB SWAP2 SWAP1 PUSH2 0x283E JUMP JUMPDEST PUSH2 0x1405 SWAP2 SWAP1 PUSH2 0x2297 JUMP JUMPDEST SWAP1 POP PUSH0 PUSH1 0x64 PUSH1 0x96 DUP4 PUSH2 0x1417 SWAP2 SWAP1 PUSH2 0x283E JUMP JUMPDEST PUSH2 0x1421 SWAP2 SWAP1 PUSH2 0x2297 JUMP JUMPDEST SWAP1 POP PUSH0 DUP4 PUSH4 0x5F5E100 DUP4 PUSH2 0x1435 SWAP2 SWAP1 PUSH2 0x283E JUMP JUMPDEST PUSH2 0x143F SWAP2 SWAP1 PUSH2 0x2297 JUMP JUMPDEST SWAP1 POP DUP1 SWAP5 POP POP POP POP POP SWAP2 SWAP1 POP JUMP JUMPDEST PUSH1 0x96 DUP2 JUMP JUMPDEST PUSH0 PUSH1 0x1 PUSH0 DUP5 PUSH20 0xFFFFFFFFFFFFFFFFFFFFFFFFFFFFFFFFFFFFFFFF AND PUSH20 0xFFFFFFFFFFFFFFFFFFFFFFFFFFFFFFFFFFFFFFFF AND DUP2 MSTORE PUSH1 0x20 ADD SWAP1 DUP2 MSTORE PUSH1 0x20 ADD PUSH0 KECCAK256 PUSH0 DUP4 PUSH20 0xFFFFFFFFFFFFFFFFFFFFFFFFFFFFFFFFFFFFFFFF AND PUSH20 0xFFFFFFFFFFFFFFFFFFFFFFFFFFFFFFFFFFFFFFFF AND DUP2 MSTORE PUSH1 0x20 ADD SWAP1 DUP2 MSTORE PUSH1 0x20 ADD PUSH0 KECCAK256 SLOAD SWAP1 POP SWAP3 SWAP2 POP POP JUMP JUMPDEST PUSH1 0x64 DUP2 JUMP JUMPDEST PUSH0 DUP1 PUSH2 0x14E3 PUSH2 0x1180 JUMP JUMPDEST SWAP1 POP PUSH0 PUSH1 0x7 PUSH0 DUP6 PUSH20 0xFFFFFFFFFFFFFFFFFFFFFFFFFFFFFFFFFFFFFFFF AND PUSH20 0xFFFFFFFFFFFFFFFFFFFFFFFFFFFFFFFFFFFFFFFF AND DUP2 MSTORE PUSH1 0x20 ADD SWAP1 DUP2 MSTORE PUSH1 0x20 ADD PUSH0 KECCAK256 PUSH1 0x40 MLOAD DUP1 PUSH1 0x40 ADD PUSH1 0x40 MSTORE SWAP1 DUP2 PUSH0 DUP3 ADD SLOAD DUP2 MSTORE PUSH1 0x20 ADD PUSH1 0x1 DUP3 ADD SLOAD DUP2 MSTORE POP POP SWAP1 POP PUSH0 PUSH2 0x154C PUSH2 0x8B5 JUMP JUMPDEST PUSH1 0xFF AND PUSH1 0xA PUSH2 0x155B SWAP2 SWAP1 PUSH2 0x27F4 JUMP JUMPDEST SWAP1 POP PUSH0 PUSH8 0xDE0B6B3A7640000 PUSH4 0x5F5E100 DUP4 DUP7 DUP7 PUSH0 ADD MLOAD PUSH2 0x157C SWAP2 SWAP1 PUSH2 0x283E JUMP JUMPDEST PUSH2 0x1586 SWAP2 SWAP1 PUSH2 0x283E JUMP JUMPDEST PUSH2 0x1590 SWAP2 SWAP1 PUSH2 0x2297 JUMP JUMPDEST PUSH2 0x159A SWAP2 SWAP1 PUSH2 0x2297 JUMP JUMPDEST SWAP1 POP DUP1 SWAP5 POP POP POP POP POP SWAP2 SWAP1 POP JUMP JUMPDEST PUSH0 CALLER SWAP1 POP SWAP1 JUMP JUMPDEST PUSH2 0x15BC DUP4 DUP4 DUP4 PUSH1 0x1 PUSH2 0x1842 JUMP JUMPDEST POP POP POP JUMP JUMPDEST PUSH0 PUSH2 0x15CC DUP5 DUP5 PUSH2 0x1452 JUMP JUMPDEST SWAP1 POP PUSH32 0xFFFFFFFFFFFFFFFFFFFFFFFFFFFFFFFFFFFFFFFFFFFFFFFFFFFFFFFFFFFFFFFF DUP2 LT ISZERO PUSH2 0x164E JUMPI DUP2 DUP2 LT ISZERO PUSH2 0x163F JUMPI DUP3 DUP2 DUP4 PUSH1 0x40 MLOAD PUSH32 0xFB8F41B200000000000000000000000000000000000000000000000000000000 DUP2 MSTORE PUSH1 0x4 ADD PUSH2 0x1636 SWAP4 SWAP3 SWAP2 SWAP1 PUSH2 0x28E7 JUMP JUMPDEST PUSH1 0x40 MLOAD DUP1 SWAP2 SUB SWAP1 REVERT JUMPDEST PUSH2 0x164D DUP5 DUP5 DUP5 DUP5 SUB PUSH0 PUSH2 0x1842 JUMP JUMPDEST JUMPDEST POP POP POP POP JUMP JUMPDEST PUSH0 PUSH20 0xFFFFFFFFFFFFFFFFFFFFFFFFFFFFFFFFFFFFFFFF AND DUP4 PUSH20 0xFFFFFFFFFFFFFFFFFFFFFFFFFFFFFFFFFFFFFFFF AND SUB PUSH2 0x16C4 JUMPI PUSH0 PUSH1 0x40 MLOAD PUSH32 0x96C6FD1E00000000000000000000000000000000000000000000000000000000 DUP2 MSTORE PUSH1 0x4 ADD PUSH2 0x16BB SWAP2 SWAP1 PUSH2 0x1FC2 JUMP JUMPDEST PUSH1 0x40 MLOAD DUP1 SWAP2 SUB SWAP1 REVERT JUMPDEST PUSH0 PUSH20 0xFFFFFFFFFFFFFFFFFFFFFFFFFFFFFFFFFFFFFFFF AND DUP3 PUSH20 0xFFFFFFFFFFFFFFFFFFFFFFFFFFFFFFFFFFFFFFFF AND SUB PUSH2 0x1734 JUMPI PUSH0 PUSH1 0x40 MLOAD PUSH32 0xEC442F0500000000000000000000000000000000000000000000000000000000 DUP2 MSTORE PUSH1 0x4 ADD PUSH2 0x172B SWAP2 SWAP1 PUSH2 0x1FC2 JUMP JUMPDEST PUSH1 0x40 MLOAD DUP1 SWAP2 SUB SWAP1 REVERT JUMPDEST PUSH2 0x173F DUP4 DUP4 DUP4 PUSH2 0x1A11 JUMP JUMPDEST POP POP POP JUMP JUMPDEST PUSH0 PUSH20 0xFFFFFFFFFFFFFFFFFFFFFFFFFFFFFFFFFFFFFFFF AND DUP3 PUSH20 0xFFFFFFFFFFFFFFFFFFFFFFFFFFFFFFFFFFFFFFFF AND SUB PUSH2 0x17B4 JUMPI PUSH0 PUSH1 0x40 MLOAD PUSH32 0x96C6FD1E00000000000000000000000000000000000000000000000000000000 DUP2 MSTORE PUSH1 0x4 ADD PUSH2 0x17AB SWAP2 SWAP1 PUSH2 0x1FC2 JUMP JUMPDEST PUSH1 0x40 MLOAD DUP1 SWAP2 SUB SWAP1 REVERT JUMPDEST PUSH2 0x17BF DUP3 PUSH0 DUP4 PUSH2 0x1A11 JUMP JUMPDEST POP POP JUMP JUMPDEST PUSH0 PUSH20 0xFFFFFFFFFFFFFFFFFFFFFFFFFFFFFFFFFFFFFFFF AND DUP3 PUSH20 0xFFFFFFFFFFFFFFFFFFFFFFFFFFFFFFFFFFFFFFFF AND SUB PUSH2 0x1833 JUMPI PUSH0 PUSH1 0x40 MLOAD PUSH32 0xEC442F0500000000000000000000000000000000000000000000000000000000 DUP2 MSTORE PUSH1 0x4 ADD PUSH2 0x182A SWAP2 SWAP1 PUSH2 0x1FC2 JUMP JUMPDEST PUSH1 0x40 MLOAD DUP1 SWAP2 SUB SWAP1 REVERT JUMPDEST PUSH2 0x183E PUSH0 DUP4 DUP4 PUSH2 0x1A11 JUMP JUMPDEST POP POP JUMP JUMPDEST PUSH0 PUSH20 0xFFFFFFFFFFFFFFFFFFFFFFFFFFFFFFFFFFFFFFFF AND DUP5 PUSH20 0xFFFFFFFFFFFFFFFFFFFFFFFFFFFFFFFFFFFFFFFF AND SUB PUSH2 0x18B2 JUMPI PUSH0 PUSH1 0x40 MLOAD PUSH32 0xE602DF0500000000000000000000000000000000000000000000000000000000 DUP2 MSTORE PUSH1 0x4 ADD PUSH2 0x18A9 SWAP2 SWAP1 PUSH2 0x1FC2 JUMP JUMPDEST PUSH1 0x40 MLOAD DUP1 SWAP2 SUB SWAP1 REVERT JUMPDEST PUSH0 PUSH20 0xFFFFFFFFFFFFFFFFFFFFFFFFFFFFFFFFFFFFFFFF AND DUP4 PUSH20 0xFFFFFFFFFFFFFFFFFFFFFFFFFFFFFFFFFFFFFFFF AND SUB PUSH2 0x1922 JUMPI PUSH0 PUSH1 0x40 MLOAD PUSH32 0x94280D6200000000000000000000000000000000000000000000000000000000 DUP2 MSTORE PUSH1 0x4 ADD PUSH2 0x1919 SWAP2 SWAP1 PUSH2 0x1FC2 JUMP JUMPDEST PUSH1 0x40 MLOAD DUP1 SWAP2 SUB SWAP1 REVERT JUMPDEST DUP2 PUSH1 0x1 PUSH0 DUP7 PUSH20 0xFFFFFFFFFFFFFFFFFFFFFFFFFFFFFFFFFFFFFFFF AND PUSH20 0xFFFFFFFFFFFFFFFFFFFFFFFFFFFFFFFFFFFFFFFF AND DUP2 MSTORE PUSH1 0x20 ADD SWAP1 DUP2 MSTORE PUSH1 0x20 ADD PUSH0 KECCAK256 PUSH0 DUP6 PUSH20 0xFFFFFFFFFFFFFFFFFFFFFFFFFFFFFFFFFFFFFFFF AND PUSH20 0xFFFFFFFFFFFFFFFFFFFFFFFFFFFFFFFFFFFFFFFF AND DUP2 MSTORE PUSH1 0x20 ADD SWAP1 DUP2 MSTORE PUSH1 0x20 ADD PUSH0 KECCAK256 DUP2 SWAP1 SSTORE POP DUP1 ISZERO PUSH2 0x1A0B JUMPI DUP3 PUSH20 0xFFFFFFFFFFFFFFFFFFFFFFFFFFFFFFFFFFFFFFFF AND DUP5 PUSH20 0xFFFFFFFFFFFFFFFFFFFFFFFFFFFFFFFFFFFFFFFF AND PUSH32 0x8C5BE1E5EBEC7D5BD14F71427D1E84F3DD0314C0F7B2291E5B200AC8C7C3B925 DUP5 PUSH1 0x40 MLOAD PUSH2 0x1A02 SWAP2 SWAP1 PUSH2 0x1EEB JUMP JUMPDEST PUSH1 0x40 MLOAD DUP1 SWAP2 SUB SWAP1 LOG3 JUMPDEST POP POP POP POP JUMP JUMPDEST PUSH0 PUSH20 0xFFFFFFFFFFFFFFFFFFFFFFFFFFFFFFFFFFFFFFFF AND DUP4 PUSH20 0xFFFFFFFFFFFFFFFFFFFFFFFFFFFFFFFFFFFFFFFF AND SUB PUSH2 0x1A61 JUMPI DUP1 PUSH1 0x2 PUSH0 DUP3 DUP3 SLOAD PUSH2 0x1A55 SWAP2 SWAP1 PUSH2 0x23FD JUMP JUMPDEST SWAP3 POP POP DUP2 SWAP1 SSTORE POP PUSH2 0x1B2F JUMP JUMPDEST PUSH0 DUP1 PUSH0 DUP6 PUSH20 0xFFFFFFFFFFFFFFFFFFFFFFFFFFFFFFFFFFFFFFFF AND PUSH20 0xFFFFFFFFFFFFFFFFFFFFFFFFFFFFFFFFFFFFFFFF AND DUP2 MSTORE PUSH1 0x20 ADD SWAP1 DUP2 MSTORE PUSH1 0x20 ADD PUSH0 KECCAK256 SLOAD SWAP1 POP DUP2 DUP2 LT ISZERO PUSH2 0x1AEA JUMPI DUP4 DUP2 DUP4 PUSH1 0x40 MLOAD PUSH32 0xE450D38C00000000000000000000000000000000000000000000000000000000 DUP2 MSTORE PUSH1 0x4 ADD PUSH2 0x1AE1 SWAP4 SWAP3 SWAP2 SWAP1 PUSH2 0x28E7 JUMP JUMPDEST PUSH1 0x40 MLOAD DUP1 SWAP2 SUB SWAP1 REVERT JUMPDEST DUP2 DUP2 SUB PUSH0 DUP1 DUP7 PUSH20 0xFFFFFFFFFFFFFFFFFFFFFFFFFFFFFFFFFFFFFFFF AND PUSH20 0xFFFFFFFFFFFFFFFFFFFFFFFFFFFFFFFFFFFFFFFF AND DUP2 MSTORE PUSH1 0x20 ADD SWAP1 DUP2 MSTORE PUSH1 0x20 ADD PUSH0 KECCAK256 DUP2 SWAP1 SSTORE POP POP JUMPDEST PUSH0 PUSH20 0xFFFFFFFFFFFFFFFFFFFFFFFFFFFFFFFFFFFFFFFF AND DUP3 PUSH20 0xFFFFFFFFFFFFFFFFFFFFFFFFFFFFFFFFFFFFFFFF AND SUB PUSH2 0x1B76 JUMPI DUP1 PUSH1 0x2 PUSH0 DUP3 DUP3 SLOAD SUB SWAP3 POP POP DUP2 SWAP1 SSTORE POP PUSH2 0x1BC0 JUMP JUMPDEST DUP1 PUSH0 DUP1 DUP5 PUSH20 0xFFFFFFFFFFFFFFFFFFFFFFFFFFFFFFFFFFFFFFFF AND PUSH20 0xFFFFFFFFFFFFFFFFFFFFFFFFFFFFFFFFFFFFFFFF AND DUP2 MSTORE PUSH1 0x20 ADD SWAP1 DUP2 MSTORE PUSH1 0x20 ADD PUSH0 KECCAK256 PUSH0 DUP3 DUP3 SLOAD ADD SWAP3 POP POP DUP2 SWAP1 SSTORE POP JUMPDEST DUP2 PUSH20 0xFFFFFFFFFFFFFFFFFFFFFFFFFFFFFFFFFFFFFFFF AND DUP4 PUSH20 0xFFFFFFFFFFFFFFFFFFFFFFFFFFFFFFFFFFFFFFFF AND PUSH32 0xDDF252AD1BE2C89B69C2B068FC378DAA952BA7F163C4A11628F55A4DF523B3EF DUP4 PUSH1 0x40 MLOAD PUSH2 0x1C1D SWAP2 SWAP1 PUSH2 0x1EEB JUMP JUMPDEST PUSH1 0x40 MLOAD DUP1 SWAP2 SUB SWAP1 LOG3 POP POP POP JUMP JUMPDEST PUSH0 DUP2 MLOAD SWAP1 POP SWAP2 SWAP1 POP JUMP JUMPDEST PUSH0 DUP3 DUP3 MSTORE PUSH1 0x20 DUP3 ADD SWAP1 POP SWAP3 SWAP2 POP POP JUMP JUMPDEST PUSH0 DUP2 SWAP1 POP PUSH1 0x20 DUP3 ADD SWAP1 POP SWAP2 SWAP1 POP JUMP JUMPDEST PUSH0 PUSH20 0xFFFFFFFFFFFFFFFFFFFFFFFFFFFFFFFFFFFFFFFF DUP3 AND SWAP1 POP SWAP2 SWAP1 POP JUMP JUMPDEST PUSH0 PUSH2 0x1C7C DUP3 PUSH2 0x1C53 JUMP JUMPDEST SWAP1 POP SWAP2 SWAP1 POP JUMP JUMPDEST PUSH2 0x1C8C DUP2 PUSH2 0x1C72 JUMP JUMPDEST DUP3 MSTORE POP POP JUMP JUMPDEST PUSH0 PUSH2 0x1C9D DUP4 DUP4 PUSH2 0x1C83 JUMP JUMPDEST PUSH1 0x20 DUP4 ADD SWAP1 POP SWAP3 SWAP2 POP POP JUMP JUMPDEST PUSH0 PUSH1 0x20 DUP3 ADD SWAP1 POP SWAP2 SWAP1 POP JUMP JUMPDEST PUSH0 PUSH2 0x1CBF DUP3 PUSH2 0x1C2A JUMP JUMPDEST PUSH2 0x1CC9 DUP2 DUP6 PUSH2 0x1C34 JUMP JUMPDEST SWAP4 POP PUSH2 0x1CD4 DUP4 PUSH2 0x1C44 JUMP JUMPDEST DUP1 PUSH0 JUMPDEST DUP4 DUP2 LT ISZERO PUSH2 0x1D04 JUMPI DUP2 MLOAD PUSH2 0x1CEB DUP9 DUP3 PUSH2 0x1C92 JUMP JUMPDEST SWAP8 POP PUSH2 0x1CF6 DUP4 PUSH2 0x1CA9 JUMP JUMPDEST SWAP3 POP POP PUSH1 0x1 DUP2 ADD SWAP1 POP PUSH2 0x1CD7 JUMP JUMPDEST POP DUP6 SWAP4 POP POP POP POP SWAP3 SWAP2 POP POP JUMP JUMPDEST PUSH0 PUSH1 0x20 DUP3 ADD SWAP1 POP DUP2 DUP2 SUB PUSH0 DUP4 ADD MSTORE PUSH2 0x1D29 DUP2 DUP5 PUSH2 0x1CB5 JUMP JUMPDEST SWAP1 POP SWAP3 SWAP2 POP POP JUMP JUMPDEST PUSH0 DUP2 MLOAD SWAP1 POP SWAP2 SWAP1 POP JUMP JUMPDEST PUSH0 DUP3 DUP3 MSTORE PUSH1 0x20 DUP3 ADD SWAP1 POP SWAP3 SWAP2 POP POP JUMP JUMPDEST PUSH0 JUMPDEST DUP4 DUP2 LT ISZERO PUSH2 0x1D68 JUMPI DUP1 DUP3 ADD MLOAD DUP2 DUP5 ADD MSTORE PUSH1 0x20 DUP2 ADD SWAP1 POP PUSH2 0x1D4D JUMP JUMPDEST PUSH0 DUP5 DUP5 ADD MSTORE POP POP POP POP JUMP JUMPDEST PUSH0 PUSH1 0x1F NOT PUSH1 0x1F DUP4 ADD AND SWAP1 POP SWAP2 SWAP1 POP JUMP JUMPDEST PUSH0 PUSH2 0x1D8D DUP3 PUSH2 0x1D31 JUMP JUMPDEST PUSH2 0x1D97 DUP2 DUP6 PUSH2 0x1D3B JUMP JUMPDEST SWAP4 POP PUSH2 0x1DA7 DUP2 DUP6 PUSH1 0x20 DUP7 ADD PUSH2 0x1D4B JUMP JUMPDEST PUSH2 0x1DB0 DUP2 PUSH2 0x1D73 JUMP JUMPDEST DUP5 ADD SWAP2 POP POP SWAP3 SWAP2 POP POP JUMP JUMPDEST PUSH0 PUSH1 0x20 DUP3 ADD SWAP1 POP DUP2 DUP2 SUB PUSH0 DUP4 ADD MSTORE PUSH2 0x1DD3 DUP2 DUP5 PUSH2 0x1D83 JUMP JUMPDEST SWAP1 POP SWAP3 SWAP2 POP POP JUMP JUMPDEST PUSH0 DUP1 REVERT JUMPDEST PUSH0 DUP1 REVERT JUMPDEST PUSH2 0x1DEC DUP2 PUSH2 0x1C72 JUMP JUMPDEST DUP2 EQ PUSH2 0x1DF6 JUMPI PUSH0 DUP1 REVERT JUMPDEST POP JUMP JUMPDEST PUSH0 DUP2 CALLDATALOAD SWAP1 POP PUSH2 0x1E07 DUP2 PUSH2 0x1DE3 JUMP JUMPDEST SWAP3 SWAP2 POP POP JUMP JUMPDEST PUSH0 DUP2 SWAP1 POP SWAP2 SWAP1 POP JUMP JUMPDEST PUSH2 0x1E1F DUP2 PUSH2 0x1E0D JUMP JUMPDEST DUP2 EQ PUSH2 0x1E29 JUMPI PUSH0 DUP1 REVERT JUMPDEST POP JUMP JUMPDEST PUSH0 DUP2 CALLDATALOAD SWAP1 POP PUSH2 0x1E3A DUP2 PUSH2 0x1E16 JUMP JUMPDEST SWAP3 SWAP2 POP POP JUMP JUMPDEST PUSH0 DUP1 PUSH1 0x40 DUP4 DUP6 SUB SLT ISZERO PUSH2 0x1E56 JUMPI PUSH2 0x1E55 PUSH2 0x1DDB JUMP JUMPDEST JUMPDEST PUSH0 PUSH2 0x1E63 DUP6 DUP3 DUP7 ADD PUSH2 0x1DF9 JUMP JUMPDEST SWAP3 POP POP PUSH1 0x20 PUSH2 0x1E74 DUP6 DUP3 DUP7 ADD PUSH2 0x1E2C JUMP JUMPDEST SWAP2 POP POP SWAP3 POP SWAP3 SWAP1 POP JUMP JUMPDEST PUSH0 DUP2 ISZERO ISZERO SWAP1 POP SWAP2 SWAP1 POP JUMP JUMPDEST PUSH2 0x1E92 DUP2 PUSH2 0x1E7E JUMP JUMPDEST DUP3 MSTORE POP POP JUMP JUMPDEST PUSH0 PUSH1 0x20 DUP3 ADD SWAP1 POP PUSH2 0x1EAB PUSH0 DUP4 ADD DUP5 PUSH2 0x1E89 JUMP JUMPDEST SWAP3 SWAP2 POP POP JUMP JUMPDEST PUSH0 PUSH1 0x20 DUP3 DUP5 SUB SLT ISZERO PUSH2 0x1EC6 JUMPI PUSH2 0x1EC5 PUSH2 0x1DDB JUMP JUMPDEST JUMPDEST PUSH0 PUSH2 0x1ED3 DUP5 DUP3 DUP6 ADD PUSH2 0x1DF9 JUMP JUMPDEST SWAP2 POP POP SWAP3 SWAP2 POP POP JUMP JUMPDEST PUSH2 0x1EE5 DUP2 PUSH2 0x1E0D JUMP JUMPDEST DUP3 MSTORE POP POP JUMP JUMPDEST PUSH0 PUSH1 0x20 DUP3 ADD SWAP1 POP PUSH2 0x1EFE PUSH0 DUP4 ADD DUP5 PUSH2 0x1EDC JUMP JUMPDEST SWAP3 SWAP2 POP POP JUMP JUMPDEST PUSH0 DUP1 PUSH0 PUSH1 0x60 DUP5 DUP7 SUB SLT ISZERO PUSH2 0x1F1B JUMPI PUSH2 0x1F1A PUSH2 0x1DDB JUMP JUMPDEST JUMPDEST PUSH0 PUSH2 0x1F28 DUP7 DUP3 DUP8 ADD PUSH2 0x1DF9 JUMP JUMPDEST SWAP4 POP POP PUSH1 0x20 PUSH2 0x1F39 DUP7 DUP3 DUP8 ADD PUSH2 0x1DF9 JUMP JUMPDEST SWAP3 POP POP PUSH1 0x40 PUSH2 0x1F4A DUP7 DUP3 DUP8 ADD PUSH2 0x1E2C JUMP JUMPDEST SWAP2 POP POP SWAP3 POP SWAP3 POP SWAP3 JUMP JUMPDEST PUSH0 PUSH1 0xFF DUP3 AND SWAP1 POP SWAP2 SWAP1 POP JUMP JUMPDEST PUSH2 0x1F69 DUP2 PUSH2 0x1F54 JUMP JUMPDEST DUP3 MSTORE POP POP JUMP JUMPDEST PUSH0 PUSH1 0x20 DUP3 ADD SWAP1 POP PUSH2 0x1F82 PUSH0 DUP4 ADD DUP5 PUSH2 0x1F60 JUMP JUMPDEST SWAP3 SWAP2 POP POP JUMP JUMPDEST PUSH0 PUSH1 0x20 DUP3 DUP5 SUB SLT ISZERO PUSH2 0x1F9D JUMPI PUSH2 0x1F9C PUSH2 0x1DDB JUMP JUMPDEST JUMPDEST PUSH0 PUSH2 0x1FAA DUP5 DUP3 DUP6 ADD PUSH2 0x1E2C JUMP JUMPDEST SWAP2 POP POP SWAP3 SWAP2 POP POP JUMP JUMPDEST PUSH2 0x1FBC DUP2 PUSH2 0x1C72 JUMP JUMPDEST DUP3 MSTORE POP POP JUMP JUMPDEST PUSH0 PUSH1 0x20 DUP3 ADD SWAP1 POP PUSH2 0x1FD5 PUSH0 DUP4 ADD DUP5 PUSH2 0x1FB3 JUMP JUMPDEST SWAP3 SWAP2 POP POP JUMP JUMPDEST PUSH0 DUP1 REVERT JUMPDEST PUSH0 DUP1 REVERT JUMPDEST PUSH0 DUP1 REVERT JUMPDEST PUSH0 DUP1 DUP4 PUSH1 0x1F DUP5 ADD SLT PUSH2 0x1FFC JUMPI PUSH2 0x1FFB PUSH2 0x1FDB JUMP JUMPDEST JUMPDEST DUP3 CALLDATALOAD SWAP1 POP PUSH8 0xFFFFFFFFFFFFFFFF DUP2 GT ISZERO PUSH2 0x2019 JUMPI PUSH2 0x2018 PUSH2 0x1FDF JUMP JUMPDEST JUMPDEST PUSH1 0x20 DUP4 ADD SWAP2 POP DUP4 PUSH1 0x1 DUP3 MUL DUP4 ADD GT ISZERO PUSH2 0x2035 JUMPI PUSH2 0x2034 PUSH2 0x1FE3 JUMP JUMPDEST JUMPDEST SWAP3 POP SWAP3 SWAP1 POP JUMP JUMPDEST PUSH0 DUP1 PUSH1 0x20 DUP4 DUP6 SUB SLT ISZERO PUSH2 0x2052 JUMPI PUSH2 0x2051 PUSH2 0x1DDB JUMP JUMPDEST JUMPDEST PUSH0 DUP4 ADD CALLDATALOAD PUSH8 0xFFFFFFFFFFFFFFFF DUP2 GT ISZERO PUSH2 0x206F JUMPI PUSH2 0x206E PUSH2 0x1DDF JUMP JUMPDEST JUMPDEST PUSH2 0x207B DUP6 DUP3 DUP7 ADD PUSH2 0x1FE7 JUMP JUMPDEST SWAP3 POP SWAP3 POP POP SWAP3 POP SWAP3 SWAP1 POP JUMP JUMPDEST PUSH0 PUSH1 0x40 DUP3 ADD SWAP1 POP PUSH2 0x209A PUSH0 DUP4 ADD DUP6 PUSH2 0x1EDC JUMP JUMPDEST PUSH2 0x20A7 PUSH1 0x20 DUP4 ADD DUP5 PUSH2 0x1EDC JUMP JUMPDEST SWAP4 SWAP3 POP POP POP JUMP JUMPDEST PUSH0 DUP2 MLOAD SWAP1 POP SWAP2 SWAP1 POP JUMP JUMPDEST PUSH0 DUP3 DUP3 MSTORE PUSH1 0x20 DUP3 ADD SWAP1 POP SWAP3 SWAP2 POP POP JUMP JUMPDEST PUSH0 PUSH2 0x20D2 DUP3 PUSH2 0x20AE JUMP JUMPDEST PUSH2 0x20DC DUP2 DUP6 PUSH2 0x20B8 JUMP JUMPDEST SWAP4 POP PUSH2 0x20EC DUP2 DUP6 PUSH1 0x20 DUP7 ADD PUSH2 0x1D4B JUMP JUMPDEST PUSH2 0x20F5 DUP2 PUSH2 0x1D73 JUMP JUMPDEST DUP5 ADD SWAP2 POP POP SWAP3 SWAP2 POP POP JUMP JUMPDEST PUSH0 PUSH1 0x40 DUP3 ADD SWAP1 POP PUSH2 0x2113 PUSH0 DUP4 ADD DUP6 PUSH2 0x1E89 JUMP JUMPDEST DUP2 DUP2 SUB PUSH1 0x20 DUP4 ADD MSTORE PUSH2 0x2125 DUP2 DUP5 PUSH2 0x20C8 JUMP JUMPDEST SWAP1 POP SWAP4 SWAP3 POP POP POP JUMP JUMPDEST PUSH0 DUP2 SWAP1 POP SWAP2 SWAP1 POP JUMP JUMPDEST PUSH0 PUSH2 0x2151 PUSH2 0x214C PUSH2 0x2147 DUP5 PUSH2 0x1C53 JUMP JUMPDEST PUSH2 0x212E JUMP JUMPDEST PUSH2 0x1C53 JUMP JUMPDEST SWAP1 POP SWAP2 SWAP1 POP JUMP JUMPDEST PUSH0 PUSH2 0x2162 DUP3 PUSH2 0x2137 JUMP JUMPDEST SWAP1 POP SWAP2 SWAP1 POP JUMP JUMPDEST PUSH0 PUSH2 0x2173 DUP3 PUSH2 0x2158 JUMP JUMPDEST SWAP1 POP SWAP2 SWAP1 POP JUMP JUMPDEST PUSH2 0x2183 DUP2 PUSH2 0x2169 JUMP JUMPDEST DUP3 MSTORE POP POP JUMP JUMPDEST PUSH0 PUSH1 0x20 DUP3 ADD SWAP1 POP PUSH2 0x219C PUSH0 DUP4 ADD DUP5 PUSH2 0x217A JUMP JUMPDEST SWAP3 SWAP2 POP POP JUMP JUMPDEST PUSH0 DUP1 PUSH1 0x40 DUP4 DUP6 SUB SLT ISZERO PUSH2 0x21B8 JUMPI PUSH2 0x21B7 PUSH2 0x1DDB JUMP JUMPDEST JUMPDEST PUSH0 PUSH2 0x21C5 DUP6 DUP3 DUP7 ADD PUSH2 0x1DF9 JUMP JUMPDEST SWAP3 POP POP PUSH1 0x20 PUSH2 0x21D6 DUP6 DUP3 DUP7 ADD PUSH2 0x1DF9 JUMP JUMPDEST SWAP2 POP POP SWAP3 POP SWAP3 SWAP1 POP JUMP JUMPDEST PUSH32 0x4E487B7100000000000000000000000000000000000000000000000000000000 PUSH0 MSTORE PUSH1 0x22 PUSH1 0x4 MSTORE PUSH1 0x24 PUSH0 REVERT JUMPDEST PUSH0 PUSH1 0x2 DUP3 DIV SWAP1 POP PUSH1 0x1 DUP3 AND DUP1 PUSH2 0x2224 JUMPI PUSH1 0x7F DUP3 AND SWAP2 POP JUMPDEST PUSH1 0x20 DUP3 LT DUP2 SUB PUSH2 0x2237 JUMPI PUSH2 0x2236 PUSH2 0x21E0 JUMP JUMPDEST JUMPDEST POP SWAP2 SWAP1 POP JUMP JUMPDEST PUSH32 0x4E487B7100000000000000000000000000000000000000000000000000000000 PUSH0 MSTORE PUSH1 0x12 PUSH1 0x4 MSTORE PUSH1 0x24 PUSH0 REVERT JUMPDEST PUSH32 0x4E487B7100000000000000000000000000000000000000000000000000000000 PUSH0 MSTORE PUSH1 0x11 PUSH1 0x4 MSTORE PUSH1 0x24 PUSH0 REVERT JUMPDEST PUSH0 PUSH2 0x22A1 DUP3 PUSH2 0x1E0D JUMP JUMPDEST SWAP2 POP PUSH2 0x22AC DUP4 PUSH2 0x1E0D JUMP JUMPDEST SWAP3 POP DUP3 PUSH2 0x22BC JUMPI PUSH2 0x22BB PUSH2 0x223D JUMP JUMPDEST JUMPDEST DUP3 DUP3 DIV SWAP1 POP SWAP3 SWAP2 POP POP JUMP JUMPDEST PUSH0 PUSH2 0x22D1 DUP3 PUSH2 0x1C53 JUMP JUMPDEST SWAP1 POP SWAP2 SWAP1 POP JUMP JUMPDEST PUSH2 0x22E1 DUP2 PUSH2 0x22C7 JUMP JUMPDEST DUP2 EQ PUSH2 0x22EB JUMPI PUSH0 DUP1 REVERT JUMPDEST POP JUMP JUMPDEST PUSH0 DUP2 CALLDATALOAD SWAP1 POP PUSH2 0x22FC DUP2 PUSH2 0x22D8 JUMP JUMPDEST SWAP3 SWAP2 POP POP JUMP JUMPDEST PUSH0 PUSH1 0x20 DUP3 DUP5 SUB SLT ISZERO PUSH2 0x2317 JUMPI PUSH2 0x2316 PUSH2 0x1DDB JUMP JUMPDEST JUMPDEST PUSH0 PUSH2 0x2324 DUP5 DUP3 DUP6 ADD PUSH2 0x22EE JUMP JUMPDEST SWAP2 POP POP SWAP3 SWAP2 POP POP JUMP JUMPDEST PUSH32 0x55736572206E6F74206C6971756964617461626C650000000000000000000000 PUSH0 DUP3 ADD MSTORE POP JUMP JUMPDEST PUSH0 PUSH2 0x2361 PUSH1 0x15 DUP4 PUSH2 0x1D3B JUMP JUMPDEST SWAP2 POP PUSH2 0x236C DUP3 PUSH2 0x232D JUMP JUMPDEST PUSH1 0x20 DUP3 ADD SWAP1 POP SWAP2 SWAP1 POP JUMP JUMPDEST PUSH0 PUSH1 0x20 DUP3 ADD SWAP1 POP DUP2 DUP2 SUB PUSH0 DUP4 ADD MSTORE PUSH2 0x238E DUP2 PUSH2 0x2355 JUMP JUMPDEST SWAP1 POP SWAP2 SWAP1 POP JUMP JUMPDEST PUSH32 0x4D757374206465706F7369742045544800000000000000000000000000000000 PUSH0 DUP3 ADD MSTORE POP JUMP JUMPDEST PUSH0 PUSH2 0x23C9 PUSH1 0x10 DUP4 PUSH2 0x1D3B JUMP JUMPDEST SWAP2 POP PUSH2 0x23D4 DUP3 PUSH2 0x2395 JUMP JUMPDEST PUSH1 0x20 DUP3 ADD SWAP1 POP SWAP2 SWAP1 POP JUMP JUMPDEST PUSH0 PUSH1 0x20 DUP3 ADD SWAP1 POP DUP2 DUP2 SUB PUSH0 DUP4 ADD MSTORE PUSH2 0x23F6 DUP2 PUSH2 0x23BD JUMP JUMPDEST SWAP1 POP SWAP2 SWAP1 POP JUMP JUMPDEST PUSH0 PUSH2 0x2407 DUP3 PUSH2 0x1E0D JUMP JUMPDEST SWAP2 POP PUSH2 0x2412 DUP4 PUSH2 0x1E0D JUMP JUMPDEST SWAP3 POP DUP3 DUP3 ADD SWAP1 POP DUP1 DUP3 GT ISZERO PUSH2 0x242A JUMPI PUSH2 0x2429 PUSH2 0x226A JUMP JUMPDEST JUMPDEST SWAP3 SWAP2 POP POP JUMP JUMPDEST PUSH32 0x4E487B7100000000000000000000000000000000000000000000000000000000 PUSH0 MSTORE PUSH1 0x32 PUSH1 0x4 MSTORE PUSH1 0x24 PUSH0 REVERT JUMPDEST PUSH32 0x496E73756666696369656E742054415653540000000000000000000000000000 PUSH0 DUP3 ADD MSTORE POP JUMP JUMPDEST PUSH0 PUSH2 0x2491 PUSH1 0x12 DUP4 PUSH2 0x1D3B JUMP JUMPDEST SWAP2 POP PUSH2 0x249C DUP3 PUSH2 0x245D JUMP JUMPDEST PUSH1 0x20 DUP3 ADD SWAP1 POP SWAP2 SWAP1 POP JUMP JUMPDEST PUSH0 PUSH1 0x20 DUP3 ADD SWAP1 POP DUP2 DUP2 SUB PUSH0 DUP4 ADD MSTORE PUSH2 0x24BE DUP2 PUSH2 0x2485 JUMP JUMPDEST SWAP1 POP SWAP2 SWAP1 POP JUMP JUMPDEST PUSH32 0x4E6F7420656E6F75676820636F6C6C61746572616C0000000000000000000000 PUSH0 DUP3 ADD MSTORE POP JUMP JUMPDEST PUSH0 PUSH2 0x24F9 PUSH1 0x15 DUP4 PUSH2 0x1D3B JUMP JUMPDEST SWAP2 POP PUSH2 0x2504 DUP3 PUSH2 0x24C5 JUMP JUMPDEST PUSH1 0x20 DUP3 ADD SWAP1 POP SWAP2 SWAP1 POP JUMP JUMPDEST PUSH0 PUSH1 0x20 DUP3 ADD SWAP1 POP DUP2 DUP2 SUB PUSH0 DUP4 ADD MSTORE PUSH2 0x2526 DUP2 PUSH2 0x24ED JUMP JUMPDEST SWAP1 POP SWAP2 SWAP1 POP JUMP JUMPDEST PUSH0 PUSH2 0x2537 DUP3 PUSH2 0x1E0D JUMP JUMPDEST SWAP2 POP PUSH2 0x2542 DUP4 PUSH2 0x1E0D JUMP JUMPDEST SWAP3 POP DUP3 DUP3 SUB SWAP1 POP DUP2 DUP2 GT ISZERO PUSH2 0x255A JUMPI PUSH2 0x2559 PUSH2 0x226A JUMP JUMPDEST JUMPDEST SWAP3 SWAP2 POP POP JUMP JUMPDEST PUSH0 PUSH10 0xFFFFFFFFFFFFFFFFFFFF DUP3 AND SWAP1 POP SWAP2 SWAP1 POP JUMP JUMPDEST PUSH2 0x257E DUP2 PUSH2 0x2560 JUMP JUMPDEST DUP2 EQ PUSH2 0x2588 JUMPI PUSH0 DUP1 REVERT JUMPDEST POP JUMP JUMPDEST PUSH0 DUP2 MLOAD SWAP1 POP PUSH2 0x2599 DUP2 PUSH2 0x2575 JUMP JUMPDEST SWAP3 SWAP2 POP POP JUMP JUMPDEST PUSH0 DUP2 SWAP1 POP SWAP2 SWAP1 POP JUMP JUMPDEST PUSH2 0x25B1 DUP2 PUSH2 0x259F JUMP JUMPDEST DUP2 EQ PUSH2 0x25BB JUMPI PUSH0 DUP1 REVERT JUMPDEST POP JUMP JUMPDEST PUSH0 DUP2 MLOAD SWAP1 POP PUSH2 0x25CC DUP2 PUSH2 0x25A8 JUMP JUMPDEST SWAP3 SWAP2 POP POP JUMP JUMPDEST PUSH0 DUP2 MLOAD SWAP1 POP PUSH2 0x25E0 DUP2 PUSH2 0x1E16 JUMP JUMPDEST SWAP3 SWAP2 POP POP JUMP JUMPDEST PUSH0 DUP1 PUSH0 DUP1 PUSH0 PUSH1 0xA0 DUP7 DUP9 SUB SLT ISZERO PUSH2 0x25FF JUMPI PUSH2 0x25FE PUSH2 0x1DDB JUMP JUMPDEST JUMPDEST PUSH0 PUSH2 0x260C DUP9 DUP3 DUP10 ADD PUSH2 0x258B JUMP JUMPDEST SWAP6 POP POP PUSH1 0x20 PUSH2 0x261D DUP9 DUP3 DUP10 ADD PUSH2 0x25BE JUMP JUMPDEST SWAP5 POP POP PUSH1 0x40 PUSH2 0x262E DUP9 DUP3 DUP10 ADD PUSH2 0x25D2 JUMP JUMPDEST SWAP4 POP POP PUSH1 0x60 PUSH2 0x263F DUP9 DUP3 DUP10 ADD PUSH2 0x25D2 JUMP JUMPDEST SWAP3 POP POP PUSH1 0x80 PUSH2 0x2650 DUP9 DUP3 DUP10 ADD PUSH2 0x258B JUMP JUMPDEST SWAP2 POP POP SWAP3 SWAP6 POP SWAP3 SWAP6 SWAP1 SWAP4 POP JUMP JUMPDEST PUSH32 0x496E76616C696420707269636500000000000000000000000000000000000000 PUSH0 DUP3 ADD MSTORE POP JUMP JUMPDEST PUSH0 PUSH2 0x2691 PUSH1 0xD DUP4 PUSH2 0x1D3B JUMP JUMPDEST SWAP2 POP PUSH2 0x269C DUP3 PUSH2 0x265D JUMP JUMPDEST PUSH1 0x20 DUP3 ADD SWAP1 POP SWAP2 SWAP1 POP JUMP JUMPDEST PUSH0 PUSH1 0x20 DUP3 ADD SWAP1 POP DUP2 DUP2 SUB PUSH0 DUP4 ADD MSTORE PUSH2 0x26BE DUP2 PUSH2 0x2685 JUMP JUMPDEST SWAP1 POP SWAP2 SWAP1 POP JUMP JUMPDEST PUSH0 DUP2 PUSH1 0x1 SHR SWAP1 POP SWAP2 SWAP1 POP JUMP JUMPDEST PUSH0 DUP1 DUP3 SWAP2 POP DUP4 SWAP1 POP JUMPDEST PUSH1 0x1 DUP6 GT ISZERO PUSH2 0x271A JUMPI DUP1 DUP7 DIV DUP2 GT ISZERO PUSH2 0x26F6 JUMPI PUSH2 0x26F5 PUSH2 0x226A JUMP JUMPDEST JUMPDEST PUSH1 0x1 DUP6 AND ISZERO PUSH2 0x2705 JUMPI DUP1 DUP3 MUL SWAP2 POP JUMPDEST DUP1 DUP2 MUL SWAP1 POP PUSH2 0x2713 DUP6 PUSH2 0x26C5 JUMP JUMPDEST SWAP5 POP PUSH2 0x26DA JUMP JUMPDEST SWAP5 POP SWAP5 SWAP3 POP POP POP JUMP JUMPDEST PUSH0 DUP3 PUSH2 0x2732 JUMPI PUSH1 0x1 SWAP1 POP PUSH2 0x27ED JUMP JUMPDEST DUP2 PUSH2 0x273F JUMPI PUSH0 SWAP1 POP PUSH2 0x27ED JUMP JUMPDEST DUP2 PUSH1 0x1 DUP2 EQ PUSH2 0x2755 JUMPI PUSH1 0x2 DUP2 EQ PUSH2 0x275F JUMPI PUSH2 0x278E JUMP JUMPDEST PUSH1 0x1 SWAP2 POP POP PUSH2 0x27ED JUMP JUMPDEST PUSH1 0xFF DUP5 GT ISZERO PUSH2 0x2771 JUMPI PUSH2 0x2770 PUSH2 0x226A JUMP JUMPDEST JUMPDEST DUP4 PUSH1 0x2 EXP SWAP2 POP DUP5 DUP3 GT ISZERO PUSH2 0x2788 JUMPI PUSH2 0x2787 PUSH2 0x226A JUMP JUMPDEST JUMPDEST POP PUSH2 0x27ED JUMP JUMPDEST POP PUSH1 0x20 DUP4 LT PUSH2 0x133 DUP4 LT AND PUSH1 0x4E DUP5 LT PUSH1 0xB DUP5 LT AND OR ISZERO PUSH2 0x27C3 JUMPI DUP3 DUP3 EXP SWAP1 POP DUP4 DUP2 GT ISZERO PUSH2 0x27BE JUMPI PUSH2 0x27BD PUSH2 0x226A JUMP JUMPDEST JUMPDEST PUSH2 0x27ED JUMP JUMPDEST PUSH2 0x27D0 DUP5 DUP5 DUP5 PUSH1 0x1 PUSH2 0x26D1 JUMP JUMPDEST SWAP3 POP SWAP1 POP DUP2 DUP5 DIV DUP2 GT ISZERO PUSH2 0x27E7 JUMPI PUSH2 0x27E6 PUSH2 0x226A JUMP JUMPDEST JUMPDEST DUP2 DUP2 MUL SWAP1 POP JUMPDEST SWAP4 SWAP3 POP POP POP JUMP JUMPDEST PUSH0 PUSH2 0x27FE DUP3 PUSH2 0x1E0D JUMP JUMPDEST SWAP2 POP PUSH2 0x2809 DUP4 PUSH2 0x1E0D JUMP JUMPDEST SWAP3 POP PUSH2 0x2836 PUSH32 0xFFFFFFFFFFFFFFFFFFFFFFFFFFFFFFFFFFFFFFFFFFFFFFFFFFFFFFFFFFFFFFFF DUP5 DUP5 PUSH2 0x2723 JUMP JUMPDEST SWAP1 POP SWAP3 SWAP2 POP POP JUMP JUMPDEST PUSH0 PUSH2 0x2848 DUP3 PUSH2 0x1E0D JUMP JUMPDEST SWAP2 POP PUSH2 0x2853 DUP4 PUSH2 0x1E0D JUMP JUMPDEST SWAP3 POP DUP3 DUP3 MUL PUSH2 0x2861 DUP2 PUSH2 0x1E0D JUMP JUMPDEST SWAP2 POP DUP3 DUP3 DIV DUP5 EQ DUP4 ISZERO OR PUSH2 0x2878 JUMPI PUSH2 0x2877 PUSH2 0x226A JUMP JUMPDEST JUMPDEST POP SWAP3 SWAP2 POP POP JUMP JUMPDEST PUSH32 0x416D6F756E74206D7573742062652067726561746572207468616E2030000000 PUSH0 DUP3 ADD MSTORE POP JUMP JUMPDEST PUSH0 PUSH2 0x28B3 PUSH1 0x1D DUP4 PUSH2 0x1D3B JUMP JUMPDEST SWAP2 POP PUSH2 0x28BE DUP3 PUSH2 0x287F JUMP JUMPDEST PUSH1 0x20 DUP3 ADD SWAP1 POP SWAP2 SWAP1 POP JUMP JUMPDEST PUSH0 PUSH1 0x20 DUP3 ADD SWAP1 POP DUP2 DUP2 SUB PUSH0 DUP4 ADD MSTORE PUSH2 0x28E0 DUP2 PUSH2 0x28A7 JUMP JUMPDEST SWAP1 POP SWAP2 SWAP1 POP JUMP JUMPDEST PUSH0 PUSH1 0x60 DUP3 ADD SWAP1 POP PUSH2 0x28FA PUSH0 DUP4 ADD DUP7 PUSH2 0x1FB3 JUMP JUMPDEST PUSH2 0x2907 PUSH1 0x20 DUP4 ADD DUP6 PUSH2 0x1EDC JUMP JUMPDEST PUSH2 0x2914 PUSH1 0x40 DUP4 ADD DUP5 PUSH2 0x1EDC JUMP JUMPDEST SWAP5 SWAP4 POP POP POP POP JUMP INVALID LOG2 PUSH5 0x6970667358 0x22 SLT KECCAK256 PUSH2 0xFFFB 0xF7 ADDMOD 0xEF CHAINID NOT GAS MCOPY 0xD7 0xBA 0xE2 NOT SELFDESTRUCT SHL EXTCODESIZE SELFDESTRUCT 0x2A 0xC8 0xED 0xCA 0xBA 0xCA EQ GT SWAP14 PUSH11 0xA0017B4564736F6C634300 ADDMOD XOR STOP CALLER "
				},
				"gasEstimates": {
					"creation": {
						"codeDepositCost": "2115600",
						"executionCost": "infinite",
						"totalCost": "infinite"
					},
					"external": {
						"COLLATERAL_RATIO()": "369",
						"DATAFEED_PRICE_DECIMALS()": "392",
						"DECIMALS_FACTOR()": "413",
						"allowance(address,address)": "infinite",
						"approve(address,uint256)": "infinite",
						"balanceOf(address)": "2852",
						"burnAndWithdraw(uint256)": "infinite",
						"checkUpkeep(bytes)": "infinite",
						"decimals()": "384",
						"depositAndMint()": "infinite",
						"estimateMintAmount(uint256)": "infinite",
						"estimateWithdrawETH(uint256)": "infinite",
						"getCollateralRatio(address)": "infinite",
						"getLatestPrice()": "infinite",
						"getUserCollateralUSD(address)": "infinite",
						"getUsers()": "infinite",
						"liquidationAddress()": "2597",
						"name()": "infinite",
						"performUpkeep(bytes)": "infinite",
						"positions(address)": "infinite",
						"priceFeed()": "infinite",
						"symbol()": "infinite",
						"totalSupply()": "2544",
						"transfer(address,uint256)": "infinite",
						"transferFrom(address,address,uint256)": "infinite",
						"users(uint256)": "5012"
					}
				},
				"methodIdentifiers": {
					"COLLATERAL_RATIO()": "d9e69a05",
					"DATAFEED_PRICE_DECIMALS()": "75b1475d",
					"DECIMALS_FACTOR()": "e36b72c6",
					"allowance(address,address)": "dd62ed3e",
					"approve(address,uint256)": "095ea7b3",
					"balanceOf(address)": "70a08231",
					"burnAndWithdraw(uint256)": "7c695cc1",
					"checkUpkeep(bytes)": "6e04ff0d",
					"decimals()": "313ce567",
					"depositAndMint()": "663837db",
					"estimateMintAmount(uint256)": "b5fbc7a0",
					"estimateWithdrawETH(uint256)": "b855fa5b",
					"getCollateralRatio(address)": "15a3ba43",
					"getLatestPrice()": "8e15f473",
					"getUserCollateralUSD(address)": "e5c338ee",
					"getUsers()": "00ce8e3e",
					"liquidationAddress()": "6c09395e",
					"name()": "06fdde03",
					"performUpkeep(bytes)": "4585e33b",
					"positions(address)": "55f57510",
					"priceFeed()": "741bef1a",
					"symbol()": "95d89b41",
					"totalSupply()": "18160ddd",
					"transfer(address,uint256)": "a9059cbb",
					"transferFrom(address,address,uint256)": "23b872dd",
					"users(uint256)": "365b98b2"
				}
			},
			"storageLayout": {
				"storage": [
					{
						"astId": 273,
						"contract": "TavsStable.sol:TAVSStable",
						"label": "_balances",
						"offset": 0,
						"slot": "0",
						"type": "t_mapping(t_address,t_uint256)"
					},
					{
						"astId": 279,
						"contract": "TavsStable.sol:TAVSStable",
						"label": "_allowances",
						"offset": 0,
						"slot": "1",
						"type": "t_mapping(t_address,t_mapping(t_address,t_uint256))"
					},
					{
						"astId": 281,
						"contract": "TavsStable.sol:TAVSStable",
						"label": "_totalSupply",
						"offset": 0,
						"slot": "2",
						"type": "t_uint256"
					},
					{
						"astId": 283,
						"contract": "TavsStable.sol:TAVSStable",
						"label": "_name",
						"offset": 0,
						"slot": "3",
						"type": "t_string_storage"
					},
					{
						"astId": 285,
						"contract": "TavsStable.sol:TAVSStable",
						"label": "_symbol",
						"offset": 0,
						"slot": "4",
						"type": "t_string_storage"
					},
					{
						"astId": 912,
						"contract": "TavsStable.sol:TAVSStable",
						"label": "priceFeed",
						"offset": 0,
						"slot": "5",
						"type": "t_contract(AggregatorV3Interface)113"
					},
					{
						"astId": 923,
						"contract": "TavsStable.sol:TAVSStable",
						"label": "liquidationAddress",
						"offset": 0,
						"slot": "6",
						"type": "t_address"
					},
					{
						"astId": 933,
						"contract": "TavsStable.sol:TAVSStable",
						"label": "positions",
						"offset": 0,
						"slot": "7",
						"type": "t_mapping(t_address,t_struct(Position)928_storage)"
					},
					{
						"astId": 936,
						"contract": "TavsStable.sol:TAVSStable",
						"label": "users",
						"offset": 0,
						"slot": "8",
						"type": "t_array(t_address)dyn_storage"
					},
					{
						"astId": 940,
						"contract": "TavsStable.sol:TAVSStable",
						"label": "userExists",
						"offset": 0,
						"slot": "9",
						"type": "t_mapping(t_address,t_bool)"
					}
				],
				"types": {
					"t_address": {
						"encoding": "inplace",
						"label": "address",
						"numberOfBytes": "20"
					},
					"t_array(t_address)dyn_storage": {
						"base": "t_address",
						"encoding": "dynamic_array",
						"label": "address[]",
						"numberOfBytes": "32"
					},
					"t_bool": {
						"encoding": "inplace",
						"label": "bool",
						"numberOfBytes": "1"
					},
					"t_contract(AggregatorV3Interface)113": {
						"encoding": "inplace",
						"label": "contract AggregatorV3Interface",
						"numberOfBytes": "20"
					},
					"t_mapping(t_address,t_bool)": {
						"encoding": "mapping",
						"key": "t_address",
						"label": "mapping(address => bool)",
						"numberOfBytes": "32",
						"value": "t_bool"
					},
					"t_mapping(t_address,t_mapping(t_address,t_uint256))": {
						"encoding": "mapping",
						"key": "t_address",
						"label": "mapping(address => mapping(address => uint256))",
						"numberOfBytes": "32",
						"value": "t_mapping(t_address,t_uint256)"
					},
					"t_mapping(t_address,t_struct(Position)928_storage)": {
						"encoding": "mapping",
						"key": "t_address",
						"label": "mapping(address => struct TAVSStable.Position)",
						"numberOfBytes": "32",
						"value": "t_struct(Position)928_storage"
					},
					"t_mapping(t_address,t_uint256)": {
						"encoding": "mapping",
						"key": "t_address",
						"label": "mapping(address => uint256)",
						"numberOfBytes": "32",
						"value": "t_uint256"
					},
					"t_string_storage": {
						"encoding": "bytes",
						"label": "string",
						"numberOfBytes": "32"
					},
					"t_struct(Position)928_storage": {
						"encoding": "inplace",
						"label": "struct TAVSStable.Position",
						"members": [
							{
								"astId": 925,
								"contract": "TavsStable.sol:TAVSStable",
								"label": "collateralETH",
								"offset": 0,
								"slot": "0",
								"type": "t_uint256"
							},
							{
								"astId": 927,
								"contract": "TavsStable.sol:TAVSStable",
								"label": "stablecoinDebt",
								"offset": 0,
								"slot": "1",
								"type": "t_uint256"
							}
						],
						"numberOfBytes": "64"
					},
					"t_uint256": {
						"encoding": "inplace",
						"label": "uint256",
						"numberOfBytes": "32"
					}
				}
			},
			"userdoc": {
				"kind": "user",
				"methods": {
					"performUpkeep(bytes)": {
						"notice": "method that is actually executed by the keepers, via the registry. The data returned by the checkUpkeep simulation will be passed into this method to actually be executed."
					}
				},
				"version": 1
			}
		}
	}
}